{
  "contractName": "Blackjack",
  "abi": [
    {
      "inputs": [],
      "stateMutability": "nonpayable",
      "type": "constructor"
    },
    {
      "inputs": [],
      "name": "balanceChecker",
      "outputs": [
        {
          "internalType": "bool",
          "name": "",
          "type": "bool"
        }
      ],
      "stateMutability": "view",
      "type": "function",
      "constant": true
    },
    {
      "inputs": [],
      "name": "inputChecked",
      "outputs": [
        {
          "internalType": "bool",
          "name": "",
          "type": "bool"
        }
      ],
      "stateMutability": "view",
      "type": "function",
      "constant": true
    },
    {
      "inputs": [],
      "name": "owner",
      "outputs": [
        {
          "internalType": "address",
          "name": "",
          "type": "address"
        }
      ],
      "stateMutability": "view",
      "type": "function",
      "constant": true
    },
    {
      "inputs": [],
      "name": "playerAddress",
      "outputs": [
        {
          "internalType": "address payable",
          "name": "",
          "type": "address"
        }
      ],
      "stateMutability": "view",
      "type": "function",
      "constant": true
    },
    {
      "inputs": [],
      "name": "startGame",
      "outputs": [],
      "stateMutability": "nonpayable",
      "type": "function"
    },
    {
      "inputs": [
        {
          "internalType": "address",
          "name": "newOwner",
          "type": "address"
        }
      ],
      "name": "transferOwnerShip",
      "outputs": [],
      "stateMutability": "nonpayable",
      "type": "function"
    },
    {
      "inputs": [
        {
          "internalType": "address payable",
          "name": "addrs",
          "type": "address"
        }
      ],
      "name": "getBalance",
      "outputs": [
        {
          "internalType": "uint256",
          "name": "",
          "type": "uint256"
        }
      ],
      "stateMutability": "nonpayable",
      "type": "function"
    },
    {
      "inputs": [],
      "name": "checkBalance",
      "outputs": [
        {
          "internalType": "bool",
          "name": "",
          "type": "bool"
        }
      ],
      "stateMutability": "nonpayable",
      "type": "function"
    },
    {
      "inputs": [
        {
          "internalType": "uint256",
          "name": "input",
          "type": "uint256"
        }
      ],
      "name": "checkInput",
      "outputs": [
        {
          "internalType": "bool",
          "name": "",
          "type": "bool"
        }
      ],
      "stateMutability": "nonpayable",
      "type": "function"
    },
    {
      "inputs": [
        {
          "internalType": "string",
          "name": "a",
          "type": "string"
        },
        {
          "internalType": "string",
          "name": "b",
          "type": "string"
        }
      ],
      "name": "compareStrings",
      "outputs": [
        {
          "internalType": "bool",
          "name": "",
          "type": "bool"
        }
      ],
      "stateMutability": "pure",
      "type": "function",
      "constant": true
    },
    {
      "inputs": [
        {
          "internalType": "string",
          "name": "s",
          "type": "string"
        }
      ],
      "name": "stringToUint",
      "outputs": [
        {
          "internalType": "uint256",
          "name": "",
          "type": "uint256"
        }
      ],
      "stateMutability": "pure",
      "type": "function",
      "constant": true
    },
    {
      "inputs": [
        {
          "internalType": "string",
          "name": "card",
          "type": "string"
        }
      ],
      "name": "createUrlForUI",
      "outputs": [
        {
          "internalType": "string",
          "name": "",
          "type": "string"
        }
      ],
      "stateMutability": "pure",
      "type": "function",
      "constant": true
    },
    {
      "inputs": [],
      "name": "showPlayerCardvalue",
      "outputs": [
        {
          "internalType": "uint256[]",
          "name": "",
          "type": "uint256[]"
        }
      ],
      "stateMutability": "view",
      "type": "function",
      "constant": true
    },
    {
      "inputs": [],
      "name": "showPlayerCardUrls",
      "outputs": [
        {
          "internalType": "string[]",
          "name": "",
          "type": "string[]"
        }
      ],
      "stateMutability": "view",
      "type": "function",
      "constant": true
    },
    {
      "inputs": [],
      "name": "showDealerCardvalue",
      "outputs": [
        {
          "internalType": "uint256[]",
          "name": "",
          "type": "uint256[]"
        }
      ],
      "stateMutability": "view",
      "type": "function",
      "constant": true
    },
    {
      "inputs": [],
      "name": "showDealerCardUrls",
      "outputs": [
        {
          "internalType": "string[]",
          "name": "",
          "type": "string[]"
        }
      ],
      "stateMutability": "view",
      "type": "function",
      "constant": true
    },
    {
      "inputs": [],
      "name": "givetwoCardsToPlayer",
      "outputs": [],
      "stateMutability": "nonpayable",
      "type": "function"
    },
    {
      "inputs": [],
      "name": "givetwoCardsToDealer",
      "outputs": [],
      "stateMutability": "nonpayable",
      "type": "function"
    },
    {
      "inputs": [],
      "name": "showDealerCounter",
      "outputs": [
        {
          "internalType": "uint256",
          "name": "",
          "type": "uint256"
        }
      ],
      "stateMutability": "view",
      "type": "function",
      "constant": true
    },
    {
      "inputs": [],
      "name": "showPlayerCounter",
      "outputs": [
        {
          "internalType": "uint256",
          "name": "",
          "type": "uint256"
        }
      ],
      "stateMutability": "view",
      "type": "function",
      "constant": true
    },
    {
      "inputs": [],
      "name": "sumOfCards",
      "outputs": [],
      "stateMutability": "nonpayable",
      "type": "function"
    },
    {
      "inputs": [
        {
          "internalType": "uint256",
          "name": "num",
          "type": "uint256"
        }
      ],
      "name": "checkValue",
      "outputs": [
        {
          "internalType": "uint256",
          "name": "",
          "type": "uint256"
        }
      ],
      "stateMutability": "pure",
      "type": "function",
      "constant": true
    },
    {
      "inputs": [],
      "name": "generateTwoRandomNumbersToPlayer",
      "outputs": [],
      "stateMutability": "nonpayable",
      "type": "function"
    },
    {
      "inputs": [],
      "name": "generateTwoRandomNumbersToDealer",
      "outputs": [],
      "stateMutability": "nonpayable",
      "type": "function"
    },
    {
      "inputs": [],
      "name": "getRandomCardValueToPlayer",
      "outputs": [],
      "stateMutability": "nonpayable",
      "type": "function"
    },
    {
      "inputs": [],
      "name": "dealerCardDistributer",
      "outputs": [],
      "stateMutability": "nonpayable",
      "type": "function"
    },
    {
      "inputs": [],
      "name": "getRandomCardValueToDealer",
      "outputs": [],
      "stateMutability": "nonpayable",
      "type": "function"
    },
    {
      "inputs": [],
      "name": "getRandomRank",
      "outputs": [
        {
          "internalType": "uint256",
          "name": "",
          "type": "uint256"
        }
      ],
      "stateMutability": "view",
      "type": "function",
      "constant": true
    },
    {
      "inputs": [],
      "name": "getRandomSuit",
      "outputs": [
        {
          "internalType": "uint256",
          "name": "",
          "type": "uint256"
        }
      ],
      "stateMutability": "view",
      "type": "function",
      "constant": true
    },
    {
      "inputs": [],
      "name": "finishGiveCard",
      "outputs": [],
      "stateMutability": "nonpayable",
      "type": "function"
    },
    {
      "inputs": [],
      "name": "paymentToPlayer",
      "outputs": [],
      "stateMutability": "payable",
      "type": "function",
      "payable": true
    }
  ],
  "bytecode": "0x6080604052678ac7230489e80000600255662386f26fc10000600355670de0b6b3a764000060045560405180608001604052806040518060400160405280600181526020017f480000000000000000000000000000000000000000000000000000000000000081525081526020016040518060400160405280600181526020017f530000000000000000000000000000000000000000000000000000000000000081525081526020016040518060400160405280600181526020017f440000000000000000000000000000000000000000000000000000000000000081525081526020016040518060400160405280600181526020017f430000000000000000000000000000000000000000000000000000000000000081525081525060059060046200012e929190620005a7565b50604051806101a001604052806040518060400160405280600181526020017f410000000000000000000000000000000000000000000000000000000000000081525081526020016040518060400160405280600181526020017f320000000000000000000000000000000000000000000000000000000000000081525081526020016040518060400160405280600181526020017f330000000000000000000000000000000000000000000000000000000000000081525081526020016040518060400160405280600181526020017f340000000000000000000000000000000000000000000000000000000000000081525081526020016040518060400160405280600181526020017f350000000000000000000000000000000000000000000000000000000000000081525081526020016040518060400160405280600181526020017f360000000000000000000000000000000000000000000000000000000000000081525081526020016040518060400160405280600181526020017f370000000000000000000000000000000000000000000000000000000000000081525081526020016040518060400160405280600181526020017f380000000000000000000000000000000000000000000000000000000000000081525081526020016040518060400160405280600181526020017f390000000000000000000000000000000000000000000000000000000000000081525081526020016040518060400160405280600181526020017f300000000000000000000000000000000000000000000000000000000000000081525081526020016040518060400160405280600181526020017f4a0000000000000000000000000000000000000000000000000000000000000081525081526020016040518060400160405280600181526020017f510000000000000000000000000000000000000000000000000000000000000081525081526020016040518060400160405280600181526020017f4b00000000000000000000000000000000000000000000000000000000000000815250815250600690600d6200044a92919062000607565b506000600b60006101000a81548160ff0219169083151502179055506000600b60016101000a81548160ff0219169083151502179055506000600b60026101000a81548160ff0219169083151502179055506001600b60046101000a81548160ff0219169083151502179055506000600c556000600d556000600e60006101000a81548160ff0219169083151502179055506000600e60016101000a81548160ff0219169083151502179055506001600e60026101000a81548160ff0219169083151502179055506000600e60036101000a81548160ff0219169083151502179055506000600e60046101000a81548160ff0219169083151502179055506001600f5560006010553480156200055f57600080fd5b5033600160006101000a81548173ffffffffffffffffffffffffffffffffffffffff021916908373ffffffffffffffffffffffffffffffffffffffff16021790555062000a55565b828054828255906000526020600020908101928215620005f4579160200282015b82811115620005f3578251829081620005e291906200096e565b5091602001919060010190620005c8565b5b50905062000603919062000667565b5090565b82805482825590600052602060002090810192821562000654579160200282015b82811115620006535782518290816200064291906200096e565b509160200191906001019062000628565b5b50905062000663919062000667565b5090565b5b808211156200068b57600081816200068191906200068f565b5060010162000668565b5090565b5080546200069d906200075d565b6000825580601f10620006b15750620006d2565b601f016020900490600052602060002090810190620006d19190620006d5565b5b50565b5b80821115620006f0576000816000905550600101620006d6565b5090565b600081519050919050565b7f4e487b7100000000000000000000000000000000000000000000000000000000600052604160045260246000fd5b7f4e487b7100000000000000000000000000000000000000000000000000000000600052602260045260246000fd5b600060028204905060018216806200077657607f821691505b6020821081036200078c576200078b6200072e565b5b50919050565b60008190508160005260206000209050919050565b60006020601f8301049050919050565b600082821b905092915050565b600060088302620007f67fffffffffffffffffffffffffffffffffffffffffffffffffffffffffffffffff82620007b7565b620008028683620007b7565b95508019841693508086168417925050509392505050565b6000819050919050565b6000819050919050565b60006200084f6200084962000843846200081a565b62000824565b6200081a565b9050919050565b6000819050919050565b6200086b836200082e565b620008836200087a8262000856565b848454620007c4565b825550505050565b600090565b6200089a6200088b565b620008a781848462000860565b505050565b5b81811015620008cf57620008c360008262000890565b600181019050620008ad565b5050565b601f8211156200091e57620008e88162000792565b620008f384620007a7565b8101602085101562000903578190505b6200091b6200091285620007a7565b830182620008ac565b50505b505050565b600082821c905092915050565b6000620009436000198460080262000923565b1980831691505092915050565b60006200095e838362000930565b9150826002028217905092915050565b6200097982620006f4565b67ffffffffffffffff811115620009955762000994620006ff565b5b620009a182546200075d565b620009ae828285620008d3565b600060209050601f831160018114620009e65760008415620009d1578287015190505b620009dd858262000950565b86555062000a4d565b601f198416620009f68662000792565b60005b8281101562000a2057848901518255600182019150602085019450602081019050620009f9565b8683101562000a40578489015162000a3c601f89168262000930565b8355505b6001600288020188555050505b505050505050565b6135c58062000a656000396000f3fe6080604052600436106101d85760003560e01c80638da5cb5b11610102578063c71daccb11610095578063e9a5073011610064578063e9a50730146105e9578063ecd65c0f14610614578063ef6e17681461063f578063f8b2cb4f14610656576101d8565b8063c71daccb14610565578063d0498cdb14610590578063d65ab5f2146105bb578063e07c5445146105d2576101d8565b8063a146bf7a116100d1578063a146bf7a146104bb578063a54c14f8146104e6578063b8cf58ed14610511578063bed34bba14610528576101d8565b80638da5cb5b1461040f5780638e3411b31461043a5780638ec4ebd7146104655780639d8c6cfb14610490576101d8565b806328440b471161017a57806373b9863d1161014957806373b9863d1461038d5780638863dd1a146103a457806388eb3a37146103cd5780638c171a09146103f8576101d8565b806328440b471461030457806351e488b51461031b578063545e0dde1461032557806363a20a8214610350576101d8565b806318db62fb116101b657806318db62fb1461025c5780631bd95155146102995780631cd7e64b146102d657806323820caa146102ed576101d8565b8063021b8a7f146101dd578063090e15d61461021a57806313c43ab014610231575b600080fd5b3480156101e957600080fd5b5061020460048036038101906101ff919061282a565b610693565b6040516102119190612872565b60405180910390f35b34801561022657600080fd5b5061022f610705565b005b34801561023d57600080fd5b5061024661070f565b6040516102539190612872565b60405180910390f35b34801561026857600080fd5b50610283600480360381019061027e919061282a565b610722565b604051610290919061289c565b60405180910390f35b3480156102a557600080fd5b506102c060048036038101906102bb91906129fd565b61073e565b6040516102cd919061289c565b60405180910390f35b3480156102e257600080fd5b506102eb6107d6565b005b3480156102f957600080fd5b50610302610816565b005b34801561031057600080fd5b50610319610820565b005b610323610e42565b005b34801561033157600080fd5b5061033a610f0c565b604051610347919061289c565b60405180910390f35b34801561035c57600080fd5b50610377600480360381019061037291906129fd565b610f16565b6040516103849190612ac5565b60405180910390f35b34801561039957600080fd5b506103a2610fa2565b005b3480156103b057600080fd5b506103cb60048036038101906103c69190612b45565b6115b8565b005b3480156103d957600080fd5b506103e261168c565b6040516103ef9190612c30565b60405180910390f35b34801561040457600080fd5b5061040d6116e4565b005b34801561041b57600080fd5b5061042461173e565b6040516104319190612c61565b60405180910390f35b34801561044657600080fd5b5061044f611764565b60405161045c9190612d88565b60405180910390f35b34801561047157600080fd5b5061047a61183d565b6040516104879190612c30565b60405180910390f35b34801561049c57600080fd5b506104a5611895565b6040516104b29190612872565b60405180910390f35b3480156104c757600080fd5b506104d06118a8565b6040516104dd9190612dcb565b60405180910390f35b3480156104f257600080fd5b506104fb6118cc565b604051610508919061289c565b60405180910390f35b34801561051d57600080fd5b50610526611910565b005b34801561053457600080fd5b5061054f600480360381019061054a9190612de6565b611b57565b60405161055c9190612872565b60405180910390f35b34801561057157600080fd5b5061057a611bb0565b6040516105879190612872565b60405180910390f35b34801561059c57600080fd5b506105a5611c43565b6040516105b2919061289c565b60405180910390f35b3480156105c757600080fd5b506105d0611c4d565b005b3480156105de57600080fd5b506105e7611dea565b005b3480156105f557600080fd5b506105fe612063565b60405161060b919061289c565b60405180910390f35b34801561062057600080fd5b506106296120a7565b6040516106369190612d88565b60405180910390f35b34801561064b57600080fd5b50610654612180565b005b34801561066257600080fd5b5061067d60048036038101906106789190612e8a565b612254565b60405161068a919061289c565b60405180910390f35b60006003548210806106a6575060045482115b156106cb576000600b60046101000a81548160ff0219169083151502179055506106ee565b6001600b60046101000a81548160ff021916908315150217905550816010819055505b600b60049054906101000a900460ff169050919050565b61070d610820565b565b600b60049054906101000a900460ff1681565b6000600a821061073557600a9050610739565b8190505b919050565b6000808290506000805b82518110156107cb57600083828151811061076657610765612eb7565b5b602001015160f81c60f81b60f81c60ff1690506030811015801561078b575060398111155b156107b75760308161079d9190612f15565b600a846107aa9190612f49565b6107b49190612f8b565b92505b5080806107c390612fbf565b915050610748565b508092505050919050565b6000600e60026101000a81548160ff0219169083151502179055506001600e60036101000a81548160ff0219169083151502179055506108146116e4565b565b61081e610fa2565b565b6000600d4244604051602001610837929190613028565b6040516020818303038152906040528051906020012060001c61085a9190613083565b90506000600d4543604051602001610873929190613028565b6040516020818303038152906040528051906020012060001c6108969190613083565b90506000600442446040516020016108af929190613028565b6040516020818303038152906040528051906020012060001c6108d29190613083565b90506000600445436040516020016108eb929190613028565b6040516020818303038152906040528051906020012060001c61090e9190613083565b905060006006858154811061092657610925612eb7565b5b90600052602060002001805461093b906130e3565b80601f0160208091040260200160405190810160405280929190818152602001828054610967906130e3565b80156109b45780601f10610989576101008083540402835291602001916109b4565b820191906000526020600020905b81548152906001019060200180831161099757829003601f168201915b505050505090506000600685815481106109d1576109d0612eb7565b5b9060005260206000200180546109e6906130e3565b80601f0160208091040260200160405190810160405280929190818152602001828054610a12906130e3565b8015610a5f5780601f10610a3457610100808354040283529160200191610a5f565b820191906000526020600020905b815481529060010190602001808311610a4257829003601f168201915b505050505090506007610a7d600188610a789190612f8b565b610722565b90806001815401808255809150506001900390600052602060002001600090919091909150556007610aba600187610ab59190612f8b565b610722565b908060018154018082558091505060019003906000526020600020016000909190919091505560016007600081548110610af757610af6612eb7565b5b9060005260206000200154148015610b2e5750600a6007600181548110610b2157610b20612eb7565b5b9060005260206000200154145b80610b83575060016007600181548110610b4b57610b4a612eb7565b5b9060005260206000200154148015610b825750600a6007600081548110610b7557610b74612eb7565b5b9060005260206000200154145b5b15610c12576001600b60006101000a81548160ff0219169083151502179055506000600e60006101000a81548160ff0219169083151502179055506001600e60016101000a81548160ff0219169083151502179055506001600e60046101000a81548160ff02191690831515021790555060026003610c029190613114565b600f81905550610c106122d5565b505b600060058581548110610c2857610c27612eb7565b5b906000526020600020018054610c3d906130e3565b80601f0160208091040260200160405190810160405280929190818152602001828054610c69906130e3565b8015610cb65780601f10610c8b57610100808354040283529160200191610cb6565b820191906000526020600020905b815481529060010190602001808311610c9957829003601f168201915b50505050509050600060058581548110610cd357610cd2612eb7565b5b906000526020600020018054610ce8906130e3565b80601f0160208091040260200160405190810160405280929190818152602001828054610d14906130e3565b8015610d615780601f10610d3657610100808354040283529160200191610d61565b820191906000526020600020905b815481529060010190602001808311610d4457829003601f168201915b505050505090506000610d948584604051602001610d80929190613181565b604051602081830303815290604052610f16565b90506000610dc28584604051602001610dae929190613181565b604051602081830303815290604052610f16565b9050600882908060018154018082558091505060019003906000526020600020016000909190919091509081610df89190613351565b50600881908060018154018082558091505060019003906000526020600020016000909190919091509081610e2d9190613351565b50610e36612180565b50505050505050505050565b600f54601054610e529190612f49565b471015610e94576040517f08c379a0000000000000000000000000000000000000000000000000000000008152600401610e8b90613495565b60405180910390fd5b60008054906101000a900473ffffffffffffffffffffffffffffffffffffffff1673ffffffffffffffffffffffffffffffffffffffff166108fc600f54601054610ede9190612f49565b9081150290604051600060405180830381858888f19350505050158015610f09573d6000803e3d6000fd5b50565b6000600c54905090565b6060600060405180606001604052806026815260200161356a60269139905060006040518060400160405280600481526020017f2e706e670000000000000000000000000000000000000000000000000000000081525090506000828583604051602001610f86939291906134b5565b6040516020818303038152906040529050809350505050919050565b6000600d4244604051602001610fb9929190613028565b6040516020818303038152906040528051906020012060001c610fdc9190613083565b90506000600d4543604051602001610ff5929190613028565b6040516020818303038152906040528051906020012060001c6110189190613083565b9050600060044244604051602001611031929190613028565b6040516020818303038152906040528051906020012060001c6110549190613083565b905060006004454360405160200161106d929190613028565b6040516020818303038152906040528051906020012060001c6110909190613083565b90506000600685815481106110a8576110a7612eb7565b5b9060005260206000200180546110bd906130e3565b80601f01602080910402602001604051908101604052809291908181526020018280546110e9906130e3565b80156111365780601f1061110b57610100808354040283529160200191611136565b820191906000526020600020905b81548152906001019060200180831161111957829003601f168201915b5050505050905060006006858154811061115357611152612eb7565b5b906000526020600020018054611168906130e3565b80601f0160208091040260200160405190810160405280929190818152602001828054611194906130e3565b80156111e15780601f106111b6576101008083540402835291602001916111e1565b820191906000526020600020905b8154815290600101906020018083116111c457829003601f168201915b5050505050905060096111ff6001886111fa9190612f8b565b610722565b9080600181540180825580915050600190039060005260206000200160009091909190915055600961123c6001876112379190612f8b565b610722565b90806001815401808255809150506001900390600052602060002001600090919091909150556001600960008154811061127957611278612eb7565b5b90600052602060002001541480156112b05750600a60096001815481106112a3576112a2612eb7565b5b9060005260206000200154145b806113055750600160096001815481106112cd576112cc612eb7565b5b90600052602060002001541480156113045750600a60096000815481106112f7576112f6612eb7565b5b9060005260206000200154145b5b15611388576001600b60016101000a81548160ff0219169083151502179055506001600e60006101000a81548160ff0219169083151502179055506000600e60016101000a81548160ff0219169083151502179055506001600e60046101000a81548160ff0219169083151502179055506001600f819055506113866122d5565b505b60006005858154811061139e5761139d612eb7565b5b9060005260206000200180546113b3906130e3565b80601f01602080910402602001604051908101604052809291908181526020018280546113df906130e3565b801561142c5780601f106114015761010080835404028352916020019161142c565b820191906000526020600020905b81548152906001019060200180831161140f57829003601f168201915b5050505050905060006005858154811061144957611448612eb7565b5b90600052602060002001805461145e906130e3565b80601f016020809104026020016040519081016040528092919081815260200182805461148a906130e3565b80156114d75780601f106114ac576101008083540402835291602001916114d7565b820191906000526020600020905b8154815290600101906020018083116114ba57829003601f168201915b50505050509050600061150a85846040516020016114f6929190613181565b604051602081830303815290604052610f16565b905060006115388584604051602001611524929190613181565b604051602081830303815290604052610f16565b9050600a8290806001815401808255809150506001900390600052602060002001600090919091909150908161156e9190613351565b50600a819080600181540180825580915050600190039060005260206000200160009091909190915090816115a39190613351565b506115ac612180565b50505050505050505050565b600160009054906101000a900473ffffffffffffffffffffffffffffffffffffffff1673ffffffffffffffffffffffffffffffffffffffff163373ffffffffffffffffffffffffffffffffffffffff1614611648576040517f08c379a000000000000000000000000000000000000000000000000000000000815260040161163f90613532565b60405180910390fd5b80600160006101000a81548173ffffffffffffffffffffffffffffffffffffffff021916908373ffffffffffffffffffffffffffffffffffffffff16021790555050565b606060078054806020026020016040519081016040528092919081815260200182805480156116da57602002820191906000526020600020905b8154815260200190600101908083116116c6575b5050505050905090565b5b6011600d5410156116fd576116f8611910565b6116e5565b6000600e60036101000a81548160ff0219169083151502179055506001600e60046101000a81548160ff02191690831515021790555061173b6122d5565b50565b600160009054906101000a900473ffffffffffffffffffffffffffffffffffffffff1681565b6060600a805480602002602001604051908101604052809291908181526020016000905b828210156118345783829060005260206000200180546117a7906130e3565b80601f01602080910402602001604051908101604052809291908181526020018280546117d3906130e3565b80156118205780601f106117f557610100808354040283529160200191611820565b820191906000526020600020905b81548152906001019060200180831161180357829003601f168201915b505050505081526020019060010190611788565b50505050905090565b6060600980548060200260200160405190810160405280929190818152602001828054801561188b57602002820191906000526020600020905b815481526020019060010190808311611877575b5050505050905090565b600b60039054906101000a900460ff1681565b60008054906101000a900473ffffffffffffffffffffffffffffffffffffffff1681565b600080600d42446040516020016118e4929190613028565b6040516020818303038152906040528051906020012060001c6119079190613083565b90508091505090565b6000600661191c6118cc565b8154811061192d5761192c612eb7565b5b906000526020600020018054611942906130e3565b80601f016020809104026020016040519081016040528092919081815260200182805461196e906130e3565b80156119bb5780601f10611990576101008083540402835291602001916119bb565b820191906000526020600020905b81548152906001019060200180831161199e57829003601f168201915b50505050509050600060056119ce612063565b815481106119df576119de612eb7565b5b9060005260206000200180546119f4906130e3565b80601f0160208091040260200160405190810160405280929190818152602001828054611a20906130e3565b8015611a6d5780601f10611a4257610100808354040283529160200191611a6d565b820191906000526020600020905b815481529060010190602001808311611a5057829003601f168201915b5050505050905060008282604051602001611a89929190613181565b60405160208183030381529060405290506009611aa584612661565b9080600181540180825580915050600190039060005260206000200160009091909190915055600a81908060018154018082558091505060019003906000526020600020016000909190919091509081611aff9190613351565b50611b08612180565b6015600d541115611b52576001600e60016101000a81548160ff0219169083151502179055506000600e60006101000a81548160ff0219169083151502179055506001600f819055505b505050565b600081604051602001611b6a9190613552565b6040516020818303038152906040528051906020012083604051602001611b919190613552565b6040516020818303038152906040528051906020012014905092915050565b600060025460008054906101000a900473ffffffffffffffffffffffffffffffffffffffff1673ffffffffffffffffffffffffffffffffffffffff163110611c12576001600b60036101000a81548160ff021916908315150217905550611c2e565b6000600b60036101000a81548160ff0219169083151502179055505b600b60039054906101000a900460ff16905090565b6000600d54905090565b611c55610705565b611c5d610816565b600b60019054906101000a900460ff168015611c855750600b60009054906101000a900460ff165b15611cdc576001600b60026101000a81548160ff0219169083151502179055506000600e60006101000a81548160ff0219169083151502179055506000600e60016101000a81548160ff0219169083151502179055505b600b60019054906101000a900460ff168015611d0b575060001515600b60009054906101000a900460ff161515145b15611d62576001600b60026101000a81548160ff0219169083151502179055506000600e60016101000a81548160ff0219169083151502179055506001600e60006101000a81548160ff0219169083151502179055505b600b60009054906101000a900460ff168015611d91575060001515600b60019054906101000a900460ff161515145b15611de8576001600b60026101000a81548160ff0219169083151502179055506001600e60016101000a81548160ff0219169083151502179055506000600e60006101000a81548160ff0219169083151502179055505b565b60006006611df66118cc565b81548110611e0757611e06612eb7565b5b906000526020600020018054611e1c906130e3565b80601f0160208091040260200160405190810160405280929190818152602001828054611e48906130e3565b8015611e955780601f10611e6a57610100808354040283529160200191611e95565b820191906000526020600020905b815481529060010190602001808311611e7857829003601f168201915b5050505050905060006005611ea8612063565b81548110611eb957611eb8612eb7565b5b906000526020600020018054611ece906130e3565b80601f0160208091040260200160405190810160405280929190818152602001828054611efa906130e3565b8015611f475780601f10611f1c57610100808354040283529160200191611f47565b820191906000526020600020905b815481529060010190602001808311611f2a57829003601f168201915b505050505090506000611f7a8383604051602001611f66929190613181565b604051602081830303815290604052610f16565b90506000611f8784612661565b90506007819080600181540180825580915050600190039060005260206000200160009091909190915055600882908060018154018082558091505060019003906000526020600020016000909190919091509081611fe69190613351565b50611fef612180565b6015600c54111561205d576001600e60006101000a81548160ff0219169083151502179055506000600e60016101000a81548160ff0219169083151502179055506001600e60046101000a81548160ff0219169083151502179055506000600f8190555061205b6122d5565b505b50505050565b6000806004424460405160200161207b929190613028565b6040516020818303038152906040528051906020012060001c61209e9190613083565b90508091505090565b60606008805480602002602001604051908101604052809291908181526020016000905b828210156121775783829060005260206000200180546120ea906130e3565b80601f0160208091040260200160405190810160405280929190818152602001828054612116906130e3565b80156121635780601f1061213857610100808354040283529160200191612163565b820191906000526020600020905b81548152906001019060200180831161214657829003601f168201915b5050505050815260200190600101906120cb565b50505050905090565b60006007805490509050600060098054905090506000600c8190555060005b828110156121f157600781815481106121bb576121ba612eb7565b5b9060005260206000200154600c60008282546121d79190612f8b565b9250508190555080806121e990612fbf565b91505061219f565b506000600d8190555060005b8181101561224f576009818154811061221957612218612eb7565b5b9060005260206000200154600d60008282546122359190612f8b565b92505081905550808061224790612fbf565b9150506121fd565b505050565b6000816000806101000a81548173ffffffffffffffffffffffffffffffffffffffff021916908373ffffffffffffffffffffffffffffffffffffffff16021790555060008054906101000a900473ffffffffffffffffffffffffffffffffffffffff1673ffffffffffffffffffffffffffffffffffffffff16319050919050565b6060600c54600d5403612325576000600e60016101000a81548160ff0219169083151502179055506000600e60006101000a81548160ff0219169083151502179055506000600f819055506124a5565b600c54600d5411801561233a57506015600d54105b15612382576000600e60016101000a81548160ff0219169083151502179055506001600e60006101000a81548160ff0219169083151502179055506001600f819055506124a4565b600c54600d5410801561239757506015600c54105b156123df576001600e60016101000a81548160ff0219169083151502179055506000600e60006101000a81548160ff0219169083151502179055506001600f819055506124a3565b600c54600d541180156123f457506015600d54145b1561243c576000600e60016101000a81548160ff0219169083151502179055506001600e60006101000a81548160ff0219169083151502179055506001600f819055506124a2565b600c54600d5410801561245157506015600c54145b156124a1576001600e60016101000a81548160ff0219169083151502179055506000600e60006101000a81548160ff0219169083151502179055506002600361249a9190613114565b600f819055505b5b5b5b5b600b60029054906101000a900460ff1680156124d4575060001515600e60019054906101000a900460ff161515145b80156124f3575060001515600e60009054906101000a900460ff161515145b15612535576040518060400160405280600681526020017f5055534821210000000000000000000000000000000000000000000000000000815250905061265e565b600b60029054906101000a900460ff168015612564575060011515600e60019054906101000a900460ff161515145b8015612583575060001515600e60009054906101000a900460ff161515145b156125cd57612590610e42565b6040518060400160405280600681526020017f57494e2121210000000000000000000000000000000000000000000000000000815250905061265e565b600b60029054906101000a900460ff1680156125fc575060001515600e60019054906101000a900460ff161515145b801561261b575060011515600e60009054906101000a900460ff161515145b1561265d576040518060400160405280600781526020017f4c4f534521212100000000000000000000000000000000000000000000000000815250905061265e565b5b90565b60006126a2826040518060400160405280600181526020017f4100000000000000000000000000000000000000000000000000000000000000815250611b57565b156126b057600190506127db565b6126ef826040518060400160405280600181526020017f3000000000000000000000000000000000000000000000000000000000000000815250611b57565b806127355750612734826040518060400160405280600181526020017f4a00000000000000000000000000000000000000000000000000000000000000815250611b57565b5b8061277b575061277a826040518060400160405280600181526020017f5100000000000000000000000000000000000000000000000000000000000000815250611b57565b5b806127c157506127c0826040518060400160405280600181526020017f4b00000000000000000000000000000000000000000000000000000000000000815250611b57565b5b156127cf57600a90506127db565b6127d88261073e565b90505b919050565b6000604051905090565b600080fd5b600080fd5b6000819050919050565b612807816127f4565b811461281257600080fd5b50565b600081359050612824816127fe565b92915050565b6000602082840312156128405761283f6127ea565b5b600061284e84828501612815565b91505092915050565b60008115159050919050565b61286c81612857565b82525050565b60006020820190506128876000830184612863565b92915050565b612896816127f4565b82525050565b60006020820190506128b1600083018461288d565b92915050565b600080fd5b600080fd5b6000601f19601f8301169050919050565b7f4e487b7100000000000000000000000000000000000000000000000000000000600052604160045260246000fd5b61290a826128c1565b810181811067ffffffffffffffff82111715612929576129286128d2565b5b80604052505050565b600061293c6127e0565b90506129488282612901565b919050565b600067ffffffffffffffff821115612968576129676128d2565b5b612971826128c1565b9050602081019050919050565b82818337600083830152505050565b60006129a061299b8461294d565b612932565b9050828152602081018484840111156129bc576129bb6128bc565b5b6129c784828561297e565b509392505050565b600082601f8301126129e4576129e36128b7565b5b81356129f484826020860161298d565b91505092915050565b600060208284031215612a1357612a126127ea565b5b600082013567ffffffffffffffff811115612a3157612a306127ef565b5b612a3d848285016129cf565b91505092915050565b600081519050919050565b600082825260208201905092915050565b60005b83811015612a80578082015181840152602081019050612a65565b60008484015250505050565b6000612a9782612a46565b612aa18185612a51565b9350612ab1818560208601612a62565b612aba816128c1565b840191505092915050565b60006020820190508181036000830152612adf8184612a8c565b905092915050565b600073ffffffffffffffffffffffffffffffffffffffff82169050919050565b6000612b1282612ae7565b9050919050565b612b2281612b07565b8114612b2d57600080fd5b50565b600081359050612b3f81612b19565b92915050565b600060208284031215612b5b57612b5a6127ea565b5b6000612b6984828501612b30565b91505092915050565b600081519050919050565b600082825260208201905092915050565b6000819050602082019050919050565b612ba7816127f4565b82525050565b6000612bb98383612b9e565b60208301905092915050565b6000602082019050919050565b6000612bdd82612b72565b612be78185612b7d565b9350612bf283612b8e565b8060005b83811015612c23578151612c0a8882612bad565b9750612c1583612bc5565b925050600181019050612bf6565b5085935050505092915050565b60006020820190508181036000830152612c4a8184612bd2565b905092915050565b612c5b81612b07565b82525050565b6000602082019050612c766000830184612c52565b92915050565b600081519050919050565b600082825260208201905092915050565b6000819050602082019050919050565b600082825260208201905092915050565b6000612cc482612a46565b612cce8185612ca8565b9350612cde818560208601612a62565b612ce7816128c1565b840191505092915050565b6000612cfe8383612cb9565b905092915050565b6000602082019050919050565b6000612d1e82612c7c565b612d288185612c87565b935083602082028501612d3a85612c98565b8060005b85811015612d765784840389528151612d578582612cf2565b9450612d6283612d06565b925060208a01995050600181019050612d3e565b50829750879550505050505092915050565b60006020820190508181036000830152612da28184612d13565b905092915050565b6000612db582612ae7565b9050919050565b612dc581612daa565b82525050565b6000602082019050612de06000830184612dbc565b92915050565b60008060408385031215612dfd57612dfc6127ea565b5b600083013567ffffffffffffffff811115612e1b57612e1a6127ef565b5b612e27858286016129cf565b925050602083013567ffffffffffffffff811115612e4857612e476127ef565b5b612e54858286016129cf565b9150509250929050565b612e6781612daa565b8114612e7257600080fd5b50565b600081359050612e8481612e5e565b92915050565b600060208284031215612ea057612e9f6127ea565b5b6000612eae84828501612e75565b91505092915050565b7f4e487b7100000000000000000000000000000000000000000000000000000000600052603260045260246000fd5b7f4e487b7100000000000000000000000000000000000000000000000000000000600052601160045260246000fd5b6000612f20826127f4565b9150612f2b836127f4565b9250828203905081811115612f4357612f42612ee6565b5b92915050565b6000612f54826127f4565b9150612f5f836127f4565b9250828202612f6d816127f4565b91508282048414831517612f8457612f83612ee6565b5b5092915050565b6000612f96826127f4565b9150612fa1836127f4565b9250828201905080821115612fb957612fb8612ee6565b5b92915050565b6000612fca826127f4565b91507fffffffffffffffffffffffffffffffffffffffffffffffffffffffffffffffff8203612ffc57612ffb612ee6565b5b600182019050919050565b6000819050919050565b61302261301d826127f4565b613007565b82525050565b60006130348285613011565b6020820191506130448284613011565b6020820191508190509392505050565b7f4e487b7100000000000000000000000000000000000000000000000000000000600052601260045260246000fd5b600061308e826127f4565b9150613099836127f4565b9250826130a9576130a8613054565b5b828206905092915050565b7f4e487b7100000000000000000000000000000000000000000000000000000000600052602260045260246000fd5b600060028204905060018216806130fb57607f821691505b60208210810361310e5761310d6130b4565b5b50919050565b600061311f826127f4565b915061312a836127f4565b92508261313a57613139613054565b5b828204905092915050565b600081905092915050565b600061315b82612a46565b6131658185613145565b9350613175818560208601612a62565b80840191505092915050565b600061318d8285613150565b91506131998284613150565b91508190509392505050565b60008190508160005260206000209050919050565b60006020601f8301049050919050565b600082821b905092915050565b6000600883026132077fffffffffffffffffffffffffffffffffffffffffffffffffffffffffffffffff826131ca565b61321186836131ca565b95508019841693508086168417925050509392505050565b6000819050919050565b600061324e613249613244846127f4565b613229565b6127f4565b9050919050565b6000819050919050565b61326883613233565b61327c61327482613255565b8484546131d7565b825550505050565b600090565b613291613284565b61329c81848461325f565b505050565b5b818110156132c0576132b5600082613289565b6001810190506132a2565b5050565b601f821115613305576132d6816131a5565b6132df846131ba565b810160208510156132ee578190505b6133026132fa856131ba565b8301826132a1565b50505b505050565b600082821c905092915050565b60006133286000198460080261330a565b1980831691505092915050565b60006133418383613317565b9150826002028217905092915050565b61335a82612a46565b67ffffffffffffffff811115613373576133726128d2565b5b61337d82546130e3565b6133888282856132c4565b600060209050601f8311600181146133bb57600084156133a9578287015190505b6133b38582613335565b86555061341b565b601f1984166133c9866131a5565b60005b828110156133f1578489015182556001820191506020850194506020810190506133cc565b8683101561340e578489015161340a601f891682613317565b8355505b6001600288020188555050505b505050505050565b7f496e73756666696369656e742062616c616e636520696e2074686520636f6e7460008201527f7261637400000000000000000000000000000000000000000000000000000000602082015250565b600061347f602483612a51565b915061348a82613423565b604082019050919050565b600060208201905081810360008301526134ae81613472565b9050919050565b60006134c18286613150565b91506134cd8285613150565b91506134d98284613150565b9150819050949350505050565b7f4f6e6c7920746865206f776e65722063616e20646f2074686174210000000000600082015250565b600061351c601b83612a51565b9150613527826134e6565b602082019050919050565b6000602082019050818103600083015261354b8161350f565b9050919050565b600061355e8284613150565b91508190509291505056fe68747470733a2f2f6465636b6f6663617264736170692e636f6d2f7374617469632f696d672fa2646970667358221220577a059a87cf3d88ab48afac98300554fe8d41de29ab272825919d77f066cdf964736f6c63430008110033",
  "immutableReferences": {},
  "source": "// SPDX-License-Identifier: MIT\npragma solidity >=0.4.22 <0.9.0;\n\n\ncontract Blackjack{\n    address payable public playerAddress;\n    //* Keep the owner address\n    address public owner;\n    //* keep the minimum balance to play\n    uint private minBalance = 10000000000000000000;\n    //* this is the minimum sum to play\n    uint private minimum = 10000000000000000;\n    //* this is the maximum sum to play\n    uint private maximum = 1000000000000000000;\n    //* this is the suits (each of the value represent a suit)\n    string[] suits = [\"H\", \"S\", \"D\", \"C\"];\n    //* this is the card values\n    // prettier-ignore\n    string[] ranks = [\"A\", \"2\", \"3\", \"4\", \"5\", \"6\", \"7\", \"8\", \"9\", \"0\", \"J\", \"Q\", \"K\"];\n\n    uint[] playerCardValues;\n    string[] playerCardsUrls;\n    uint[] dealercardValues;\n    string[] dealerCardsUrls;\n\n    bool isBlackForPlayer = false;\n    bool isBlackForDealer = false;\n\n    bool finishGame = false;\n    //* this is the variable that is updated when the minimum balance function runs\n    bool public balanceChecker;\n  \n    //* this is the variable that check the number in the input is more than the minimum to play and less than the maximum to play\n    bool public inputChecked = true;\n\n    uint playerCounter = 0;\n    uint dealerCounter = 0;\n\n    bool loosedPlayer = false;\n    bool loosedDealer = false;\n\n    bool canTakeNewCardPlayer = true;\n    bool canTakeNewCardDealer = false;\n\n    bool gameFinished = false;\n\n    uint payment = 1;\n    uint paymentSum = 0 ; \n\n    //* This constructor get the smart contract owner address\n    constructor (){\n        owner = msg.sender;\n        // We want to call this function when the player want to play a new game\n        //   deckcard = createDeck();\n    }\n\n    function startGame() external {\n        givetwoCardsToPlayer();\n        givetwoCardsToDealer();\n        if(isBlackForDealer && isBlackForPlayer){\n            // NEED TO WORK ON THE END OF THE GAME\n            finishGame = true;\n            loosedPlayer = false;\n            loosedDealer = false;\n        }    \n        if(isBlackForDealer && isBlackForPlayer == false ){ \n            finishGame = true;\n            loosedDealer = false;\n            loosedPlayer = true;\n        }\n        if(isBlackForPlayer && isBlackForDealer == false){ \n            finishGame = true;\n            loosedDealer = true;\n            loosedPlayer = false;        }     \n    }\n\n    //* The modifier check if the user is the smart contract owner\n    modifier onlyOwner(){\n        require(msg.sender == owner,\"Only the owner can do that!\");\n        _;\n    }\n\n    //* The function to transfer smart contract ownership\n    function transferOwnerShip(address newOwner) external onlyOwner{\n        owner = newOwner;\n    }\n\n    //* This function gets the player address and returns the player balance\n    function getBalance(address payable addrs) public  returns(uint){\n        playerAddress = addrs;\n        return playerAddress.balance;\n    }   \n\n    //* This function get the player address and check if he has anough balance in the wallet and returns true or false to the react code\n    function checkBalance() public returns(bool){\n        if(playerAddress.balance >= minBalance){\n            balanceChecker = true;\n        }\n        else{\n            balanceChecker = false;\n        }\n        return balanceChecker;\n    }\n\n    //* The function gets from the frontend sum entered to play and verify if it's more than the minimum and less than the maximum\n    function checkInput(uint input) public returns (bool){\n        if(input < minimum || input > maximum){\n            inputChecked = false;\n        }else{\n            inputChecked = true;\n            paymentSum = input;\n        }\n        return inputChecked;\n    }\n\n    //* hecks if 2 strings are equals (helper function)\n    function compareStrings(string memory a, string memory b) public pure returns (bool) {\n    return (keccak256(abi.encodePacked((a))) == keccak256(abi.encodePacked((b))));\n    }\n\n    //* gets a string and return a interger (helper function)\n    function stringToUint(string memory s) public pure returns (uint) {\n        bytes memory b = bytes(s);\n        uint result = 0;\n        for (uint256 i = 0; i < b.length; i++) {\n            uint256 c = uint256(uint8(b[i]));\n            if (c >= 48 && c <= 57) {\n                result = result * 10 + (c - 48);\n            }\n        }\n        return result;\n    }\n\n    // The function creates URL for the ui\n    function createUrlForUI(string memory card) public pure returns (string memory) {\n        string memory cardLink = \"https://deckofcardsapi.com/static/img/\";\n        string memory cardType = \".png\";\n        string memory cardLinkNew = string.concat(cardLink,card,cardType);\n        return cardLinkNew;\n    }\n\n    // This function returns the cards of the player\n    function showPlayerCardvalue() public view returns(uint[] memory){\n        return playerCardValues;\n    }\n    function showPlayerCardUrls() public view returns(string[] memory){\n        return playerCardsUrls;\n    }\n    // This function returns the cards of the dealer\n    function showDealerCardvalue() public view returns(uint[] memory){\n        return dealercardValues;\n    }\n    function showDealerCardUrls() public view returns(string[] memory){\n        return dealerCardsUrls;\n    }\n    // It starts the game and give to the player 2 cards\n    function givetwoCardsToPlayer() public {\n        generateTwoRandomNumbersToPlayer();\n    }\n    // It starts the game and give to the dealer 2 cards\n    function givetwoCardsToDealer() public {\n        generateTwoRandomNumbersToDealer();\n    }\n    function showDealerCounter() public view returns(uint ){\n        return dealerCounter;\n    }\n    function showPlayerCounter() public view returns(uint ){\n        return playerCounter;\n    }\n\n    //* The function sums the cards values for dealer and player\n    function sumOfCards() public{\n        uint lenOfPlayerCards = playerCardValues.length;\n        uint lenOfDealerCards = dealercardValues.length;\n\n        playerCounter = 0;\n        // uint playerCounter = 0;\n        for(uint i = 0; i < lenOfPlayerCards; i++){\n            playerCounter += playerCardValues[i];\n        }\n        \n        dealerCounter = 0;\n        // uint dealerCounter = 0;\n        for(uint i = 0; i < lenOfDealerCards; i++){\n            dealerCounter += dealercardValues[i];\n        }\n    }\n\n    // The function convert value that are more than 10 to be 10\n    function checkValue(uint num) public pure returns(uint){\n        if(num >= 10)return 10;\n        return num;\n        \n    }\n\n    // The function generate 2 random cards to the player\n    function generateTwoRandomNumbersToPlayer() public {\n        uint randomNumber1 = uint(keccak256(abi.encodePacked(block.timestamp, block.difficulty))) % 13;\n        uint randomNumber2 = uint(keccak256(abi.encodePacked(block.gaslimit, block.number))) % 13;\n        \n        uint randomSuit1 = uint(keccak256(abi.encodePacked(block.timestamp, block.difficulty))) % 4;\n        uint randomSuit2 = uint(keccak256(abi.encodePacked(block.gaslimit, block.number))) % 4;\n\n        string memory rankNumber1 = ranks[randomNumber1];\n        string memory rankNumber2 = ranks[randomNumber2];\n        playerCardValues.push(checkValue(randomNumber1+1));\n        playerCardValues.push(checkValue(randomNumber2+1));\n        if((playerCardValues[0] == 1 && playerCardValues[1]==10) ||\n            (playerCardValues[1] == 1 && playerCardValues[0]==10)){\n                isBlackForPlayer = true;\n                loosedPlayer = false;\n                loosedDealer = true;\n                gameFinished = true;\n                payment = 3/uint256(2);\n                finishTheGame();\n        }\n        string memory suitNumber1 = suits[randomSuit1];\n        string memory suitNumber2 = suits[randomSuit2];\n\n        string memory card1 = createUrlForUI(string.concat(rankNumber1,suitNumber1));\n        string memory card2 = createUrlForUI(string.concat(rankNumber2,suitNumber2));\n\n        playerCardsUrls.push(card1);\n        playerCardsUrls.push(card2);\n\n        sumOfCards();\n    }\n\n\n    // The function generate 2 random cards to the dealer\n    function generateTwoRandomNumbersToDealer() public {\n        uint randomNumber1 = uint(keccak256(abi.encodePacked(block.timestamp, block.difficulty))) % 13;\n        uint randomNumber2 = uint(keccak256(abi.encodePacked(block.gaslimit, block.number))) % 13;\n\n        uint randomSuit1 = uint(keccak256(abi.encodePacked(block.timestamp, block.difficulty))) % 4;\n        uint randomSuit2 = uint(keccak256(abi.encodePacked(block.gaslimit, block.number))) % 4;\n\n        string memory rankNumber1 = ranks[randomNumber1];\n        string memory rankNumber2 = ranks[randomNumber2];\n        dealercardValues.push(checkValue(randomNumber1+1));\n        dealercardValues.push(checkValue(randomNumber2+1));\n        if((dealercardValues[0] == 1 && dealercardValues[1]==10) ||\n            (dealercardValues[1] == 1 && dealercardValues[0]==10)){\n                isBlackForDealer = true;\n                loosedPlayer = true;\n                loosedDealer = false;\n                gameFinished = true;\n                payment = 1;\n                finishTheGame();\n\n        }\n        string memory suitNumber1 = suits[randomSuit1];\n        string memory suitNumber2 = suits[randomSuit2];\n\n        string memory card1 = createUrlForUI(string.concat(rankNumber1,suitNumber1));\n        string memory card2 = createUrlForUI(string.concat(rankNumber2,suitNumber2));\n\n        dealerCardsUrls.push(card1);\n        dealerCardsUrls.push(card2);\n\n        sumOfCards();\n\n    }\n   \n    //* The function add to the player a new random card\n    function getRandomCardValueToPlayer() public {\n        string memory rankNumber = ranks[getRandomRank()];\n        string memory suitNumber = suits[getRandomSuit()];\n        string memory card = createUrlForUI(string.concat(rankNumber,suitNumber));\n        uint  cardVal = getRankNum(rankNumber);\n        playerCardValues.push(cardVal);\n        playerCardsUrls.push(card);\n        sumOfCards();\n        if(playerCounter > 21){\n            loosedPlayer = true;\n            loosedDealer = false;\n            gameFinished = true;\n            payment = 0;\n            finishTheGame();\n            \n        }\n    }\n\n    //* The function adds to the dealer cards while he arrives to 17 or more\n    function dealerCardDistributer() public{\n        while(dealerCounter < 17){\n            getRandomCardValueToDealer();\n        }\n        canTakeNewCardDealer = false;\n        gameFinished = true;\n        finishTheGame();        \n    }\n\n    //* The function add to the dealer a new random card\n    function getRandomCardValueToDealer() public {\n        \n        string memory rankNumber = ranks[getRandomRank()];\n        string memory suitNumber = suits[getRandomSuit()];\n        string memory card = string.concat(rankNumber,suitNumber);\n        dealercardValues.push(getRankNum(rankNumber));\n        dealerCardsUrls.push(card);\n        sumOfCards();\n         if(dealerCounter > 21){\n            loosedDealer = true;\n            loosedPlayer = false;\n            payment = 1;\n        }\n    }\n\n    //* The function gets a random number from 0 to 12\n    function getRandomRank() public view returns (uint256) {\n        uint256 _randomNumber = uint256(keccak256(abi.encodePacked(block.timestamp, block.difficulty))) % 13; // Generate random number between 0 to 12\n        return (_randomNumber); \n    }\n\n    //* The function get a random number from 0 to 3\n    function getRandomSuit() public view returns (uint256) {\n        uint256 _randomNumber = uint256(keccak256(abi.encodePacked(block.timestamp, block.difficulty))) % 4; // Generate random number between 0 to 12\n        return (_randomNumber); \n    }\n\n\n\n    // The function gets the rank (string - first value) of a certain card in the deck and returns the number of card\n    function getRankNum(string memory rank) internal pure returns (uint){\n        if(compareStrings(rank,\"A\")){\n            return 1;\n        }\n        if( compareStrings(rank,\"0\") || compareStrings(rank,\"J\") || compareStrings(rank,\"Q\") || compareStrings(rank, \"K\" )){\n            return 10;\n        }\n        else{\n            return stringToUint(rank);\n        }\n    }\n\n    function finishGiveCard() external{\n        canTakeNewCardPlayer = false;\n        canTakeNewCardDealer = true;\n        dealerCardDistributer();\n    }\n    \n    // The function returns if the player won or lost\n    function finishTheGame() internal returns(string memory){\n        \n        if(dealerCounter == playerCounter){\n            loosedDealer = false;\n            loosedPlayer = false;\n            payment = 0; \n        }\n        else if((dealerCounter > playerCounter) && dealerCounter < 21 ){\n            loosedDealer = false;\n            loosedPlayer = true;\n            payment = 1;\n        }else if((dealerCounter < playerCounter) && playerCounter < 21 ){\n            loosedDealer = true;\n            loosedPlayer = false;\n            payment = 1;\n        }\n         else if((dealerCounter > playerCounter) && dealerCounter == 21 ){\n            loosedDealer = false;\n            loosedPlayer = true;\n            payment = 1;\n        }else if((dealerCounter < playerCounter) && playerCounter == 21 ){\n            loosedDealer = true;\n            loosedPlayer = false;\n            payment = 3/uint256(2);\n        }\n\n        if(finishGame && loosedDealer == false && loosedPlayer == false){\n            // don't do anything\n            return \"PUSH!!\";\n        }\n        else if(finishGame && loosedDealer == true && loosedPlayer == false){\n            // The dealer payes to the player\n            paymentToPlayer();\n            return \"WIN!!!\";\n        }\n        else if(finishGame && loosedDealer == false && loosedPlayer == true){\n            // The player payes to the dealer\n            return \"LOSE!!!\";\n        }\n      \n    }\n    function paymentToPlayer() public payable{\n        require(address(this).balance >= paymentSum*payment, \"Insufficient balance in the contract\");\n        playerAddress.transfer(paymentSum * payment);\n    }\n\n\n    // mapping(address => uint256) public balances;\n\n    // function deposit() public payable {\n    //     balances[msg.sender] += msg.value;\n    // }\n\n    // function collect() public {\n    //     uint256 amount = balances[msg.sender];\n    //     require(amount > 0, \"No balance to withdraw\");\n\n    //     balances[msg.sender] = 0;\n    //     payable(address(this)).transfer(amount);\n    // }\n\n\n    // function paymentToDealer() public payable{\n    //     require(address(this).balance >= paymentSum*payment, \"Insufficient balance in the contract\");\n    //     playerAddress.transfer(paymentSum * payment);\n    // }\n}",
  "sourcePath": "/Users/gabrielnakache/Desktop/Solidity Project/js1-app-code/contracts/Blackjack.sol",
  "compiler": {
    "name": "solc",
    "version": "0.8.17+commit.8df45f5f.Emscripten.clang"
  },
  "schemaVersion": "3.4.11",
  "updatedAt": "2023-03-29T15:41:35.294Z",
  "networkType": "ethereum",
  "devdoc": {
    "kind": "dev",
    "methods": {},
    "version": 1
  },
  "userdoc": {
    "kind": "user",
    "methods": {},
    "version": 1
  }
}