{
  "contractName": "Blackjack",
  "abi": [
    {
      "inputs": [],
      "stateMutability": "nonpayable",
      "type": "constructor"
    },
    {
      "anonymous": false,
      "inputs": [
        {
          "indexed": false,
          "internalType": "uint256",
          "name": "playerBalance",
          "type": "uint256"
        }
      ],
      "name": "initBalance",
      "type": "event"
    },
    {
      "anonymous": false,
      "inputs": [
        {
          "indexed": false,
          "internalType": "bool",
          "name": "balanceChecker",
          "type": "bool"
        }
      ],
      "name": "initchecker",
      "type": "event"
    },
    {
      "inputs": [],
      "name": "balance",
      "outputs": [
        {
          "internalType": "uint256",
          "name": "",
          "type": "uint256"
        }
      ],
      "stateMutability": "view",
      "type": "function",
      "constant": true
    },
    {
      "inputs": [],
      "name": "balanceChecker",
      "outputs": [
        {
          "internalType": "bool",
          "name": "",
          "type": "bool"
        }
      ],
      "stateMutability": "view",
      "type": "function",
      "constant": true
    },
    {
      "inputs": [],
      "name": "inputChecked",
      "outputs": [
        {
          "internalType": "bool",
          "name": "",
          "type": "bool"
        }
      ],
      "stateMutability": "view",
      "type": "function",
      "constant": true
    },
    {
      "inputs": [],
      "name": "owner",
      "outputs": [
        {
          "internalType": "address",
          "name": "",
          "type": "address"
        }
      ],
      "stateMutability": "view",
      "type": "function",
      "constant": true
    },
    {
      "inputs": [],
      "name": "playerAddress",
      "outputs": [
        {
          "internalType": "address payable",
          "name": "",
          "type": "address"
        }
      ],
      "stateMutability": "view",
      "type": "function",
      "constant": true
    },
    {
      "inputs": [],
      "name": "playerBalance",
      "outputs": [
        {
          "internalType": "uint256",
          "name": "",
          "type": "uint256"
        }
      ],
      "stateMutability": "view",
      "type": "function",
      "constant": true
    },
    {
      "inputs": [],
      "name": "startGame",
      "outputs": [],
      "stateMutability": "nonpayable",
      "type": "function"
    },
    {
      "inputs": [
        {
          "internalType": "address",
          "name": "newOwner",
          "type": "address"
        }
      ],
      "name": "transferOwnerShip",
      "outputs": [],
      "stateMutability": "nonpayable",
      "type": "function"
    },
    {
      "inputs": [
        {
          "internalType": "address payable",
          "name": "addrs",
          "type": "address"
        }
      ],
      "name": "getBalance",
      "outputs": [
        {
          "internalType": "uint256",
          "name": "",
          "type": "uint256"
        }
      ],
      "stateMutability": "nonpayable",
      "type": "function"
    },
    {
      "inputs": [
        {
          "internalType": "uint256",
          "name": "bal",
          "type": "uint256"
        }
      ],
      "name": "checkBalance",
      "outputs": [
        {
          "internalType": "bool",
          "name": "",
          "type": "bool"
        }
      ],
      "stateMutability": "nonpayable",
      "type": "function"
    },
    {
      "inputs": [
        {
          "internalType": "uint256",
          "name": "input",
          "type": "uint256"
        }
      ],
      "name": "checkInput",
      "outputs": [
        {
          "internalType": "bool",
          "name": "",
          "type": "bool"
        }
      ],
      "stateMutability": "nonpayable",
      "type": "function"
    },
    {
      "inputs": [
        {
          "internalType": "string",
          "name": "a",
          "type": "string"
        },
        {
          "internalType": "string",
          "name": "b",
          "type": "string"
        }
      ],
      "name": "compareStrings",
      "outputs": [
        {
          "internalType": "bool",
          "name": "",
          "type": "bool"
        }
      ],
      "stateMutability": "pure",
      "type": "function",
      "constant": true
    },
    {
      "inputs": [
        {
          "internalType": "string",
          "name": "s",
          "type": "string"
        }
      ],
      "name": "stringToUint",
      "outputs": [
        {
          "internalType": "uint256",
          "name": "",
          "type": "uint256"
        }
      ],
      "stateMutability": "pure",
      "type": "function",
      "constant": true
    },
    {
      "inputs": [
        {
          "internalType": "string",
          "name": "card",
          "type": "string"
        }
      ],
      "name": "createUrlForUI",
      "outputs": [
        {
          "internalType": "string",
          "name": "",
          "type": "string"
        }
      ],
      "stateMutability": "pure",
      "type": "function",
      "constant": true
    },
    {
      "inputs": [],
      "name": "showPlayerCardvalue",
      "outputs": [
        {
          "internalType": "uint256[]",
          "name": "",
          "type": "uint256[]"
        }
      ],
      "stateMutability": "view",
      "type": "function",
      "constant": true
    },
    {
      "inputs": [],
      "name": "showPlayerCardUrls",
      "outputs": [
        {
          "internalType": "string[]",
          "name": "",
          "type": "string[]"
        }
      ],
      "stateMutability": "view",
      "type": "function",
      "constant": true
    },
    {
      "inputs": [],
      "name": "showDealerCardvalue",
      "outputs": [
        {
          "internalType": "uint256[]",
          "name": "",
          "type": "uint256[]"
        }
      ],
      "stateMutability": "view",
      "type": "function",
      "constant": true
    },
    {
      "inputs": [],
      "name": "showDealerCardUrls",
      "outputs": [
        {
          "internalType": "string[]",
          "name": "",
          "type": "string[]"
        }
      ],
      "stateMutability": "view",
      "type": "function",
      "constant": true
    },
    {
      "inputs": [],
      "name": "givetwoCardsToPlayer",
      "outputs": [],
      "stateMutability": "nonpayable",
      "type": "function"
    },
    {
      "inputs": [],
      "name": "givetwoCardsToDealer",
      "outputs": [],
      "stateMutability": "nonpayable",
      "type": "function"
    },
    {
      "inputs": [],
      "name": "showDealerCounter",
      "outputs": [
        {
          "internalType": "uint256",
          "name": "",
          "type": "uint256"
        }
      ],
      "stateMutability": "view",
      "type": "function",
      "constant": true
    },
    {
      "inputs": [],
      "name": "showPlayerCounter",
      "outputs": [
        {
          "internalType": "uint256",
          "name": "",
          "type": "uint256"
        }
      ],
      "stateMutability": "view",
      "type": "function",
      "constant": true
    },
    {
      "inputs": [],
      "name": "sumOfCards",
      "outputs": [],
      "stateMutability": "nonpayable",
      "type": "function"
    },
    {
      "inputs": [
        {
          "internalType": "uint256",
          "name": "num",
          "type": "uint256"
        }
      ],
      "name": "checkValue",
      "outputs": [
        {
          "internalType": "uint256",
          "name": "",
          "type": "uint256"
        }
      ],
      "stateMutability": "pure",
      "type": "function",
      "constant": true
    },
    {
      "inputs": [],
      "name": "generateTwoRandomNumbersToPlayer",
      "outputs": [],
      "stateMutability": "nonpayable",
      "type": "function"
    },
    {
      "inputs": [],
      "name": "generateTwoRandomNumbersToDealer",
      "outputs": [],
      "stateMutability": "nonpayable",
      "type": "function"
    },
    {
      "inputs": [],
      "name": "getRandomCardValueToPlayer",
      "outputs": [],
      "stateMutability": "nonpayable",
      "type": "function"
    },
    {
      "inputs": [],
      "name": "dealerCardDistributer",
      "outputs": [],
      "stateMutability": "nonpayable",
      "type": "function"
    },
    {
      "inputs": [],
      "name": "getRandomCardValueToDealer",
      "outputs": [],
      "stateMutability": "nonpayable",
      "type": "function"
    },
    {
      "inputs": [],
      "name": "getRandomRank",
      "outputs": [
        {
          "internalType": "uint256",
          "name": "",
          "type": "uint256"
        }
      ],
      "stateMutability": "view",
      "type": "function",
      "constant": true
    },
    {
      "inputs": [],
      "name": "getRandomSuit",
      "outputs": [
        {
          "internalType": "uint256",
          "name": "",
          "type": "uint256"
        }
      ],
      "stateMutability": "view",
      "type": "function",
      "constant": true
    },
    {
      "inputs": [],
      "name": "finishGiveCard",
      "outputs": [],
      "stateMutability": "nonpayable",
      "type": "function"
    },
    {
      "inputs": [],
      "name": "paymentToPlayer",
      "outputs": [],
      "stateMutability": "payable",
      "type": "function",
      "payable": true
    },
    {
      "inputs": [],
      "name": "contribute",
      "outputs": [],
      "stateMutability": "payable",
      "type": "function",
      "payable": true
    }
  ],
  "bytecode": "0x6080604052678ac7230489e80000600255662386f26fc10000600355670de0b6b3a764000060045560405180608001604052806040518060400160405280600181526020017f480000000000000000000000000000000000000000000000000000000000000081525081526020016040518060400160405280600181526020017f530000000000000000000000000000000000000000000000000000000000000081525081526020016040518060400160405280600181526020017f440000000000000000000000000000000000000000000000000000000000000081525081526020016040518060400160405280600181526020017f430000000000000000000000000000000000000000000000000000000000000081525081525060059060046200012e929190620005b4565b50604051806101a001604052806040518060400160405280600181526020017f410000000000000000000000000000000000000000000000000000000000000081525081526020016040518060400160405280600181526020017f320000000000000000000000000000000000000000000000000000000000000081525081526020016040518060400160405280600181526020017f330000000000000000000000000000000000000000000000000000000000000081525081526020016040518060400160405280600181526020017f340000000000000000000000000000000000000000000000000000000000000081525081526020016040518060400160405280600181526020017f350000000000000000000000000000000000000000000000000000000000000081525081526020016040518060400160405280600181526020017f360000000000000000000000000000000000000000000000000000000000000081525081526020016040518060400160405280600181526020017f370000000000000000000000000000000000000000000000000000000000000081525081526020016040518060400160405280600181526020017f380000000000000000000000000000000000000000000000000000000000000081525081526020016040518060400160405280600181526020017f390000000000000000000000000000000000000000000000000000000000000081525081526020016040518060400160405280600181526020017f300000000000000000000000000000000000000000000000000000000000000081525081526020016040518060400160405280600181526020017f4a0000000000000000000000000000000000000000000000000000000000000081525081526020016040518060400160405280600181526020017f510000000000000000000000000000000000000000000000000000000000000081525081526020016040518060400160405280600181526020017f4b00000000000000000000000000000000000000000000000000000000000000815250815250600690600d6200044a92919062000614565b506000600b60006101000a81548160ff0219169083151502179055506000600b60016101000a81548160ff0219169083151502179055506000600b60026101000a81548160ff0219169083151502179055506001600b60046101000a81548160ff0219169083151502179055506000600c556000600d556000600e60006101000a81548160ff0219169083151502179055506000600e60016101000a81548160ff0219169083151502179055506001600e60026101000a81548160ff0219169083151502179055506000600e60036101000a81548160ff0219169083151502179055506000600e60046101000a81548160ff0219169083151502179055506001600f55600060105560006012553480156200056457600080fd5b5033600160006101000a81548173ffffffffffffffffffffffffffffffffffffffff021916908373ffffffffffffffffffffffffffffffffffffffff160217905550600060118190555062000a62565b82805482825590600052602060002090810192821562000601579160200282015b8281111562000600578251829081620005ef91906200097b565b5091602001919060010190620005d5565b5b50905062000610919062000674565b5090565b82805482825590600052602060002090810192821562000661579160200282015b82811115620006605782518290816200064f91906200097b565b509160200191906001019062000635565b5b50905062000670919062000674565b5090565b5b808211156200069857600081816200068e91906200069c565b5060010162000675565b5090565b508054620006aa906200076a565b6000825580601f10620006be5750620006df565b601f016020900490600052602060002090810190620006de9190620006e2565b5b50565b5b80821115620006fd576000816000905550600101620006e3565b5090565b600081519050919050565b7f4e487b7100000000000000000000000000000000000000000000000000000000600052604160045260246000fd5b7f4e487b7100000000000000000000000000000000000000000000000000000000600052602260045260246000fd5b600060028204905060018216806200078357607f821691505b6020821081036200079957620007986200073b565b5b50919050565b60008190508160005260206000209050919050565b60006020601f8301049050919050565b600082821b905092915050565b600060088302620008037fffffffffffffffffffffffffffffffffffffffffffffffffffffffffffffffff82620007c4565b6200080f8683620007c4565b95508019841693508086168417925050509392505050565b6000819050919050565b6000819050919050565b60006200085c62000856620008508462000827565b62000831565b62000827565b9050919050565b6000819050919050565b62000878836200083b565b62000890620008878262000863565b848454620007d1565b825550505050565b600090565b620008a762000898565b620008b48184846200086d565b505050565b5b81811015620008dc57620008d06000826200089d565b600181019050620008ba565b5050565b601f8211156200092b57620008f5816200079f565b6200090084620007b4565b8101602085101562000910578190505b620009286200091f85620007b4565b830182620008b9565b50505b505050565b600082821c905092915050565b6000620009506000198460080262000930565b1980831691505092915050565b60006200096b83836200093d565b9150826002028217905092915050565b620009868262000701565b67ffffffffffffffff811115620009a257620009a16200070c565b5b620009ae82546200076a565b620009bb828285620008e0565b600060209050601f831160018114620009f35760008415620009de578287015190505b620009ea85826200095d565b86555062000a5a565b601f19841662000a03866200079f565b60005b8281101562000a2d5784890151825560018201915060208501945060208101905062000a06565b8683101562000a4d578489015162000a49601f8916826200093d565b8355505b6001600288020188555050505b505050505050565b61370f8062000a726000396000f3fe6080604052600436106101f95760003560e01c80638da5cb5b1161010d578063bed34bba116100a0578063e07c54451161006f578063e07c544514610665578063e9a507301461067c578063ecd65c0f146106a7578063ef6e1768146106d2578063f8b2cb4f146106e9576101f9565b8063bed34bba146105dc578063d0498cdb14610619578063d65ab5f214610644578063d7bb99ba1461065b576101f9565b8063a146bf7a116100dc578063a146bf7a14610544578063a54c14f81461056f578063b69ef8a81461059a578063b8cf58ed146105c5576101f9565b80638da5cb5b146104985780638e3411b3146104c35780638ec4ebd7146104ee5780639d8c6cfb14610519576101f9565b806351e488b51161019057806373b9863d1161015f57806373b9863d146103d95780637f286286146103f05780638863dd1a1461042d57806388eb3a37146104565780638c171a0914610481576101f9565b806351e488b51461033c578063545e0dde1461034657806363a20a8214610371578063651f066a146103ae576101f9565b80631bd95155116101cc5780631bd95155146102ba5780631cd7e64b146102f757806323820caa1461030e57806328440b4714610325576101f9565b8063021b8a7f146101fe578063090e15d61461023b57806313c43ab01461025257806318db62fb1461027d575b600080fd5b34801561020a57600080fd5b5061022560048036038101906102209190612974565b610726565b60405161023291906129bc565b60405180910390f35b34801561024757600080fd5b50610250610798565b005b34801561025e57600080fd5b506102676107a2565b60405161027491906129bc565b60405180910390f35b34801561028957600080fd5b506102a4600480360381019061029f9190612974565b6107b5565b6040516102b191906129e6565b60405180910390f35b3480156102c657600080fd5b506102e160048036038101906102dc9190612b47565b6107d1565b6040516102ee91906129e6565b60405180910390f35b34801561030357600080fd5b5061030c610869565b005b34801561031a57600080fd5b506103236108a9565b005b34801561033157600080fd5b5061033a6108b3565b005b610344610ed5565b005b34801561035257600080fd5b5061035b610f9f565b60405161036891906129e6565b60405180910390f35b34801561037d57600080fd5b5061039860048036038101906103939190612b47565b610fa9565b6040516103a59190612c0f565b60405180910390f35b3480156103ba57600080fd5b506103c3611035565b6040516103d091906129e6565b60405180910390f35b3480156103e557600080fd5b506103ee61103b565b005b3480156103fc57600080fd5b5061041760048036038101906104129190612974565b611651565b60405161042491906129bc565b60405180910390f35b34801561043957600080fd5b50610454600480360381019061044f9190612c8f565b6116f5565b005b34801561046257600080fd5b5061046b6117c9565b6040516104789190612d7a565b60405180910390f35b34801561048d57600080fd5b50610496611821565b005b3480156104a457600080fd5b506104ad61187b565b6040516104ba9190612dab565b60405180910390f35b3480156104cf57600080fd5b506104d86118a1565b6040516104e59190612ed2565b60405180910390f35b3480156104fa57600080fd5b5061050361197a565b6040516105109190612d7a565b60405180910390f35b34801561052557600080fd5b5061052e6119d2565b60405161053b91906129bc565b60405180910390f35b34801561055057600080fd5b506105596119e5565b6040516105669190612f15565b60405180910390f35b34801561057b57600080fd5b50610584611a09565b60405161059191906129e6565b60405180910390f35b3480156105a657600080fd5b506105af611a4d565b6040516105bc91906129e6565b60405180910390f35b3480156105d157600080fd5b506105da611a53565b005b3480156105e857600080fd5b5061060360048036038101906105fe9190612f30565b611c9a565b60405161061091906129bc565b60405180910390f35b34801561062557600080fd5b5061062e611cf3565b60405161063b91906129e6565b60405180910390f35b34801561065057600080fd5b50610659611cfd565b005b610663611e9a565b005b34801561067157600080fd5b5061067a611eb5565b005b34801561068857600080fd5b5061069161212e565b60405161069e91906129e6565b60405180910390f35b3480156106b357600080fd5b506106bc612172565b6040516106c99190612ed2565b60405180910390f35b3480156106de57600080fd5b506106e761224b565b005b3480156106f557600080fd5b50610710600480360381019061070b9190612fd4565b61231f565b60405161071d91906129e6565b60405180910390f35b6000600354821080610739575060045482115b1561075e576000600b60046101000a81548160ff021916908315150217905550610781565b6001600b60046101000a81548160ff021916908315150217905550816010819055505b600b60049054906101000a900460ff169050919050565b6107a06108b3565b565b600b60049054906101000a900460ff1681565b6000600a82106107c857600a90506107cc565b8190505b919050565b6000808290506000805b825181101561085e5760008382815181106107f9576107f8613001565b5b602001015160f81c60f81b60f81c60ff1690506030811015801561081e575060398111155b1561084a57603081610830919061305f565b600a8461083d9190613093565b61084791906130d5565b92505b50808061085690613109565b9150506107db565b508092505050919050565b6000600e60026101000a81548160ff0219169083151502179055506001600e60036101000a81548160ff0219169083151502179055506108a7611821565b565b6108b161103b565b565b6000600d42446040516020016108ca929190613172565b6040516020818303038152906040528051906020012060001c6108ed91906131cd565b90506000600d4543604051602001610906929190613172565b6040516020818303038152906040528051906020012060001c61092991906131cd565b9050600060044244604051602001610942929190613172565b6040516020818303038152906040528051906020012060001c61096591906131cd565b905060006004454360405160200161097e929190613172565b6040516020818303038152906040528051906020012060001c6109a191906131cd565b90506000600685815481106109b9576109b8613001565b5b9060005260206000200180546109ce9061322d565b80601f01602080910402602001604051908101604052809291908181526020018280546109fa9061322d565b8015610a475780601f10610a1c57610100808354040283529160200191610a47565b820191906000526020600020905b815481529060010190602001808311610a2a57829003601f168201915b50505050509050600060068581548110610a6457610a63613001565b5b906000526020600020018054610a799061322d565b80601f0160208091040260200160405190810160405280929190818152602001828054610aa59061322d565b8015610af25780601f10610ac757610100808354040283529160200191610af2565b820191906000526020600020905b815481529060010190602001808311610ad557829003601f168201915b505050505090506007610b10600188610b0b91906130d5565b6107b5565b90806001815401808255809150506001900390600052602060002001600090919091909150556007610b4d600187610b4891906130d5565b6107b5565b908060018154018082558091505060019003906000526020600020016000909190919091505560016007600081548110610b8a57610b89613001565b5b9060005260206000200154148015610bc15750600a6007600181548110610bb457610bb3613001565b5b9060005260206000200154145b80610c16575060016007600181548110610bde57610bdd613001565b5b9060005260206000200154148015610c155750600a6007600081548110610c0857610c07613001565b5b9060005260206000200154145b5b15610ca5576001600b60006101000a81548160ff0219169083151502179055506000600e60006101000a81548160ff0219169083151502179055506001600e60016101000a81548160ff0219169083151502179055506001600e60046101000a81548160ff02191690831515021790555060026003610c95919061325e565b600f81905550610ca3612417565b505b600060058581548110610cbb57610cba613001565b5b906000526020600020018054610cd09061322d565b80601f0160208091040260200160405190810160405280929190818152602001828054610cfc9061322d565b8015610d495780601f10610d1e57610100808354040283529160200191610d49565b820191906000526020600020905b815481529060010190602001808311610d2c57829003601f168201915b50505050509050600060058581548110610d6657610d65613001565b5b906000526020600020018054610d7b9061322d565b80601f0160208091040260200160405190810160405280929190818152602001828054610da79061322d565b8015610df45780601f10610dc957610100808354040283529160200191610df4565b820191906000526020600020905b815481529060010190602001808311610dd757829003601f168201915b505050505090506000610e278584604051602001610e139291906132cb565b604051602081830303815290604052610fa9565b90506000610e558584604051602001610e419291906132cb565b604051602081830303815290604052610fa9565b9050600882908060018154018082558091505060019003906000526020600020016000909190919091509081610e8b919061349b565b50600881908060018154018082558091505060019003906000526020600020016000909190919091509081610ec0919061349b565b50610ec961224b565b50505050505050505050565b600f54601054610ee59190613093565b471015610f27576040517f08c379a0000000000000000000000000000000000000000000000000000000008152600401610f1e906135df565b60405180910390fd5b60008054906101000a900473ffffffffffffffffffffffffffffffffffffffff1673ffffffffffffffffffffffffffffffffffffffff166108fc600f54601054610f719190613093565b9081150290604051600060405180830381858888f19350505050158015610f9c573d6000803e3d6000fd5b50565b6000600c54905090565b606060006040518060600160405280602681526020016136b460269139905060006040518060400160405280600481526020017f2e706e670000000000000000000000000000000000000000000000000000000081525090506000828583604051602001611019939291906135ff565b6040516020818303038152906040529050809350505050919050565b60125481565b6000600d4244604051602001611052929190613172565b6040516020818303038152906040528051906020012060001c61107591906131cd565b90506000600d454360405160200161108e929190613172565b6040516020818303038152906040528051906020012060001c6110b191906131cd565b90506000600442446040516020016110ca929190613172565b6040516020818303038152906040528051906020012060001c6110ed91906131cd565b9050600060044543604051602001611106929190613172565b6040516020818303038152906040528051906020012060001c61112991906131cd565b905060006006858154811061114157611140613001565b5b9060005260206000200180546111569061322d565b80601f01602080910402602001604051908101604052809291908181526020018280546111829061322d565b80156111cf5780601f106111a4576101008083540402835291602001916111cf565b820191906000526020600020905b8154815290600101906020018083116111b257829003601f168201915b505050505090506000600685815481106111ec576111eb613001565b5b9060005260206000200180546112019061322d565b80601f016020809104026020016040519081016040528092919081815260200182805461122d9061322d565b801561127a5780601f1061124f5761010080835404028352916020019161127a565b820191906000526020600020905b81548152906001019060200180831161125d57829003601f168201915b50505050509050600961129860018861129391906130d5565b6107b5565b908060018154018082558091505060019003906000526020600020016000909190919091505560096112d56001876112d091906130d5565b6107b5565b90806001815401808255809150506001900390600052602060002001600090919091909150556001600960008154811061131257611311613001565b5b90600052602060002001541480156113495750600a600960018154811061133c5761133b613001565b5b9060005260206000200154145b8061139e57506001600960018154811061136657611365613001565b5b906000526020600020015414801561139d5750600a60096000815481106113905761138f613001565b5b9060005260206000200154145b5b15611421576001600b60016101000a81548160ff0219169083151502179055506001600e60006101000a81548160ff0219169083151502179055506000600e60016101000a81548160ff0219169083151502179055506001600e60046101000a81548160ff0219169083151502179055506001600f8190555061141f612417565b505b60006005858154811061143757611436613001565b5b90600052602060002001805461144c9061322d565b80601f01602080910402602001604051908101604052809291908181526020018280546114789061322d565b80156114c55780601f1061149a576101008083540402835291602001916114c5565b820191906000526020600020905b8154815290600101906020018083116114a857829003601f168201915b505050505090506000600585815481106114e2576114e1613001565b5b9060005260206000200180546114f79061322d565b80601f01602080910402602001604051908101604052809291908181526020018280546115239061322d565b80156115705780601f1061154557610100808354040283529160200191611570565b820191906000526020600020905b81548152906001019060200180831161155357829003601f168201915b5050505050905060006115a3858460405160200161158f9291906132cb565b604051602081830303815290604052610fa9565b905060006115d185846040516020016115bd9291906132cb565b604051602081830303815290604052610fa9565b9050600a82908060018154018082558091505060019003906000526020600020016000909190919091509081611607919061349b565b50600a8190806001815401808255809150506001900390600052602060002001600090919091909150908161163c919061349b565b5061164561224b565b50505050505050505050565b6000600254821061167c576001600b60036101000a81548160ff021916908315150217905550611698565b6000600b60036101000a81548160ff0219169083151502179055505b7fd8f0cc0ad1816c0b2e2a2c5e7304d307c87f495a82c92d9853d446abd884ea6b600b60039054906101000a900460ff166040516116d691906129bc565b60405180910390a1600b60039054906101000a900460ff169050919050565b600160009054906101000a900473ffffffffffffffffffffffffffffffffffffffff1673ffffffffffffffffffffffffffffffffffffffff163373ffffffffffffffffffffffffffffffffffffffff1614611785576040517f08c379a000000000000000000000000000000000000000000000000000000000815260040161177c9061367c565b60405180910390fd5b80600160006101000a81548173ffffffffffffffffffffffffffffffffffffffff021916908373ffffffffffffffffffffffffffffffffffffffff16021790555050565b6060600780548060200260200160405190810160405280929190818152602001828054801561181757602002820191906000526020600020905b815481526020019060010190808311611803575b5050505050905090565b5b6011600d54101561183a57611835611a53565b611822565b6000600e60036101000a81548160ff0219169083151502179055506001600e60046101000a81548160ff021916908315150217905550611878612417565b50565b600160009054906101000a900473ffffffffffffffffffffffffffffffffffffffff1681565b6060600a805480602002602001604051908101604052809291908181526020016000905b828210156119715783829060005260206000200180546118e49061322d565b80601f01602080910402602001604051908101604052809291908181526020018280546119109061322d565b801561195d5780601f106119325761010080835404028352916020019161195d565b820191906000526020600020905b81548152906001019060200180831161194057829003601f168201915b5050505050815260200190600101906118c5565b50505050905090565b606060098054806020026020016040519081016040528092919081815260200182805480156119c857602002820191906000526020600020905b8154815260200190600101908083116119b4575b5050505050905090565b600b60039054906101000a900460ff1681565b60008054906101000a900473ffffffffffffffffffffffffffffffffffffffff1681565b600080600d4244604051602001611a21929190613172565b6040516020818303038152906040528051906020012060001c611a4491906131cd565b90508091505090565b60115481565b60006006611a5f611a09565b81548110611a7057611a6f613001565b5b906000526020600020018054611a859061322d565b80601f0160208091040260200160405190810160405280929190818152602001828054611ab19061322d565b8015611afe5780601f10611ad357610100808354040283529160200191611afe565b820191906000526020600020905b815481529060010190602001808311611ae157829003601f168201915b5050505050905060006005611b1161212e565b81548110611b2257611b21613001565b5b906000526020600020018054611b379061322d565b80601f0160208091040260200160405190810160405280929190818152602001828054611b639061322d565b8015611bb05780601f10611b8557610100808354040283529160200191611bb0565b820191906000526020600020905b815481529060010190602001808311611b9357829003601f168201915b5050505050905060008282604051602001611bcc9291906132cb565b60405160208183030381529060405290506009611be8846127ab565b9080600181540180825580915050600190039060005260206000200160009091909190915055600a81908060018154018082558091505060019003906000526020600020016000909190919091509081611c42919061349b565b50611c4b61224b565b6015600d541115611c95576001600e60016101000a81548160ff0219169083151502179055506000600e60006101000a81548160ff0219169083151502179055506001600f819055505b505050565b600081604051602001611cad919061369c565b6040516020818303038152906040528051906020012083604051602001611cd4919061369c565b6040516020818303038152906040528051906020012014905092915050565b6000600d54905090565b611d05610798565b611d0d6108a9565b600b60019054906101000a900460ff168015611d355750600b60009054906101000a900460ff165b15611d8c576001600b60026101000a81548160ff0219169083151502179055506000600e60006101000a81548160ff0219169083151502179055506000600e60016101000a81548160ff0219169083151502179055505b600b60019054906101000a900460ff168015611dbb575060001515600b60009054906101000a900460ff161515145b15611e12576001600b60026101000a81548160ff0219169083151502179055506000600e60016101000a81548160ff0219169083151502179055506001600e60006101000a81548160ff0219169083151502179055505b600b60009054906101000a900460ff168015611e41575060001515600b60019054906101000a900460ff161515145b15611e98576001600b60026101000a81548160ff0219169083151502179055506001600e60016101000a81548160ff0219169083151502179055506000600e60006101000a81548160ff0219169083151502179055505b565b3460116000828254611eac91906130d5565b92505081905550565b60006006611ec1611a09565b81548110611ed257611ed1613001565b5b906000526020600020018054611ee79061322d565b80601f0160208091040260200160405190810160405280929190818152602001828054611f139061322d565b8015611f605780601f10611f3557610100808354040283529160200191611f60565b820191906000526020600020905b815481529060010190602001808311611f4357829003601f168201915b5050505050905060006005611f7361212e565b81548110611f8457611f83613001565b5b906000526020600020018054611f999061322d565b80601f0160208091040260200160405190810160405280929190818152602001828054611fc59061322d565b80156120125780601f10611fe757610100808354040283529160200191612012565b820191906000526020600020905b815481529060010190602001808311611ff557829003601f168201915b50505050509050600061204583836040516020016120319291906132cb565b604051602081830303815290604052610fa9565b90506000612052846127ab565b905060078190806001815401808255809150506001900390600052602060002001600090919091909150556008829080600181540180825580915050600190039060005260206000200160009091909190915090816120b1919061349b565b506120ba61224b565b6015600c541115612128576001600e60006101000a81548160ff0219169083151502179055506000600e60016101000a81548160ff0219169083151502179055506001600e60046101000a81548160ff0219169083151502179055506000600f81905550612126612417565b505b50505050565b60008060044244604051602001612146929190613172565b6040516020818303038152906040528051906020012060001c61216991906131cd565b90508091505090565b60606008805480602002602001604051908101604052809291908181526020016000905b828210156122425783829060005260206000200180546121b59061322d565b80601f01602080910402602001604051908101604052809291908181526020018280546121e19061322d565b801561222e5780601f106122035761010080835404028352916020019161222e565b820191906000526020600020905b81548152906001019060200180831161221157829003601f168201915b505050505081526020019060010190612196565b50505050905090565b60006007805490509050600060098054905090506000600c8190555060005b828110156122bc576007818154811061228657612285613001565b5b9060005260206000200154600c60008282546122a291906130d5565b9250508190555080806122b490613109565b91505061226a565b506000600d8190555060005b8181101561231a57600981815481106122e4576122e3613001565b5b9060005260206000200154600d600082825461230091906130d5565b92505081905550808061231290613109565b9150506122c8565b505050565b6000816000806101000a81548173ffffffffffffffffffffffffffffffffffffffff021916908373ffffffffffffffffffffffffffffffffffffffff16021790555060008054906101000a900473ffffffffffffffffffffffffffffffffffffffff1673ffffffffffffffffffffffffffffffffffffffff16316012819055507fc6e2ac2344b72494ae5c6c59901ac6a72b498a598bf788b6503e60dba61f82506012546040516123d091906129e6565b60405180910390a160008054906101000a900473ffffffffffffffffffffffffffffffffffffffff1673ffffffffffffffffffffffffffffffffffffffff16319050919050565b6060600c54600d5403612467576000600e60016101000a81548160ff0219169083151502179055506000600e60006101000a81548160ff0219169083151502179055506000600f819055506125e7565b600c54600d5411801561247c57506015600d54105b156124c4576000600e60016101000a81548160ff0219169083151502179055506001600e60006101000a81548160ff0219169083151502179055506001600f819055506125e6565b600c54600d541080156124d957506015600c54105b15612521576001600e60016101000a81548160ff0219169083151502179055506000600e60006101000a81548160ff0219169083151502179055506001600f819055506125e5565b600c54600d5411801561253657506015600d54145b1561257e576000600e60016101000a81548160ff0219169083151502179055506001600e60006101000a81548160ff0219169083151502179055506001600f819055506125e4565b600c54600d5410801561259357506015600c54145b156125e3576001600e60016101000a81548160ff0219169083151502179055506000600e60006101000a81548160ff021916908315150217905550600260036125dc919061325e565b600f819055505b5b5b5b5b600b60029054906101000a900460ff168015612616575060001515600e60019054906101000a900460ff161515145b8015612635575060001515600e60009054906101000a900460ff161515145b15612677576040518060400160405280600681526020017f505553482121000000000000000000000000000000000000000000000000000081525090506127a8565b600b60029054906101000a900460ff1680156126a6575060011515600e60019054906101000a900460ff161515145b80156126c5575060001515600e60009054906101000a900460ff161515145b1561270f576126d2610ed5565b6040518060400160405280600681526020017f57494e212121000000000000000000000000000000000000000000000000000081525090506127a8565b600b60029054906101000a900460ff16801561273e575060001515600e60019054906101000a900460ff161515145b801561275d575060011515600e60009054906101000a900460ff161515145b156127a75761276a611e9a565b6040518060400160405280600781526020017f4c4f53452121210000000000000000000000000000000000000000000000000081525090506127a8565b5b90565b60006127ec826040518060400160405280600181526020017f4100000000000000000000000000000000000000000000000000000000000000815250611c9a565b156127fa5760019050612925565b612839826040518060400160405280600181526020017f3000000000000000000000000000000000000000000000000000000000000000815250611c9a565b8061287f575061287e826040518060400160405280600181526020017f4a00000000000000000000000000000000000000000000000000000000000000815250611c9a565b5b806128c557506128c4826040518060400160405280600181526020017f5100000000000000000000000000000000000000000000000000000000000000815250611c9a565b5b8061290b575061290a826040518060400160405280600181526020017f4b00000000000000000000000000000000000000000000000000000000000000815250611c9a565b5b1561291957600a9050612925565b612922826107d1565b90505b919050565b6000604051905090565b600080fd5b600080fd5b6000819050919050565b6129518161293e565b811461295c57600080fd5b50565b60008135905061296e81612948565b92915050565b60006020828403121561298a57612989612934565b5b60006129988482850161295f565b91505092915050565b60008115159050919050565b6129b6816129a1565b82525050565b60006020820190506129d160008301846129ad565b92915050565b6129e08161293e565b82525050565b60006020820190506129fb60008301846129d7565b92915050565b600080fd5b600080fd5b6000601f19601f8301169050919050565b7f4e487b7100000000000000000000000000000000000000000000000000000000600052604160045260246000fd5b612a5482612a0b565b810181811067ffffffffffffffff82111715612a7357612a72612a1c565b5b80604052505050565b6000612a8661292a565b9050612a928282612a4b565b919050565b600067ffffffffffffffff821115612ab257612ab1612a1c565b5b612abb82612a0b565b9050602081019050919050565b82818337600083830152505050565b6000612aea612ae584612a97565b612a7c565b905082815260208101848484011115612b0657612b05612a06565b5b612b11848285612ac8565b509392505050565b600082601f830112612b2e57612b2d612a01565b5b8135612b3e848260208601612ad7565b91505092915050565b600060208284031215612b5d57612b5c612934565b5b600082013567ffffffffffffffff811115612b7b57612b7a612939565b5b612b8784828501612b19565b91505092915050565b600081519050919050565b600082825260208201905092915050565b60005b83811015612bca578082015181840152602081019050612baf565b60008484015250505050565b6000612be182612b90565b612beb8185612b9b565b9350612bfb818560208601612bac565b612c0481612a0b565b840191505092915050565b60006020820190508181036000830152612c298184612bd6565b905092915050565b600073ffffffffffffffffffffffffffffffffffffffff82169050919050565b6000612c5c82612c31565b9050919050565b612c6c81612c51565b8114612c7757600080fd5b50565b600081359050612c8981612c63565b92915050565b600060208284031215612ca557612ca4612934565b5b6000612cb384828501612c7a565b91505092915050565b600081519050919050565b600082825260208201905092915050565b6000819050602082019050919050565b612cf18161293e565b82525050565b6000612d038383612ce8565b60208301905092915050565b6000602082019050919050565b6000612d2782612cbc565b612d318185612cc7565b9350612d3c83612cd8565b8060005b83811015612d6d578151612d548882612cf7565b9750612d5f83612d0f565b925050600181019050612d40565b5085935050505092915050565b60006020820190508181036000830152612d948184612d1c565b905092915050565b612da581612c51565b82525050565b6000602082019050612dc06000830184612d9c565b92915050565b600081519050919050565b600082825260208201905092915050565b6000819050602082019050919050565b600082825260208201905092915050565b6000612e0e82612b90565b612e188185612df2565b9350612e28818560208601612bac565b612e3181612a0b565b840191505092915050565b6000612e488383612e03565b905092915050565b6000602082019050919050565b6000612e6882612dc6565b612e728185612dd1565b935083602082028501612e8485612de2565b8060005b85811015612ec05784840389528151612ea18582612e3c565b9450612eac83612e50565b925060208a01995050600181019050612e88565b50829750879550505050505092915050565b60006020820190508181036000830152612eec8184612e5d565b905092915050565b6000612eff82612c31565b9050919050565b612f0f81612ef4565b82525050565b6000602082019050612f2a6000830184612f06565b92915050565b60008060408385031215612f4757612f46612934565b5b600083013567ffffffffffffffff811115612f6557612f64612939565b5b612f7185828601612b19565b925050602083013567ffffffffffffffff811115612f9257612f91612939565b5b612f9e85828601612b19565b9150509250929050565b612fb181612ef4565b8114612fbc57600080fd5b50565b600081359050612fce81612fa8565b92915050565b600060208284031215612fea57612fe9612934565b5b6000612ff884828501612fbf565b91505092915050565b7f4e487b7100000000000000000000000000000000000000000000000000000000600052603260045260246000fd5b7f4e487b7100000000000000000000000000000000000000000000000000000000600052601160045260246000fd5b600061306a8261293e565b91506130758361293e565b925082820390508181111561308d5761308c613030565b5b92915050565b600061309e8261293e565b91506130a98361293e565b92508282026130b78161293e565b915082820484148315176130ce576130cd613030565b5b5092915050565b60006130e08261293e565b91506130eb8361293e565b925082820190508082111561310357613102613030565b5b92915050565b60006131148261293e565b91507fffffffffffffffffffffffffffffffffffffffffffffffffffffffffffffffff820361314657613145613030565b5b600182019050919050565b6000819050919050565b61316c6131678261293e565b613151565b82525050565b600061317e828561315b565b60208201915061318e828461315b565b6020820191508190509392505050565b7f4e487b7100000000000000000000000000000000000000000000000000000000600052601260045260246000fd5b60006131d88261293e565b91506131e38361293e565b9250826131f3576131f261319e565b5b828206905092915050565b7f4e487b7100000000000000000000000000000000000000000000000000000000600052602260045260246000fd5b6000600282049050600182168061324557607f821691505b602082108103613258576132576131fe565b5b50919050565b60006132698261293e565b91506132748361293e565b9250826132845761328361319e565b5b828204905092915050565b600081905092915050565b60006132a582612b90565b6132af818561328f565b93506132bf818560208601612bac565b80840191505092915050565b60006132d7828561329a565b91506132e3828461329a565b91508190509392505050565b60008190508160005260206000209050919050565b60006020601f8301049050919050565b600082821b905092915050565b6000600883026133517fffffffffffffffffffffffffffffffffffffffffffffffffffffffffffffffff82613314565b61335b8683613314565b95508019841693508086168417925050509392505050565b6000819050919050565b600061339861339361338e8461293e565b613373565b61293e565b9050919050565b6000819050919050565b6133b28361337d565b6133c66133be8261339f565b848454613321565b825550505050565b600090565b6133db6133ce565b6133e68184846133a9565b505050565b5b8181101561340a576133ff6000826133d3565b6001810190506133ec565b5050565b601f82111561344f57613420816132ef565b61342984613304565b81016020851015613438578190505b61344c61344485613304565b8301826133eb565b50505b505050565b600082821c905092915050565b600061347260001984600802613454565b1980831691505092915050565b600061348b8383613461565b9150826002028217905092915050565b6134a482612b90565b67ffffffffffffffff8111156134bd576134bc612a1c565b5b6134c7825461322d565b6134d282828561340e565b600060209050601f83116001811461350557600084156134f3578287015190505b6134fd858261347f565b865550613565565b601f198416613513866132ef565b60005b8281101561353b57848901518255600182019150602085019450602081019050613516565b868310156135585784890151613554601f891682613461565b8355505b6001600288020188555050505b505050505050565b7f496e73756666696369656e742062616c616e636520696e2074686520636f6e7460008201527f7261637400000000000000000000000000000000000000000000000000000000602082015250565b60006135c9602483612b9b565b91506135d48261356d565b604082019050919050565b600060208201905081810360008301526135f8816135bc565b9050919050565b600061360b828661329a565b9150613617828561329a565b9150613623828461329a565b9150819050949350505050565b7f4f6e6c7920746865206f776e65722063616e20646f2074686174210000000000600082015250565b6000613666601b83612b9b565b915061367182613630565b602082019050919050565b6000602082019050818103600083015261369581613659565b9050919050565b60006136a8828461329a565b91508190509291505056fe68747470733a2f2f6465636b6f6663617264736170692e636f6d2f7374617469632f696d672fa26469706673582212205421fb4a21fcf30f9c2c352ef81a0c1e81e844cc733e8056005b0e3291ec7cc864736f6c63430008110033",
  "immutableReferences": {},
  "source": "// SPDX-License-Identifier: MIT\npragma solidity >=0.4.22 <0.9.0;\n\n\ncontract Blackjack{\n    address payable public playerAddress;\n    //* Keep the owner address\n    address public owner;\n    //* keep the minimum balance to play\n    uint private minBalance = 10000000000000000000;\n\n    //* this is the minimum sum to play\n    uint private minimum = 10000000000000000;\n    //* this is the maximum sum to play\n    uint private maximum = 1000000000000000000;\n    //* this is the suits (each of the value represent a suit)\n    string[] suits = [\"H\", \"S\", \"D\", \"C\"];\n    //* this is the card values\n    // prettier-ignore\n    string[] ranks = [\"A\", \"2\", \"3\", \"4\", \"5\", \"6\", \"7\", \"8\", \"9\", \"0\", \"J\", \"Q\", \"K\"];\n\n    uint[] playerCardValues;\n    string[] playerCardsUrls;\n    uint[] dealercardValues;\n    string[] dealerCardsUrls;\n\n    bool isBlackForPlayer = false;\n    bool isBlackForDealer = false;\n\n    bool finishGame = false;\n    //* this is the variable that is updated when the minimum balance function runs\n    bool public balanceChecker;\n  \n    //* this is the variable that check the number in the input is more than the minimum to play and less than the maximum to play\n    bool public inputChecked = true;\n\n    uint playerCounter = 0;\n    uint dealerCounter = 0;\n\n    bool loosedPlayer = false;\n    bool loosedDealer = false;\n\n    bool canTakeNewCardPlayer = true;\n    bool canTakeNewCardDealer = false;\n\n    bool gameFinished = false;\n\n    uint payment = 1;\n    uint paymentSum = 0 ; \n    uint public balance;\n\n    //* This constructor get the smart contract owner address\n    constructor (){\n        owner = msg.sender;\n        balance = 0;\n        // We want to call this function when the player want to play a new game\n        //   deckcard = createDeck();\n    }\n\n    function startGame() external {\n        givetwoCardsToPlayer();\n        givetwoCardsToDealer();\n        if(isBlackForDealer && isBlackForPlayer){\n            // NEED TO WORK ON THE END OF THE GAME\n            finishGame = true;\n            loosedPlayer = false;\n            loosedDealer = false;\n        }    \n        if(isBlackForDealer && isBlackForPlayer == false ){ \n            finishGame = true;\n            loosedDealer = false;\n            loosedPlayer = true;\n        }\n        if(isBlackForPlayer && isBlackForDealer == false){ \n            finishGame = true;\n            loosedDealer = true;\n            loosedPlayer = false;        \n        }     \n    }\n\n    //* The modifier check if the user is the smart contract owner\n    modifier onlyOwner(){\n        require(msg.sender == owner,\"Only the owner can do that!\");\n        _;\n    }\n\n    //* The function to transfer smart contract ownership\n    function transferOwnerShip(address newOwner) external onlyOwner{\n        owner = newOwner;\n    }\n\n    // We need to check why it's not rendering the balance value\n    uint public playerBalance = 0;\n    event initBalance(uint playerBalance);\n    //* This function gets the player address and returns the player balance\n    function getBalance(address payable addrs) public  returns(uint){\n        playerAddress = addrs;\n        playerBalance = playerAddress.balance;\n        emit initBalance(playerBalance);        \n        return playerAddress.balance;\n\n    }   \n\n    event initchecker(bool balanceChecker);\n    // event initBlnc(uint256 blnc);\n    //* This function get the player address and check if he has anough balance in the wallet and returns true or false to the react code\n    function checkBalance(uint bal) public returns(bool){\n        // if(blnc >= minBalance){\n        if(bal >= minBalance){\n            balanceChecker = true;\n        }\n        else{\n            balanceChecker = false;\n        }\n        // uint256 blnc = msg.sender.balance;\n        emit initchecker(balanceChecker);\n        // emit initBlnc(blnc);\n        return balanceChecker;\n    }\n\n    //* The function gets from the frontend sum entered to play and verify if it's more than the minimum and less than the maximum\n    function checkInput(uint input) public returns (bool){\n        if(input < minimum || input > maximum){\n            inputChecked = false;\n        }else{\n            inputChecked = true;\n            paymentSum = input;\n        }\n        return inputChecked;\n    }\n\n    //* Checks if 2 strings are equals (helper function)\n    function compareStrings(string memory a, string memory b) public pure returns (bool) {\n    return (keccak256(abi.encodePacked((a))) == keccak256(abi.encodePacked((b))));\n    }\n\n    //* gets a string and return a interger (helper function)\n    function stringToUint(string memory s) public pure returns (uint) {\n        bytes memory b = bytes(s);\n        uint result = 0;\n        for (uint256 i = 0; i < b.length; i++) {\n            uint256 c = uint256(uint8(b[i]));\n            if (c >= 48 && c <= 57) {\n                result = result * 10 + (c - 48);\n            }\n        }\n        return result;\n    }\n\n    // The function creates URL for the ui\n    function createUrlForUI(string memory card) public pure returns (string memory) {\n        string memory cardLink = \"https://deckofcardsapi.com/static/img/\";\n        string memory cardType = \".png\";\n        string memory cardLinkNew = string.concat(cardLink,card,cardType);\n        return cardLinkNew;\n    }\n\n    // This function returns the cards of the player\n    function showPlayerCardvalue() public view returns(uint[] memory){\n        return playerCardValues;\n    }\n    function showPlayerCardUrls() public view returns(string[] memory){\n        return playerCardsUrls;\n    }\n    // This function returns the cards of the dealer\n    function showDealerCardvalue() public view returns(uint[] memory){\n        return dealercardValues;\n    }\n    function showDealerCardUrls() public view returns(string[] memory){\n        return dealerCardsUrls;\n    }\n    // It starts the game and give to the player 2 cards\n    function givetwoCardsToPlayer() public {\n        generateTwoRandomNumbersToPlayer();\n    }\n    // It starts the game and give to the dealer 2 cards\n    function givetwoCardsToDealer() public {\n        generateTwoRandomNumbersToDealer();\n    }\n    function showDealerCounter() public view returns(uint ){\n        return dealerCounter;\n    }\n    function showPlayerCounter() public view returns(uint ){\n        return playerCounter;\n    }\n\n    //* The function sums the cards values for dealer and player\n    function sumOfCards() public{\n        uint lenOfPlayerCards = playerCardValues.length;\n        uint lenOfDealerCards = dealercardValues.length;\n\n        playerCounter = 0;\n        // uint playerCounter = 0;\n        for(uint i = 0; i < lenOfPlayerCards; i++){\n            playerCounter += playerCardValues[i];\n        }\n        \n        dealerCounter = 0;\n        // uint dealerCounter = 0;\n        for(uint i = 0; i < lenOfDealerCards; i++){\n            dealerCounter += dealercardValues[i];\n        }\n    }\n\n    // The function convert value that are more than 10 to be 10\n    function checkValue(uint num) public pure returns(uint){\n        if(num >= 10)return 10;\n        return num;\n        \n    }\n\n    // The function generate 2 random cards to the player\n    function generateTwoRandomNumbersToPlayer() public {\n        uint randomNumber1 = uint(keccak256(abi.encodePacked(block.timestamp, block.difficulty))) % 13;\n        uint randomNumber2 = uint(keccak256(abi.encodePacked(block.gaslimit, block.number))) % 13;\n        \n        uint randomSuit1 = uint(keccak256(abi.encodePacked(block.timestamp, block.difficulty))) % 4;\n        uint randomSuit2 = uint(keccak256(abi.encodePacked(block.gaslimit, block.number))) % 4;\n\n        string memory rankNumber1 = ranks[randomNumber1];\n        string memory rankNumber2 = ranks[randomNumber2];\n        playerCardValues.push(checkValue(randomNumber1+1));\n        playerCardValues.push(checkValue(randomNumber2+1));\n        if((playerCardValues[0] == 1 && playerCardValues[1]==10) ||\n            (playerCardValues[1] == 1 && playerCardValues[0]==10)){\n                isBlackForPlayer = true;\n                loosedPlayer = false;\n                loosedDealer = true;\n                gameFinished = true;\n                payment = 3/uint256(2);\n                finishTheGame();\n        }\n        string memory suitNumber1 = suits[randomSuit1];\n        string memory suitNumber2 = suits[randomSuit2];\n\n        string memory card1 = createUrlForUI(string.concat(rankNumber1,suitNumber1));\n        string memory card2 = createUrlForUI(string.concat(rankNumber2,suitNumber2));\n\n        playerCardsUrls.push(card1);\n        playerCardsUrls.push(card2);\n\n        sumOfCards();\n    }\n\n\n    // The function generate 2 random cards to the dealer\n    function generateTwoRandomNumbersToDealer() public {\n        uint randomNumber1 = uint(keccak256(abi.encodePacked(block.timestamp, block.difficulty))) % 13;\n        uint randomNumber2 = uint(keccak256(abi.encodePacked(block.gaslimit, block.number))) % 13;\n\n        uint randomSuit1 = uint(keccak256(abi.encodePacked(block.timestamp, block.difficulty))) % 4;\n        uint randomSuit2 = uint(keccak256(abi.encodePacked(block.gaslimit, block.number))) % 4;\n\n        string memory rankNumber1 = ranks[randomNumber1];\n        string memory rankNumber2 = ranks[randomNumber2];\n        dealercardValues.push(checkValue(randomNumber1+1));\n        dealercardValues.push(checkValue(randomNumber2+1));\n        if((dealercardValues[0] == 1 && dealercardValues[1]==10) ||\n            (dealercardValues[1] == 1 && dealercardValues[0]==10)){\n                isBlackForDealer = true;\n                loosedPlayer = true;\n                loosedDealer = false;\n                gameFinished = true;\n                payment = 1;\n                finishTheGame();\n\n        }\n        string memory suitNumber1 = suits[randomSuit1];\n        string memory suitNumber2 = suits[randomSuit2];\n\n        string memory card1 = createUrlForUI(string.concat(rankNumber1,suitNumber1));\n        string memory card2 = createUrlForUI(string.concat(rankNumber2,suitNumber2));\n\n        dealerCardsUrls.push(card1);\n        dealerCardsUrls.push(card2);\n\n        sumOfCards();\n\n    }\n   \n    //* The function add to the player a new random card\n    function getRandomCardValueToPlayer() public {\n        string memory rankNumber = ranks[getRandomRank()];\n        string memory suitNumber = suits[getRandomSuit()];\n        string memory card = createUrlForUI(string.concat(rankNumber,suitNumber));\n        uint  cardVal = getRankNum(rankNumber);\n        playerCardValues.push(cardVal);\n        playerCardsUrls.push(card);\n        sumOfCards();\n        if(playerCounter > 21){\n            loosedPlayer = true;\n            loosedDealer = false;\n            gameFinished = true;\n            payment = 0;\n            finishTheGame();\n            \n        }\n    }\n\n    //* The function adds to the dealer cards while he arrives to 17 or more\n    function dealerCardDistributer() public{\n        while(dealerCounter < 17){\n            getRandomCardValueToDealer();\n        }\n        canTakeNewCardDealer = false;\n        gameFinished = true;\n        finishTheGame();        \n    }\n\n    //* The function add to the dealer a new random card\n    function getRandomCardValueToDealer() public {\n        \n        string memory rankNumber = ranks[getRandomRank()];\n        string memory suitNumber = suits[getRandomSuit()];\n        string memory card = string.concat(rankNumber,suitNumber);\n        dealercardValues.push(getRankNum(rankNumber));\n        dealerCardsUrls.push(card);\n        sumOfCards();\n         if(dealerCounter > 21){\n            loosedDealer = true;\n            loosedPlayer = false;\n            payment = 1;\n        }\n    }\n\n    //* The function gets a random number from 0 to 12\n    function getRandomRank() public view returns (uint256) {\n        uint256 _randomNumber = uint256(keccak256(abi.encodePacked(block.timestamp, block.difficulty))) % 13; // Generate random number between 0 to 12\n        return (_randomNumber); \n    }\n\n    //* The function get a random number from 0 to 3\n    function getRandomSuit() public view returns (uint256) {\n        uint256 _randomNumber = uint256(keccak256(abi.encodePacked(block.timestamp, block.difficulty))) % 4; // Generate random number between 0 to 12\n        return (_randomNumber); \n    }\n\n\n\n    // The function gets the rank (string - first value) of a certain card in the deck and returns the number of card\n    function getRankNum(string memory rank) internal pure returns (uint){\n        if(compareStrings(rank,\"A\")){\n            return 1;\n        }\n        if( compareStrings(rank,\"0\") || compareStrings(rank,\"J\") || compareStrings(rank,\"Q\") || compareStrings(rank, \"K\" )){\n            return 10;\n        }\n        else{\n            return stringToUint(rank);\n        }\n    }\n\n    function finishGiveCard() external{\n        canTakeNewCardPlayer = false;\n        canTakeNewCardDealer = true;\n        dealerCardDistributer();\n    }\n    \n    // The function returns if the player won or lost\n    function finishTheGame() internal returns(string memory){\n        \n        if(dealerCounter == playerCounter){\n            loosedDealer = false;\n            loosedPlayer = false;\n            payment = 0; \n        }\n        else if((dealerCounter > playerCounter) && dealerCounter < 21 ){\n            loosedDealer = false;\n            loosedPlayer = true;\n            payment = 1;\n        }else if((dealerCounter < playerCounter) && playerCounter < 21 ){\n            loosedDealer = true;\n            loosedPlayer = false;\n            payment = 1;\n        }\n         else if((dealerCounter > playerCounter) && dealerCounter == 21 ){\n            loosedDealer = false;\n            loosedPlayer = true;\n            payment = 1;\n        }else if((dealerCounter < playerCounter) && playerCounter == 21 ){\n            loosedDealer = true;\n            loosedPlayer = false;\n            payment = 3/uint256(2);\n        }\n\n        if(finishGame && loosedDealer == false && loosedPlayer == false){\n            // don't do anything\n            return \"PUSH!!\";\n        }\n        else if(finishGame && loosedDealer == true && loosedPlayer == false){\n            // The dealer payes to the player\n            paymentToPlayer();\n            return \"WIN!!!\";\n        }\n        else if(finishGame && loosedDealer == false && loosedPlayer == true){\n            // The player payes to the dealer\n            contribute();\n            return \"LOSE!!!\";\n        }\n      \n    }\n    function paymentToPlayer() public payable{\n        require(address(this).balance >= paymentSum*payment, \"Insufficient balance in the contract\");\n        playerAddress.transfer(paymentSum * payment);\n    }\n\n    function contribute() public payable{\n        // msg.value is the value of Ether sent in a transaction\n        balance += msg.value;\n    }\n}\n\n    // mapping(address => uint256) public balances;\n\n    // function deposit() public payable {\n    //     balances[msg.sender] += msg.value;\n    // }\n\n    // function collect() public {\n    //     uint256 amount = balances[msg.sender];\n    //     require(amount > 0, \"No balance to withdraw\");\n\n    //     balances[msg.sender] = 0;\n    //     payable(address(this)).transfer(amount);\n    // }\n\n\n    // function paymentToDealer() public payable{\n    //     require(address(this).balance >= paymentSum*payment, \"Insufficient balance in the contract\");\n    //     playerAddress.transfer(paymentSum * payment);\n    // }\n// }",
  "sourcePath": "/Users/gabrielnakache/Desktop/Solidity Project/js1-app-code/contracts/Blackjack.sol",
  "compiler": {
    "name": "solc",
    "version": "0.8.17+commit.8df45f5f.Emscripten.clang"
  },
  "schemaVersion": "3.4.11",
  "updatedAt": "2023-03-30T13:03:44.620Z",
  "networkType": "ethereum",
  "devdoc": {
    "kind": "dev",
    "methods": {},
    "version": 1
  },
  "userdoc": {
    "kind": "user",
    "methods": {},
    "version": 1
  }
}