{
  "contractName": "Blackjack",
  "abi": [
    {
      "inputs": [],
      "stateMutability": "nonpayable",
      "type": "constructor"
    },
    {
      "inputs": [],
      "name": "balanceChecker",
      "outputs": [
        {
          "internalType": "bool",
          "name": "",
          "type": "bool"
        }
      ],
      "stateMutability": "view",
      "type": "function",
      "constant": true
    },
    {
      "inputs": [],
      "name": "owner",
      "outputs": [
        {
          "internalType": "address",
          "name": "",
          "type": "address"
        }
      ],
      "stateMutability": "view",
      "type": "function",
      "constant": true
    },
    {
      "inputs": [
        {
          "internalType": "address",
          "name": "newOwner",
          "type": "address"
        }
      ],
      "name": "transferOwnerShip",
      "outputs": [],
      "stateMutability": "nonpayable",
      "type": "function"
    },
    {
      "inputs": [
        {
          "internalType": "uint256",
          "name": "balance",
          "type": "uint256"
        }
      ],
      "name": "checkBalance",
      "outputs": [
        {
          "internalType": "bool",
          "name": "",
          "type": "bool"
        }
      ],
      "stateMutability": "nonpayable",
      "type": "function"
    },
    {
      "inputs": [],
      "name": "balance",
      "outputs": [
        {
          "internalType": "uint256",
          "name": "",
          "type": "uint256"
        }
      ],
      "stateMutability": "view",
      "type": "function",
      "constant": true
    }
  ],
  "bytecode": "0x6080604052683635c9adc5dea000006001556000600260006101000a81548160ff02191690831515021790555034801561003857600080fd5b50336000806101000a81548173ffffffffffffffffffffffffffffffffffffffff021916908373ffffffffffffffffffffffffffffffffffffffff1602179055506104a0806100886000396000f3fe608060405234801561001057600080fd5b50600436106100575760003560e01c80637f2862861461005c5780638863dd1a1461008c5780638da5cb5b146100a85780639d8c6cfb146100c6578063b69ef8a8146100e4575b600080fd5b610076600480360381019061007191906102ab565b610102565b60405161008391906102f3565b60405180910390f35b6100a660048036038101906100a1919061036c565b610160565b005b6100b0610231565b6040516100bd91906103a8565b60405180910390f35b6100ce610255565b6040516100db91906102f3565b60405180910390f35b6100ec610268565b6040516100f991906103d2565b60405180910390f35b6000600154821061012d576001600260006101000a81548160ff021916908315150217905550610149565b6000600260006101000a81548160ff0219169083151502179055505b600260009054906101000a900460ff169050919050565b60008054906101000a900473ffffffffffffffffffffffffffffffffffffffff1673ffffffffffffffffffffffffffffffffffffffff163373ffffffffffffffffffffffffffffffffffffffff16146101ee576040517f08c379a00000000000000000000000000000000000000000000000000000000081526004016101e59061044a565b60405180910390fd5b806000806101000a81548173ffffffffffffffffffffffffffffffffffffffff021916908373ffffffffffffffffffffffffffffffffffffffff16021790555050565b60008054906101000a900473ffffffffffffffffffffffffffffffffffffffff1681565b600260009054906101000a900460ff1681565b600047905090565b600080fd5b6000819050919050565b61028881610275565b811461029357600080fd5b50565b6000813590506102a58161027f565b92915050565b6000602082840312156102c1576102c0610270565b5b60006102cf84828501610296565b91505092915050565b60008115159050919050565b6102ed816102d8565b82525050565b600060208201905061030860008301846102e4565b92915050565b600073ffffffffffffffffffffffffffffffffffffffff82169050919050565b60006103398261030e565b9050919050565b6103498161032e565b811461035457600080fd5b50565b60008135905061036681610340565b92915050565b60006020828403121561038257610381610270565b5b600061039084828501610357565b91505092915050565b6103a28161032e565b82525050565b60006020820190506103bd6000830184610399565b92915050565b6103cc81610275565b82525050565b60006020820190506103e760008301846103c3565b92915050565b600082825260208201905092915050565b7f4f6e6c7920746865206f776e65722063616e20646f2074686174210000000000600082015250565b6000610434601b836103ed565b915061043f826103fe565b602082019050919050565b6000602082019050818103600083015261046381610427565b905091905056fea26469706673582212202480be50e0321e5308fd90c82952713cb25c4f5b3e018333c6958c8acc25be3864736f6c63430008110033",
  "immutableReferences": {},
  "source": "// SPDX-License-Identifier: MIT\n\npragma solidity >=0.4.22 <0.9.0;\n\ncontract Blackjack{\n\n    //* Keep the owner address\n    address public owner;\n    //* keep the minimum balance to play\n\n    uint private minBalance = 1000000000000000000000;\n    //* this is the variable that is updated when the minimum balance function runs\n    bool public balanceChecker = false;\n\n    //* This constructor get the smart contract owner address\n    constructor (){\n        owner = msg.sender;\n    }\n\n    //* The modifier check if the user is the smart contract owner\n    modifier onlyOwner(){\n        require(msg.sender == owner,\"Only the owner can do that!\");\n        _;\n    }\n\n    //* The function to transfer smart contract ownership\n    function transferOwnerShip(address newOwner) external onlyOwner{\n        owner = newOwner;\n    }   \n\n    //* This function get the player address and check if he has anough balance in the wallet and returns true or false to the react code\n    function checkBalance(uint balance) external returns(bool){\n        // uint balance = address(addrs).balance;\n        if(balance >= minBalance){\n            balanceChecker = true;\n        }else{\n            balanceChecker = false;\n        }\n        return balanceChecker;\n    }\n\n    function balance() public view returns (uint) {\n        return address(this).balance;\n    }\n\n    //* Check the balance\n    // function getBalance(address address) external payable returns(uint){\n    //     uint balance = addrs.balance;\n    //     return balance;\n    // }\n\n    \n\n}\n\n\n\n\n",
  "sourcePath": "/Users/gabrielnakache/Desktop/Solidity Project/js1-app-code/contracts/Blackjack.sol",
  "compiler": {
    "name": "solc",
    "version": "0.8.17+commit.8df45f5f.Emscripten.clang"
  },
  "schemaVersion": "3.4.11",
  "updatedAt": "2023-03-23T20:20:56.267Z",
  "networkType": "ethereum",
  "devdoc": {
    "kind": "dev",
    "methods": {},
    "version": 1
  },
  "userdoc": {
    "kind": "user",
    "methods": {},
    "version": 1
  }
}