{
  "contractName": "Blackjack",
  "abi": [
    {
      "inputs": [],
      "stateMutability": "nonpayable",
      "type": "constructor"
    },
    {
      "anonymous": false,
      "inputs": [
        {
          "indexed": false,
          "internalType": "uint256",
          "name": "playerBalance",
          "type": "uint256"
        }
      ],
      "name": "initBalance",
      "type": "event"
    },
    {
      "anonymous": false,
      "inputs": [
        {
          "indexed": false,
          "internalType": "bool",
          "name": "balanceChecker",
          "type": "bool"
        }
      ],
      "name": "initchecker",
      "type": "event"
    },
    {
      "anonymous": false,
      "inputs": [
        {
          "indexed": false,
          "internalType": "bool",
          "name": "",
          "type": "bool"
        },
        {
          "indexed": false,
          "internalType": "uint256",
          "name": "",
          "type": "uint256"
        }
      ],
      "name": "inpuchecker",
      "type": "event"
    },
    {
      "anonymous": false,
      "inputs": [
        {
          "indexed": false,
          "internalType": "uint256[]",
          "name": "",
          "type": "uint256[]"
        }
      ],
      "name": "returnDealerCardvale",
      "type": "event"
    },
    {
      "anonymous": false,
      "inputs": [
        {
          "indexed": false,
          "internalType": "uint256",
          "name": "",
          "type": "uint256"
        }
      ],
      "name": "returnDealerCounter",
      "type": "event"
    },
    {
      "anonymous": false,
      "inputs": [
        {
          "indexed": false,
          "internalType": "string[]",
          "name": "",
          "type": "string[]"
        }
      ],
      "name": "returnDealerUrls",
      "type": "event"
    },
    {
      "anonymous": false,
      "inputs": [
        {
          "indexed": false,
          "internalType": "uint256[]",
          "name": "",
          "type": "uint256[]"
        }
      ],
      "name": "returnPlayerCardvale",
      "type": "event"
    },
    {
      "anonymous": false,
      "inputs": [
        {
          "indexed": false,
          "internalType": "uint256",
          "name": "",
          "type": "uint256"
        }
      ],
      "name": "returnPlayerCounter",
      "type": "event"
    },
    {
      "anonymous": false,
      "inputs": [
        {
          "indexed": false,
          "internalType": "string[]",
          "name": "",
          "type": "string[]"
        }
      ],
      "name": "returnPlayerUrls",
      "type": "event"
    },
    {
      "anonymous": false,
      "inputs": [
        {
          "indexed": false,
          "internalType": "string",
          "name": "",
          "type": "string"
        }
      ],
      "name": "returnResultData",
      "type": "event"
    },
    {
      "anonymous": false,
      "inputs": [
        {
          "indexed": false,
          "internalType": "string[]",
          "name": "",
          "type": "string[]"
        }
      ],
      "name": "showDealerCardPics",
      "type": "event"
    },
    {
      "anonymous": false,
      "inputs": [
        {
          "indexed": false,
          "internalType": "uint256",
          "name": "",
          "type": "uint256"
        }
      ],
      "name": "showNumberOfPlayers",
      "type": "event"
    },
    {
      "anonymous": false,
      "inputs": [
        {
          "indexed": false,
          "internalType": "string[]",
          "name": "",
          "type": "string[]"
        }
      ],
      "name": "showPlayerCardPics",
      "type": "event"
    },
    {
      "inputs": [],
      "name": "balance",
      "outputs": [
        {
          "internalType": "uint256",
          "name": "",
          "type": "uint256"
        }
      ],
      "stateMutability": "view",
      "type": "function",
      "constant": true
    },
    {
      "inputs": [],
      "name": "balanceChecker",
      "outputs": [
        {
          "internalType": "bool",
          "name": "",
          "type": "bool"
        }
      ],
      "stateMutability": "view",
      "type": "function",
      "constant": true
    },
    {
      "inputs": [],
      "name": "inputChecked",
      "outputs": [
        {
          "internalType": "bool",
          "name": "",
          "type": "bool"
        }
      ],
      "stateMutability": "view",
      "type": "function",
      "constant": true
    },
    {
      "inputs": [],
      "name": "numberOfPlayers",
      "outputs": [
        {
          "internalType": "uint256",
          "name": "",
          "type": "uint256"
        }
      ],
      "stateMutability": "view",
      "type": "function",
      "constant": true
    },
    {
      "inputs": [],
      "name": "owner",
      "outputs": [
        {
          "internalType": "address",
          "name": "",
          "type": "address"
        }
      ],
      "stateMutability": "view",
      "type": "function",
      "constant": true
    },
    {
      "inputs": [],
      "name": "playerAddress",
      "outputs": [
        {
          "internalType": "address payable",
          "name": "",
          "type": "address"
        }
      ],
      "stateMutability": "view",
      "type": "function",
      "constant": true
    },
    {
      "inputs": [],
      "name": "playerBalance",
      "outputs": [
        {
          "internalType": "uint256",
          "name": "",
          "type": "uint256"
        }
      ],
      "stateMutability": "view",
      "type": "function",
      "constant": true
    },
    {
      "inputs": [],
      "name": "startGame",
      "outputs": [],
      "stateMutability": "nonpayable",
      "type": "function"
    },
    {
      "inputs": [
        {
          "internalType": "address",
          "name": "newOwner",
          "type": "address"
        }
      ],
      "name": "transferOwnerShip",
      "outputs": [],
      "stateMutability": "nonpayable",
      "type": "function"
    },
    {
      "inputs": [
        {
          "internalType": "address payable",
          "name": "addrs",
          "type": "address"
        }
      ],
      "name": "getBalance",
      "outputs": [
        {
          "internalType": "uint256",
          "name": "",
          "type": "uint256"
        }
      ],
      "stateMutability": "nonpayable",
      "type": "function"
    },
    {
      "inputs": [
        {
          "internalType": "uint256",
          "name": "bal",
          "type": "uint256"
        }
      ],
      "name": "checkBalance",
      "outputs": [
        {
          "internalType": "bool",
          "name": "",
          "type": "bool"
        }
      ],
      "stateMutability": "nonpayable",
      "type": "function"
    },
    {
      "inputs": [
        {
          "internalType": "uint256",
          "name": "bal",
          "type": "uint256"
        },
        {
          "internalType": "uint256",
          "name": "input",
          "type": "uint256"
        }
      ],
      "name": "checkInput",
      "outputs": [
        {
          "internalType": "bool",
          "name": "",
          "type": "bool"
        },
        {
          "internalType": "uint256",
          "name": "",
          "type": "uint256"
        }
      ],
      "stateMutability": "nonpayable",
      "type": "function"
    },
    {
      "inputs": [
        {
          "internalType": "string",
          "name": "a",
          "type": "string"
        },
        {
          "internalType": "string",
          "name": "b",
          "type": "string"
        }
      ],
      "name": "compareStrings",
      "outputs": [
        {
          "internalType": "bool",
          "name": "",
          "type": "bool"
        }
      ],
      "stateMutability": "pure",
      "type": "function",
      "constant": true
    },
    {
      "inputs": [
        {
          "internalType": "string",
          "name": "s",
          "type": "string"
        }
      ],
      "name": "stringToUint",
      "outputs": [
        {
          "internalType": "uint256",
          "name": "",
          "type": "uint256"
        }
      ],
      "stateMutability": "pure",
      "type": "function",
      "constant": true
    },
    {
      "inputs": [
        {
          "internalType": "string",
          "name": "card",
          "type": "string"
        }
      ],
      "name": "createUrlForUI",
      "outputs": [
        {
          "internalType": "string",
          "name": "",
          "type": "string"
        }
      ],
      "stateMutability": "pure",
      "type": "function",
      "constant": true
    },
    {
      "inputs": [],
      "name": "showPlayerCardvalue",
      "outputs": [
        {
          "internalType": "uint256[]",
          "name": "",
          "type": "uint256[]"
        }
      ],
      "stateMutability": "nonpayable",
      "type": "function"
    },
    {
      "inputs": [],
      "name": "showPlayerCardUrls",
      "outputs": [
        {
          "internalType": "string[]",
          "name": "",
          "type": "string[]"
        }
      ],
      "stateMutability": "view",
      "type": "function",
      "constant": true
    },
    {
      "inputs": [],
      "name": "showDealerCardvalue",
      "outputs": [
        {
          "internalType": "uint256[]",
          "name": "",
          "type": "uint256[]"
        }
      ],
      "stateMutability": "nonpayable",
      "type": "function"
    },
    {
      "inputs": [],
      "name": "showDealerCardUrls",
      "outputs": [
        {
          "internalType": "string[]",
          "name": "",
          "type": "string[]"
        }
      ],
      "stateMutability": "view",
      "type": "function",
      "constant": true
    },
    {
      "inputs": [],
      "name": "givetwoCardsToPlayer",
      "outputs": [],
      "stateMutability": "nonpayable",
      "type": "function"
    },
    {
      "inputs": [],
      "name": "givetwoCardsToDealer",
      "outputs": [],
      "stateMutability": "nonpayable",
      "type": "function"
    },
    {
      "inputs": [],
      "name": "showDealerCounter",
      "outputs": [
        {
          "internalType": "uint256",
          "name": "",
          "type": "uint256"
        }
      ],
      "stateMutability": "nonpayable",
      "type": "function"
    },
    {
      "inputs": [],
      "name": "showPlayerCounter",
      "outputs": [
        {
          "internalType": "uint256",
          "name": "",
          "type": "uint256"
        }
      ],
      "stateMutability": "nonpayable",
      "type": "function"
    },
    {
      "inputs": [],
      "name": "sumOfCardsPlayer",
      "outputs": [],
      "stateMutability": "nonpayable",
      "type": "function"
    },
    {
      "inputs": [],
      "name": "sumOfCardsDealer",
      "outputs": [],
      "stateMutability": "nonpayable",
      "type": "function"
    },
    {
      "inputs": [
        {
          "internalType": "uint256",
          "name": "num",
          "type": "uint256"
        }
      ],
      "name": "checkValue",
      "outputs": [
        {
          "internalType": "uint256",
          "name": "",
          "type": "uint256"
        }
      ],
      "stateMutability": "pure",
      "type": "function",
      "constant": true
    },
    {
      "inputs": [],
      "name": "generateTwoRandomNumbersToPlayer",
      "outputs": [
        {
          "internalType": "string[]",
          "name": "",
          "type": "string[]"
        }
      ],
      "stateMutability": "nonpayable",
      "type": "function"
    },
    {
      "inputs": [],
      "name": "generateTwoRandomNumbersToDealer",
      "outputs": [
        {
          "internalType": "string[]",
          "name": "",
          "type": "string[]"
        }
      ],
      "stateMutability": "nonpayable",
      "type": "function"
    },
    {
      "inputs": [],
      "name": "showTotalNumOfPlayers",
      "outputs": [],
      "stateMutability": "nonpayable",
      "type": "function"
    },
    {
      "inputs": [],
      "name": "getRandomCardValueToPlayer",
      "outputs": [
        {
          "internalType": "string[]",
          "name": "",
          "type": "string[]"
        }
      ],
      "stateMutability": "nonpayable",
      "type": "function"
    },
    {
      "inputs": [],
      "name": "dealerCardDistributer",
      "outputs": [
        {
          "internalType": "string[]",
          "name": "",
          "type": "string[]"
        }
      ],
      "stateMutability": "nonpayable",
      "type": "function"
    },
    {
      "inputs": [
        {
          "internalType": "uint256",
          "name": "val",
          "type": "uint256"
        }
      ],
      "name": "getRandomCardValueToDealer",
      "outputs": [],
      "stateMutability": "nonpayable",
      "type": "function"
    },
    {
      "inputs": [
        {
          "internalType": "uint256",
          "name": "val",
          "type": "uint256"
        }
      ],
      "name": "getRandomRank",
      "outputs": [
        {
          "internalType": "uint256",
          "name": "",
          "type": "uint256"
        }
      ],
      "stateMutability": "view",
      "type": "function",
      "constant": true
    },
    {
      "inputs": [
        {
          "internalType": "uint256",
          "name": "val",
          "type": "uint256"
        }
      ],
      "name": "getRandomSuit",
      "outputs": [
        {
          "internalType": "uint256",
          "name": "",
          "type": "uint256"
        }
      ],
      "stateMutability": "view",
      "type": "function",
      "constant": true
    },
    {
      "inputs": [],
      "name": "finishGiveCard",
      "outputs": [],
      "stateMutability": "nonpayable",
      "type": "function"
    },
    {
      "inputs": [],
      "name": "finishTheGame",
      "outputs": [
        {
          "internalType": "string",
          "name": "",
          "type": "string"
        }
      ],
      "stateMutability": "nonpayable",
      "type": "function"
    },
    {
      "inputs": [],
      "name": "calculatePercentageOfWin",
      "outputs": [
        {
          "internalType": "uint256",
          "name": "",
          "type": "uint256"
        }
      ],
      "stateMutability": "view",
      "type": "function",
      "constant": true
    },
    {
      "inputs": [],
      "name": "paymentToPlayer",
      "outputs": [],
      "stateMutability": "payable",
      "type": "function",
      "payable": true
    },
    {
      "inputs": [
        {
          "internalType": "address payable",
          "name": "recipient",
          "type": "address"
        },
        {
          "internalType": "uint256",
          "name": "amount",
          "type": "uint256"
        }
      ],
      "name": "transferFunds",
      "outputs": [],
      "stateMutability": "nonpayable",
      "type": "function"
    },
    {
      "inputs": [
        {
          "internalType": "uint256",
          "name": "amount",
          "type": "uint256"
        }
      ],
      "name": "withdrawAmount",
      "outputs": [],
      "stateMutability": "nonpayable",
      "type": "function"
    },
    {
      "inputs": [],
      "name": "contribute",
      "outputs": [],
      "stateMutability": "payable",
      "type": "function",
      "payable": true
    }
  ],
  "bytecode": "0x6080604052678ac7230489e80000600655662386f26fc10000600755670de0b6b3a764000060085560405180608001604052806040518060400160405280600181526020017f480000000000000000000000000000000000000000000000000000000000000081525081526020016040518060400160405280600181526020017f530000000000000000000000000000000000000000000000000000000000000081525081526020016040518060400160405280600181526020017f440000000000000000000000000000000000000000000000000000000000000081525081526020016040518060400160405280600181526020017f430000000000000000000000000000000000000000000000000000000000000081525081525060099060046200012e929190620005d5565b50604051806101a001604052806040518060400160405280600181526020017f410000000000000000000000000000000000000000000000000000000000000081525081526020016040518060400160405280600181526020017f320000000000000000000000000000000000000000000000000000000000000081525081526020016040518060400160405280600181526020017f330000000000000000000000000000000000000000000000000000000000000081525081526020016040518060400160405280600181526020017f340000000000000000000000000000000000000000000000000000000000000081525081526020016040518060400160405280600181526020017f350000000000000000000000000000000000000000000000000000000000000081525081526020016040518060400160405280600181526020017f360000000000000000000000000000000000000000000000000000000000000081525081526020016040518060400160405280600181526020017f370000000000000000000000000000000000000000000000000000000000000081525081526020016040518060400160405280600181526020017f380000000000000000000000000000000000000000000000000000000000000081525081526020016040518060400160405280600181526020017f390000000000000000000000000000000000000000000000000000000000000081525081526020016040518060400160405280600181526020017f300000000000000000000000000000000000000000000000000000000000000081525081526020016040518060400160405280600181526020017f4a0000000000000000000000000000000000000000000000000000000000000081525081526020016040518060400160405280600181526020017f510000000000000000000000000000000000000000000000000000000000000081525081526020016040518060400160405280600181526020017f4b00000000000000000000000000000000000000000000000000000000000000815250815250600a90600d6200044a92919062000635565b506000600f60006101000a81548160ff0219169083151502179055506000600f60016101000a81548160ff0219169083151502179055506000600f60026101000a81548160ff0219169083151502179055506001600f60046101000a81548160ff021916908315150217905550600060105560006011556000601260006101000a81548160ff0219169083151502179055506000601260016101000a81548160ff0219169083151502179055506001601260026101000a81548160ff0219169083151502179055506000601260036101000a81548160ff0219169083151502179055506000601260046101000a81548160ff02191690831515021790555060016013556000601455600060165560405180602001604052806000815250601790816200057791906200099c565b503480156200058557600080fd5b5033600560006101000a81548173ffffffffffffffffffffffffffffffffffffffff021916908373ffffffffffffffffffffffffffffffffffffffff160217905550600060158190555062000a83565b82805482825590600052602060002090810192821562000622579160200282015b82811115620006215782518290816200061091906200099c565b5091602001919060010190620005f6565b5b50905062000631919062000695565b5090565b82805482825590600052602060002090810192821562000682579160200282015b82811115620006815782518290816200067091906200099c565b509160200191906001019062000656565b5b50905062000691919062000695565b5090565b5b80821115620006b95760008181620006af9190620006bd565b5060010162000696565b5090565b508054620006cb906200078b565b6000825580601f10620006df575062000700565b601f016020900490600052602060002090810190620006ff919062000703565b5b50565b5b808211156200071e57600081600090555060010162000704565b5090565b600081519050919050565b7f4e487b7100000000000000000000000000000000000000000000000000000000600052604160045260246000fd5b7f4e487b7100000000000000000000000000000000000000000000000000000000600052602260045260246000fd5b60006002820490506001821680620007a457607f821691505b602082108103620007ba57620007b96200075c565b5b50919050565b60008190508160005260206000209050919050565b60006020601f8301049050919050565b600082821b905092915050565b600060088302620008247fffffffffffffffffffffffffffffffffffffffffffffffffffffffffffffffff82620007e5565b620008308683620007e5565b95508019841693508086168417925050509392505050565b6000819050919050565b6000819050919050565b60006200087d62000877620008718462000848565b62000852565b62000848565b9050919050565b6000819050919050565b62000899836200085c565b620008b1620008a88262000884565b848454620007f2565b825550505050565b600090565b620008c8620008b9565b620008d58184846200088e565b505050565b5b81811015620008fd57620008f1600082620008be565b600181019050620008db565b5050565b601f8211156200094c576200091681620007c0565b6200092184620007d5565b8101602085101562000931578190505b620009496200094085620007d5565b830182620008da565b50505b505050565b600082821c905092915050565b6000620009716000198460080262000951565b1980831691505092915050565b60006200098c83836200095e565b9150826002028217905092915050565b620009a78262000722565b67ffffffffffffffff811115620009c357620009c26200072d565b5b620009cf82546200078b565b620009dc82828562000901565b600060209050601f83116001811462000a145760008415620009ff578287015190505b62000a0b85826200097e565b86555062000a7b565b601f19841662000a2486620007c0565b60005b8281101562000a4e5784890151825560018201915060208501945060208101905062000a27565b8683101562000a6e578489015162000a6a601f8916826200095e565b8355505b6001600288020188555050505b505050505050565b614c608062000a936000396000f3fe6080604052600436106102465760003560e01c806388eb3a3711610139578063bed34bba116100b6578063ddaabf6b1161007a578063ddaabf6b146107fd578063e07c544514610826578063ecd65c0f14610851578063f2ca40561461087c578063f8b2cb4f14610893578063fec3e705146108d057610246565b8063bed34bba1461075d578063c16fe1ef1461079a578063d0498cdb146107b1578063d65ab5f2146107dc578063d7bb99ba146107f357610246565b8063990dc9db116100fd578063990dc9db146106885780639cf6be3a146106b15780639d8c6cfb146106dc578063a146bf7a14610707578063b69ef8a81461073257610246565b806388eb3a37146105b15780638c171a09146105dc5780638da5cb5b146106075780638e3411b3146106325780638ec4ebd71461065d57610246565b8063515d1a86116101c75780636f4bda171161018b5780636f4bda17146104b857806373b9863d146104e3578063750e71a91461050e5780637f2862861461054b5780638863dd1a1461058857610246565b8063515d1a86146103dd57806351e488b51461041b578063545e0dde1461042557806363a20a8214610450578063651f066a1461048d57610246565b80631bd951551161020e5780631bd951551461030a5780631cd7e64b146103475780631dec98bf1461035e57806323820caa1461039b57806328440b47146103b257610246565b8063051551381461024b5780630562b9f714610262578063090e15d61461028b57806313c43ab0146102a257806318db62fb146102cd575b600080fd5b34801561025757600080fd5b506102606108fb565b005b34801561026e57600080fd5b5061028960048036038101906102849190613add565b610966565b005b34801561029757600080fd5b506102a06109f3565b005b3480156102ae57600080fd5b506102b76109fe565b6040516102c49190613b25565b60405180910390f35b3480156102d957600080fd5b506102f460048036038101906102ef9190613add565b610a11565b6040516103019190613b4f565b60405180910390f35b34801561031657600080fd5b50610331600480360381019061032c9190613cb0565b610a2e565b60405161033e9190613b4f565b60405180910390f35b34801561035357600080fd5b5061035c610ac6565b005b34801561036a57600080fd5b5061038560048036038101906103809190613add565b610b07565b6040516103929190613b4f565b60405180910390f35b3480156103a757600080fd5b506103b0610b58565b005b3480156103be57600080fd5b506103c7610b63565b6040516103d49190613e3a565b60405180910390f35b3480156103e957600080fd5b5061040460048036038101906103ff9190613e5c565b611385565b604051610412929190613e9c565b60405180910390f35b610423611459565b005b34801561043157600080fd5b5061043a611503565b6040516104479190613b4f565b60405180910390f35b34801561045c57600080fd5b5061047760048036038101906104729190613cb0565b611541565b6040516104849190613f0f565b60405180910390f35b34801561049957600080fd5b506104a26115cd565b6040516104af9190613b4f565b60405180910390f35b3480156104c457600080fd5b506104cd6115d3565b6040516104da9190613b4f565b60405180910390f35b3480156104ef57600080fd5b506104f86115d9565b6040516105059190613e3a565b60405180910390f35b34801561051a57600080fd5b5061053560048036038101906105309190613add565b611c32565b6040516105429190613b4f565b60405180910390f35b34801561055757600080fd5b50610572600480360381019061056d9190613add565b611c84565b60405161057f9190613b25565b60405180910390f35b34801561059457600080fd5b506105af60048036038101906105aa9190613f8f565b611d28565b005b3480156105bd57600080fd5b506105c6611dfc565b6040516105d3919061407a565b60405180910390f35b3480156105e857600080fd5b506105f1611e39565b6040516105fe9190613e3a565b60405180910390f35b34801561061357600080fd5b5061061c611edf565b60405161062991906140ab565b60405180910390f35b34801561063e57600080fd5b50610647611f05565b6040516106549190613e3a565b60405180910390f35b34801561066957600080fd5b50610672611fde565b60405161067f919061407a565b60405180910390f35b34801561069457600080fd5b506106af60048036038101906106aa9190614104565b61201b565b005b3480156106bd57600080fd5b506106c66120bc565b6040516106d39190613b4f565b60405180910390f35b3480156106e857600080fd5b506106f1612178565b6040516106fe9190613b25565b60405180910390f35b34801561071357600080fd5b5061071c61218b565b6040516107299190614153565b60405180910390f35b34801561073e57600080fd5b506107476121b1565b6040516107549190613b4f565b60405180910390f35b34801561076957600080fd5b50610784600480360381019061077f919061416e565b6121b7565b6040516107919190613b25565b60405180910390f35b3480156107a657600080fd5b506107af612210565b005b3480156107bd57600080fd5b506107c661227b565b6040516107d39190613b4f565b60405180910390f35b3480156107e857600080fd5b506107f16122b9565b005b6107fb612456565b005b34801561080957600080fd5b50610824600480360381019061081f9190613add565b612471565b005b34801561083257600080fd5b5061083b6126c9565b6040516108489190613e3a565b60405180910390f35b34801561085d57600080fd5b50610866612981565b6040516108739190613e3a565b60405180910390f35b34801561088857600080fd5b50610891612a5a565b005b34801561089f57600080fd5b506108ba60048036038101906108b591906141e6565b612a95565b6040516108c79190613b4f565b60405180910390f35b3480156108dc57600080fd5b506108e5612b92565b6040516108f29190613f0f565b60405180910390f35b6000600d805490509050600060118190555060005b8181101561096257600d818154811061092c5761092b614213565b5b9060005260206000200154601160008282546109489190614271565b92505081905550808061095a906142a5565b915050610910565b5050565b600a81116109a9576040517f08c379a00000000000000000000000000000000000000000000000000000000081526004016109a090614313565b60405180910390fd5b3373ffffffffffffffffffffffffffffffffffffffff166108fc829081150290604051600060405180830381858888f193505050501580156109ef573d6000803e3d6000fd5b5050565b6109fb610b63565b50565b600f60049054906101000a900460ff1681565b60006009821115610a2557600a9050610a29565b8190505b919050565b6000808290506000805b8251811015610abb576000838281518110610a5657610a55614213565b5b602001015160f81c60f81b60f81c60ff16905060308110158015610a7b575060398111155b15610aa757603081610a8d9190614333565b600a84610a9a9190614367565b610aa49190614271565b92505b508080610ab3906142a5565b915050610a38565b508092505050919050565b6000601260026101000a81548160ff0219169083151502179055506001601260036101000a81548160ff021916908315150217905550610b04611e39565b50565b600080600d8342610b189190614271565b44604051602001610b2a9291906143ca565b6040516020818303038152906040528051906020012060001c610b4d9190614425565b905080915050919050565b610b606115d9565b50565b60606000600d4244604051602001610b7c9291906143ca565b6040516020818303038152906040528051906020012060001c610b9f9190614425565b90506000600d4543604051602001610bb89291906143ca565b6040516020818303038152906040528051906020012060001c610bdb9190614425565b9050600060044244604051602001610bf49291906143ca565b6040516020818303038152906040528051906020012060001c610c179190614425565b9050600060044543604051602001610c309291906143ca565b6040516020818303038152906040528051906020012060001c610c539190614425565b905033600460006101000a81548173ffffffffffffffffffffffffffffffffffffffff021916908373ffffffffffffffffffffffffffffffffffffffff16021790555060016000600460009054906101000a900473ffffffffffffffffffffffffffffffffffffffff1673ffffffffffffffffffffffffffffffffffffffff1673ffffffffffffffffffffffffffffffffffffffff16815260200190815260200160002060009054906101000a900460ff16610e12576000806000815480929190610d1d906142a5565b9190505590506001806000600460009054906101000a900473ffffffffffffffffffffffffffffffffffffffff1673ffffffffffffffffffffffffffffffffffffffff1673ffffffffffffffffffffffffffffffffffffffff16815260200190815260200160002060006101000a81548160ff021916908315150217905550600460009054906101000a900473ffffffffffffffffffffffffffffffffffffffff166002600083815260200190815260200160002060006101000a81548173ffffffffffffffffffffffffffffffffffffffff021916908373ffffffffffffffffffffffffffffffffffffffff160217905550505b6000600a8581548110610e2857610e27614213565b5b906000526020600020018054610e3d90614485565b80601f0160208091040260200160405190810160405280929190818152602001828054610e6990614485565b8015610eb65780601f10610e8b57610100808354040283529160200191610eb6565b820191906000526020600020905b815481529060010190602001808311610e9957829003601f168201915b505050505090506000600a8581548110610ed357610ed2614213565b5b906000526020600020018054610ee890614485565b80601f0160208091040260200160405190810160405280929190818152602001828054610f1490614485565b8015610f615780601f10610f3657610100808354040283529160200191610f61565b820191906000526020600020905b815481529060010190602001808311610f4457829003601f168201915b50505050509050600b610f7f600188610f7a9190614271565b610a11565b9080600181540180825580915050600190039060005260206000200160009091909190915055600b610fbc600187610fb79190614271565b610a11565b90806001815401808255809150506001900390600052602060002001600090919091909150556001600b600081548110610ff957610ff8614213565b5b90600052602060002001541480156110305750600a600b60018154811061102357611022614213565b5b9060005260206000200154145b8061108557506001600b60018154811061104d5761104c614213565b5b90600052602060002001541480156110845750600a600b60008154811061107757611076614213565b5b9060005260206000200154145b5b1561111c5760156010819055506001600f60006101000a81548160ff0219169083151502179055506000601260006101000a81548160ff0219169083151502179055506001601260016101000a81548160ff0219169083151502179055506001601260046101000a81548160ff0219169083151502179055506002600361110c91906144b6565b60138190555061111a612b92565b505b60006009858154811061113257611131614213565b5b90600052602060002001805461114790614485565b80601f016020809104026020016040519081016040528092919081815260200182805461117390614485565b80156111c05780601f10611195576101008083540402835291602001916111c0565b820191906000526020600020905b8154815290600101906020018083116111a357829003601f168201915b505050505090506000600985815481106111dd576111dc614213565b5b9060005260206000200180546111f290614485565b80601f016020809104026020016040519081016040528092919081815260200182805461121e90614485565b801561126b5780601f106112405761010080835404028352916020019161126b565b820191906000526020600020905b81548152906001019060200180831161124e57829003601f168201915b50505050509050600061129e858460405160200161128a929190614523565b604051602081830303815290604052611541565b905060006112cc85846040516020016112b8929190614523565b604051602081830303815290604052611541565b9050600c8290806001815401808255809150506001900390600052602060002001600090919091909150908161130291906146f3565b50600c8190806001815401808255809150506001900390600052602060002001600090919091909150908161133791906146f3565b50611340612210565b7fc1dd89cc519a8102cf60e6197f8ef3266a2a5b602e8bedf695c3d3bd15387681600c60405161137091906148fe565b60405180910390a15050505050505050505090565b600080836016819055506007548310806113a0575060085483115b156113c1576000600f60046101000a81548160ff0219169083151502179055505b60075483101580156113d557506008548311155b80156113e057508383105b15611408576001600f60046101000a81548160ff021916908315150217905550826014819055505b7f4ca72dc07e5725011e0c0b68ae0495e7ac5aa4e0ba0eec02320617d8d4538e13600f60049054906101000a900460ff1660145460405161144a929190613e9c565b60405180910390a19250929050565b6013546014546114699190614367565b4710156114ab576040517f08c379a00000000000000000000000000000000000000000000000000000000081526004016114a290614992565b60405180910390fd5b3373ffffffffffffffffffffffffffffffffffffffff166108fc6013546014546114d59190614367565b9081150290604051600060405180830381858888f19350505050158015611500573d6000803e3d6000fd5b50565b60007fd3de8fe4049059e1a238ed5eb6a43bea612fa85aebadca074de7b391fd6fc5496010546040516115369190613b4f565b60405180910390a190565b60606000604051806060016040528060268152602001614c0560269139905060006040518060400160405280600481526020017f2e706e6700000000000000000000000000000000000000000000000000000000815250905060008285836040516020016115b1939291906149b2565b6040516020818303038152906040529050809350505050919050565b60165481565b60005481565b60606000600d42446040516020016115f29291906143ca565b6040516020818303038152906040528051906020012060001c6116159190614425565b90506000600d454360405160200161162e9291906143ca565b6040516020818303038152906040528051906020012060001c6116519190614425565b905060006004424460405160200161166a9291906143ca565b6040516020818303038152906040528051906020012060001c61168d9190614425565b90506000600445436040516020016116a69291906143ca565b6040516020818303038152906040528051906020012060001c6116c99190614425565b90506000600a85815481106116e1576116e0614213565b5b9060005260206000200180546116f690614485565b80601f016020809104026020016040519081016040528092919081815260200182805461172290614485565b801561176f5780601f106117445761010080835404028352916020019161176f565b820191906000526020600020905b81548152906001019060200180831161175257829003601f168201915b505050505090506000600a858154811061178c5761178b614213565b5b9060005260206000200180546117a190614485565b80601f01602080910402602001604051908101604052809291908181526020018280546117cd90614485565b801561181a5780601f106117ef5761010080835404028352916020019161181a565b820191906000526020600020905b8154815290600101906020018083116117fd57829003601f168201915b50505050509050600d6118386001886118339190614271565b610a11565b9080600181540180825580915050600190039060005260206000200160009091909190915055600d6118756001876118709190614271565b610a11565b90806001815401808255809150506001900390600052602060002001600090919091909150556001600d6000815481106118b2576118b1614213565b5b90600052602060002001541480156118e95750600a600d6001815481106118dc576118db614213565b5b9060005260206000200154145b8061193e57506001600d60018154811061190657611905614213565b5b906000526020600020015414801561193d5750600a600d6000815481106119305761192f614213565b5b9060005260206000200154145b5b156119c95760156011819055506001600f60016101000a81548160ff0219169083151502179055506001601260006101000a81548160ff0219169083151502179055506000601260016101000a81548160ff0219169083151502179055506001601260046101000a81548160ff02191690831515021790555060016013819055506119c7612b92565b505b6000600985815481106119df576119de614213565b5b9060005260206000200180546119f490614485565b80601f0160208091040260200160405190810160405280929190818152602001828054611a2090614485565b8015611a6d5780601f10611a4257610100808354040283529160200191611a6d565b820191906000526020600020905b815481529060010190602001808311611a5057829003601f168201915b50505050509050600060098581548110611a8a57611a89614213565b5b906000526020600020018054611a9f90614485565b80601f0160208091040260200160405190810160405280929190818152602001828054611acb90614485565b8015611b185780601f10611aed57610100808354040283529160200191611b18565b820191906000526020600020905b815481529060010190602001808311611afb57829003601f168201915b505050505090506000611b4b8584604051602001611b37929190614523565b604051602081830303815290604052611541565b90506000611b798584604051602001611b65929190614523565b604051602081830303815290604052611541565b9050600e82908060018154018082558091505060019003906000526020600020016000909190919091509081611baf91906146f3565b50600e81908060018154018082558091505060019003906000526020600020016000909190919091509081611be491906146f3565b50611bed6108fb565b7fd6d0a7dd897167b23beb6a7ca35237073632569263cf60e176469f70ae939816600e604051611c1d91906148fe565b60405180910390a15050505050505050505090565b6000806004600142611c449190614271565b44604051602001611c569291906143ca565b6040516020818303038152906040528051906020012060001c611c799190614425565b905080915050919050565b60006006548210611caf576001600f60036101000a81548160ff021916908315150217905550611ccb565b6000600f60036101000a81548160ff0219169083151502179055505b7fd8f0cc0ad1816c0b2e2a2c5e7304d307c87f495a82c92d9853d446abd884ea6b600f60039054906101000a900460ff16604051611d099190613b25565b60405180910390a1600f60039054906101000a900460ff169050919050565b600560009054906101000a900473ffffffffffffffffffffffffffffffffffffffff1673ffffffffffffffffffffffffffffffffffffffff163373ffffffffffffffffffffffffffffffffffffffff1614611db8576040517f08c379a0000000000000000000000000000000000000000000000000000000008152600401611daf90614a2f565b60405180910390fd5b80600560006101000a81548173ffffffffffffffffffffffffffffffffffffffff021916908373ffffffffffffffffffffffffffffffffffffffff16021790555050565b60607f219282380dc15795dfa77538b195e28a43b4088da4e95a379dfef0c6d6847d0d600b604051611e2e9190614b25565b60405180910390a190565b606060005b601180541015611e6457611e5181612471565b8080611e5c906142a5565b915050611e3e565b6000601260036101000a81548160ff0219169083151502179055506001601260046101000a81548160ff0219169083151502179055507f4c645466e5d563874cef3427ae622e2ad662823fcb5ea1fc2a32b3d9bec43a0f600e604051611eca91906148fe565b60405180910390a1611eda612b92565b505090565b600560009054906101000a900473ffffffffffffffffffffffffffffffffffffffff1681565b6060600e805480602002602001604051908101604052809291908181526020016000905b82821015611fd5578382906000526020600020018054611f4890614485565b80601f0160208091040260200160405190810160405280929190818152602001828054611f7490614485565b8015611fc15780601f10611f9657610100808354040283529160200191611fc1565b820191906000526020600020905b815481529060010190602001808311611fa457829003601f168201915b505050505081526020019060010190611f29565b50505050905090565b60607f8a4ac2ad7712484078085d0b7c0465f2ddc2c7588c4bd163fd589c1b845418dd600d6040516120109190614b25565b60405180910390a190565b67016345785d8a00008161202f9190614333565b471015612071576040517f08c379a000000000000000000000000000000000000000000000000000000000815260040161206890614992565b60405180910390fd5b8173ffffffffffffffffffffffffffffffffffffffff166108fc829081150290604051600060405180830381858888f193505050501580156120b7573d6000803e3d6000fd5b505050565b6000806000905060008060005b6003805490508110156121495760011515600382815481106120ee576120ed614213565b5b906000526020600020906002020160000160149054906101000a900460ff1615150361212757828061211f906142a5565b935050612136565b8180612132906142a5565b9250505b8080612141906142a5565b9150506120c9565b506000810361216157808061215d906142a5565b9150505b808261216d91906144b6565b925082935050505090565b600f60039054906101000a900460ff1681565b600460009054906101000a900473ffffffffffffffffffffffffffffffffffffffff1681565b60155481565b6000816040516020016121ca9190614b47565b60405160208183030381529060405280519060200120836040516020016121f19190614b47565b6040516020818303038152906040528051906020012014905092915050565b6000600b805490509050600060108190555060005b8181101561227757600b818154811061224157612240614213565b5b90600052602060002001546010600082825461225d9190614271565b92505081905550808061226f906142a5565b915050612225565b5050565b60007f3c30c7c52105d0a03501dcc192724ac4ae94ea3a2c8adba22084e331761d90b86011546040516122ae9190613b4f565b60405180910390a190565b6122c16109f3565b6122c9610b58565b600f60019054906101000a900460ff1680156122f15750600f60009054906101000a900460ff165b15612348576001600f60026101000a81548160ff0219169083151502179055506000601260006101000a81548160ff0219169083151502179055506000601260016101000a81548160ff0219169083151502179055505b600f60019054906101000a900460ff168015612377575060001515600f60009054906101000a900460ff161515145b156123ce576001600f60026101000a81548160ff0219169083151502179055506000601260016101000a81548160ff0219169083151502179055506001601260006101000a81548160ff0219169083151502179055505b600f60009054906101000a900460ff1680156123fd575060001515600f60019054906101000a900460ff161515145b15612454576001600f60026101000a81548160ff0219169083151502179055506001601260016101000a81548160ff0219169083151502179055506000601260006101000a81548160ff0219169083151502179055505b565b34601560008282546124689190614271565b92505081905550565b6000600a61247e83610b07565b8154811061248f5761248e614213565b5b9060005260206000200180546124a490614485565b80601f01602080910402602001604051908101604052809291908181526020018280546124d090614485565b801561251d5780601f106124f25761010080835404028352916020019161251d565b820191906000526020600020905b81548152906001019060200180831161250057829003601f168201915b505050505090506000600961253184611c32565b8154811061254257612541614213565b5b90600052602060002001805461255790614485565b80601f016020809104026020016040519081016040528092919081815260200182805461258390614485565b80156125d05780601f106125a5576101008083540402835291602001916125d0565b820191906000526020600020905b8154815290600101906020018083116125b357829003601f168201915b50505050509050600082826040516020016125ec929190614523565b6040516020818303038152906040529050600061260882611541565b9050600d61261585613851565b9080600181540180825580915050600190039060005260206000200160009091909190915055600e8190806001815401808255809150506001900390600052602060002001600090919091909150908161266f91906146f3565b506126786108fb565b601560115411156126c2576001601260016101000a81548160ff0219169083151502179055506000601260006101000a81548160ff02191690831515021790555060016013819055505b5050505050565b60606000600a6126d96001610b07565b815481106126ea576126e9614213565b5b9060005260206000200180546126ff90614485565b80601f016020809104026020016040519081016040528092919081815260200182805461272b90614485565b80156127785780601f1061274d57610100808354040283529160200191612778565b820191906000526020600020905b81548152906001019060200180831161275b57829003601f168201915b505050505090506000600961278d6001611c32565b8154811061279e5761279d614213565b5b9060005260206000200180546127b390614485565b80601f01602080910402602001604051908101604052809291908181526020018280546127df90614485565b801561282c5780601f106128015761010080835404028352916020019161282c565b820191906000526020600020905b81548152906001019060200180831161280f57829003601f168201915b50505050509050600061285f838360405160200161284b929190614523565b604051602081830303815290604052611541565b9050600061286c84613851565b9050600b819080600181540180825580915050600190039060005260206000200160009091909190915055600c829080600181540180825580915050600190039060005260206000200160009091909190915090816128cb91906146f3565b507f7d6cae5bd13bcc94802f648594d55fef0f7be0c17fb3325f9fdcdaa9f832f989600c6040516128fc91906148fe565b60405180910390a161290c612210565b6015601054111561297a576001601260006101000a81548160ff0219169083151502179055506000601260016101000a81548160ff0219169083151502179055506001601260046101000a81548160ff0219169083151502179055506000601381905550612978612b92565b505b5050505090565b6060600c805480602002602001604051908101604052809291908181526020016000905b82821015612a515783829060005260206000200180546129c490614485565b80601f01602080910402602001604051908101604052809291908181526020018280546129f090614485565b8015612a3d5780601f10612a1257610100808354040283529160200191612a3d565b820191906000526020600020905b815481529060010190602001808311612a2057829003601f168201915b5050505050815260200190600101906129a5565b50505050905090565b7f3db3bf72d889b677362ff49039762189b204f3143a28934e3dd828b3c22b7b54600054604051612a8b9190613b4f565b60405180910390a1565b600081600460006101000a81548173ffffffffffffffffffffffffffffffffffffffff021916908373ffffffffffffffffffffffffffffffffffffffff160217905550600460009054906101000a900473ffffffffffffffffffffffffffffffffffffffff1673ffffffffffffffffffffffffffffffffffffffff16316016819055507fc6e2ac2344b72494ae5c6c59901ac6a72b498a598bf788b6503e60dba61f8250601654604051612b499190613b4f565b60405180910390a1600460009054906101000a900473ffffffffffffffffffffffffffffffffffffffff1673ffffffffffffffffffffffffffffffffffffffff16319050919050565b6060600b6000612ba291906139d0565b600c6000612bb091906139f1565b600d6000612bbe91906139d0565b600e6000612bcc91906139f1565b60156010541115612d54576000601260016101000a81548160ff0219169083151502179055506001601260006101000a81548160ff02191690831515021790555060016013819055506040518060400160405280600781526020017f4c4f53452121210000000000000000000000000000000000000000000000000081525060179081612c5991906146f3565b5060036040518060600160405280600460009054906101000a900473ffffffffffffffffffffffffffffffffffffffff1673ffffffffffffffffffffffffffffffffffffffff1681526020016000151581526020016000815250908060018154018082558091505060019003906000526020600020906002020160009091909190915060008201518160000160006101000a81548173ffffffffffffffffffffffffffffffffffffffff021916908373ffffffffffffffffffffffffffffffffffffffff16021790555060208201518160000160146101000a81548160ff021916908315150217905550604082015181600101555050613816565b60156011541115612f02576000601260016101000a81548160ff0219169083151502179055506001601260006101000a81548160ff02191690831515021790555060026013819055506040518060400160405280600681526020017f57494e212121000000000000000000000000000000000000000000000000000081525060179081612de191906146f3565b5060036040518060600160405280600460009054906101000a900473ffffffffffffffffffffffffffffffffffffffff1673ffffffffffffffffffffffffffffffffffffffff168152602001600115158152602001601354601454612e469190614367565b815250908060018154018082558091505060019003906000526020600020906002020160009091909190915060008201518160000160006101000a81548173ffffffffffffffffffffffffffffffffffffffff021916908373ffffffffffffffffffffffffffffffffffffffff16021790555060208201518160000160146101000a81548160ff021916908315150217905550604082015181600101555050612efd601354601454612ef89190614367565b610966565b613815565b60105460115403612fad576000601260016101000a81548160ff0219169083151502179055506000601260006101000a81548160ff02191690831515021790555060016013819055506040518060400160405280600681526020017f505553482121000000000000000000000000000000000000000000000000000081525060179081612f8f91906146f3565b50612fa8601354601454612fa39190614367565b610966565b613814565b601054601154118015612fc35750601560115411155b15613145576000601260016101000a81548160ff0219169083151502179055506001601260006101000a81548160ff02191690831515021790555060016013819055506040518060400160405280600781526020017f4c4f5345212121000000000000000000000000000000000000000000000000008152506017908161304a91906146f3565b5060036040518060600160405280600460009054906101000a900473ffffffffffffffffffffffffffffffffffffffff1673ffffffffffffffffffffffffffffffffffffffff1681526020016000151581526020016000815250908060018154018082558091505060019003906000526020600020906002020160009091909190915060008201518160000160006101000a81548173ffffffffffffffffffffffffffffffffffffffff021916908373ffffffffffffffffffffffffffffffffffffffff16021790555060208201518160000160146101000a81548160ff021916908315150217905550604082015181600101555050613813565b60105460115411801561315a57506015601154115b15613302576000601260016101000a81548160ff0219169083151502179055506001601260006101000a81548160ff021916908315150217905550600260138190555060036040518060600160405280600460009054906101000a900473ffffffffffffffffffffffffffffffffffffffff1673ffffffffffffffffffffffffffffffffffffffff1681526020016001151581526020016013546014546132019190614367565b815250908060018154018082558091505060019003906000526020600020906002020160009091909190915060008201518160000160006101000a81548173ffffffffffffffffffffffffffffffffffffffff021916908373ffffffffffffffffffffffffffffffffffffffff16021790555060208201518160000160146101000a81548160ff0219169083151502179055506040820151816001015550506040518060400160405280600681526020017f57494e2121210000000000000000000000000000000000000000000000000000815250601790816132e491906146f3565b506132fd6013546014546132f89190614367565b610966565b613812565b60105460115410801561331757506015601054105b156134bf576001601260016101000a81548160ff0219169083151502179055506000601260006101000a81548160ff021916908315150217905550600260138190555060036040518060600160405280600460009054906101000a900473ffffffffffffffffffffffffffffffffffffffff1673ffffffffffffffffffffffffffffffffffffffff1681526020016001151581526020016013546014546133be9190614367565b815250908060018154018082558091505060019003906000526020600020906002020160009091909190915060008201518160000160006101000a81548173ffffffffffffffffffffffffffffffffffffffff021916908373ffffffffffffffffffffffffffffffffffffffff16021790555060208201518160000160146101000a81548160ff0219169083151502179055506040820151816001015550506040518060400160405280600681526020017f57494e2121210000000000000000000000000000000000000000000000000000815250601790816134a191906146f3565b506134ba6013546014546134b59190614367565b610966565b613811565b6010546011541180156134d457506015601154145b15613656576000601260016101000a81548160ff0219169083151502179055506001601260006101000a81548160ff021916908315150217905550600160138190555060036040518060600160405280600460009054906101000a900473ffffffffffffffffffffffffffffffffffffffff1673ffffffffffffffffffffffffffffffffffffffff1681526020016000151581526020016000815250908060018154018082558091505060019003906000526020600020906002020160009091909190915060008201518160000160006101000a81548173ffffffffffffffffffffffffffffffffffffffff021916908373ffffffffffffffffffffffffffffffffffffffff16021790555060208201518160000160146101000a81548160ff0219169083151502179055506040820151816001015550506040518060400160405280600781526020017f4c4f5345212121000000000000000000000000000000000000000000000000008152506017908161365091906146f3565b50613810565b60105460115410801561366b57506015601054145b1561380f576001601260016101000a81548160ff0219169083151502179055506000601260006101000a81548160ff021916908315150217905550600360138190555060036040518060600160405280600460009054906101000a900473ffffffffffffffffffffffffffffffffffffffff1673ffffffffffffffffffffffffffffffffffffffff1681526020016001151581526020016013546014546137129190614367565b815250908060018154018082558091505060019003906000526020600020906002020160009091909190915060008201518160000160006101000a81548173ffffffffffffffffffffffffffffffffffffffff021916908373ffffffffffffffffffffffffffffffffffffffff16021790555060208201518160000160146101000a81548160ff0219169083151502179055506040820151816001015550506040518060400160405280600681526020017f57494e2121210000000000000000000000000000000000000000000000000000815250601790816137f591906146f3565b5061380e6013546014546138099190614367565b610966565b5b5b5b5b5b5b5b5b7fae867731ffefd6a37b56025a98b06b8cdd3242162fc1eb19cc855e175db6115a60176040516138469190614be2565b60405180910390a190565b6000613892826040518060400160405280600181526020017f41000000000000000000000000000000000000000000000000000000000000008152506121b7565b156138a057600190506139cb565b6138df826040518060400160405280600181526020017f30000000000000000000000000000000000000000000000000000000000000008152506121b7565b806139255750613924826040518060400160405280600181526020017f4a000000000000000000000000000000000000000000000000000000000000008152506121b7565b5b8061396b575061396a826040518060400160405280600181526020017f51000000000000000000000000000000000000000000000000000000000000008152506121b7565b5b806139b157506139b0826040518060400160405280600181526020017f4b000000000000000000000000000000000000000000000000000000000000008152506121b7565b5b156139bf57600a90506139cb565b6139c882610a2e565b90505b919050565b50805460008255906000526020600020908101906139ee9190613a12565b50565b5080546000825590600052602060002090810190613a0f9190613a2f565b50565b5b80821115613a2b576000816000905550600101613a13565b5090565b5b80821115613a4f5760008181613a469190613a53565b50600101613a30565b5090565b508054613a5f90614485565b6000825580601f10613a715750613a90565b601f016020900490600052602060002090810190613a8f9190613a12565b5b50565b6000604051905090565b600080fd5b600080fd5b6000819050919050565b613aba81613aa7565b8114613ac557600080fd5b50565b600081359050613ad781613ab1565b92915050565b600060208284031215613af357613af2613a9d565b5b6000613b0184828501613ac8565b91505092915050565b60008115159050919050565b613b1f81613b0a565b82525050565b6000602082019050613b3a6000830184613b16565b92915050565b613b4981613aa7565b82525050565b6000602082019050613b646000830184613b40565b92915050565b600080fd5b600080fd5b6000601f19601f8301169050919050565b7f4e487b7100000000000000000000000000000000000000000000000000000000600052604160045260246000fd5b613bbd82613b74565b810181811067ffffffffffffffff82111715613bdc57613bdb613b85565b5b80604052505050565b6000613bef613a93565b9050613bfb8282613bb4565b919050565b600067ffffffffffffffff821115613c1b57613c1a613b85565b5b613c2482613b74565b9050602081019050919050565b82818337600083830152505050565b6000613c53613c4e84613c00565b613be5565b905082815260208101848484011115613c6f57613c6e613b6f565b5b613c7a848285613c31565b509392505050565b600082601f830112613c9757613c96613b6a565b5b8135613ca7848260208601613c40565b91505092915050565b600060208284031215613cc657613cc5613a9d565b5b600082013567ffffffffffffffff811115613ce457613ce3613aa2565b5b613cf084828501613c82565b91505092915050565b600081519050919050565b600082825260208201905092915050565b6000819050602082019050919050565b600081519050919050565b600082825260208201905092915050565b60005b83811015613d5f578082015181840152602081019050613d44565b60008484015250505050565b6000613d7682613d25565b613d808185613d30565b9350613d90818560208601613d41565b613d9981613b74565b840191505092915050565b6000613db08383613d6b565b905092915050565b6000602082019050919050565b6000613dd082613cf9565b613dda8185613d04565b935083602082028501613dec85613d15565b8060005b85811015613e285784840389528151613e098582613da4565b9450613e1483613db8565b925060208a01995050600181019050613df0565b50829750879550505050505092915050565b60006020820190508181036000830152613e548184613dc5565b905092915050565b60008060408385031215613e7357613e72613a9d565b5b6000613e8185828601613ac8565b9250506020613e9285828601613ac8565b9150509250929050565b6000604082019050613eb16000830185613b16565b613ebe6020830184613b40565b9392505050565b600082825260208201905092915050565b6000613ee182613d25565b613eeb8185613ec5565b9350613efb818560208601613d41565b613f0481613b74565b840191505092915050565b60006020820190508181036000830152613f298184613ed6565b905092915050565b600073ffffffffffffffffffffffffffffffffffffffff82169050919050565b6000613f5c82613f31565b9050919050565b613f6c81613f51565b8114613f7757600080fd5b50565b600081359050613f8981613f63565b92915050565b600060208284031215613fa557613fa4613a9d565b5b6000613fb384828501613f7a565b91505092915050565b600081519050919050565b600082825260208201905092915050565b6000819050602082019050919050565b613ff181613aa7565b82525050565b60006140038383613fe8565b60208301905092915050565b6000602082019050919050565b600061402782613fbc565b6140318185613fc7565b935061403c83613fd8565b8060005b8381101561406d5781516140548882613ff7565b975061405f8361400f565b925050600181019050614040565b5085935050505092915050565b60006020820190508181036000830152614094818461401c565b905092915050565b6140a581613f51565b82525050565b60006020820190506140c0600083018461409c565b92915050565b60006140d182613f31565b9050919050565b6140e1816140c6565b81146140ec57600080fd5b50565b6000813590506140fe816140d8565b92915050565b6000806040838503121561411b5761411a613a9d565b5b6000614129858286016140ef565b925050602061413a85828601613ac8565b9150509250929050565b61414d816140c6565b82525050565b60006020820190506141686000830184614144565b92915050565b6000806040838503121561418557614184613a9d565b5b600083013567ffffffffffffffff8111156141a3576141a2613aa2565b5b6141af85828601613c82565b925050602083013567ffffffffffffffff8111156141d0576141cf613aa2565b5b6141dc85828601613c82565b9150509250929050565b6000602082840312156141fc576141fb613a9d565b5b600061420a848285016140ef565b91505092915050565b7f4e487b7100000000000000000000000000000000000000000000000000000000600052603260045260246000fd5b7f4e487b7100000000000000000000000000000000000000000000000000000000600052601160045260246000fd5b600061427c82613aa7565b915061428783613aa7565b925082820190508082111561429f5761429e614242565b5b92915050565b60006142b082613aa7565b91507fffffffffffffffffffffffffffffffffffffffffffffffffffffffffffffffff82036142e2576142e1614242565b5b600182019050919050565b50565b60006142fd600083613ec5565b9150614308826142ed565b600082019050919050565b6000602082019050818103600083015261432c816142f0565b9050919050565b600061433e82613aa7565b915061434983613aa7565b925082820390508181111561436157614360614242565b5b92915050565b600061437282613aa7565b915061437d83613aa7565b925082820261438b81613aa7565b915082820484148315176143a2576143a1614242565b5b5092915050565b6000819050919050565b6143c46143bf82613aa7565b6143a9565b82525050565b60006143d682856143b3565b6020820191506143e682846143b3565b6020820191508190509392505050565b7f4e487b7100000000000000000000000000000000000000000000000000000000600052601260045260246000fd5b600061443082613aa7565b915061443b83613aa7565b92508261444b5761444a6143f6565b5b828206905092915050565b7f4e487b7100000000000000000000000000000000000000000000000000000000600052602260045260246000fd5b6000600282049050600182168061449d57607f821691505b6020821081036144b0576144af614456565b5b50919050565b60006144c182613aa7565b91506144cc83613aa7565b9250826144dc576144db6143f6565b5b828204905092915050565b600081905092915050565b60006144fd82613d25565b61450781856144e7565b9350614517818560208601613d41565b80840191505092915050565b600061452f82856144f2565b915061453b82846144f2565b91508190509392505050565b60008190508160005260206000209050919050565b60006020601f8301049050919050565b600082821b905092915050565b6000600883026145a97fffffffffffffffffffffffffffffffffffffffffffffffffffffffffffffffff8261456c565b6145b3868361456c565b95508019841693508086168417925050509392505050565b6000819050919050565b60006145f06145eb6145e684613aa7565b6145cb565b613aa7565b9050919050565b6000819050919050565b61460a836145d5565b61461e614616826145f7565b848454614579565b825550505050565b600090565b614633614626565b61463e818484614601565b505050565b5b818110156146625761465760008261462b565b600181019050614644565b5050565b601f8211156146a75761467881614547565b6146818461455c565b81016020851015614690578190505b6146a461469c8561455c565b830182614643565b50505b505050565b600082821c905092915050565b60006146ca600019846008026146ac565b1980831691505092915050565b60006146e383836146b9565b9150826002028217905092915050565b6146fc82613d25565b67ffffffffffffffff81111561471557614714613b85565b5b61471f8254614485565b61472a828285614666565b600060209050601f83116001811461475d576000841561474b578287015190505b61475585826146d7565b8655506147bd565b601f19841661476b86614547565b60005b828110156147935784890151825560018201915060208501945060208101905061476e565b868310156147b057848901516147ac601f8916826146b9565b8355505b6001600288020188555050505b505050505050565b600081549050919050565b60008190508160005260206000209050919050565b600081546147f281614485565b6147fc8186613d30565b94506001821660008114614817576001811461482d57614860565b60ff198316865281151560200286019350614860565b61483685614547565b60005b8381101561485857815481890152600182019150602081019050614839565b808801955050505b50505092915050565b600061487583836147e5565b905092915050565b6000600182019050919050565b6000614895826147c5565b61489f8185613d04565b9350836020820285016148b1856147d0565b8060005b858110156148ec578484038952816148cd8582614869565b94506148d88361487d565b925060208a019950506001810190506148b5565b50829750879550505050505092915050565b60006020820190508181036000830152614918818461488a565b905092915050565b7f496e73756666696369656e742062616c616e636520696e2074686520636f6e7460008201527f7261637400000000000000000000000000000000000000000000000000000000602082015250565b600061497c602483613ec5565b915061498782614920565b604082019050919050565b600060208201905081810360008301526149ab8161496f565b9050919050565b60006149be82866144f2565b91506149ca82856144f2565b91506149d682846144f2565b9150819050949350505050565b7f4f6e6c7920746865206f776e65722063616e20646f2074686174210000000000600082015250565b6000614a19601b83613ec5565b9150614a24826149e3565b602082019050919050565b60006020820190508181036000830152614a4881614a0c565b9050919050565b600081549050919050565b60008190508160005260206000209050919050565b60008160001c9050919050565b6000819050919050565b6000614a99614a9483614a6f565b614a7c565b9050919050565b6000614aac8254614a86565b9050919050565b6000600182019050919050565b6000614acb82614a4f565b614ad58185613fc7565b9350614ae083614a5a565b8060005b83811015614b1857614af582614aa0565b614aff8882613ff7565b9750614b0a83614ab3565b925050600181019050614ae4565b5085935050505092915050565b60006020820190508181036000830152614b3f8184614ac0565b905092915050565b6000614b5382846144f2565b915081905092915050565b60008154614b6b81614485565b614b758186613ec5565b94506001821660008114614b905760018114614ba657614bd9565b60ff198316865281151560200286019350614bd9565b614baf85614547565b60005b83811015614bd157815481890152600182019150602081019050614bb2565b808801955050505b50505092915050565b60006020820190508181036000830152614bfc8184614b5e565b90509291505056fe68747470733a2f2f6465636b6f6663617264736170692e636f6d2f7374617469632f696d672fa2646970667358221220a6424a6defcf2444e4552ec4d65fc4f55147ebb830e93a804f648870087fc41e64736f6c63430008110033",
  "immutableReferences": {},
  "source": "// SPDX-License-Identifier: MIT\npragma solidity >=0.4.22 <0.9.0;\n\n\ncontract Blackjack{\n\n    uint public numberOfPlayers;\n    mapping(address => bool) private players;\n    mapping(uint => address) private lutPlayers;\n    resultOfGame[] private won;\n    struct resultOfGame{\n        address addr;\n        bool res;\n        uint sumWon;\n    }\n  \n\n   address payable public playerAddress;\n    //* Keep the owner address\n    address public owner;\n    //* keep the minimum balance to play\n    uint private minBalance = 10000000000000000000;\n\n    //* this is the minimum sum to play\n    uint private minimum = 10000000000000000;\n    //* this is the maximum sum to play\n    uint private maximum = 1000000000000000000;\n    //* this is the suits (each of the value represent a suit)\n    string[] suits = [\"H\", \"S\", \"D\", \"C\"];\n    //* this is the card values\n    // prettier-ignore\n    string[] ranks = [\"A\", \"2\", \"3\", \"4\", \"5\", \"6\", \"7\", \"8\", \"9\", \"0\", \"J\", \"Q\", \"K\"];\n\n    uint[] playerCardValues;\n    string[] playerCardsUrls;\n    uint[] dealercardValues;\n    string[] dealerCardsUrls;\n\n    bool isBlackForPlayer = false;\n    bool isBlackForDealer = false;\n\n    bool finishGame = false;\n    //* this is the variable that is updated when the minimum balance function runs\n    bool public balanceChecker;\n  \n    //* this is the variable that check the number in the input is more than the minimum to play and less than the maximum to play\n    bool public inputChecked = true;\n\n    uint playerCounter = 0;\n    uint dealerCounter = 0;\n\n    bool loosedPlayer = false;\n    bool loosedDealer = false;\n\n    bool canTakeNewCardPlayer = true;\n    bool canTakeNewCardDealer = false;\n\n    bool gameFinished = false;\n\n    uint payment = 1;\n    uint paymentSum = 0 ; \n    uint public balance;\n\n    //* This constructor get the smart contract owner address\n    constructor (){\n        owner = msg.sender;\n        balance = 0;\n        // We want to call this function when the player want to play a new game\n        //   deckcard = createDeck();\n    }\n    \n\n    function startGame() external {\n        givetwoCardsToPlayer();\n        givetwoCardsToDealer();\n        if(isBlackForDealer && isBlackForPlayer){\n            // NEED TO WORK ON THE END OF THE GAME\n            finishGame = true;\n            loosedPlayer = false;\n            loosedDealer = false;\n        }    \n        if(isBlackForDealer && isBlackForPlayer == false ){ \n            finishGame = true;\n            loosedDealer = false;\n            loosedPlayer = true;\n        }\n        if(isBlackForPlayer && isBlackForDealer == false){ \n            finishGame = true;\n            loosedDealer = true;\n            loosedPlayer = false;        \n        }     \n    }\n\n    //* The modifier check if the user is the smart contract owner\n    modifier onlyOwner(){\n        require(msg.sender == owner,\"Only the owner can do that!\");\n        _;\n    }\n\n    //* The function to transfer smart contract ownership\n    function transferOwnerShip(address newOwner) external onlyOwner{\n        owner = newOwner;\n    }\n\n    // We need to check why it's not rendering the balance value\n    uint public playerBalance = 0;\n    event initBalance(uint playerBalance);\n    //* This function gets the player address and returns the player balance\n    function getBalance(address payable addrs) public  returns(uint){\n        playerAddress = addrs;\n        playerBalance = playerAddress.balance;\n        emit initBalance(playerBalance);        \n        return playerAddress.balance;\n\n    }   \n\n    event initchecker(bool balanceChecker);\n    //* This function get the player address and check if he has anough balance in the wallet and returns true or false to the react code\n    function checkBalance(uint bal) public returns(bool){\n        if(bal >= minBalance){\n            balanceChecker = true;\n        }\n        else{\n            balanceChecker = false;\n        }\n        emit initchecker(balanceChecker);\n        return balanceChecker;\n    }\n\n    event inpuchecker(bool, uint);\n    //* The function gets from the frontend sum entered to play and verify if it's more than the minimum and less than the maximum\n    function checkInput(uint bal, uint input) public returns (bool, uint){\n        playerBalance = bal;\n        if((input < minimum || input > maximum)){\n            inputChecked = false;\n        } \n        if(input >= minimum && input <= maximum && input < bal)\n        {\n            inputChecked = true;\n            paymentSum = input;\n        }\n        emit inpuchecker(inputChecked,paymentSum );\n        // return inputChecked;\n    }\n\n    //* Checks if 2 strings are equals (helper function)\n    function compareStrings(string memory a, string memory b) public pure returns (bool) {\n    return (keccak256(abi.encodePacked((a))) == keccak256(abi.encodePacked((b))));\n    }\n\n    //* gets a string and return a interger (helper function)\n    function stringToUint(string memory s) public pure returns (uint) {\n        bytes memory b = bytes(s);\n        uint result = 0;\n        for (uint256 i = 0; i < b.length; i++) {\n            uint256 c = uint256(uint8(b[i]));\n            if (c >= 48 && c <= 57) {\n                result = result * 10 + (c - 48);\n            }\n        }\n        return result;\n    }\n\n    // The function creates URL for the ui\n    function createUrlForUI(string memory card) public pure returns (string memory) {\n        string memory cardLink = \"https://deckofcardsapi.com/static/img/\";\n        string memory cardType = \".png\";\n        string memory cardLinkNew = string.concat(cardLink,card,cardType);\n        return cardLinkNew;\n    }\n\n    // This function returns the cards of the player\n    event returnPlayerCardvale(uint[]);\n    function showPlayerCardvalue() public returns(uint[] memory){\n        emit returnPlayerCardvale(playerCardValues);\n        // return playerCardValues;\n    }\n    function showPlayerCardUrls() public view returns(string[] memory){\n        return playerCardsUrls;\n    }\n    // This function returns the cards of the dealer\n    \n    event returnDealerCardvale(uint[]);\n    function showDealerCardvalue() public returns(uint[] memory){\n        emit returnDealerCardvale( dealercardValues);\n        // return dealercardValues;\n    }\n    function showDealerCardUrls() public view returns(string[] memory){\n        return dealerCardsUrls;\n    }\n    // It starts the game and give to the player 2 cards\n    function givetwoCardsToPlayer() public {\n        generateTwoRandomNumbersToPlayer();\n    }\n    // It starts the game and give to the dealer 2 cards\n    function givetwoCardsToDealer() public {\n        generateTwoRandomNumbersToDealer();\n    }\n    event returnDealerCounter(uint);\n    function showDealerCounter() public returns(uint ){\n        emit returnDealerCounter(dealerCounter);\n        // return dealerCounter;\n    }\n    event returnPlayerCounter(uint);\n    function showPlayerCounter() public returns(uint ){\n        emit returnPlayerCounter(playerCounter);\n        // return playerCounter;\n    }\n\n    //* The function sums the cards values for dealer and player\n    function sumOfCardsPlayer() public{\n        uint lenOfPlayerCards = playerCardValues.length;\n        // uint lenOfDealerCards = dealercardValues.length;\n\n        playerCounter = 0;\n        // uint playerCounter = 0;\n        for(uint i = 0; i < lenOfPlayerCards; i++){\n            playerCounter += playerCardValues[i];\n        }\n        \n        // dealerCounter = 0;\n        // uint dealerCounter = 0;\n        // for(uint i = 0; i < lenOfDealerCards; i++){\n        //     dealerCounter += dealercardValues[i];\n        // }\n    } \n    function sumOfCardsDealer() public{\n        uint lenOfDealerCards = dealercardValues.length;\n        dealerCounter = 0;\n        for(uint j = 0; j < lenOfDealerCards; j++){\n            dealerCounter += dealercardValues[j];\n        }\n    }\n\n    // The function convert value that are more than 10 to be 10\n    function checkValue(uint num) public pure returns(uint){\n        if(num > 9)return 10;\n        return num;\n        \n    }\n\n    event returnPlayerUrls(string[]);\n    // The function generate 2 random cards to the player\n    function generateTwoRandomNumbersToPlayer() public returns( string[] memory) {\n        uint randomNumber1 = uint(keccak256(abi.encodePacked(block.timestamp, block.difficulty))) % 13;\n        uint randomNumber2 = uint(keccak256(abi.encodePacked(block.gaslimit, block.number))) % 13;\n        \n        uint randomSuit1 = uint(keccak256(abi.encodePacked(block.timestamp, block.difficulty))) % 4;\n        uint randomSuit2 = uint(keccak256(abi.encodePacked(block.gaslimit, block.number))) % 4;\n\n        // This script is saving the number of player (distinct) - This data is public.\n        //* It also keeps updated a private map of the wallets player addresses. \n        playerAddress = payable (msg.sender);\n        if(!players[playerAddress]){\n            uint index = numberOfPlayers++; \n            players[playerAddress] = true;\n            lutPlayers[index] = playerAddress;\n        }\n\n        string memory rankNumber1 = ranks[randomNumber1];\n        string memory rankNumber2 = ranks[randomNumber2];\n        playerCardValues.push(checkValue(randomNumber1+1));\n        playerCardValues.push(checkValue(randomNumber2+1));\n        if((playerCardValues[0] == 1 && playerCardValues[1]==10) ||\n            (playerCardValues[1] == 1 && playerCardValues[0]==10)){\n                playerCounter = 21;\n                isBlackForPlayer = true;\n                loosedPlayer = false;\n                loosedDealer = true;\n                gameFinished = true;\n                payment = 3/uint256(2);\n                finishTheGame();\n        }\n        string memory suitNumber1 = suits[randomSuit1];\n        string memory suitNumber2 = suits[randomSuit2];\n\n        string memory card1 = createUrlForUI(string.concat(rankNumber1,suitNumber1));\n        string memory card2 = createUrlForUI(string.concat(rankNumber2,suitNumber2));\n\n        playerCardsUrls.push(card1);\n        playerCardsUrls.push(card2);\n\n        sumOfCardsPlayer();\n        emit returnPlayerUrls(playerCardsUrls);\n        // return playerCardsUrls;\n        \n    }\n\n    event returnDealerUrls(string[]);\n\n    // The function generate 2 random cards to the dealer\n    function generateTwoRandomNumbersToDealer() public returns( string[] memory) {\n        uint randomNumber11 = uint(keccak256(abi.encodePacked(block.timestamp, block.difficulty))) % 13;\n        uint randomNumber22 = uint(keccak256(abi.encodePacked(block.gaslimit, block.number))) % 13;\n\n        uint randomSuit11 = uint(keccak256(abi.encodePacked(block.timestamp, block.difficulty))) % 4;\n        uint randomSuit22 = uint(keccak256(abi.encodePacked(block.gaslimit, block.number))) % 4;\n\n        string memory rankNumber11 = ranks[randomNumber11];\n        string memory rankNumber22 = ranks[randomNumber22];\n        dealercardValues.push(checkValue(randomNumber11+1));\n        dealercardValues.push(checkValue(randomNumber22+1));\n        if((dealercardValues[0] == 1 && dealercardValues[1]==10) ||\n            (dealercardValues[1] == 1 && dealercardValues[0]==10)){\n                dealerCounter = 21;\n                isBlackForDealer = true;\n                loosedPlayer = true;\n                loosedDealer = false;\n                gameFinished = true;\n                payment = 1;\n                finishTheGame();\n\n        }\n        string memory suitNumber11 = suits[randomSuit11];\n        string memory suitNumber22 = suits[randomSuit22];\n\n        string memory card1 = createUrlForUI(string.concat(rankNumber11,suitNumber11));\n        string memory card2 = createUrlForUI(string.concat(rankNumber22,suitNumber22));\n\n        dealerCardsUrls.push(card1);\n        dealerCardsUrls.push(card2);\n\n        sumOfCardsDealer();\n        emit returnDealerUrls( dealerCardsUrls);\n    }\n\n    event showNumberOfPlayers(uint);\n    function showTotalNumOfPlayers() public{\n        emit showNumberOfPlayers(numberOfPlayers);\n    }\n   \n   event showPlayerCardPics(string[]);\n    //* The function add to the player a new random card\n    function getRandomCardValueToPlayer() public returns(string[] memory) {\n        string memory rankNumber = ranks[getRandomRank(1)];\n        string memory suitNumber = suits[getRandomSuit(1)];\n        string memory card = createUrlForUI(string.concat(rankNumber,suitNumber));\n        uint  cardVal = getRankNum(rankNumber);\n        playerCardValues.push(cardVal);\n        playerCardsUrls.push(card);\n        emit showPlayerCardPics(playerCardsUrls);\n        sumOfCardsPlayer();\n        \n        \n        if(playerCounter > 21){\n            loosedPlayer = true;\n            loosedDealer = false;\n            gameFinished = true;\n            payment = 0;\n            finishTheGame();\n            \n        }\n    }\n\n    event showDealerCardPics(string[]);\n    //* The function adds to the dealer cards while he arrives to 17 or more\n    function dealerCardDistributer() public returns(string[] memory){\n        uint count = 0; \n        while(dealerCounter < 17){\n            getRandomCardValueToDealer(count);\n            count ++;            \n        }\n        canTakeNewCardDealer = false;\n        gameFinished = true;\n        emit showDealerCardPics(dealerCardsUrls);\n        finishTheGame();        \n    }\n\n    //* The function add to the dealer a new random card\n    function getRandomCardValueToDealer(uint val) public {\n        \n        string memory rankNumber = ranks[getRandomRank(val)];\n        string memory suitNumber = suits[getRandomSuit(val)];\n        string memory card = string.concat(rankNumber,suitNumber);\n        string memory card1 = createUrlForUI(card);\n        dealercardValues.push(getRankNum(rankNumber));\n        dealerCardsUrls.push(card1);\n        sumOfCardsDealer();\n         if(dealerCounter > 21){\n            loosedDealer = true;\n            loosedPlayer = false;\n            payment = 1;\n        }\n    }\n\n    //* The function gets a random number from 0 to 12\n    function getRandomRank(uint val) public view returns (uint256) {\n        uint256 _randomNumber = uint256(keccak256(abi.encodePacked(block.timestamp+val, block.difficulty))) % 13; // Generate random number between 0 to 12\n        return (_randomNumber); \n    }\n\n    //* The function get a random number from 0 to 3\n    function getRandomSuit(uint val) public view returns (uint256) {\n        uint256 _randomNumber = uint256(keccak256(abi.encodePacked(block.timestamp+1, block.difficulty))) % 4; // Generate random number between 0 to 12\n        return (_randomNumber); \n    }\n\n\n\n    // The function gets the rank (string - first value) of a certain card in the deck and returns the number of card\n    function getRankNum(string memory rank) internal pure returns (uint){\n        if(compareStrings(rank,\"A\")){\n            return 1;\n        }\n        if( compareStrings(rank,\"0\") || compareStrings(rank,\"J\") || compareStrings(rank,\"Q\") || compareStrings(rank, \"K\" )){\n            return 10;\n        }\n        else{\n            return stringToUint(rank);\n        }\n    }\n\n    function finishGiveCard() external{\n        canTakeNewCardPlayer = false;\n        canTakeNewCardDealer = true;\n        dealerCardDistributer();\n    }\n    \n    string dt = \"\";\n    event returnResultData(string);\n    // The function returns if the player won or lost\n    function finishTheGame() public returns(string memory){\n        delete playerCardValues;\n        delete playerCardsUrls;\n        delete dealercardValues;\n        delete dealerCardsUrls;\n        if(playerCounter > 21){\n            loosedDealer = false;\n            loosedPlayer = true;\n            payment = 1;\n            dt = \"LOSE!!!\";\n            won.push(resultOfGame(playerAddress, false, 0));\n\n            // contribute();\n        }\n        else if(dealerCounter > 21){\n            loosedDealer = false;\n            loosedPlayer = true;\n            payment = 2;\n            dt = \"WIN!!!\";\n            won.push(resultOfGame(playerAddress, true, paymentSum*payment));\n            // contribute();\n            withdrawAmount(paymentSum*payment);\n        }\n        else if(dealerCounter == playerCounter){\n            loosedDealer = false;\n            loosedPlayer = false;\n            payment = 1;\n            dt = \"PUSH!!\"; \n            // transferFunds(playerAddress,paymentSum);\n            withdrawAmount(paymentSum*payment);\n        }\n        else if((dealerCounter > playerCounter) && dealerCounter <= 21){\n            loosedDealer = false;\n            loosedPlayer = true;\n            payment = 1;\n            dt = \"LOSE!!!\";\n            won.push(resultOfGame(playerAddress, false, 0));\n            // contribute();\n        }else if((dealerCounter > playerCounter) && dealerCounter > 21){\n            loosedDealer = false;\n            loosedPlayer = true;\n            payment = 2;\n            won.push(resultOfGame(playerAddress, true, paymentSum*payment));\n            dt = \"WIN!!!\";\n            // contribute();\n            withdrawAmount(paymentSum*payment);\n        }\n        else if((dealerCounter < playerCounter) && playerCounter < 21 ){\n            loosedDealer = true;\n            loosedPlayer = false;\n            payment = 2;   \n            won.push(resultOfGame(playerAddress, true, paymentSum*payment));\n         \n            dt = \"WIN!!!\";\n            // transferFunds(playerAddress,paymentSum*payment);\n            withdrawAmount(paymentSum*payment);\n        }\n         else if((dealerCounter > playerCounter) && dealerCounter == 21 ){\n            loosedDealer = false;\n            loosedPlayer = true;\n            payment = 1;\n             won.push(resultOfGame(playerAddress, false, 0));\n            dt = \"LOSE!!!\";\n            // contribute();\n        }else if((dealerCounter < playerCounter) && playerCounter == 21 ){\n            loosedDealer = true;\n            loosedPlayer = false;\n            payment = 3;\n            won.push(resultOfGame(playerAddress, true, paymentSum*payment));\n\n            dt = \"WIN!!!\";\n            // transferFunds(playerAddress,paymentSum*payment);\n            withdrawAmount(paymentSum*payment);\n\n        }\n        emit returnResultData(dt);\n      \n    }\n\n    function calculatePercentageOfWin() public view returns(uint256){\n        uint _percent = 0; \n        uint playerWon = 0;\n        uint dealerWon = 0;\n        for(uint i = 0; i < won.length; i++){\n            if(won[i].res == true){\n                playerWon ++; \n            }else{\n                dealerWon ++;\n            }\n        }\n        if(dealerWon == 0){\n            dealerWon ++;\n        }\n        _percent = playerWon / dealerWon;\n        return _percent;\n    }\n\n\n    function paymentToPlayer() public payable{\n        require(address(this).balance >= paymentSum*payment, \"Insufficient balance in the contract\");\n        payable (msg.sender).transfer(paymentSum * payment);\n    }\n\n    function transferFunds(address payable recipient, uint amount) public {\n        require(address(this).balance >= amount-100000000000000000, \"Insufficient balance in the contract\");\n        payable (recipient).transfer(amount);\n    }\n\n    function withdrawAmount(uint256 amount) public {\n         require(amount>10,'');\n         payable (msg.sender).transfer(amount); \n     }\n\n    function contribute() public payable{\n        // msg.value is the value of Ether sent in a transaction\n        balance += msg.value;\n    }\n}\n\n    // mapping(address => uint256) public balances;\n\n    // function deposit() public payable {\n    //     balances[msg.sender] += msg.value;\n    // }\n\n    // function collect() public {\n    //     uint256 amount = balances[msg.sender];\n    //     require(amount > 0, \"No balance to withdraw\");\n\n    //     balances[msg.sender] = 0;\n    //     payable(address(this)).transfer(amount);\n    // }\n\n\n    // function paymentToDealer() public payable{\n    //     require(address(this).balance >= paymentSum*payment, \"Insufficient balance in the contract\");\n    //     playerAddress.transfer(paymentSum * payment);\n    // }\n// }",
  "sourcePath": "/Users/gabrielnakache/Desktop/Solidity Project/js1-app-code/contracts/Blackjack.sol",
  "compiler": {
    "name": "solc",
    "version": "0.8.17+commit.8df45f5f.Emscripten.clang"
  },
  "schemaVersion": "3.4.11",
  "updatedAt": "2023-04-16T19:01:13.842Z",
  "networkType": "ethereum",
  "devdoc": {
    "kind": "dev",
    "methods": {},
    "version": 1
  },
  "userdoc": {
    "kind": "user",
    "methods": {},
    "version": 1
  }
}