{
  "contractName": "Blackjack",
  "abi": [
    {
      "inputs": [],
      "stateMutability": "nonpayable",
      "type": "constructor"
    },
    {
      "anonymous": false,
      "inputs": [
        {
          "indexed": false,
          "internalType": "uint256",
          "name": "playerBalance",
          "type": "uint256"
        }
      ],
      "name": "initBalance",
      "type": "event"
    },
    {
      "anonymous": false,
      "inputs": [
        {
          "indexed": false,
          "internalType": "bool",
          "name": "balanceChecker",
          "type": "bool"
        }
      ],
      "name": "initchecker",
      "type": "event"
    },
    {
      "anonymous": false,
      "inputs": [
        {
          "indexed": false,
          "internalType": "bool",
          "name": "inputChecked",
          "type": "bool"
        }
      ],
      "name": "inpuchecker",
      "type": "event"
    },
    {
      "inputs": [],
      "name": "balance",
      "outputs": [
        {
          "internalType": "uint256",
          "name": "",
          "type": "uint256"
        }
      ],
      "stateMutability": "view",
      "type": "function",
      "constant": true
    },
    {
      "inputs": [],
      "name": "balanceChecker",
      "outputs": [
        {
          "internalType": "bool",
          "name": "",
          "type": "bool"
        }
      ],
      "stateMutability": "view",
      "type": "function",
      "constant": true
    },
    {
      "inputs": [],
      "name": "inputChecked",
      "outputs": [
        {
          "internalType": "bool",
          "name": "",
          "type": "bool"
        }
      ],
      "stateMutability": "view",
      "type": "function",
      "constant": true
    },
    {
      "inputs": [],
      "name": "owner",
      "outputs": [
        {
          "internalType": "address",
          "name": "",
          "type": "address"
        }
      ],
      "stateMutability": "view",
      "type": "function",
      "constant": true
    },
    {
      "inputs": [],
      "name": "playerAddress",
      "outputs": [
        {
          "internalType": "address payable",
          "name": "",
          "type": "address"
        }
      ],
      "stateMutability": "view",
      "type": "function",
      "constant": true
    },
    {
      "inputs": [],
      "name": "playerBalance",
      "outputs": [
        {
          "internalType": "uint256",
          "name": "",
          "type": "uint256"
        }
      ],
      "stateMutability": "view",
      "type": "function",
      "constant": true
    },
    {
      "inputs": [],
      "name": "startGame",
      "outputs": [],
      "stateMutability": "nonpayable",
      "type": "function"
    },
    {
      "inputs": [
        {
          "internalType": "address",
          "name": "newOwner",
          "type": "address"
        }
      ],
      "name": "transferOwnerShip",
      "outputs": [],
      "stateMutability": "nonpayable",
      "type": "function"
    },
    {
      "inputs": [
        {
          "internalType": "address payable",
          "name": "addrs",
          "type": "address"
        }
      ],
      "name": "getBalance",
      "outputs": [
        {
          "internalType": "uint256",
          "name": "",
          "type": "uint256"
        }
      ],
      "stateMutability": "nonpayable",
      "type": "function"
    },
    {
      "inputs": [
        {
          "internalType": "uint256",
          "name": "bal",
          "type": "uint256"
        }
      ],
      "name": "checkBalance",
      "outputs": [
        {
          "internalType": "bool",
          "name": "",
          "type": "bool"
        }
      ],
      "stateMutability": "nonpayable",
      "type": "function"
    },
    {
      "inputs": [
        {
          "internalType": "uint256",
          "name": "bal",
          "type": "uint256"
        },
        {
          "internalType": "uint256",
          "name": "input",
          "type": "uint256"
        }
      ],
      "name": "checkInput",
      "outputs": [
        {
          "internalType": "bool",
          "name": "",
          "type": "bool"
        }
      ],
      "stateMutability": "nonpayable",
      "type": "function"
    },
    {
      "inputs": [
        {
          "internalType": "string",
          "name": "a",
          "type": "string"
        },
        {
          "internalType": "string",
          "name": "b",
          "type": "string"
        }
      ],
      "name": "compareStrings",
      "outputs": [
        {
          "internalType": "bool",
          "name": "",
          "type": "bool"
        }
      ],
      "stateMutability": "pure",
      "type": "function",
      "constant": true
    },
    {
      "inputs": [
        {
          "internalType": "string",
          "name": "s",
          "type": "string"
        }
      ],
      "name": "stringToUint",
      "outputs": [
        {
          "internalType": "uint256",
          "name": "",
          "type": "uint256"
        }
      ],
      "stateMutability": "pure",
      "type": "function",
      "constant": true
    },
    {
      "inputs": [
        {
          "internalType": "string",
          "name": "card",
          "type": "string"
        }
      ],
      "name": "createUrlForUI",
      "outputs": [
        {
          "internalType": "string",
          "name": "",
          "type": "string"
        }
      ],
      "stateMutability": "pure",
      "type": "function",
      "constant": true
    },
    {
      "inputs": [],
      "name": "showPlayerCardvalue",
      "outputs": [
        {
          "internalType": "uint256[]",
          "name": "",
          "type": "uint256[]"
        }
      ],
      "stateMutability": "view",
      "type": "function",
      "constant": true
    },
    {
      "inputs": [],
      "name": "showPlayerCardUrls",
      "outputs": [
        {
          "internalType": "string[]",
          "name": "",
          "type": "string[]"
        }
      ],
      "stateMutability": "view",
      "type": "function",
      "constant": true
    },
    {
      "inputs": [],
      "name": "showDealerCardvalue",
      "outputs": [
        {
          "internalType": "uint256[]",
          "name": "",
          "type": "uint256[]"
        }
      ],
      "stateMutability": "view",
      "type": "function",
      "constant": true
    },
    {
      "inputs": [],
      "name": "showDealerCardUrls",
      "outputs": [
        {
          "internalType": "string[]",
          "name": "",
          "type": "string[]"
        }
      ],
      "stateMutability": "view",
      "type": "function",
      "constant": true
    },
    {
      "inputs": [],
      "name": "givetwoCardsToPlayer",
      "outputs": [],
      "stateMutability": "nonpayable",
      "type": "function"
    },
    {
      "inputs": [],
      "name": "givetwoCardsToDealer",
      "outputs": [],
      "stateMutability": "nonpayable",
      "type": "function"
    },
    {
      "inputs": [],
      "name": "showDealerCounter",
      "outputs": [
        {
          "internalType": "uint256",
          "name": "",
          "type": "uint256"
        }
      ],
      "stateMutability": "view",
      "type": "function",
      "constant": true
    },
    {
      "inputs": [],
      "name": "showPlayerCounter",
      "outputs": [
        {
          "internalType": "uint256",
          "name": "",
          "type": "uint256"
        }
      ],
      "stateMutability": "view",
      "type": "function",
      "constant": true
    },
    {
      "inputs": [],
      "name": "sumOfCards",
      "outputs": [],
      "stateMutability": "nonpayable",
      "type": "function"
    },
    {
      "inputs": [
        {
          "internalType": "uint256",
          "name": "num",
          "type": "uint256"
        }
      ],
      "name": "checkValue",
      "outputs": [
        {
          "internalType": "uint256",
          "name": "",
          "type": "uint256"
        }
      ],
      "stateMutability": "pure",
      "type": "function",
      "constant": true
    },
    {
      "inputs": [],
      "name": "generateTwoRandomNumbersToPlayer",
      "outputs": [],
      "stateMutability": "nonpayable",
      "type": "function"
    },
    {
      "inputs": [],
      "name": "generateTwoRandomNumbersToDealer",
      "outputs": [],
      "stateMutability": "nonpayable",
      "type": "function"
    },
    {
      "inputs": [],
      "name": "getRandomCardValueToPlayer",
      "outputs": [],
      "stateMutability": "nonpayable",
      "type": "function"
    },
    {
      "inputs": [],
      "name": "dealerCardDistributer",
      "outputs": [],
      "stateMutability": "nonpayable",
      "type": "function"
    },
    {
      "inputs": [],
      "name": "getRandomCardValueToDealer",
      "outputs": [],
      "stateMutability": "nonpayable",
      "type": "function"
    },
    {
      "inputs": [],
      "name": "getRandomRank",
      "outputs": [
        {
          "internalType": "uint256",
          "name": "",
          "type": "uint256"
        }
      ],
      "stateMutability": "view",
      "type": "function",
      "constant": true
    },
    {
      "inputs": [],
      "name": "getRandomSuit",
      "outputs": [
        {
          "internalType": "uint256",
          "name": "",
          "type": "uint256"
        }
      ],
      "stateMutability": "view",
      "type": "function",
      "constant": true
    },
    {
      "inputs": [],
      "name": "finishGiveCard",
      "outputs": [],
      "stateMutability": "nonpayable",
      "type": "function"
    },
    {
      "inputs": [],
      "name": "paymentToPlayer",
      "outputs": [],
      "stateMutability": "payable",
      "type": "function",
      "payable": true
    },
    {
      "inputs": [],
      "name": "contribute",
      "outputs": [],
      "stateMutability": "payable",
      "type": "function",
      "payable": true
    }
  ],
  "bytecode": "0x6080604052678ac7230489e80000600255662386f26fc10000600355670de0b6b3a764000060045560405180608001604052806040518060400160405280600181526020017f480000000000000000000000000000000000000000000000000000000000000081525081526020016040518060400160405280600181526020017f530000000000000000000000000000000000000000000000000000000000000081525081526020016040518060400160405280600181526020017f440000000000000000000000000000000000000000000000000000000000000081525081526020016040518060400160405280600181526020017f430000000000000000000000000000000000000000000000000000000000000081525081525060059060046200012e929190620005b4565b50604051806101a001604052806040518060400160405280600181526020017f410000000000000000000000000000000000000000000000000000000000000081525081526020016040518060400160405280600181526020017f320000000000000000000000000000000000000000000000000000000000000081525081526020016040518060400160405280600181526020017f330000000000000000000000000000000000000000000000000000000000000081525081526020016040518060400160405280600181526020017f340000000000000000000000000000000000000000000000000000000000000081525081526020016040518060400160405280600181526020017f350000000000000000000000000000000000000000000000000000000000000081525081526020016040518060400160405280600181526020017f360000000000000000000000000000000000000000000000000000000000000081525081526020016040518060400160405280600181526020017f370000000000000000000000000000000000000000000000000000000000000081525081526020016040518060400160405280600181526020017f380000000000000000000000000000000000000000000000000000000000000081525081526020016040518060400160405280600181526020017f390000000000000000000000000000000000000000000000000000000000000081525081526020016040518060400160405280600181526020017f300000000000000000000000000000000000000000000000000000000000000081525081526020016040518060400160405280600181526020017f4a0000000000000000000000000000000000000000000000000000000000000081525081526020016040518060400160405280600181526020017f510000000000000000000000000000000000000000000000000000000000000081525081526020016040518060400160405280600181526020017f4b00000000000000000000000000000000000000000000000000000000000000815250815250600690600d6200044a92919062000614565b506000600b60006101000a81548160ff0219169083151502179055506000600b60016101000a81548160ff0219169083151502179055506000600b60026101000a81548160ff0219169083151502179055506001600b60046101000a81548160ff0219169083151502179055506000600c556000600d556000600e60006101000a81548160ff0219169083151502179055506000600e60016101000a81548160ff0219169083151502179055506001600e60026101000a81548160ff0219169083151502179055506000600e60036101000a81548160ff0219169083151502179055506000600e60046101000a81548160ff0219169083151502179055506001600f55600060105560006012553480156200056457600080fd5b5033600160006101000a81548173ffffffffffffffffffffffffffffffffffffffff021916908373ffffffffffffffffffffffffffffffffffffffff160217905550600060118190555062000a62565b82805482825590600052602060002090810192821562000601579160200282015b8281111562000600578251829081620005ef91906200097b565b5091602001919060010190620005d5565b5b50905062000610919062000674565b5090565b82805482825590600052602060002090810192821562000661579160200282015b82811115620006605782518290816200064f91906200097b565b509160200191906001019062000635565b5b50905062000670919062000674565b5090565b5b808211156200069857600081816200068e91906200069c565b5060010162000675565b5090565b508054620006aa906200076a565b6000825580601f10620006be5750620006df565b601f016020900490600052602060002090810190620006de9190620006e2565b5b50565b5b80821115620006fd576000816000905550600101620006e3565b5090565b600081519050919050565b7f4e487b7100000000000000000000000000000000000000000000000000000000600052604160045260246000fd5b7f4e487b7100000000000000000000000000000000000000000000000000000000600052602260045260246000fd5b600060028204905060018216806200078357607f821691505b6020821081036200079957620007986200073b565b5b50919050565b60008190508160005260206000209050919050565b60006020601f8301049050919050565b600082821b905092915050565b600060088302620008037fffffffffffffffffffffffffffffffffffffffffffffffffffffffffffffffff82620007c4565b6200080f8683620007c4565b95508019841693508086168417925050509392505050565b6000819050919050565b6000819050919050565b60006200085c62000856620008508462000827565b62000831565b62000827565b9050919050565b6000819050919050565b62000878836200083b565b62000890620008878262000863565b848454620007d1565b825550505050565b600090565b620008a762000898565b620008b48184846200086d565b505050565b5b81811015620008dc57620008d06000826200089d565b600181019050620008ba565b5050565b601f8211156200092b57620008f5816200079f565b6200090084620007b4565b8101602085101562000910578190505b620009286200091f85620007b4565b830182620008b9565b50505b505050565b600082821c905092915050565b6000620009506000198460080262000930565b1980831691505092915050565b60006200096b83836200093d565b9150826002028217905092915050565b620009868262000701565b67ffffffffffffffff811115620009a257620009a16200070c565b5b620009ae82546200076a565b620009bb828285620008e0565b600060209050601f831160018114620009f35760008415620009de578287015190505b620009ea85826200095d565b86555062000a5a565b601f19841662000a03866200079f565b60005b8281101562000a2d5784890151825560018201915060208501945060208101905062000a06565b8683101562000a4d578489015162000a49601f8916826200093d565b8355505b6001600288020188555050505b505050505050565b6137bd8062000a726000396000f3fe6080604052600436106101f95760003560e01c80638da5cb5b1161010d578063bed34bba116100a0578063e07c54451161006f578063e07c544514610665578063e9a507301461067c578063ecd65c0f146106a7578063ef6e1768146106d2578063f8b2cb4f146106e9576101f9565b8063bed34bba146105dc578063d0498cdb14610619578063d65ab5f214610644578063d7bb99ba1461065b576101f9565b8063a146bf7a116100dc578063a146bf7a14610544578063a54c14f81461056f578063b69ef8a81461059a578063b8cf58ed146105c5576101f9565b80638da5cb5b146104985780638e3411b3146104c35780638ec4ebd7146104ee5780639d8c6cfb14610519576101f9565b806351e488b51161019057806373b9863d1161015f57806373b9863d146103d95780637f286286146103f05780638863dd1a1461042d57806388eb3a37146104565780638c171a0914610481576101f9565b806351e488b51461033c578063545e0dde1461034657806363a20a8214610371578063651f066a146103ae576101f9565b80631cd7e64b116101cc5780631cd7e64b146102ba57806323820caa146102d157806328440b47146102e8578063515d1a86146102ff576101f9565b8063090e15d6146101fe57806313c43ab01461021557806318db62fb146102405780631bd951551461027d575b600080fd5b34801561020a57600080fd5b50610213610726565b005b34801561022157600080fd5b5061022a610730565b60405161023791906129b3565b60405180910390f35b34801561024c57600080fd5b5061026760048036038101906102629190612a18565b610743565b6040516102749190612a54565b60405180910390f35b34801561028957600080fd5b506102a4600480360381019061029f9190612bb5565b61075f565b6040516102b19190612a54565b60405180910390f35b3480156102c657600080fd5b506102cf6107f7565b005b3480156102dd57600080fd5b506102e6610837565b005b3480156102f457600080fd5b506102fd610841565b005b34801561030b57600080fd5b5061032660048036038101906103219190612bfe565b610e63565b60405161033391906129b3565b60405180910390f35b610344610f43565b005b34801561035257600080fd5b5061035b61100d565b6040516103689190612a54565b60405180910390f35b34801561037d57600080fd5b5061039860048036038101906103939190612bb5565b611017565b6040516103a59190612cbd565b60405180910390f35b3480156103ba57600080fd5b506103c36110a3565b6040516103d09190612a54565b60405180910390f35b3480156103e557600080fd5b506103ee6110a9565b005b3480156103fc57600080fd5b5061041760048036038101906104129190612a18565b6116bf565b60405161042491906129b3565b60405180910390f35b34801561043957600080fd5b50610454600480360381019061044f9190612d3d565b611763565b005b34801561046257600080fd5b5061046b611837565b6040516104789190612e28565b60405180910390f35b34801561048d57600080fd5b5061049661188f565b005b3480156104a457600080fd5b506104ad6118e9565b6040516104ba9190612e59565b60405180910390f35b3480156104cf57600080fd5b506104d861190f565b6040516104e59190612f80565b60405180910390f35b3480156104fa57600080fd5b506105036119e8565b6040516105109190612e28565b60405180910390f35b34801561052557600080fd5b5061052e611a40565b60405161053b91906129b3565b60405180910390f35b34801561055057600080fd5b50610559611a53565b6040516105669190612fc3565b60405180910390f35b34801561057b57600080fd5b50610584611a77565b6040516105919190612a54565b60405180910390f35b3480156105a657600080fd5b506105af611abb565b6040516105bc9190612a54565b60405180910390f35b3480156105d157600080fd5b506105da611ac1565b005b3480156105e857600080fd5b5061060360048036038101906105fe9190612fde565b611d08565b60405161061091906129b3565b60405180910390f35b34801561062557600080fd5b5061062e611d61565b60405161063b9190612a54565b60405180910390f35b34801561065057600080fd5b50610659611d6b565b005b610663611f08565b005b34801561067157600080fd5b5061067a611f23565b005b34801561068857600080fd5b5061069161219c565b60405161069e9190612a54565b60405180910390f35b3480156106b357600080fd5b506106bc6121e0565b6040516106c99190612f80565b60405180910390f35b3480156106de57600080fd5b506106e76122b9565b005b3480156106f557600080fd5b50610710600480360381019061070b9190613082565b61238d565b60405161071d9190612a54565b60405180910390f35b61072e610841565b565b600b60049054906101000a900460ff1681565b6000600a821061075657600a905061075a565b8190505b919050565b6000808290506000805b82518110156107ec576000838281518110610787576107866130af565b5b602001015160f81c60f81b60f81c60ff169050603081101580156107ac575060398111155b156107d8576030816107be919061310d565b600a846107cb9190613141565b6107d59190613183565b92505b5080806107e4906131b7565b915050610769565b508092505050919050565b6000600e60026101000a81548160ff0219169083151502179055506001600e60036101000a81548160ff02191690831515021790555061083561188f565b565b61083f6110a9565b565b6000600d4244604051602001610858929190613220565b6040516020818303038152906040528051906020012060001c61087b919061327b565b90506000600d4543604051602001610894929190613220565b6040516020818303038152906040528051906020012060001c6108b7919061327b565b90506000600442446040516020016108d0929190613220565b6040516020818303038152906040528051906020012060001c6108f3919061327b565b905060006004454360405160200161090c929190613220565b6040516020818303038152906040528051906020012060001c61092f919061327b565b9050600060068581548110610947576109466130af565b5b90600052602060002001805461095c906132db565b80601f0160208091040260200160405190810160405280929190818152602001828054610988906132db565b80156109d55780601f106109aa576101008083540402835291602001916109d5565b820191906000526020600020905b8154815290600101906020018083116109b857829003601f168201915b505050505090506000600685815481106109f2576109f16130af565b5b906000526020600020018054610a07906132db565b80601f0160208091040260200160405190810160405280929190818152602001828054610a33906132db565b8015610a805780601f10610a5557610100808354040283529160200191610a80565b820191906000526020600020905b815481529060010190602001808311610a6357829003601f168201915b505050505090506007610a9e600188610a999190613183565b610743565b90806001815401808255809150506001900390600052602060002001600090919091909150556007610adb600187610ad69190613183565b610743565b908060018154018082558091505060019003906000526020600020016000909190919091505560016007600081548110610b1857610b176130af565b5b9060005260206000200154148015610b4f5750600a6007600181548110610b4257610b416130af565b5b9060005260206000200154145b80610ba4575060016007600181548110610b6c57610b6b6130af565b5b9060005260206000200154148015610ba35750600a6007600081548110610b9657610b956130af565b5b9060005260206000200154145b5b15610c33576001600b60006101000a81548160ff0219169083151502179055506000600e60006101000a81548160ff0219169083151502179055506001600e60016101000a81548160ff0219169083151502179055506001600e60046101000a81548160ff02191690831515021790555060026003610c23919061330c565b600f81905550610c31612485565b505b600060058581548110610c4957610c486130af565b5b906000526020600020018054610c5e906132db565b80601f0160208091040260200160405190810160405280929190818152602001828054610c8a906132db565b8015610cd75780601f10610cac57610100808354040283529160200191610cd7565b820191906000526020600020905b815481529060010190602001808311610cba57829003601f168201915b50505050509050600060058581548110610cf457610cf36130af565b5b906000526020600020018054610d09906132db565b80601f0160208091040260200160405190810160405280929190818152602001828054610d35906132db565b8015610d825780601f10610d5757610100808354040283529160200191610d82565b820191906000526020600020905b815481529060010190602001808311610d6557829003601f168201915b505050505090506000610db58584604051602001610da1929190613379565b604051602081830303815290604052611017565b90506000610de38584604051602001610dcf929190613379565b604051602081830303815290604052611017565b9050600882908060018154018082558091505060019003906000526020600020016000909190919091509081610e199190613549565b50600881908060018154018082558091505060019003906000526020600020016000909190919091509081610e4e9190613549565b50610e576122b9565b50505050505050505050565b600082601281905550600354821080610e7d575060045482115b15610e9e576000600b60046101000a81548160ff0219169083151502179055505b6003548210158015610eb257506004548211155b8015610ebd57508282105b15610ee5576001600b60046101000a81548160ff021916908315150217905550816010819055505b7fe2a2f6d3b39473e3ddde06c769c9d9cc235403276874bb80ff2f9d1729391940600b60049054906101000a900460ff16604051610f2391906129b3565b60405180910390a1600b60049054906101000a900460ff16905092915050565b600f54601054610f539190613141565b471015610f95576040517f08c379a0000000000000000000000000000000000000000000000000000000008152600401610f8c9061368d565b60405180910390fd5b60008054906101000a900473ffffffffffffffffffffffffffffffffffffffff1673ffffffffffffffffffffffffffffffffffffffff166108fc600f54601054610fdf9190613141565b9081150290604051600060405180830381858888f1935050505015801561100a573d6000803e3d6000fd5b50565b6000600c54905090565b6060600060405180606001604052806026815260200161376260269139905060006040518060400160405280600481526020017f2e706e670000000000000000000000000000000000000000000000000000000081525090506000828583604051602001611087939291906136ad565b6040516020818303038152906040529050809350505050919050565b60125481565b6000600d42446040516020016110c0929190613220565b6040516020818303038152906040528051906020012060001c6110e3919061327b565b90506000600d45436040516020016110fc929190613220565b6040516020818303038152906040528051906020012060001c61111f919061327b565b9050600060044244604051602001611138929190613220565b6040516020818303038152906040528051906020012060001c61115b919061327b565b9050600060044543604051602001611174929190613220565b6040516020818303038152906040528051906020012060001c611197919061327b565b90506000600685815481106111af576111ae6130af565b5b9060005260206000200180546111c4906132db565b80601f01602080910402602001604051908101604052809291908181526020018280546111f0906132db565b801561123d5780601f106112125761010080835404028352916020019161123d565b820191906000526020600020905b81548152906001019060200180831161122057829003601f168201915b5050505050905060006006858154811061125a576112596130af565b5b90600052602060002001805461126f906132db565b80601f016020809104026020016040519081016040528092919081815260200182805461129b906132db565b80156112e85780601f106112bd576101008083540402835291602001916112e8565b820191906000526020600020905b8154815290600101906020018083116112cb57829003601f168201915b5050505050905060096113066001886113019190613183565b610743565b9080600181540180825580915050600190039060005260206000200160009091909190915055600961134360018761133e9190613183565b610743565b9080600181540180825580915050600190039060005260206000200160009091909190915055600160096000815481106113805761137f6130af565b5b90600052602060002001541480156113b75750600a60096001815481106113aa576113a96130af565b5b9060005260206000200154145b8061140c5750600160096001815481106113d4576113d36130af565b5b906000526020600020015414801561140b5750600a60096000815481106113fe576113fd6130af565b5b9060005260206000200154145b5b1561148f576001600b60016101000a81548160ff0219169083151502179055506001600e60006101000a81548160ff0219169083151502179055506000600e60016101000a81548160ff0219169083151502179055506001600e60046101000a81548160ff0219169083151502179055506001600f8190555061148d612485565b505b6000600585815481106114a5576114a46130af565b5b9060005260206000200180546114ba906132db565b80601f01602080910402602001604051908101604052809291908181526020018280546114e6906132db565b80156115335780601f1061150857610100808354040283529160200191611533565b820191906000526020600020905b81548152906001019060200180831161151657829003601f168201915b505050505090506000600585815481106115505761154f6130af565b5b906000526020600020018054611565906132db565b80601f0160208091040260200160405190810160405280929190818152602001828054611591906132db565b80156115de5780601f106115b3576101008083540402835291602001916115de565b820191906000526020600020905b8154815290600101906020018083116115c157829003601f168201915b50505050509050600061161185846040516020016115fd929190613379565b604051602081830303815290604052611017565b9050600061163f858460405160200161162b929190613379565b604051602081830303815290604052611017565b9050600a829080600181540180825580915050600190039060005260206000200160009091909190915090816116759190613549565b50600a819080600181540180825580915050600190039060005260206000200160009091909190915090816116aa9190613549565b506116b36122b9565b50505050505050505050565b600060025482106116ea576001600b60036101000a81548160ff021916908315150217905550611706565b6000600b60036101000a81548160ff0219169083151502179055505b7fd8f0cc0ad1816c0b2e2a2c5e7304d307c87f495a82c92d9853d446abd884ea6b600b60039054906101000a900460ff1660405161174491906129b3565b60405180910390a1600b60039054906101000a900460ff169050919050565b600160009054906101000a900473ffffffffffffffffffffffffffffffffffffffff1673ffffffffffffffffffffffffffffffffffffffff163373ffffffffffffffffffffffffffffffffffffffff16146117f3576040517f08c379a00000000000000000000000000000000000000000000000000000000081526004016117ea9061372a565b60405180910390fd5b80600160006101000a81548173ffffffffffffffffffffffffffffffffffffffff021916908373ffffffffffffffffffffffffffffffffffffffff16021790555050565b6060600780548060200260200160405190810160405280929190818152602001828054801561188557602002820191906000526020600020905b815481526020019060010190808311611871575b5050505050905090565b5b6011600d5410156118a8576118a3611ac1565b611890565b6000600e60036101000a81548160ff0219169083151502179055506001600e60046101000a81548160ff0219169083151502179055506118e6612485565b50565b600160009054906101000a900473ffffffffffffffffffffffffffffffffffffffff1681565b6060600a805480602002602001604051908101604052809291908181526020016000905b828210156119df578382906000526020600020018054611952906132db565b80601f016020809104026020016040519081016040528092919081815260200182805461197e906132db565b80156119cb5780601f106119a0576101008083540402835291602001916119cb565b820191906000526020600020905b8154815290600101906020018083116119ae57829003601f168201915b505050505081526020019060010190611933565b50505050905090565b60606009805480602002602001604051908101604052809291908181526020018280548015611a3657602002820191906000526020600020905b815481526020019060010190808311611a22575b5050505050905090565b600b60039054906101000a900460ff1681565b60008054906101000a900473ffffffffffffffffffffffffffffffffffffffff1681565b600080600d4244604051602001611a8f929190613220565b6040516020818303038152906040528051906020012060001c611ab2919061327b565b90508091505090565b60115481565b60006006611acd611a77565b81548110611ade57611add6130af565b5b906000526020600020018054611af3906132db565b80601f0160208091040260200160405190810160405280929190818152602001828054611b1f906132db565b8015611b6c5780601f10611b4157610100808354040283529160200191611b6c565b820191906000526020600020905b815481529060010190602001808311611b4f57829003601f168201915b5050505050905060006005611b7f61219c565b81548110611b9057611b8f6130af565b5b906000526020600020018054611ba5906132db565b80601f0160208091040260200160405190810160405280929190818152602001828054611bd1906132db565b8015611c1e5780601f10611bf357610100808354040283529160200191611c1e565b820191906000526020600020905b815481529060010190602001808311611c0157829003601f168201915b5050505050905060008282604051602001611c3a929190613379565b60405160208183030381529060405290506009611c5684612819565b9080600181540180825580915050600190039060005260206000200160009091909190915055600a81908060018154018082558091505060019003906000526020600020016000909190919091509081611cb09190613549565b50611cb96122b9565b6015600d541115611d03576001600e60016101000a81548160ff0219169083151502179055506000600e60006101000a81548160ff0219169083151502179055506001600f819055505b505050565b600081604051602001611d1b919061374a565b6040516020818303038152906040528051906020012083604051602001611d42919061374a565b6040516020818303038152906040528051906020012014905092915050565b6000600d54905090565b611d73610726565b611d7b610837565b600b60019054906101000a900460ff168015611da35750600b60009054906101000a900460ff165b15611dfa576001600b60026101000a81548160ff0219169083151502179055506000600e60006101000a81548160ff0219169083151502179055506000600e60016101000a81548160ff0219169083151502179055505b600b60019054906101000a900460ff168015611e29575060001515600b60009054906101000a900460ff161515145b15611e80576001600b60026101000a81548160ff0219169083151502179055506000600e60016101000a81548160ff0219169083151502179055506001600e60006101000a81548160ff0219169083151502179055505b600b60009054906101000a900460ff168015611eaf575060001515600b60019054906101000a900460ff161515145b15611f06576001600b60026101000a81548160ff0219169083151502179055506001600e60016101000a81548160ff0219169083151502179055506000600e60006101000a81548160ff0219169083151502179055505b565b3460116000828254611f1a9190613183565b92505081905550565b60006006611f2f611a77565b81548110611f4057611f3f6130af565b5b906000526020600020018054611f55906132db565b80601f0160208091040260200160405190810160405280929190818152602001828054611f81906132db565b8015611fce5780601f10611fa357610100808354040283529160200191611fce565b820191906000526020600020905b815481529060010190602001808311611fb157829003601f168201915b5050505050905060006005611fe161219c565b81548110611ff257611ff16130af565b5b906000526020600020018054612007906132db565b80601f0160208091040260200160405190810160405280929190818152602001828054612033906132db565b80156120805780601f1061205557610100808354040283529160200191612080565b820191906000526020600020905b81548152906001019060200180831161206357829003601f168201915b5050505050905060006120b3838360405160200161209f929190613379565b604051602081830303815290604052611017565b905060006120c084612819565b9050600781908060018154018082558091505060019003906000526020600020016000909190919091505560088290806001815401808255809150506001900390600052602060002001600090919091909150908161211f9190613549565b506121286122b9565b6015600c541115612196576001600e60006101000a81548160ff0219169083151502179055506000600e60016101000a81548160ff0219169083151502179055506001600e60046101000a81548160ff0219169083151502179055506000600f81905550612194612485565b505b50505050565b600080600442446040516020016121b4929190613220565b6040516020818303038152906040528051906020012060001c6121d7919061327b565b90508091505090565b60606008805480602002602001604051908101604052809291908181526020016000905b828210156122b0578382906000526020600020018054612223906132db565b80601f016020809104026020016040519081016040528092919081815260200182805461224f906132db565b801561229c5780601f106122715761010080835404028352916020019161229c565b820191906000526020600020905b81548152906001019060200180831161227f57829003601f168201915b505050505081526020019060010190612204565b50505050905090565b60006007805490509050600060098054905090506000600c8190555060005b8281101561232a57600781815481106122f4576122f36130af565b5b9060005260206000200154600c60008282546123109190613183565b925050819055508080612322906131b7565b9150506122d8565b506000600d8190555060005b818110156123885760098181548110612352576123516130af565b5b9060005260206000200154600d600082825461236e9190613183565b925050819055508080612380906131b7565b915050612336565b505050565b6000816000806101000a81548173ffffffffffffffffffffffffffffffffffffffff021916908373ffffffffffffffffffffffffffffffffffffffff16021790555060008054906101000a900473ffffffffffffffffffffffffffffffffffffffff1673ffffffffffffffffffffffffffffffffffffffff16316012819055507fc6e2ac2344b72494ae5c6c59901ac6a72b498a598bf788b6503e60dba61f825060125460405161243e9190612a54565b60405180910390a160008054906101000a900473ffffffffffffffffffffffffffffffffffffffff1673ffffffffffffffffffffffffffffffffffffffff16319050919050565b6060600c54600d54036124d5576000600e60016101000a81548160ff0219169083151502179055506000600e60006101000a81548160ff0219169083151502179055506000600f81905550612655565b600c54600d541180156124ea57506015600d54105b15612532576000600e60016101000a81548160ff0219169083151502179055506001600e60006101000a81548160ff0219169083151502179055506001600f81905550612654565b600c54600d5410801561254757506015600c54105b1561258f576001600e60016101000a81548160ff0219169083151502179055506000600e60006101000a81548160ff0219169083151502179055506001600f81905550612653565b600c54600d541180156125a457506015600d54145b156125ec576000600e60016101000a81548160ff0219169083151502179055506001600e60006101000a81548160ff0219169083151502179055506001600f81905550612652565b600c54600d5410801561260157506015600c54145b15612651576001600e60016101000a81548160ff0219169083151502179055506000600e60006101000a81548160ff0219169083151502179055506002600361264a919061330c565b600f819055505b5b5b5b5b600b60029054906101000a900460ff168015612684575060001515600e60019054906101000a900460ff161515145b80156126a3575060001515600e60009054906101000a900460ff161515145b156126e5576040518060400160405280600681526020017f50555348212100000000000000000000000000000000000000000000000000008152509050612816565b600b60029054906101000a900460ff168015612714575060011515600e60019054906101000a900460ff161515145b8015612733575060001515600e60009054906101000a900460ff161515145b1561277d57612740610f43565b6040518060400160405280600681526020017f57494e21212100000000000000000000000000000000000000000000000000008152509050612816565b600b60029054906101000a900460ff1680156127ac575060001515600e60019054906101000a900460ff161515145b80156127cb575060011515600e60009054906101000a900460ff161515145b15612815576127d8611f08565b6040518060400160405280600781526020017f4c4f5345212121000000000000000000000000000000000000000000000000008152509050612816565b5b90565b600061285a826040518060400160405280600181526020017f4100000000000000000000000000000000000000000000000000000000000000815250611d08565b156128685760019050612993565b6128a7826040518060400160405280600181526020017f3000000000000000000000000000000000000000000000000000000000000000815250611d08565b806128ed57506128ec826040518060400160405280600181526020017f4a00000000000000000000000000000000000000000000000000000000000000815250611d08565b5b806129335750612932826040518060400160405280600181526020017f5100000000000000000000000000000000000000000000000000000000000000815250611d08565b5b806129795750612978826040518060400160405280600181526020017f4b00000000000000000000000000000000000000000000000000000000000000815250611d08565b5b1561298757600a9050612993565b6129908261075f565b90505b919050565b60008115159050919050565b6129ad81612998565b82525050565b60006020820190506129c860008301846129a4565b92915050565b6000604051905090565b600080fd5b600080fd5b6000819050919050565b6129f5816129e2565b8114612a0057600080fd5b50565b600081359050612a12816129ec565b92915050565b600060208284031215612a2e57612a2d6129d8565b5b6000612a3c84828501612a03565b91505092915050565b612a4e816129e2565b82525050565b6000602082019050612a696000830184612a45565b92915050565b600080fd5b600080fd5b6000601f19601f8301169050919050565b7f4e487b7100000000000000000000000000000000000000000000000000000000600052604160045260246000fd5b612ac282612a79565b810181811067ffffffffffffffff82111715612ae157612ae0612a8a565b5b80604052505050565b6000612af46129ce565b9050612b008282612ab9565b919050565b600067ffffffffffffffff821115612b2057612b1f612a8a565b5b612b2982612a79565b9050602081019050919050565b82818337600083830152505050565b6000612b58612b5384612b05565b612aea565b905082815260208101848484011115612b7457612b73612a74565b5b612b7f848285612b36565b509392505050565b600082601f830112612b9c57612b9b612a6f565b5b8135612bac848260208601612b45565b91505092915050565b600060208284031215612bcb57612bca6129d8565b5b600082013567ffffffffffffffff811115612be957612be86129dd565b5b612bf584828501612b87565b91505092915050565b60008060408385031215612c1557612c146129d8565b5b6000612c2385828601612a03565b9250506020612c3485828601612a03565b9150509250929050565b600081519050919050565b600082825260208201905092915050565b60005b83811015612c78578082015181840152602081019050612c5d565b60008484015250505050565b6000612c8f82612c3e565b612c998185612c49565b9350612ca9818560208601612c5a565b612cb281612a79565b840191505092915050565b60006020820190508181036000830152612cd78184612c84565b905092915050565b600073ffffffffffffffffffffffffffffffffffffffff82169050919050565b6000612d0a82612cdf565b9050919050565b612d1a81612cff565b8114612d2557600080fd5b50565b600081359050612d3781612d11565b92915050565b600060208284031215612d5357612d526129d8565b5b6000612d6184828501612d28565b91505092915050565b600081519050919050565b600082825260208201905092915050565b6000819050602082019050919050565b612d9f816129e2565b82525050565b6000612db18383612d96565b60208301905092915050565b6000602082019050919050565b6000612dd582612d6a565b612ddf8185612d75565b9350612dea83612d86565b8060005b83811015612e1b578151612e028882612da5565b9750612e0d83612dbd565b925050600181019050612dee565b5085935050505092915050565b60006020820190508181036000830152612e428184612dca565b905092915050565b612e5381612cff565b82525050565b6000602082019050612e6e6000830184612e4a565b92915050565b600081519050919050565b600082825260208201905092915050565b6000819050602082019050919050565b600082825260208201905092915050565b6000612ebc82612c3e565b612ec68185612ea0565b9350612ed6818560208601612c5a565b612edf81612a79565b840191505092915050565b6000612ef68383612eb1565b905092915050565b6000602082019050919050565b6000612f1682612e74565b612f208185612e7f565b935083602082028501612f3285612e90565b8060005b85811015612f6e5784840389528151612f4f8582612eea565b9450612f5a83612efe565b925060208a01995050600181019050612f36565b50829750879550505050505092915050565b60006020820190508181036000830152612f9a8184612f0b565b905092915050565b6000612fad82612cdf565b9050919050565b612fbd81612fa2565b82525050565b6000602082019050612fd86000830184612fb4565b92915050565b60008060408385031215612ff557612ff46129d8565b5b600083013567ffffffffffffffff811115613013576130126129dd565b5b61301f85828601612b87565b925050602083013567ffffffffffffffff8111156130405761303f6129dd565b5b61304c85828601612b87565b9150509250929050565b61305f81612fa2565b811461306a57600080fd5b50565b60008135905061307c81613056565b92915050565b600060208284031215613098576130976129d8565b5b60006130a68482850161306d565b91505092915050565b7f4e487b7100000000000000000000000000000000000000000000000000000000600052603260045260246000fd5b7f4e487b7100000000000000000000000000000000000000000000000000000000600052601160045260246000fd5b6000613118826129e2565b9150613123836129e2565b925082820390508181111561313b5761313a6130de565b5b92915050565b600061314c826129e2565b9150613157836129e2565b9250828202613165816129e2565b9150828204841483151761317c5761317b6130de565b5b5092915050565b600061318e826129e2565b9150613199836129e2565b92508282019050808211156131b1576131b06130de565b5b92915050565b60006131c2826129e2565b91507fffffffffffffffffffffffffffffffffffffffffffffffffffffffffffffffff82036131f4576131f36130de565b5b600182019050919050565b6000819050919050565b61321a613215826129e2565b6131ff565b82525050565b600061322c8285613209565b60208201915061323c8284613209565b6020820191508190509392505050565b7f4e487b7100000000000000000000000000000000000000000000000000000000600052601260045260246000fd5b6000613286826129e2565b9150613291836129e2565b9250826132a1576132a061324c565b5b828206905092915050565b7f4e487b7100000000000000000000000000000000000000000000000000000000600052602260045260246000fd5b600060028204905060018216806132f357607f821691505b602082108103613306576133056132ac565b5b50919050565b6000613317826129e2565b9150613322836129e2565b9250826133325761333161324c565b5b828204905092915050565b600081905092915050565b600061335382612c3e565b61335d818561333d565b935061336d818560208601612c5a565b80840191505092915050565b60006133858285613348565b91506133918284613348565b91508190509392505050565b60008190508160005260206000209050919050565b60006020601f8301049050919050565b600082821b905092915050565b6000600883026133ff7fffffffffffffffffffffffffffffffffffffffffffffffffffffffffffffffff826133c2565b61340986836133c2565b95508019841693508086168417925050509392505050565b6000819050919050565b600061344661344161343c846129e2565b613421565b6129e2565b9050919050565b6000819050919050565b6134608361342b565b61347461346c8261344d565b8484546133cf565b825550505050565b600090565b61348961347c565b613494818484613457565b505050565b5b818110156134b8576134ad600082613481565b60018101905061349a565b5050565b601f8211156134fd576134ce8161339d565b6134d7846133b2565b810160208510156134e6578190505b6134fa6134f2856133b2565b830182613499565b50505b505050565b600082821c905092915050565b600061352060001984600802613502565b1980831691505092915050565b6000613539838361350f565b9150826002028217905092915050565b61355282612c3e565b67ffffffffffffffff81111561356b5761356a612a8a565b5b61357582546132db565b6135808282856134bc565b600060209050601f8311600181146135b357600084156135a1578287015190505b6135ab858261352d565b865550613613565b601f1984166135c18661339d565b60005b828110156135e9578489015182556001820191506020850194506020810190506135c4565b868310156136065784890151613602601f89168261350f565b8355505b6001600288020188555050505b505050505050565b7f496e73756666696369656e742062616c616e636520696e2074686520636f6e7460008201527f7261637400000000000000000000000000000000000000000000000000000000602082015250565b6000613677602483612c49565b91506136828261361b565b604082019050919050565b600060208201905081810360008301526136a68161366a565b9050919050565b60006136b98286613348565b91506136c58285613348565b91506136d18284613348565b9150819050949350505050565b7f4f6e6c7920746865206f776e65722063616e20646f2074686174210000000000600082015250565b6000613714601b83612c49565b915061371f826136de565b602082019050919050565b6000602082019050818103600083015261374381613707565b9050919050565b60006137568284613348565b91508190509291505056fe68747470733a2f2f6465636b6f6663617264736170692e636f6d2f7374617469632f696d672fa26469706673582212207da149e6f00048dda822f69b2106451e6c621b29f3beee62ef6e4a49dcb5689264736f6c63430008110033",
  "immutableReferences": {},
  "source": "// SPDX-License-Identifier: MIT\npragma solidity >=0.4.22 <0.9.0;\n\n\ncontract Blackjack{\n    address payable public playerAddress;\n    //* Keep the owner address\n    address public owner;\n    //* keep the minimum balance to play\n    uint private minBalance = 10000000000000000000;\n\n    //* this is the minimum sum to play\n    uint private minimum = 10000000000000000;\n    //* this is the maximum sum to play\n    uint private maximum = 1000000000000000000;\n    //* this is the suits (each of the value represent a suit)\n    string[] suits = [\"H\", \"S\", \"D\", \"C\"];\n    //* this is the card values\n    // prettier-ignore\n    string[] ranks = [\"A\", \"2\", \"3\", \"4\", \"5\", \"6\", \"7\", \"8\", \"9\", \"0\", \"J\", \"Q\", \"K\"];\n\n    uint[] playerCardValues;\n    string[] playerCardsUrls;\n    uint[] dealercardValues;\n    string[] dealerCardsUrls;\n\n    bool isBlackForPlayer = false;\n    bool isBlackForDealer = false;\n\n    bool finishGame = false;\n    //* this is the variable that is updated when the minimum balance function runs\n    bool public balanceChecker;\n  \n    //* this is the variable that check the number in the input is more than the minimum to play and less than the maximum to play\n    bool public inputChecked = true;\n\n    uint playerCounter = 0;\n    uint dealerCounter = 0;\n\n    bool loosedPlayer = false;\n    bool loosedDealer = false;\n\n    bool canTakeNewCardPlayer = true;\n    bool canTakeNewCardDealer = false;\n\n    bool gameFinished = false;\n\n    uint payment = 1;\n    uint paymentSum = 0 ; \n    uint public balance;\n\n    //* This constructor get the smart contract owner address\n    constructor (){\n        owner = msg.sender;\n        balance = 0;\n        // We want to call this function when the player want to play a new game\n        //   deckcard = createDeck();\n    }\n\n    function startGame() external {\n        givetwoCardsToPlayer();\n        givetwoCardsToDealer();\n        if(isBlackForDealer && isBlackForPlayer){\n            // NEED TO WORK ON THE END OF THE GAME\n            finishGame = true;\n            loosedPlayer = false;\n            loosedDealer = false;\n        }    \n        if(isBlackForDealer && isBlackForPlayer == false ){ \n            finishGame = true;\n            loosedDealer = false;\n            loosedPlayer = true;\n        }\n        if(isBlackForPlayer && isBlackForDealer == false){ \n            finishGame = true;\n            loosedDealer = true;\n            loosedPlayer = false;        \n        }     \n    }\n\n    //* The modifier check if the user is the smart contract owner\n    modifier onlyOwner(){\n        require(msg.sender == owner,\"Only the owner can do that!\");\n        _;\n    }\n\n    //* The function to transfer smart contract ownership\n    function transferOwnerShip(address newOwner) external onlyOwner{\n        owner = newOwner;\n    }\n\n    // We need to check why it's not rendering the balance value\n    uint public playerBalance = 0;\n    event initBalance(uint playerBalance);\n    //* This function gets the player address and returns the player balance\n    function getBalance(address payable addrs) public  returns(uint){\n        playerAddress = addrs;\n        playerBalance = playerAddress.balance;\n        emit initBalance(playerBalance);        \n        return playerAddress.balance;\n\n    }   \n\n    event initchecker(bool balanceChecker);\n    //* This function get the player address and check if he has anough balance in the wallet and returns true or false to the react code\n    function checkBalance(uint bal) public returns(bool){\n        if(bal >= minBalance){\n            balanceChecker = true;\n        }\n        else{\n            balanceChecker = false;\n        }\n        emit initchecker(balanceChecker);\n        return balanceChecker;\n    }\n\n    event inpuchecker(bool inputChecked);\n    //* The function gets from the frontend sum entered to play and verify if it's more than the minimum and less than the maximum\n    function checkInput(uint bal, uint input) public returns (bool){\n        playerBalance = bal;\n        if((input < minimum || input > maximum)){\n            inputChecked = false;\n        } \n        if(input >= minimum && input <= maximum && input < bal)\n        {\n            inputChecked = true;\n            paymentSum = input;\n        }\n        emit inpuchecker(inputChecked);\n        return inputChecked;\n    }\n\n    //* Checks if 2 strings are equals (helper function)\n    function compareStrings(string memory a, string memory b) public pure returns (bool) {\n    return (keccak256(abi.encodePacked((a))) == keccak256(abi.encodePacked((b))));\n    }\n\n    //* gets a string and return a interger (helper function)\n    function stringToUint(string memory s) public pure returns (uint) {\n        bytes memory b = bytes(s);\n        uint result = 0;\n        for (uint256 i = 0; i < b.length; i++) {\n            uint256 c = uint256(uint8(b[i]));\n            if (c >= 48 && c <= 57) {\n                result = result * 10 + (c - 48);\n            }\n        }\n        return result;\n    }\n\n    // The function creates URL for the ui\n    function createUrlForUI(string memory card) public pure returns (string memory) {\n        string memory cardLink = \"https://deckofcardsapi.com/static/img/\";\n        string memory cardType = \".png\";\n        string memory cardLinkNew = string.concat(cardLink,card,cardType);\n        return cardLinkNew;\n    }\n\n    // This function returns the cards of the player\n    function showPlayerCardvalue() public view returns(uint[] memory){\n        return playerCardValues;\n    }\n    function showPlayerCardUrls() public view returns(string[] memory){\n        return playerCardsUrls;\n    }\n    // This function returns the cards of the dealer\n    function showDealerCardvalue() public view returns(uint[] memory){\n        return dealercardValues;\n    }\n    function showDealerCardUrls() public view returns(string[] memory){\n        return dealerCardsUrls;\n    }\n    // It starts the game and give to the player 2 cards\n    function givetwoCardsToPlayer() public {\n        generateTwoRandomNumbersToPlayer();\n    }\n    // It starts the game and give to the dealer 2 cards\n    function givetwoCardsToDealer() public {\n        generateTwoRandomNumbersToDealer();\n    }\n    function showDealerCounter() public view returns(uint ){\n        return dealerCounter;\n    }\n    function showPlayerCounter() public view returns(uint ){\n        return playerCounter;\n    }\n\n    //* The function sums the cards values for dealer and player\n    function sumOfCards() public{\n        uint lenOfPlayerCards = playerCardValues.length;\n        uint lenOfDealerCards = dealercardValues.length;\n\n        playerCounter = 0;\n        // uint playerCounter = 0;\n        for(uint i = 0; i < lenOfPlayerCards; i++){\n            playerCounter += playerCardValues[i];\n        }\n        \n        dealerCounter = 0;\n        // uint dealerCounter = 0;\n        for(uint i = 0; i < lenOfDealerCards; i++){\n            dealerCounter += dealercardValues[i];\n        }\n    }\n\n    // The function convert value that are more than 10 to be 10\n    function checkValue(uint num) public pure returns(uint){\n        if(num >= 10)return 10;\n        return num;\n        \n    }\n\n    // The function generate 2 random cards to the player\n    function generateTwoRandomNumbersToPlayer() public {\n        uint randomNumber1 = uint(keccak256(abi.encodePacked(block.timestamp, block.difficulty))) % 13;\n        uint randomNumber2 = uint(keccak256(abi.encodePacked(block.gaslimit, block.number))) % 13;\n        \n        uint randomSuit1 = uint(keccak256(abi.encodePacked(block.timestamp, block.difficulty))) % 4;\n        uint randomSuit2 = uint(keccak256(abi.encodePacked(block.gaslimit, block.number))) % 4;\n\n        string memory rankNumber1 = ranks[randomNumber1];\n        string memory rankNumber2 = ranks[randomNumber2];\n        playerCardValues.push(checkValue(randomNumber1+1));\n        playerCardValues.push(checkValue(randomNumber2+1));\n        if((playerCardValues[0] == 1 && playerCardValues[1]==10) ||\n            (playerCardValues[1] == 1 && playerCardValues[0]==10)){\n                isBlackForPlayer = true;\n                loosedPlayer = false;\n                loosedDealer = true;\n                gameFinished = true;\n                payment = 3/uint256(2);\n                finishTheGame();\n        }\n        string memory suitNumber1 = suits[randomSuit1];\n        string memory suitNumber2 = suits[randomSuit2];\n\n        string memory card1 = createUrlForUI(string.concat(rankNumber1,suitNumber1));\n        string memory card2 = createUrlForUI(string.concat(rankNumber2,suitNumber2));\n\n        playerCardsUrls.push(card1);\n        playerCardsUrls.push(card2);\n\n        sumOfCards();\n    }\n\n\n    // The function generate 2 random cards to the dealer\n    function generateTwoRandomNumbersToDealer() public {\n        uint randomNumber1 = uint(keccak256(abi.encodePacked(block.timestamp, block.difficulty))) % 13;\n        uint randomNumber2 = uint(keccak256(abi.encodePacked(block.gaslimit, block.number))) % 13;\n\n        uint randomSuit1 = uint(keccak256(abi.encodePacked(block.timestamp, block.difficulty))) % 4;\n        uint randomSuit2 = uint(keccak256(abi.encodePacked(block.gaslimit, block.number))) % 4;\n\n        string memory rankNumber1 = ranks[randomNumber1];\n        string memory rankNumber2 = ranks[randomNumber2];\n        dealercardValues.push(checkValue(randomNumber1+1));\n        dealercardValues.push(checkValue(randomNumber2+1));\n        if((dealercardValues[0] == 1 && dealercardValues[1]==10) ||\n            (dealercardValues[1] == 1 && dealercardValues[0]==10)){\n                isBlackForDealer = true;\n                loosedPlayer = true;\n                loosedDealer = false;\n                gameFinished = true;\n                payment = 1;\n                finishTheGame();\n\n        }\n        string memory suitNumber1 = suits[randomSuit1];\n        string memory suitNumber2 = suits[randomSuit2];\n\n        string memory card1 = createUrlForUI(string.concat(rankNumber1,suitNumber1));\n        string memory card2 = createUrlForUI(string.concat(rankNumber2,suitNumber2));\n\n        dealerCardsUrls.push(card1);\n        dealerCardsUrls.push(card2);\n\n        sumOfCards();\n\n    }\n   \n    //* The function add to the player a new random card\n    function getRandomCardValueToPlayer() public {\n        string memory rankNumber = ranks[getRandomRank()];\n        string memory suitNumber = suits[getRandomSuit()];\n        string memory card = createUrlForUI(string.concat(rankNumber,suitNumber));\n        uint  cardVal = getRankNum(rankNumber);\n        playerCardValues.push(cardVal);\n        playerCardsUrls.push(card);\n        sumOfCards();\n        if(playerCounter > 21){\n            loosedPlayer = true;\n            loosedDealer = false;\n            gameFinished = true;\n            payment = 0;\n            finishTheGame();\n            \n        }\n    }\n\n    //* The function adds to the dealer cards while he arrives to 17 or more\n    function dealerCardDistributer() public{\n        while(dealerCounter < 17){\n            getRandomCardValueToDealer();\n        }\n        canTakeNewCardDealer = false;\n        gameFinished = true;\n        finishTheGame();        \n    }\n\n    //* The function add to the dealer a new random card\n    function getRandomCardValueToDealer() public {\n        \n        string memory rankNumber = ranks[getRandomRank()];\n        string memory suitNumber = suits[getRandomSuit()];\n        string memory card = string.concat(rankNumber,suitNumber);\n        dealercardValues.push(getRankNum(rankNumber));\n        dealerCardsUrls.push(card);\n        sumOfCards();\n         if(dealerCounter > 21){\n            loosedDealer = true;\n            loosedPlayer = false;\n            payment = 1;\n        }\n    }\n\n    //* The function gets a random number from 0 to 12\n    function getRandomRank() public view returns (uint256) {\n        uint256 _randomNumber = uint256(keccak256(abi.encodePacked(block.timestamp, block.difficulty))) % 13; // Generate random number between 0 to 12\n        return (_randomNumber); \n    }\n\n    //* The function get a random number from 0 to 3\n    function getRandomSuit() public view returns (uint256) {\n        uint256 _randomNumber = uint256(keccak256(abi.encodePacked(block.timestamp, block.difficulty))) % 4; // Generate random number between 0 to 12\n        return (_randomNumber); \n    }\n\n\n\n    // The function gets the rank (string - first value) of a certain card in the deck and returns the number of card\n    function getRankNum(string memory rank) internal pure returns (uint){\n        if(compareStrings(rank,\"A\")){\n            return 1;\n        }\n        if( compareStrings(rank,\"0\") || compareStrings(rank,\"J\") || compareStrings(rank,\"Q\") || compareStrings(rank, \"K\" )){\n            return 10;\n        }\n        else{\n            return stringToUint(rank);\n        }\n    }\n\n    function finishGiveCard() external{\n        canTakeNewCardPlayer = false;\n        canTakeNewCardDealer = true;\n        dealerCardDistributer();\n    }\n    \n    // The function returns if the player won or lost\n    function finishTheGame() internal returns(string memory){\n        \n        if(dealerCounter == playerCounter){\n            loosedDealer = false;\n            loosedPlayer = false;\n            payment = 0; \n        }\n        else if((dealerCounter > playerCounter) && dealerCounter < 21 ){\n            loosedDealer = false;\n            loosedPlayer = true;\n            payment = 1;\n        }else if((dealerCounter < playerCounter) && playerCounter < 21 ){\n            loosedDealer = true;\n            loosedPlayer = false;\n            payment = 1;\n        }\n         else if((dealerCounter > playerCounter) && dealerCounter == 21 ){\n            loosedDealer = false;\n            loosedPlayer = true;\n            payment = 1;\n        }else if((dealerCounter < playerCounter) && playerCounter == 21 ){\n            loosedDealer = true;\n            loosedPlayer = false;\n            payment = 3/uint256(2);\n        }\n\n        if(finishGame && loosedDealer == false && loosedPlayer == false){\n            // don't do anything\n            return \"PUSH!!\";\n        }\n        else if(finishGame && loosedDealer == true && loosedPlayer == false){\n            // The dealer payes to the player\n            paymentToPlayer();\n            return \"WIN!!!\";\n        }\n        else if(finishGame && loosedDealer == false && loosedPlayer == true){\n            // The player payes to the dealer\n            contribute();\n            return \"LOSE!!!\";\n        }\n      \n    }\n    function paymentToPlayer() public payable{\n        require(address(this).balance >= paymentSum*payment, \"Insufficient balance in the contract\");\n        playerAddress.transfer(paymentSum * payment);\n    }\n\n    function contribute() public payable{\n        // msg.value is the value of Ether sent in a transaction\n        balance += msg.value;\n    }\n}\n\n    // mapping(address => uint256) public balances;\n\n    // function deposit() public payable {\n    //     balances[msg.sender] += msg.value;\n    // }\n\n    // function collect() public {\n    //     uint256 amount = balances[msg.sender];\n    //     require(amount > 0, \"No balance to withdraw\");\n\n    //     balances[msg.sender] = 0;\n    //     payable(address(this)).transfer(amount);\n    // }\n\n\n    // function paymentToDealer() public payable{\n    //     require(address(this).balance >= paymentSum*payment, \"Insufficient balance in the contract\");\n    //     playerAddress.transfer(paymentSum * payment);\n    // }\n// }",
  "sourcePath": "/Users/gabrielnakache/Desktop/Solidity Project/js1-app-code/contracts/Blackjack.sol",
  "compiler": {
    "name": "solc",
    "version": "0.8.17+commit.8df45f5f.Emscripten.clang"
  },
  "schemaVersion": "3.4.11",
  "updatedAt": "2023-03-30T19:36:00.190Z",
  "networkType": "ethereum",
  "devdoc": {
    "kind": "dev",
    "methods": {},
    "version": 1
  },
  "userdoc": {
    "kind": "user",
    "methods": {},
    "version": 1
  }
}