{
  "contractName": "Blackjack",
  "abi": [
    {
      "inputs": [],
      "stateMutability": "nonpayable",
      "type": "constructor"
    },
    {
      "anonymous": false,
      "inputs": [
        {
          "indexed": false,
          "internalType": "uint256",
          "name": "playerBalance",
          "type": "uint256"
        }
      ],
      "name": "initBalance",
      "type": "event"
    },
    {
      "anonymous": false,
      "inputs": [
        {
          "indexed": false,
          "internalType": "bool",
          "name": "balanceChecker",
          "type": "bool"
        }
      ],
      "name": "initchecker",
      "type": "event"
    },
    {
      "anonymous": false,
      "inputs": [
        {
          "indexed": false,
          "internalType": "bool",
          "name": "inputChecked",
          "type": "bool"
        }
      ],
      "name": "inpuchecker",
      "type": "event"
    },
    {
      "anonymous": false,
      "inputs": [
        {
          "indexed": false,
          "internalType": "uint256[]",
          "name": "",
          "type": "uint256[]"
        }
      ],
      "name": "returnDealerCardvale",
      "type": "event"
    },
    {
      "anonymous": false,
      "inputs": [
        {
          "indexed": false,
          "internalType": "uint256",
          "name": "",
          "type": "uint256"
        }
      ],
      "name": "returnDealerCounter",
      "type": "event"
    },
    {
      "anonymous": false,
      "inputs": [
        {
          "indexed": false,
          "internalType": "string[]",
          "name": "",
          "type": "string[]"
        }
      ],
      "name": "returnDealerUrls",
      "type": "event"
    },
    {
      "anonymous": false,
      "inputs": [
        {
          "indexed": false,
          "internalType": "uint256[]",
          "name": "",
          "type": "uint256[]"
        }
      ],
      "name": "returnPlayerCardvale",
      "type": "event"
    },
    {
      "anonymous": false,
      "inputs": [
        {
          "indexed": false,
          "internalType": "uint256",
          "name": "",
          "type": "uint256"
        }
      ],
      "name": "returnPlayerCounter",
      "type": "event"
    },
    {
      "anonymous": false,
      "inputs": [
        {
          "indexed": false,
          "internalType": "string[]",
          "name": "",
          "type": "string[]"
        }
      ],
      "name": "returnPlayerUrls",
      "type": "event"
    },
    {
      "inputs": [],
      "name": "balance",
      "outputs": [
        {
          "internalType": "uint256",
          "name": "",
          "type": "uint256"
        }
      ],
      "stateMutability": "view",
      "type": "function",
      "constant": true
    },
    {
      "inputs": [],
      "name": "balanceChecker",
      "outputs": [
        {
          "internalType": "bool",
          "name": "",
          "type": "bool"
        }
      ],
      "stateMutability": "view",
      "type": "function",
      "constant": true
    },
    {
      "inputs": [],
      "name": "inputChecked",
      "outputs": [
        {
          "internalType": "bool",
          "name": "",
          "type": "bool"
        }
      ],
      "stateMutability": "view",
      "type": "function",
      "constant": true
    },
    {
      "inputs": [],
      "name": "owner",
      "outputs": [
        {
          "internalType": "address",
          "name": "",
          "type": "address"
        }
      ],
      "stateMutability": "view",
      "type": "function",
      "constant": true
    },
    {
      "inputs": [],
      "name": "playerAddress",
      "outputs": [
        {
          "internalType": "address payable",
          "name": "",
          "type": "address"
        }
      ],
      "stateMutability": "view",
      "type": "function",
      "constant": true
    },
    {
      "inputs": [],
      "name": "playerBalance",
      "outputs": [
        {
          "internalType": "uint256",
          "name": "",
          "type": "uint256"
        }
      ],
      "stateMutability": "view",
      "type": "function",
      "constant": true
    },
    {
      "inputs": [],
      "name": "startGame",
      "outputs": [],
      "stateMutability": "nonpayable",
      "type": "function"
    },
    {
      "inputs": [
        {
          "internalType": "address",
          "name": "newOwner",
          "type": "address"
        }
      ],
      "name": "transferOwnerShip",
      "outputs": [],
      "stateMutability": "nonpayable",
      "type": "function"
    },
    {
      "inputs": [
        {
          "internalType": "address payable",
          "name": "addrs",
          "type": "address"
        }
      ],
      "name": "getBalance",
      "outputs": [
        {
          "internalType": "uint256",
          "name": "",
          "type": "uint256"
        }
      ],
      "stateMutability": "nonpayable",
      "type": "function"
    },
    {
      "inputs": [
        {
          "internalType": "uint256",
          "name": "bal",
          "type": "uint256"
        }
      ],
      "name": "checkBalance",
      "outputs": [
        {
          "internalType": "bool",
          "name": "",
          "type": "bool"
        }
      ],
      "stateMutability": "nonpayable",
      "type": "function"
    },
    {
      "inputs": [
        {
          "internalType": "uint256",
          "name": "bal",
          "type": "uint256"
        },
        {
          "internalType": "uint256",
          "name": "input",
          "type": "uint256"
        }
      ],
      "name": "checkInput",
      "outputs": [
        {
          "internalType": "bool",
          "name": "",
          "type": "bool"
        }
      ],
      "stateMutability": "nonpayable",
      "type": "function"
    },
    {
      "inputs": [
        {
          "internalType": "string",
          "name": "a",
          "type": "string"
        },
        {
          "internalType": "string",
          "name": "b",
          "type": "string"
        }
      ],
      "name": "compareStrings",
      "outputs": [
        {
          "internalType": "bool",
          "name": "",
          "type": "bool"
        }
      ],
      "stateMutability": "pure",
      "type": "function",
      "constant": true
    },
    {
      "inputs": [
        {
          "internalType": "string",
          "name": "s",
          "type": "string"
        }
      ],
      "name": "stringToUint",
      "outputs": [
        {
          "internalType": "uint256",
          "name": "",
          "type": "uint256"
        }
      ],
      "stateMutability": "pure",
      "type": "function",
      "constant": true
    },
    {
      "inputs": [
        {
          "internalType": "string",
          "name": "card",
          "type": "string"
        }
      ],
      "name": "createUrlForUI",
      "outputs": [
        {
          "internalType": "string",
          "name": "",
          "type": "string"
        }
      ],
      "stateMutability": "pure",
      "type": "function",
      "constant": true
    },
    {
      "inputs": [],
      "name": "showPlayerCardvalue",
      "outputs": [
        {
          "internalType": "uint256[]",
          "name": "",
          "type": "uint256[]"
        }
      ],
      "stateMutability": "nonpayable",
      "type": "function"
    },
    {
      "inputs": [],
      "name": "showPlayerCardUrls",
      "outputs": [
        {
          "internalType": "string[]",
          "name": "",
          "type": "string[]"
        }
      ],
      "stateMutability": "view",
      "type": "function",
      "constant": true
    },
    {
      "inputs": [],
      "name": "showDealerCardvalue",
      "outputs": [
        {
          "internalType": "uint256[]",
          "name": "",
          "type": "uint256[]"
        }
      ],
      "stateMutability": "nonpayable",
      "type": "function"
    },
    {
      "inputs": [],
      "name": "showDealerCardUrls",
      "outputs": [
        {
          "internalType": "string[]",
          "name": "",
          "type": "string[]"
        }
      ],
      "stateMutability": "view",
      "type": "function",
      "constant": true
    },
    {
      "inputs": [],
      "name": "givetwoCardsToPlayer",
      "outputs": [],
      "stateMutability": "nonpayable",
      "type": "function"
    },
    {
      "inputs": [],
      "name": "givetwoCardsToDealer",
      "outputs": [],
      "stateMutability": "nonpayable",
      "type": "function"
    },
    {
      "inputs": [],
      "name": "showDealerCounter",
      "outputs": [
        {
          "internalType": "uint256",
          "name": "",
          "type": "uint256"
        }
      ],
      "stateMutability": "nonpayable",
      "type": "function"
    },
    {
      "inputs": [],
      "name": "showPlayerCounter",
      "outputs": [
        {
          "internalType": "uint256",
          "name": "",
          "type": "uint256"
        }
      ],
      "stateMutability": "nonpayable",
      "type": "function"
    },
    {
      "inputs": [],
      "name": "sumOfCardsPlayer",
      "outputs": [],
      "stateMutability": "nonpayable",
      "type": "function"
    },
    {
      "inputs": [],
      "name": "sumOfCardsDealer",
      "outputs": [],
      "stateMutability": "nonpayable",
      "type": "function"
    },
    {
      "inputs": [
        {
          "internalType": "uint256",
          "name": "num",
          "type": "uint256"
        }
      ],
      "name": "checkValue",
      "outputs": [
        {
          "internalType": "uint256",
          "name": "",
          "type": "uint256"
        }
      ],
      "stateMutability": "pure",
      "type": "function",
      "constant": true
    },
    {
      "inputs": [],
      "name": "generateTwoRandomNumbersToPlayer",
      "outputs": [
        {
          "internalType": "string[]",
          "name": "",
          "type": "string[]"
        }
      ],
      "stateMutability": "nonpayable",
      "type": "function"
    },
    {
      "inputs": [],
      "name": "generateTwoRandomNumbersToDealer",
      "outputs": [
        {
          "internalType": "string[]",
          "name": "",
          "type": "string[]"
        }
      ],
      "stateMutability": "nonpayable",
      "type": "function"
    },
    {
      "inputs": [],
      "name": "getRandomCardValueToPlayer",
      "outputs": [],
      "stateMutability": "nonpayable",
      "type": "function"
    },
    {
      "inputs": [],
      "name": "dealerCardDistributer",
      "outputs": [],
      "stateMutability": "nonpayable",
      "type": "function"
    },
    {
      "inputs": [],
      "name": "getRandomCardValueToDealer",
      "outputs": [],
      "stateMutability": "nonpayable",
      "type": "function"
    },
    {
      "inputs": [],
      "name": "getRandomRank",
      "outputs": [
        {
          "internalType": "uint256",
          "name": "",
          "type": "uint256"
        }
      ],
      "stateMutability": "view",
      "type": "function",
      "constant": true
    },
    {
      "inputs": [],
      "name": "getRandomSuit",
      "outputs": [
        {
          "internalType": "uint256",
          "name": "",
          "type": "uint256"
        }
      ],
      "stateMutability": "view",
      "type": "function",
      "constant": true
    },
    {
      "inputs": [],
      "name": "finishGiveCard",
      "outputs": [],
      "stateMutability": "nonpayable",
      "type": "function"
    },
    {
      "inputs": [],
      "name": "finishTheGame",
      "outputs": [
        {
          "internalType": "string",
          "name": "",
          "type": "string"
        }
      ],
      "stateMutability": "nonpayable",
      "type": "function"
    },
    {
      "inputs": [],
      "name": "paymentToPlayer",
      "outputs": [],
      "stateMutability": "payable",
      "type": "function",
      "payable": true
    },
    {
      "inputs": [],
      "name": "contribute",
      "outputs": [],
      "stateMutability": "payable",
      "type": "function",
      "payable": true
    }
  ],
  "bytecode": "0x6080604052678ac7230489e80000600255662386f26fc10000600355670de0b6b3a764000060045560405180608001604052806040518060400160405280600181526020017f480000000000000000000000000000000000000000000000000000000000000081525081526020016040518060400160405280600181526020017f530000000000000000000000000000000000000000000000000000000000000081525081526020016040518060400160405280600181526020017f440000000000000000000000000000000000000000000000000000000000000081525081526020016040518060400160405280600181526020017f430000000000000000000000000000000000000000000000000000000000000081525081525060059060046200012e929190620005b4565b50604051806101a001604052806040518060400160405280600181526020017f410000000000000000000000000000000000000000000000000000000000000081525081526020016040518060400160405280600181526020017f320000000000000000000000000000000000000000000000000000000000000081525081526020016040518060400160405280600181526020017f330000000000000000000000000000000000000000000000000000000000000081525081526020016040518060400160405280600181526020017f340000000000000000000000000000000000000000000000000000000000000081525081526020016040518060400160405280600181526020017f350000000000000000000000000000000000000000000000000000000000000081525081526020016040518060400160405280600181526020017f360000000000000000000000000000000000000000000000000000000000000081525081526020016040518060400160405280600181526020017f370000000000000000000000000000000000000000000000000000000000000081525081526020016040518060400160405280600181526020017f380000000000000000000000000000000000000000000000000000000000000081525081526020016040518060400160405280600181526020017f390000000000000000000000000000000000000000000000000000000000000081525081526020016040518060400160405280600181526020017f300000000000000000000000000000000000000000000000000000000000000081525081526020016040518060400160405280600181526020017f4a0000000000000000000000000000000000000000000000000000000000000081525081526020016040518060400160405280600181526020017f510000000000000000000000000000000000000000000000000000000000000081525081526020016040518060400160405280600181526020017f4b00000000000000000000000000000000000000000000000000000000000000815250815250600690600d6200044a92919062000614565b506000600b60006101000a81548160ff0219169083151502179055506000600b60016101000a81548160ff0219169083151502179055506000600b60026101000a81548160ff0219169083151502179055506001600b60046101000a81548160ff0219169083151502179055506000600c556000600d556000600e60006101000a81548160ff0219169083151502179055506000600e60016101000a81548160ff0219169083151502179055506001600e60026101000a81548160ff0219169083151502179055506000600e60036101000a81548160ff0219169083151502179055506000600e60046101000a81548160ff0219169083151502179055506001600f55600060105560006012553480156200056457600080fd5b5033600160006101000a81548173ffffffffffffffffffffffffffffffffffffffff021916908373ffffffffffffffffffffffffffffffffffffffff160217905550600060118190555062000a62565b82805482825590600052602060002090810192821562000601579160200282015b8281111562000600578251829081620005ef91906200097b565b5091602001919060010190620005d5565b5b50905062000610919062000674565b5090565b82805482825590600052602060002090810192821562000661579160200282015b82811115620006605782518290816200064f91906200097b565b509160200191906001019062000635565b5b50905062000670919062000674565b5090565b5b808211156200069857600081816200068e91906200069c565b5060010162000675565b5090565b508054620006aa906200076a565b6000825580601f10620006be5750620006df565b601f016020900490600052602060002090810190620006de9190620006e2565b5b50565b5b80821115620006fd576000816000905550600101620006e3565b5090565b600081519050919050565b7f4e487b7100000000000000000000000000000000000000000000000000000000600052604160045260246000fd5b7f4e487b7100000000000000000000000000000000000000000000000000000000600052602260045260246000fd5b600060028204905060018216806200078357607f821691505b6020821081036200079957620007986200073b565b5b50919050565b60008190508160005260206000209050919050565b60006020601f8301049050919050565b600082821b905092915050565b600060088302620008037fffffffffffffffffffffffffffffffffffffffffffffffffffffffffffffffff82620007c4565b6200080f8683620007c4565b95508019841693508086168417925050509392505050565b6000819050919050565b6000819050919050565b60006200085c62000856620008508462000827565b62000831565b62000827565b9050919050565b6000819050919050565b62000878836200083b565b62000890620008878262000863565b848454620007d1565b825550505050565b600090565b620008a762000898565b620008b48184846200086d565b505050565b5b81811015620008dc57620008d06000826200089d565b600181019050620008ba565b5050565b601f8211156200092b57620008f5816200079f565b6200090084620007b4565b8101602085101562000910578190505b620009286200091f85620007b4565b830182620008b9565b50505b505050565b600082821c905092915050565b6000620009506000198460080262000930565b1980831691505092915050565b60006200096b83836200093d565b9150826002028217905092915050565b620009868262000701565b67ffffffffffffffff811115620009a257620009a16200070c565b5b620009ae82546200076a565b620009bb828285620008e0565b600060209050601f831160018114620009f35760008415620009de578287015190505b620009ea85826200095d565b86555062000a5a565b601f19841662000a03866200079f565b60005b8281101562000a2d5784890151825560018201915060208501945060208101905062000a06565b8683101562000a4d578489015162000a49601f8916826200093d565b8355505b6001600288020188555050505b505050505050565b613c378062000a726000396000f3fe60806040526004361061020f5760003560e01c80638da5cb5b11610118578063c16fe1ef116100a0578063e07c54451161006f578063e07c5445146106d1578063e9a50730146106e8578063ecd65c0f14610713578063f8b2cb4f1461073e578063fec3e7051461077b5761020f565b8063c16fe1ef1461066e578063d0498cdb14610685578063d65ab5f2146106b0578063d7bb99ba146106c75761020f565b8063a146bf7a116100e7578063a146bf7a14610599578063a54c14f8146105c4578063b69ef8a8146105ef578063b8cf58ed1461061a578063bed34bba146106315761020f565b80638da5cb5b146104ed5780638e3411b3146105185780638ec4ebd7146105435780639d8c6cfb1461056e5761020f565b806351e488b51161019b57806373b9863d1161016a57806373b9863d1461041a5780637f286286146104455780638863dd1a1461048257806388eb3a37146104ab5780638c171a09146104d65761020f565b806351e488b51461037d578063545e0dde1461038757806363a20a82146103b2578063651f066a146103ef5761020f565b80631bd95155116101e25780631bd95155146102aa5780631cd7e64b146102e757806323820caa146102fe57806328440b4714610315578063515d1a86146103405761020f565b80630515513814610214578063090e15d61461022b57806313c43ab01461024257806318db62fb1461026d575b600080fd5b34801561022057600080fd5b506102296107a6565b005b34801561023757600080fd5b50610240610811565b005b34801561024e57600080fd5b5061025761081c565b6040516102649190612bda565b60405180910390f35b34801561027957600080fd5b50610294600480360381019061028f9190612c3f565b61082f565b6040516102a19190612c7b565b60405180910390f35b3480156102b657600080fd5b506102d160048036038101906102cc9190612ddc565b61084b565b6040516102de9190612c7b565b60405180910390f35b3480156102f357600080fd5b506102fc6108e3565b005b34801561030a57600080fd5b50610313610923565b005b34801561032157600080fd5b5061032a61092e565b6040516103379190612f66565b60405180910390f35b34801561034c57600080fd5b5061036760048036038101906103629190612f88565b610f8b565b6040516103749190612bda565b60405180910390f35b61038561106b565b005b34801561039357600080fd5b5061039c611135565b6040516103a99190612c7b565b60405180910390f35b3480156103be57600080fd5b506103d960048036038101906103d49190612ddc565b611173565b6040516103e69190613012565b60405180910390f35b3480156103fb57600080fd5b506104046111ff565b6040516104119190612c7b565b60405180910390f35b34801561042657600080fd5b5061042f611205565b60405161043c9190612f66565b60405180910390f35b34801561045157600080fd5b5061046c60048036038101906104679190612c3f565b611856565b6040516104799190612bda565b60405180910390f35b34801561048e57600080fd5b506104a960048036038101906104a49190613092565b6118fa565b005b3480156104b757600080fd5b506104c06119ce565b6040516104cd919061317d565b60405180910390f35b3480156104e257600080fd5b506104eb611a0b565b005b3480156104f957600080fd5b50610502611a65565b60405161050f91906131ae565b60405180910390f35b34801561052457600080fd5b5061052d611a8b565b60405161053a9190612f66565b60405180910390f35b34801561054f57600080fd5b50610558611b64565b604051610565919061317d565b60405180910390f35b34801561057a57600080fd5b50610583611ba1565b6040516105909190612bda565b60405180910390f35b3480156105a557600080fd5b506105ae611bb4565b6040516105bb91906131ea565b60405180910390f35b3480156105d057600080fd5b506105d9611bd8565b6040516105e69190612c7b565b60405180910390f35b3480156105fb57600080fd5b50610604611c1c565b6040516106119190612c7b565b60405180910390f35b34801561062657600080fd5b5061062f611c22565b005b34801561063d57600080fd5b5061065860048036038101906106539190613205565b611e69565b6040516106659190612bda565b60405180910390f35b34801561067a57600080fd5b50610683611ec2565b005b34801561069157600080fd5b5061069a611f2d565b6040516106a79190612c7b565b60405180910390f35b3480156106bc57600080fd5b506106c5611f6b565b005b6106cf612108565b005b3480156106dd57600080fd5b506106e6612123565b005b3480156106f457600080fd5b506106fd61239c565b60405161070a9190612c7b565b60405180910390f35b34801561071f57600080fd5b506107286123e0565b6040516107359190612f66565b60405180910390f35b34801561074a57600080fd5b50610765600480360381019061076091906132a9565b6124b9565b6040516107729190612c7b565b60405180910390f35b34801561078757600080fd5b506107906125b1565b60405161079d9190613012565b60405180910390f35b600060098054905090506000600d8190555060005b8181101561080d57600981815481106107d7576107d66132d6565b5b9060005260206000200154600d60008282546107f39190613334565b92505081905550808061080590613368565b9150506107bb565b5050565b61081961092e565b50565b600b60049054906101000a900460ff1681565b6000600a821061084257600a9050610846565b8190505b919050565b6000808290506000805b82518110156108d8576000838281518110610873576108726132d6565b5b602001015160f81c60f81b60f81c60ff16905060308110158015610898575060398111155b156108c4576030816108aa91906133b0565b600a846108b791906133e4565b6108c19190613334565b92505b5080806108d090613368565b915050610855565b508092505050919050565b6000600e60026101000a81548160ff0219169083151502179055506001600e60036101000a81548160ff021916908315150217905550610921611a0b565b565b61092b611205565b50565b60606000600d4244604051602001610947929190613447565b6040516020818303038152906040528051906020012060001c61096a91906134a2565b90506000600d4543604051602001610983929190613447565b6040516020818303038152906040528051906020012060001c6109a691906134a2565b90506000600442446040516020016109bf929190613447565b6040516020818303038152906040528051906020012060001c6109e291906134a2565b90506000600445436040516020016109fb929190613447565b6040516020818303038152906040528051906020012060001c610a1e91906134a2565b9050600060068581548110610a3657610a356132d6565b5b906000526020600020018054610a4b90613502565b80601f0160208091040260200160405190810160405280929190818152602001828054610a7790613502565b8015610ac45780601f10610a9957610100808354040283529160200191610ac4565b820191906000526020600020905b815481529060010190602001808311610aa757829003601f168201915b50505050509050600060068581548110610ae157610ae06132d6565b5b906000526020600020018054610af690613502565b80601f0160208091040260200160405190810160405280929190818152602001828054610b2290613502565b8015610b6f5780601f10610b4457610100808354040283529160200191610b6f565b820191906000526020600020905b815481529060010190602001808311610b5257829003601f168201915b505050505090506007610b8d600188610b889190613334565b61082f565b90806001815401808255809150506001900390600052602060002001600090919091909150556007610bca600187610bc59190613334565b61082f565b908060018154018082558091505060019003906000526020600020016000909190919091505560016007600081548110610c0757610c066132d6565b5b9060005260206000200154148015610c3e5750600a6007600181548110610c3157610c306132d6565b5b9060005260206000200154145b80610c93575060016007600181548110610c5b57610c5a6132d6565b5b9060005260206000200154148015610c925750600a6007600081548110610c8557610c846132d6565b5b9060005260206000200154145b5b15610d22576001600b60006101000a81548160ff0219169083151502179055506000600e60006101000a81548160ff0219169083151502179055506001600e60016101000a81548160ff0219169083151502179055506001600e60046101000a81548160ff02191690831515021790555060026003610d129190613533565b600f81905550610d206125b1565b505b600060058581548110610d3857610d376132d6565b5b906000526020600020018054610d4d90613502565b80601f0160208091040260200160405190810160405280929190818152602001828054610d7990613502565b8015610dc65780601f10610d9b57610100808354040283529160200191610dc6565b820191906000526020600020905b815481529060010190602001808311610da957829003601f168201915b50505050509050600060058581548110610de357610de26132d6565b5b906000526020600020018054610df890613502565b80601f0160208091040260200160405190810160405280929190818152602001828054610e2490613502565b8015610e715780601f10610e4657610100808354040283529160200191610e71565b820191906000526020600020905b815481529060010190602001808311610e5457829003601f168201915b505050505090506000610ea48584604051602001610e909291906135a0565b604051602081830303815290604052611173565b90506000610ed28584604051602001610ebe9291906135a0565b604051602081830303815290604052611173565b9050600882908060018154018082558091505060019003906000526020600020016000909190919091509081610f089190613770565b50600881908060018154018082558091505060019003906000526020600020016000909190919091509081610f3d9190613770565b50610f46611ec2565b7fc1dd89cc519a8102cf60e6197f8ef3266a2a5b602e8bedf695c3d3bd153876816008604051610f76919061397b565b60405180910390a15050505050505050505090565b600082601281905550600354821080610fa5575060045482115b15610fc6576000600b60046101000a81548160ff0219169083151502179055505b6003548210158015610fda57506004548211155b8015610fe557508282105b1561100d576001600b60046101000a81548160ff021916908315150217905550816010819055505b7fe2a2f6d3b39473e3ddde06c769c9d9cc235403276874bb80ff2f9d1729391940600b60049054906101000a900460ff1660405161104b9190612bda565b60405180910390a1600b60049054906101000a900460ff16905092915050565b600f5460105461107b91906133e4565b4710156110bd576040517f08c379a00000000000000000000000000000000000000000000000000000000081526004016110b490613a0f565b60405180910390fd5b60008054906101000a900473ffffffffffffffffffffffffffffffffffffffff1673ffffffffffffffffffffffffffffffffffffffff166108fc600f5460105461110791906133e4565b9081150290604051600060405180830381858888f19350505050158015611132573d6000803e3d6000fd5b50565b60007fd3de8fe4049059e1a238ed5eb6a43bea612fa85aebadca074de7b391fd6fc549600c546040516111689190612c7b565b60405180910390a190565b60606000604051806060016040528060268152602001613bdc60269139905060006040518060400160405280600481526020017f2e706e6700000000000000000000000000000000000000000000000000000000815250905060008285836040516020016111e393929190613a2f565b6040516020818303038152906040529050809350505050919050565b60125481565b60606000600d424460405160200161121e929190613447565b6040516020818303038152906040528051906020012060001c61124191906134a2565b90506000600d454360405160200161125a929190613447565b6040516020818303038152906040528051906020012060001c61127d91906134a2565b9050600060044244604051602001611296929190613447565b6040516020818303038152906040528051906020012060001c6112b991906134a2565b90506000600445436040516020016112d2929190613447565b6040516020818303038152906040528051906020012060001c6112f591906134a2565b905060006006858154811061130d5761130c6132d6565b5b90600052602060002001805461132290613502565b80601f016020809104026020016040519081016040528092919081815260200182805461134e90613502565b801561139b5780601f106113705761010080835404028352916020019161139b565b820191906000526020600020905b81548152906001019060200180831161137e57829003601f168201915b505050505090506000600685815481106113b8576113b76132d6565b5b9060005260206000200180546113cd90613502565b80601f01602080910402602001604051908101604052809291908181526020018280546113f990613502565b80156114465780601f1061141b57610100808354040283529160200191611446565b820191906000526020600020905b81548152906001019060200180831161142957829003601f168201915b50505050509050600961146460018861145f9190613334565b61082f565b908060018154018082558091505060019003906000526020600020016000909190919091505560096114a160018761149c9190613334565b61082f565b9080600181540180825580915050600190039060005260206000200160009091909190915055600160096000815481106114de576114dd6132d6565b5b90600052602060002001541480156115155750600a6009600181548110611508576115076132d6565b5b9060005260206000200154145b8061156a575060016009600181548110611532576115316132d6565b5b90600052602060002001541480156115695750600a600960008154811061155c5761155b6132d6565b5b9060005260206000200154145b5b156115ed576001600b60016101000a81548160ff0219169083151502179055506001600e60006101000a81548160ff0219169083151502179055506000600e60016101000a81548160ff0219169083151502179055506001600e60046101000a81548160ff0219169083151502179055506001600f819055506115eb6125b1565b505b600060058581548110611603576116026132d6565b5b90600052602060002001805461161890613502565b80601f016020809104026020016040519081016040528092919081815260200182805461164490613502565b80156116915780601f1061166657610100808354040283529160200191611691565b820191906000526020600020905b81548152906001019060200180831161167457829003601f168201915b505050505090506000600585815481106116ae576116ad6132d6565b5b9060005260206000200180546116c390613502565b80601f01602080910402602001604051908101604052809291908181526020018280546116ef90613502565b801561173c5780601f106117115761010080835404028352916020019161173c565b820191906000526020600020905b81548152906001019060200180831161171f57829003601f168201915b50505050509050600061176f858460405160200161175b9291906135a0565b604051602081830303815290604052611173565b9050600061179d85846040516020016117899291906135a0565b604051602081830303815290604052611173565b9050600a829080600181540180825580915050600190039060005260206000200160009091909190915090816117d39190613770565b50600a819080600181540180825580915050600190039060005260206000200160009091909190915090816118089190613770565b506118116107a6565b7fd6d0a7dd897167b23beb6a7ca35237073632569263cf60e176469f70ae939816600a604051611841919061397b565b60405180910390a15050505050505050505090565b60006002548210611881576001600b60036101000a81548160ff02191690831515021790555061189d565b6000600b60036101000a81548160ff0219169083151502179055505b7fd8f0cc0ad1816c0b2e2a2c5e7304d307c87f495a82c92d9853d446abd884ea6b600b60039054906101000a900460ff166040516118db9190612bda565b60405180910390a1600b60039054906101000a900460ff169050919050565b600160009054906101000a900473ffffffffffffffffffffffffffffffffffffffff1673ffffffffffffffffffffffffffffffffffffffff163373ffffffffffffffffffffffffffffffffffffffff161461198a576040517f08c379a000000000000000000000000000000000000000000000000000000000815260040161198190613aac565b60405180910390fd5b80600160006101000a81548173ffffffffffffffffffffffffffffffffffffffff021916908373ffffffffffffffffffffffffffffffffffffffff16021790555050565b60607f219282380dc15795dfa77538b195e28a43b4088da4e95a379dfef0c6d6847d0d6007604051611a009190613ba2565b60405180910390a190565b5b6011600d541015611a2457611a1f611c22565b611a0c565b6000600e60036101000a81548160ff0219169083151502179055506001600e60046101000a81548160ff021916908315150217905550611a626125b1565b50565b600160009054906101000a900473ffffffffffffffffffffffffffffffffffffffff1681565b6060600a805480602002602001604051908101604052809291908181526020016000905b82821015611b5b578382906000526020600020018054611ace90613502565b80601f0160208091040260200160405190810160405280929190818152602001828054611afa90613502565b8015611b475780601f10611b1c57610100808354040283529160200191611b47565b820191906000526020600020905b815481529060010190602001808311611b2a57829003601f168201915b505050505081526020019060010190611aaf565b50505050905090565b60607f8a4ac2ad7712484078085d0b7c0465f2ddc2c7588c4bd163fd589c1b845418dd6009604051611b969190613ba2565b60405180910390a190565b600b60039054906101000a900460ff1681565b60008054906101000a900473ffffffffffffffffffffffffffffffffffffffff1681565b600080600d4244604051602001611bf0929190613447565b6040516020818303038152906040528051906020012060001c611c1391906134a2565b90508091505090565b60115481565b60006006611c2e611bd8565b81548110611c3f57611c3e6132d6565b5b906000526020600020018054611c5490613502565b80601f0160208091040260200160405190810160405280929190818152602001828054611c8090613502565b8015611ccd5780601f10611ca257610100808354040283529160200191611ccd565b820191906000526020600020905b815481529060010190602001808311611cb057829003601f168201915b5050505050905060006005611ce061239c565b81548110611cf157611cf06132d6565b5b906000526020600020018054611d0690613502565b80601f0160208091040260200160405190810160405280929190818152602001828054611d3290613502565b8015611d7f5780601f10611d5457610100808354040283529160200191611d7f565b820191906000526020600020905b815481529060010190602001808311611d6257829003601f168201915b5050505050905060008282604051602001611d9b9291906135a0565b60405160208183030381529060405290506009611db78461297d565b9080600181540180825580915050600190039060005260206000200160009091909190915055600a81908060018154018082558091505060019003906000526020600020016000909190919091509081611e119190613770565b50611e1a6107a6565b6015600d541115611e64576001600e60016101000a81548160ff0219169083151502179055506000600e60006101000a81548160ff0219169083151502179055506001600f819055505b505050565b600081604051602001611e7c9190613bc4565b6040516020818303038152906040528051906020012083604051602001611ea39190613bc4565b6040516020818303038152906040528051906020012014905092915050565b600060078054905090506000600c8190555060005b81811015611f295760078181548110611ef357611ef26132d6565b5b9060005260206000200154600c6000828254611f0f9190613334565b925050819055508080611f2190613368565b915050611ed7565b5050565b60007f3c30c7c52105d0a03501dcc192724ac4ae94ea3a2c8adba22084e331761d90b8600d54604051611f609190612c7b565b60405180910390a190565b611f73610811565b611f7b610923565b600b60019054906101000a900460ff168015611fa35750600b60009054906101000a900460ff165b15611ffa576001600b60026101000a81548160ff0219169083151502179055506000600e60006101000a81548160ff0219169083151502179055506000600e60016101000a81548160ff0219169083151502179055505b600b60019054906101000a900460ff168015612029575060001515600b60009054906101000a900460ff161515145b15612080576001600b60026101000a81548160ff0219169083151502179055506000600e60016101000a81548160ff0219169083151502179055506001600e60006101000a81548160ff0219169083151502179055505b600b60009054906101000a900460ff1680156120af575060001515600b60019054906101000a900460ff161515145b15612106576001600b60026101000a81548160ff0219169083151502179055506001600e60016101000a81548160ff0219169083151502179055506000600e60006101000a81548160ff0219169083151502179055505b565b346011600082825461211a9190613334565b92505081905550565b6000600661212f611bd8565b815481106121405761213f6132d6565b5b90600052602060002001805461215590613502565b80601f016020809104026020016040519081016040528092919081815260200182805461218190613502565b80156121ce5780601f106121a3576101008083540402835291602001916121ce565b820191906000526020600020905b8154815290600101906020018083116121b157829003601f168201915b50505050509050600060056121e161239c565b815481106121f2576121f16132d6565b5b90600052602060002001805461220790613502565b80601f016020809104026020016040519081016040528092919081815260200182805461223390613502565b80156122805780601f1061225557610100808354040283529160200191612280565b820191906000526020600020905b81548152906001019060200180831161226357829003601f168201915b5050505050905060006122b3838360405160200161229f9291906135a0565b604051602081830303815290604052611173565b905060006122c08461297d565b9050600781908060018154018082558091505060019003906000526020600020016000909190919091505560088290806001815401808255809150506001900390600052602060002001600090919091909150908161231f9190613770565b50612328611ec2565b6015600c541115612396576001600e60006101000a81548160ff0219169083151502179055506000600e60016101000a81548160ff0219169083151502179055506001600e60046101000a81548160ff0219169083151502179055506000600f819055506123946125b1565b505b50505050565b600080600442446040516020016123b4929190613447565b6040516020818303038152906040528051906020012060001c6123d791906134a2565b90508091505090565b60606008805480602002602001604051908101604052809291908181526020016000905b828210156124b057838290600052602060002001805461242390613502565b80601f016020809104026020016040519081016040528092919081815260200182805461244f90613502565b801561249c5780601f106124715761010080835404028352916020019161249c565b820191906000526020600020905b81548152906001019060200180831161247f57829003601f168201915b505050505081526020019060010190612404565b50505050905090565b6000816000806101000a81548173ffffffffffffffffffffffffffffffffffffffff021916908373ffffffffffffffffffffffffffffffffffffffff16021790555060008054906101000a900473ffffffffffffffffffffffffffffffffffffffff1673ffffffffffffffffffffffffffffffffffffffff16316012819055507fc6e2ac2344b72494ae5c6c59901ac6a72b498a598bf788b6503e60dba61f825060125460405161256a9190612c7b565b60405180910390a160008054906101000a900473ffffffffffffffffffffffffffffffffffffffff1673ffffffffffffffffffffffffffffffffffffffff16319050919050565b6060600760006125c19190612afc565b600860006125cf9190612b1d565b600960006125dd9190612afc565b600a60006125eb9190612b1d565b600c54600d5403612639576000600e60016101000a81548160ff0219169083151502179055506000600e60006101000a81548160ff0219169083151502179055506000600f819055506127b9565b600c54600d5411801561264e57506015600d54105b15612696576000600e60016101000a81548160ff0219169083151502179055506001600e60006101000a81548160ff0219169083151502179055506001600f819055506127b8565b600c54600d541080156126ab57506015600c54105b156126f3576001600e60016101000a81548160ff0219169083151502179055506000600e60006101000a81548160ff0219169083151502179055506001600f819055506127b7565b600c54600d5411801561270857506015600d54145b15612750576000600e60016101000a81548160ff0219169083151502179055506001600e60006101000a81548160ff0219169083151502179055506001600f819055506127b6565b600c54600d5410801561276557506015600c54145b156127b5576001600e60016101000a81548160ff0219169083151502179055506000600e60006101000a81548160ff021916908315150217905550600260036127ae9190613533565b600f819055505b5b5b5b5b600b60029054906101000a900460ff1680156127e8575060001515600e60019054906101000a900460ff161515145b8015612807575060001515600e60009054906101000a900460ff161515145b15612849576040518060400160405280600681526020017f5055534821210000000000000000000000000000000000000000000000000000815250905061297a565b600b60029054906101000a900460ff168015612878575060011515600e60019054906101000a900460ff161515145b8015612897575060001515600e60009054906101000a900460ff161515145b156128e1576128a461106b565b6040518060400160405280600681526020017f57494e2121210000000000000000000000000000000000000000000000000000815250905061297a565b600b60029054906101000a900460ff168015612910575060001515600e60019054906101000a900460ff161515145b801561292f575060011515600e60009054906101000a900460ff161515145b156129795761293c612108565b6040518060400160405280600781526020017f4c4f534521212100000000000000000000000000000000000000000000000000815250905061297a565b5b90565b60006129be826040518060400160405280600181526020017f4100000000000000000000000000000000000000000000000000000000000000815250611e69565b156129cc5760019050612af7565b612a0b826040518060400160405280600181526020017f3000000000000000000000000000000000000000000000000000000000000000815250611e69565b80612a515750612a50826040518060400160405280600181526020017f4a00000000000000000000000000000000000000000000000000000000000000815250611e69565b5b80612a975750612a96826040518060400160405280600181526020017f5100000000000000000000000000000000000000000000000000000000000000815250611e69565b5b80612add5750612adc826040518060400160405280600181526020017f4b00000000000000000000000000000000000000000000000000000000000000815250611e69565b5b15612aeb57600a9050612af7565b612af48261084b565b90505b919050565b5080546000825590600052602060002090810190612b1a9190612b3e565b50565b5080546000825590600052602060002090810190612b3b9190612b5b565b50565b5b80821115612b57576000816000905550600101612b3f565b5090565b5b80821115612b7b5760008181612b729190612b7f565b50600101612b5c565b5090565b508054612b8b90613502565b6000825580601f10612b9d5750612bbc565b601f016020900490600052602060002090810190612bbb9190612b3e565b5b50565b60008115159050919050565b612bd481612bbf565b82525050565b6000602082019050612bef6000830184612bcb565b92915050565b6000604051905090565b600080fd5b600080fd5b6000819050919050565b612c1c81612c09565b8114612c2757600080fd5b50565b600081359050612c3981612c13565b92915050565b600060208284031215612c5557612c54612bff565b5b6000612c6384828501612c2a565b91505092915050565b612c7581612c09565b82525050565b6000602082019050612c906000830184612c6c565b92915050565b600080fd5b600080fd5b6000601f19601f8301169050919050565b7f4e487b7100000000000000000000000000000000000000000000000000000000600052604160045260246000fd5b612ce982612ca0565b810181811067ffffffffffffffff82111715612d0857612d07612cb1565b5b80604052505050565b6000612d1b612bf5565b9050612d278282612ce0565b919050565b600067ffffffffffffffff821115612d4757612d46612cb1565b5b612d5082612ca0565b9050602081019050919050565b82818337600083830152505050565b6000612d7f612d7a84612d2c565b612d11565b905082815260208101848484011115612d9b57612d9a612c9b565b5b612da6848285612d5d565b509392505050565b600082601f830112612dc357612dc2612c96565b5b8135612dd3848260208601612d6c565b91505092915050565b600060208284031215612df257612df1612bff565b5b600082013567ffffffffffffffff811115612e1057612e0f612c04565b5b612e1c84828501612dae565b91505092915050565b600081519050919050565b600082825260208201905092915050565b6000819050602082019050919050565b600081519050919050565b600082825260208201905092915050565b60005b83811015612e8b578082015181840152602081019050612e70565b60008484015250505050565b6000612ea282612e51565b612eac8185612e5c565b9350612ebc818560208601612e6d565b612ec581612ca0565b840191505092915050565b6000612edc8383612e97565b905092915050565b6000602082019050919050565b6000612efc82612e25565b612f068185612e30565b935083602082028501612f1885612e41565b8060005b85811015612f545784840389528151612f358582612ed0565b9450612f4083612ee4565b925060208a01995050600181019050612f1c565b50829750879550505050505092915050565b60006020820190508181036000830152612f808184612ef1565b905092915050565b60008060408385031215612f9f57612f9e612bff565b5b6000612fad85828601612c2a565b9250506020612fbe85828601612c2a565b9150509250929050565b600082825260208201905092915050565b6000612fe482612e51565b612fee8185612fc8565b9350612ffe818560208601612e6d565b61300781612ca0565b840191505092915050565b6000602082019050818103600083015261302c8184612fd9565b905092915050565b600073ffffffffffffffffffffffffffffffffffffffff82169050919050565b600061305f82613034565b9050919050565b61306f81613054565b811461307a57600080fd5b50565b60008135905061308c81613066565b92915050565b6000602082840312156130a8576130a7612bff565b5b60006130b68482850161307d565b91505092915050565b600081519050919050565b600082825260208201905092915050565b6000819050602082019050919050565b6130f481612c09565b82525050565b600061310683836130eb565b60208301905092915050565b6000602082019050919050565b600061312a826130bf565b61313481856130ca565b935061313f836130db565b8060005b8381101561317057815161315788826130fa565b975061316283613112565b925050600181019050613143565b5085935050505092915050565b60006020820190508181036000830152613197818461311f565b905092915050565b6131a881613054565b82525050565b60006020820190506131c3600083018461319f565b92915050565b60006131d482613034565b9050919050565b6131e4816131c9565b82525050565b60006020820190506131ff60008301846131db565b92915050565b6000806040838503121561321c5761321b612bff565b5b600083013567ffffffffffffffff81111561323a57613239612c04565b5b61324685828601612dae565b925050602083013567ffffffffffffffff81111561326757613266612c04565b5b61327385828601612dae565b9150509250929050565b613286816131c9565b811461329157600080fd5b50565b6000813590506132a38161327d565b92915050565b6000602082840312156132bf576132be612bff565b5b60006132cd84828501613294565b91505092915050565b7f4e487b7100000000000000000000000000000000000000000000000000000000600052603260045260246000fd5b7f4e487b7100000000000000000000000000000000000000000000000000000000600052601160045260246000fd5b600061333f82612c09565b915061334a83612c09565b925082820190508082111561336257613361613305565b5b92915050565b600061337382612c09565b91507fffffffffffffffffffffffffffffffffffffffffffffffffffffffffffffffff82036133a5576133a4613305565b5b600182019050919050565b60006133bb82612c09565b91506133c683612c09565b92508282039050818111156133de576133dd613305565b5b92915050565b60006133ef82612c09565b91506133fa83612c09565b925082820261340881612c09565b9150828204841483151761341f5761341e613305565b5b5092915050565b6000819050919050565b61344161343c82612c09565b613426565b82525050565b60006134538285613430565b6020820191506134638284613430565b6020820191508190509392505050565b7f4e487b7100000000000000000000000000000000000000000000000000000000600052601260045260246000fd5b60006134ad82612c09565b91506134b883612c09565b9250826134c8576134c7613473565b5b828206905092915050565b7f4e487b7100000000000000000000000000000000000000000000000000000000600052602260045260246000fd5b6000600282049050600182168061351a57607f821691505b60208210810361352d5761352c6134d3565b5b50919050565b600061353e82612c09565b915061354983612c09565b92508261355957613558613473565b5b828204905092915050565b600081905092915050565b600061357a82612e51565b6135848185613564565b9350613594818560208601612e6d565b80840191505092915050565b60006135ac828561356f565b91506135b8828461356f565b91508190509392505050565b60008190508160005260206000209050919050565b60006020601f8301049050919050565b600082821b905092915050565b6000600883026136267fffffffffffffffffffffffffffffffffffffffffffffffffffffffffffffffff826135e9565b61363086836135e9565b95508019841693508086168417925050509392505050565b6000819050919050565b600061366d61366861366384612c09565b613648565b612c09565b9050919050565b6000819050919050565b61368783613652565b61369b61369382613674565b8484546135f6565b825550505050565b600090565b6136b06136a3565b6136bb81848461367e565b505050565b5b818110156136df576136d46000826136a8565b6001810190506136c1565b5050565b601f821115613724576136f5816135c4565b6136fe846135d9565b8101602085101561370d578190505b613721613719856135d9565b8301826136c0565b50505b505050565b600082821c905092915050565b600061374760001984600802613729565b1980831691505092915050565b60006137608383613736565b9150826002028217905092915050565b61377982612e51565b67ffffffffffffffff81111561379257613791612cb1565b5b61379c8254613502565b6137a78282856136e3565b600060209050601f8311600181146137da57600084156137c8578287015190505b6137d28582613754565b86555061383a565b601f1984166137e8866135c4565b60005b82811015613810578489015182556001820191506020850194506020810190506137eb565b8683101561382d5784890151613829601f891682613736565b8355505b6001600288020188555050505b505050505050565b600081549050919050565b60008190508160005260206000209050919050565b6000815461386f81613502565b6138798186612e5c565b9450600182166000811461389457600181146138aa576138dd565b60ff1983168652811515602002860193506138dd565b6138b3856135c4565b60005b838110156138d5578154818901526001820191506020810190506138b6565b808801955050505b50505092915050565b60006138f28383613862565b905092915050565b6000600182019050919050565b600061391282613842565b61391c8185612e30565b93508360208202850161392e8561384d565b8060005b858110156139695784840389528161394a85826138e6565b9450613955836138fa565b925060208a01995050600181019050613932565b50829750879550505050505092915050565b600060208201905081810360008301526139958184613907565b905092915050565b7f496e73756666696369656e742062616c616e636520696e2074686520636f6e7460008201527f7261637400000000000000000000000000000000000000000000000000000000602082015250565b60006139f9602483612fc8565b9150613a048261399d565b604082019050919050565b60006020820190508181036000830152613a28816139ec565b9050919050565b6000613a3b828661356f565b9150613a47828561356f565b9150613a53828461356f565b9150819050949350505050565b7f4f6e6c7920746865206f776e65722063616e20646f2074686174210000000000600082015250565b6000613a96601b83612fc8565b9150613aa182613a60565b602082019050919050565b60006020820190508181036000830152613ac581613a89565b9050919050565b600081549050919050565b60008190508160005260206000209050919050565b60008160001c9050919050565b6000819050919050565b6000613b16613b1183613aec565b613af9565b9050919050565b6000613b298254613b03565b9050919050565b6000600182019050919050565b6000613b4882613acc565b613b5281856130ca565b9350613b5d83613ad7565b8060005b83811015613b9557613b7282613b1d565b613b7c88826130fa565b9750613b8783613b30565b925050600181019050613b61565b5085935050505092915050565b60006020820190508181036000830152613bbc8184613b3d565b905092915050565b6000613bd0828461356f565b91508190509291505056fe68747470733a2f2f6465636b6f6663617264736170692e636f6d2f7374617469632f696d672fa264697066735822122046b7698871aa99d705ca4fcb50c738daeb078ea835a810e97e2b5d6113382b9164736f6c63430008110033",
  "immutableReferences": {},
  "source": "// SPDX-License-Identifier: MIT\npragma solidity >=0.4.22 <0.9.0;\n\n\ncontract Blackjack{\n   address payable public playerAddress;\n    //* Keep the owner address\n    address public owner;\n    //* keep the minimum balance to play\n    uint private minBalance = 10000000000000000000;\n\n    //* this is the minimum sum to play\n    uint private minimum = 10000000000000000;\n    //* this is the maximum sum to play\n    uint private maximum = 1000000000000000000;\n    //* this is the suits (each of the value represent a suit)\n    string[] suits = [\"H\", \"S\", \"D\", \"C\"];\n    //* this is the card values\n    // prettier-ignore\n    string[] ranks = [\"A\", \"2\", \"3\", \"4\", \"5\", \"6\", \"7\", \"8\", \"9\", \"0\", \"J\", \"Q\", \"K\"];\n\n    uint[] playerCardValues;\n    string[] playerCardsUrls;\n    uint[] dealercardValues;\n    string[] dealerCardsUrls;\n\n    bool isBlackForPlayer = false;\n    bool isBlackForDealer = false;\n\n    bool finishGame = false;\n    //* this is the variable that is updated when the minimum balance function runs\n    bool public balanceChecker;\n  \n    //* this is the variable that check the number in the input is more than the minimum to play and less than the maximum to play\n    bool public inputChecked = true;\n\n    uint playerCounter = 0;\n    uint dealerCounter = 0;\n\n    bool loosedPlayer = false;\n    bool loosedDealer = false;\n\n    bool canTakeNewCardPlayer = true;\n    bool canTakeNewCardDealer = false;\n\n    bool gameFinished = false;\n\n    uint payment = 1;\n    uint paymentSum = 0 ; \n    uint public balance;\n\n    //* This constructor get the smart contract owner address\n    constructor (){\n        owner = msg.sender;\n        balance = 0;\n        // We want to call this function when the player want to play a new game\n        //   deckcard = createDeck();\n    }\n\n    function startGame() external {\n        givetwoCardsToPlayer();\n        givetwoCardsToDealer();\n        if(isBlackForDealer && isBlackForPlayer){\n            // NEED TO WORK ON THE END OF THE GAME\n            finishGame = true;\n            loosedPlayer = false;\n            loosedDealer = false;\n        }    \n        if(isBlackForDealer && isBlackForPlayer == false ){ \n            finishGame = true;\n            loosedDealer = false;\n            loosedPlayer = true;\n        }\n        if(isBlackForPlayer && isBlackForDealer == false){ \n            finishGame = true;\n            loosedDealer = true;\n            loosedPlayer = false;        \n        }     \n    }\n\n    //* The modifier check if the user is the smart contract owner\n    modifier onlyOwner(){\n        require(msg.sender == owner,\"Only the owner can do that!\");\n        _;\n    }\n\n    //* The function to transfer smart contract ownership\n    function transferOwnerShip(address newOwner) external onlyOwner{\n        owner = newOwner;\n    }\n\n    // We need to check why it's not rendering the balance value\n    uint public playerBalance = 0;\n    event initBalance(uint playerBalance);\n    //* This function gets the player address and returns the player balance\n    function getBalance(address payable addrs) public  returns(uint){\n        playerAddress = addrs;\n        playerBalance = playerAddress.balance;\n        emit initBalance(playerBalance);        \n        return playerAddress.balance;\n\n    }   \n\n    event initchecker(bool balanceChecker);\n    //* This function get the player address and check if he has anough balance in the wallet and returns true or false to the react code\n    function checkBalance(uint bal) public returns(bool){\n        if(bal >= minBalance){\n            balanceChecker = true;\n        }\n        else{\n            balanceChecker = false;\n        }\n        emit initchecker(balanceChecker);\n        return balanceChecker;\n    }\n\n    event inpuchecker(bool inputChecked);\n    //* The function gets from the frontend sum entered to play and verify if it's more than the minimum and less than the maximum\n    function checkInput(uint bal, uint input) public returns (bool){\n        playerBalance = bal;\n        if((input < minimum || input > maximum)){\n            inputChecked = false;\n        } \n        if(input >= minimum && input <= maximum && input < bal)\n        {\n            inputChecked = true;\n            paymentSum = input;\n        }\n        emit inpuchecker(inputChecked);\n        return inputChecked;\n    }\n\n    //* Checks if 2 strings are equals (helper function)\n    function compareStrings(string memory a, string memory b) public pure returns (bool) {\n    return (keccak256(abi.encodePacked((a))) == keccak256(abi.encodePacked((b))));\n    }\n\n    //* gets a string and return a interger (helper function)\n    function stringToUint(string memory s) public pure returns (uint) {\n        bytes memory b = bytes(s);\n        uint result = 0;\n        for (uint256 i = 0; i < b.length; i++) {\n            uint256 c = uint256(uint8(b[i]));\n            if (c >= 48 && c <= 57) {\n                result = result * 10 + (c - 48);\n            }\n        }\n        return result;\n    }\n\n    // The function creates URL for the ui\n    function createUrlForUI(string memory card) public pure returns (string memory) {\n        string memory cardLink = \"https://deckofcardsapi.com/static/img/\";\n        string memory cardType = \".png\";\n        string memory cardLinkNew = string.concat(cardLink,card,cardType);\n        return cardLinkNew;\n    }\n\n    // This function returns the cards of the player\n    event returnPlayerCardvale(uint[]);\n    function showPlayerCardvalue() public returns(uint[] memory){\n        emit returnPlayerCardvale(playerCardValues);\n        // return playerCardValues;\n    }\n    function showPlayerCardUrls() public view returns(string[] memory){\n        return playerCardsUrls;\n    }\n    // This function returns the cards of the dealer\n    \n    event returnDealerCardvale(uint[]);\n    function showDealerCardvalue() public returns(uint[] memory){\n        emit returnDealerCardvale( dealercardValues);\n        // return dealercardValues;\n    }\n    function showDealerCardUrls() public view returns(string[] memory){\n        return dealerCardsUrls;\n    }\n    // It starts the game and give to the player 2 cards\n    function givetwoCardsToPlayer() public {\n        generateTwoRandomNumbersToPlayer();\n    }\n    // It starts the game and give to the dealer 2 cards\n    function givetwoCardsToDealer() public {\n        generateTwoRandomNumbersToDealer();\n    }\n    event returnDealerCounter(uint);\n    function showDealerCounter() public returns(uint ){\n        emit returnDealerCounter(dealerCounter);\n        // return dealerCounter;\n    }\n    event returnPlayerCounter(uint);\n    function showPlayerCounter() public returns(uint ){\n        emit returnPlayerCounter(playerCounter);\n        // return playerCounter;\n    }\n\n    //* The function sums the cards values for dealer and player\n    function sumOfCardsPlayer() public{\n        uint lenOfPlayerCards = playerCardValues.length;\n        // uint lenOfDealerCards = dealercardValues.length;\n\n        playerCounter = 0;\n        // uint playerCounter = 0;\n        for(uint i = 0; i < lenOfPlayerCards; i++){\n            playerCounter += playerCardValues[i];\n        }\n        \n        // dealerCounter = 0;\n        // uint dealerCounter = 0;\n        // for(uint i = 0; i < lenOfDealerCards; i++){\n        //     dealerCounter += dealercardValues[i];\n        // }\n    } \n    function sumOfCardsDealer() public{\n        // uint lenOfPlayerCards = playerCardValues.length;\n        uint lenOfDealerCards = dealercardValues.length;\n\n        // playerCounter = 0;\n        // uint playerCounter = 0;\n        // for(uint i = 0; i < lenOfPlayerCards; i++){\n        //     playerCounter += playerCardValues[i];\n        // }\n        \n        dealerCounter = 0;\n        // uint dealerCounter = 0;\n        for(uint j = 0; j < lenOfDealerCards; j++){\n            dealerCounter += dealercardValues[j];\n        }\n    }\n\n    // The function convert value that are more than 10 to be 10\n    function checkValue(uint num) public pure returns(uint){\n        if(num >= 10)return 10;\n        return num;\n        \n    }\n\n    event returnPlayerUrls(string[]);\n    // The function generate 2 random cards to the player\n    function generateTwoRandomNumbersToPlayer() public returns( string[] memory) {\n        uint randomNumber1 = uint(keccak256(abi.encodePacked(block.timestamp, block.difficulty))) % 13;\n        uint randomNumber2 = uint(keccak256(abi.encodePacked(block.gaslimit, block.number))) % 13;\n        \n        uint randomSuit1 = uint(keccak256(abi.encodePacked(block.timestamp, block.difficulty))) % 4;\n        uint randomSuit2 = uint(keccak256(abi.encodePacked(block.gaslimit, block.number))) % 4;\n\n        string memory rankNumber1 = ranks[randomNumber1];\n        string memory rankNumber2 = ranks[randomNumber2];\n        playerCardValues.push(checkValue(randomNumber1+1));\n        playerCardValues.push(checkValue(randomNumber2+1));\n        if((playerCardValues[0] == 1 && playerCardValues[1]==10) ||\n            (playerCardValues[1] == 1 && playerCardValues[0]==10)){\n                isBlackForPlayer = true;\n                loosedPlayer = false;\n                loosedDealer = true;\n                gameFinished = true;\n                payment = 3/uint256(2);\n                finishTheGame();\n        }\n        string memory suitNumber1 = suits[randomSuit1];\n        string memory suitNumber2 = suits[randomSuit2];\n\n        string memory card1 = createUrlForUI(string.concat(rankNumber1,suitNumber1));\n        string memory card2 = createUrlForUI(string.concat(rankNumber2,suitNumber2));\n\n        playerCardsUrls.push(card1);\n        playerCardsUrls.push(card2);\n\n        sumOfCardsPlayer();\n        emit returnPlayerUrls(playerCardsUrls);\n        // return playerCardsUrls;\n        \n    }\n\n    event returnDealerUrls(string[]);\n\n    // The function generate 2 random cards to the dealer\n    function generateTwoRandomNumbersToDealer() public returns( string[] memory) {\n        uint randomNumber11 = uint(keccak256(abi.encodePacked(block.timestamp, block.difficulty))) % 13;\n        uint randomNumber22 = uint(keccak256(abi.encodePacked(block.gaslimit, block.number))) % 13;\n\n        uint randomSuit11 = uint(keccak256(abi.encodePacked(block.timestamp, block.difficulty))) % 4;\n        uint randomSuit22 = uint(keccak256(abi.encodePacked(block.gaslimit, block.number))) % 4;\n\n        string memory rankNumber11 = ranks[randomNumber11];\n        string memory rankNumber22 = ranks[randomNumber22];\n        dealercardValues.push(checkValue(randomNumber11+1));\n        dealercardValues.push(checkValue(randomNumber22+1));\n        if((dealercardValues[0] == 1 && dealercardValues[1]==10) ||\n            (dealercardValues[1] == 1 && dealercardValues[0]==10)){\n                isBlackForDealer = true;\n                loosedPlayer = true;\n                loosedDealer = false;\n                gameFinished = true;\n                payment = 1;\n                finishTheGame();\n\n        }\n        string memory suitNumber11 = suits[randomSuit11];\n        string memory suitNumber22 = suits[randomSuit22];\n\n        string memory card1 = createUrlForUI(string.concat(rankNumber11,suitNumber11));\n        string memory card2 = createUrlForUI(string.concat(rankNumber22,suitNumber22));\n\n        dealerCardsUrls.push(card1);\n        dealerCardsUrls.push(card2);\n\n        sumOfCardsDealer();\n        emit returnDealerUrls( dealerCardsUrls);\n    }\n   \n    //* The function add to the player a new random card\n    function getRandomCardValueToPlayer() public {\n        string memory rankNumber = ranks[getRandomRank()];\n        string memory suitNumber = suits[getRandomSuit()];\n        string memory card = createUrlForUI(string.concat(rankNumber,suitNumber));\n        uint  cardVal = getRankNum(rankNumber);\n        playerCardValues.push(cardVal);\n        playerCardsUrls.push(card);\n        sumOfCardsPlayer();\n        if(playerCounter > 21){\n            loosedPlayer = true;\n            loosedDealer = false;\n            gameFinished = true;\n            payment = 0;\n            finishTheGame();\n            \n        }\n    }\n\n    //* The function adds to the dealer cards while he arrives to 17 or more\n    function dealerCardDistributer() public{\n        while(dealerCounter < 17){\n            getRandomCardValueToDealer();\n        }\n        canTakeNewCardDealer = false;\n        gameFinished = true;\n        finishTheGame();        \n    }\n\n    //* The function add to the dealer a new random card\n    function getRandomCardValueToDealer() public {\n        \n        string memory rankNumber = ranks[getRandomRank()];\n        string memory suitNumber = suits[getRandomSuit()];\n        string memory card = string.concat(rankNumber,suitNumber);\n        dealercardValues.push(getRankNum(rankNumber));\n        dealerCardsUrls.push(card);\n        sumOfCardsDealer();\n         if(dealerCounter > 21){\n            loosedDealer = true;\n            loosedPlayer = false;\n            payment = 1;\n        }\n    }\n\n    //* The function gets a random number from 0 to 12\n    function getRandomRank() public view returns (uint256) {\n        uint256 _randomNumber = uint256(keccak256(abi.encodePacked(block.timestamp, block.difficulty))) % 13; // Generate random number between 0 to 12\n        return (_randomNumber); \n    }\n\n    //* The function get a random number from 0 to 3\n    function getRandomSuit() public view returns (uint256) {\n        uint256 _randomNumber = uint256(keccak256(abi.encodePacked(block.timestamp, block.difficulty))) % 4; // Generate random number between 0 to 12\n        return (_randomNumber); \n    }\n\n\n\n    // The function gets the rank (string - first value) of a certain card in the deck and returns the number of card\n    function getRankNum(string memory rank) internal pure returns (uint){\n        if(compareStrings(rank,\"A\")){\n            return 1;\n        }\n        if( compareStrings(rank,\"0\") || compareStrings(rank,\"J\") || compareStrings(rank,\"Q\") || compareStrings(rank, \"K\" )){\n            return 10;\n        }\n        else{\n            return stringToUint(rank);\n        }\n    }\n\n    function finishGiveCard() external{\n        canTakeNewCardPlayer = false;\n        canTakeNewCardDealer = true;\n        dealerCardDistributer();\n    }\n    \n    // The function returns if the player won or lost\n    function finishTheGame() public returns(string memory){\n       delete playerCardValues;\n    delete playerCardsUrls;\n   delete dealercardValues;\n  delete dealerCardsUrls;\n        if(dealerCounter == playerCounter){\n            loosedDealer = false;\n            loosedPlayer = false;\n            payment = 0; \n        }\n        else if((dealerCounter > playerCounter) && dealerCounter < 21 ){\n            loosedDealer = false;\n            loosedPlayer = true;\n            payment = 1;\n        }else if((dealerCounter < playerCounter) && playerCounter < 21 ){\n            loosedDealer = true;\n            loosedPlayer = false;\n            payment = 1;\n        }\n         else if((dealerCounter > playerCounter) && dealerCounter == 21 ){\n            loosedDealer = false;\n            loosedPlayer = true;\n            payment = 1;\n        }else if((dealerCounter < playerCounter) && playerCounter == 21 ){\n            loosedDealer = true;\n            loosedPlayer = false;\n            payment = 3/uint256(2);\n        }\n\n        if(finishGame && loosedDealer == false && loosedPlayer == false){\n            // don't do anything\n            return \"PUSH!!\";\n        }\n        else if(finishGame && loosedDealer == true && loosedPlayer == false){\n            // The dealer payes to the player\n            paymentToPlayer();\n            return \"WIN!!!\";\n        }\n        else if(finishGame && loosedDealer == false && loosedPlayer == true){\n            // The player payes to the dealer\n            contribute();\n            return \"LOSE!!!\";\n        }\n      \n    }\n    function paymentToPlayer() public payable{\n        require(address(this).balance >= paymentSum*payment, \"Insufficient balance in the contract\");\n        playerAddress.transfer(paymentSum * payment);\n    }\n\n    function contribute() public payable{\n        // msg.value is the value of Ether sent in a transaction\n        balance += msg.value;\n    }\n}\n\n    // mapping(address => uint256) public balances;\n\n    // function deposit() public payable {\n    //     balances[msg.sender] += msg.value;\n    // }\n\n    // function collect() public {\n    //     uint256 amount = balances[msg.sender];\n    //     require(amount > 0, \"No balance to withdraw\");\n\n    //     balances[msg.sender] = 0;\n    //     payable(address(this)).transfer(amount);\n    // }\n\n\n    // function paymentToDealer() public payable{\n    //     require(address(this).balance >= paymentSum*payment, \"Insufficient balance in the contract\");\n    //     playerAddress.transfer(paymentSum * payment);\n    // }\n// }",
  "sourcePath": "/Users/gabrielnakache/Desktop/Solidity Project/js1-app-code/contracts/Blackjack.sol",
  "compiler": {
    "name": "solc",
    "version": "0.8.17+commit.8df45f5f.Emscripten.clang"
  },
  "schemaVersion": "3.4.11",
  "updatedAt": "2023-04-11T13:21:31.042Z",
  "networkType": "ethereum",
  "devdoc": {
    "kind": "dev",
    "methods": {},
    "version": 1
  },
  "userdoc": {
    "kind": "user",
    "methods": {},
    "version": 1
  }
}