{
  "contractName": "Blackjack",
  "abi": [
    {
      "inputs": [],
      "stateMutability": "nonpayable",
      "type": "constructor"
    },
    {
      "anonymous": false,
      "inputs": [
        {
          "indexed": false,
          "internalType": "uint256",
          "name": "playerBalance",
          "type": "uint256"
        }
      ],
      "name": "initBalance",
      "type": "event"
    },
    {
      "anonymous": false,
      "inputs": [
        {
          "indexed": false,
          "internalType": "bool",
          "name": "balanceChecker",
          "type": "bool"
        }
      ],
      "name": "initchecker",
      "type": "event"
    },
    {
      "anonymous": false,
      "inputs": [
        {
          "indexed": false,
          "internalType": "bool",
          "name": "",
          "type": "bool"
        },
        {
          "indexed": false,
          "internalType": "uint256",
          "name": "",
          "type": "uint256"
        }
      ],
      "name": "inpuchecker",
      "type": "event"
    },
    {
      "anonymous": false,
      "inputs": [
        {
          "indexed": false,
          "internalType": "string",
          "name": "",
          "type": "string"
        }
      ],
      "name": "returnData",
      "type": "event"
    },
    {
      "anonymous": false,
      "inputs": [
        {
          "indexed": false,
          "internalType": "uint256[]",
          "name": "",
          "type": "uint256[]"
        }
      ],
      "name": "returnDealerCardvale",
      "type": "event"
    },
    {
      "anonymous": false,
      "inputs": [
        {
          "indexed": false,
          "internalType": "uint256",
          "name": "",
          "type": "uint256"
        }
      ],
      "name": "returnDealerCounter",
      "type": "event"
    },
    {
      "anonymous": false,
      "inputs": [
        {
          "indexed": false,
          "internalType": "string[]",
          "name": "",
          "type": "string[]"
        }
      ],
      "name": "returnDealerUrls",
      "type": "event"
    },
    {
      "anonymous": false,
      "inputs": [
        {
          "indexed": false,
          "internalType": "uint256[]",
          "name": "",
          "type": "uint256[]"
        }
      ],
      "name": "returnPlayerCardvale",
      "type": "event"
    },
    {
      "anonymous": false,
      "inputs": [
        {
          "indexed": false,
          "internalType": "uint256",
          "name": "",
          "type": "uint256"
        }
      ],
      "name": "returnPlayerCounter",
      "type": "event"
    },
    {
      "anonymous": false,
      "inputs": [
        {
          "indexed": false,
          "internalType": "string[]",
          "name": "",
          "type": "string[]"
        }
      ],
      "name": "returnPlayerUrls",
      "type": "event"
    },
    {
      "anonymous": false,
      "inputs": [
        {
          "indexed": false,
          "internalType": "string",
          "name": "",
          "type": "string"
        }
      ],
      "name": "returnResultData",
      "type": "event"
    },
    {
      "anonymous": false,
      "inputs": [
        {
          "indexed": false,
          "internalType": "string[]",
          "name": "",
          "type": "string[]"
        }
      ],
      "name": "showDealerCardPics",
      "type": "event"
    },
    {
      "anonymous": false,
      "inputs": [
        {
          "indexed": false,
          "internalType": "uint256",
          "name": "",
          "type": "uint256"
        }
      ],
      "name": "showNumberOfPlayers",
      "type": "event"
    },
    {
      "anonymous": false,
      "inputs": [
        {
          "indexed": false,
          "internalType": "string[]",
          "name": "",
          "type": "string[]"
        }
      ],
      "name": "showPlayerCardPics",
      "type": "event"
    },
    {
      "inputs": [],
      "name": "balance",
      "outputs": [
        {
          "internalType": "uint256",
          "name": "",
          "type": "uint256"
        }
      ],
      "stateMutability": "view",
      "type": "function",
      "constant": true
    },
    {
      "inputs": [],
      "name": "balanceChecker",
      "outputs": [
        {
          "internalType": "bool",
          "name": "",
          "type": "bool"
        }
      ],
      "stateMutability": "view",
      "type": "function",
      "constant": true
    },
    {
      "inputs": [],
      "name": "inputChecked",
      "outputs": [
        {
          "internalType": "bool",
          "name": "",
          "type": "bool"
        }
      ],
      "stateMutability": "view",
      "type": "function",
      "constant": true
    },
    {
      "inputs": [],
      "name": "numberOfPlayers",
      "outputs": [
        {
          "internalType": "uint256",
          "name": "",
          "type": "uint256"
        }
      ],
      "stateMutability": "view",
      "type": "function",
      "constant": true
    },
    {
      "inputs": [],
      "name": "owner",
      "outputs": [
        {
          "internalType": "address",
          "name": "",
          "type": "address"
        }
      ],
      "stateMutability": "view",
      "type": "function",
      "constant": true
    },
    {
      "inputs": [],
      "name": "playerAddress",
      "outputs": [
        {
          "internalType": "address payable",
          "name": "",
          "type": "address"
        }
      ],
      "stateMutability": "view",
      "type": "function",
      "constant": true
    },
    {
      "inputs": [],
      "name": "playerBalance",
      "outputs": [
        {
          "internalType": "uint256",
          "name": "",
          "type": "uint256"
        }
      ],
      "stateMutability": "view",
      "type": "function",
      "constant": true
    },
    {
      "inputs": [],
      "name": "startGame",
      "outputs": [],
      "stateMutability": "nonpayable",
      "type": "function"
    },
    {
      "inputs": [
        {
          "internalType": "address",
          "name": "newOwner",
          "type": "address"
        }
      ],
      "name": "transferOwnerShip",
      "outputs": [],
      "stateMutability": "nonpayable",
      "type": "function"
    },
    {
      "inputs": [
        {
          "internalType": "address payable",
          "name": "addrs",
          "type": "address"
        }
      ],
      "name": "getBalance",
      "outputs": [
        {
          "internalType": "uint256",
          "name": "",
          "type": "uint256"
        }
      ],
      "stateMutability": "nonpayable",
      "type": "function"
    },
    {
      "inputs": [
        {
          "internalType": "uint256",
          "name": "bal",
          "type": "uint256"
        }
      ],
      "name": "checkBalance",
      "outputs": [
        {
          "internalType": "bool",
          "name": "",
          "type": "bool"
        }
      ],
      "stateMutability": "nonpayable",
      "type": "function"
    },
    {
      "inputs": [
        {
          "internalType": "uint256",
          "name": "bal",
          "type": "uint256"
        },
        {
          "internalType": "uint256",
          "name": "input",
          "type": "uint256"
        }
      ],
      "name": "checkInput",
      "outputs": [
        {
          "internalType": "bool",
          "name": "",
          "type": "bool"
        },
        {
          "internalType": "uint256",
          "name": "",
          "type": "uint256"
        }
      ],
      "stateMutability": "nonpayable",
      "type": "function"
    },
    {
      "inputs": [
        {
          "internalType": "string",
          "name": "a",
          "type": "string"
        },
        {
          "internalType": "string",
          "name": "b",
          "type": "string"
        }
      ],
      "name": "compareStrings",
      "outputs": [
        {
          "internalType": "bool",
          "name": "",
          "type": "bool"
        }
      ],
      "stateMutability": "pure",
      "type": "function",
      "constant": true
    },
    {
      "inputs": [
        {
          "internalType": "string",
          "name": "s",
          "type": "string"
        }
      ],
      "name": "stringToUint",
      "outputs": [
        {
          "internalType": "uint256",
          "name": "",
          "type": "uint256"
        }
      ],
      "stateMutability": "pure",
      "type": "function",
      "constant": true
    },
    {
      "inputs": [
        {
          "internalType": "string",
          "name": "card",
          "type": "string"
        }
      ],
      "name": "createUrlForUI",
      "outputs": [
        {
          "internalType": "string",
          "name": "",
          "type": "string"
        }
      ],
      "stateMutability": "pure",
      "type": "function",
      "constant": true
    },
    {
      "inputs": [],
      "name": "showPlayerCardvalue",
      "outputs": [
        {
          "internalType": "uint256[]",
          "name": "",
          "type": "uint256[]"
        }
      ],
      "stateMutability": "nonpayable",
      "type": "function"
    },
    {
      "inputs": [],
      "name": "showPlayerCardUrls",
      "outputs": [
        {
          "internalType": "string[]",
          "name": "",
          "type": "string[]"
        }
      ],
      "stateMutability": "view",
      "type": "function",
      "constant": true
    },
    {
      "inputs": [],
      "name": "showDealerCardvalue",
      "outputs": [
        {
          "internalType": "uint256[]",
          "name": "",
          "type": "uint256[]"
        }
      ],
      "stateMutability": "nonpayable",
      "type": "function"
    },
    {
      "inputs": [],
      "name": "showDealerCardUrls",
      "outputs": [
        {
          "internalType": "string[]",
          "name": "",
          "type": "string[]"
        }
      ],
      "stateMutability": "view",
      "type": "function",
      "constant": true
    },
    {
      "inputs": [],
      "name": "givetwoCardsToPlayer",
      "outputs": [],
      "stateMutability": "nonpayable",
      "type": "function"
    },
    {
      "inputs": [],
      "name": "givetwoCardsToDealer",
      "outputs": [],
      "stateMutability": "nonpayable",
      "type": "function"
    },
    {
      "inputs": [],
      "name": "showDealerCounter",
      "outputs": [
        {
          "internalType": "uint256",
          "name": "",
          "type": "uint256"
        }
      ],
      "stateMutability": "nonpayable",
      "type": "function"
    },
    {
      "inputs": [],
      "name": "showPlayerCounter",
      "outputs": [
        {
          "internalType": "uint256",
          "name": "",
          "type": "uint256"
        }
      ],
      "stateMutability": "nonpayable",
      "type": "function"
    },
    {
      "inputs": [],
      "name": "sumOfCardsPlayer",
      "outputs": [],
      "stateMutability": "nonpayable",
      "type": "function"
    },
    {
      "inputs": [],
      "name": "sumOfCardsDealer",
      "outputs": [],
      "stateMutability": "nonpayable",
      "type": "function"
    },
    {
      "inputs": [
        {
          "internalType": "uint256",
          "name": "num",
          "type": "uint256"
        }
      ],
      "name": "checkValue",
      "outputs": [
        {
          "internalType": "uint256",
          "name": "",
          "type": "uint256"
        }
      ],
      "stateMutability": "pure",
      "type": "function",
      "constant": true
    },
    {
      "inputs": [],
      "name": "generateTwoRandomNumbersToPlayer",
      "outputs": [
        {
          "internalType": "string[]",
          "name": "",
          "type": "string[]"
        }
      ],
      "stateMutability": "nonpayable",
      "type": "function"
    },
    {
      "inputs": [],
      "name": "generateTwoRandomNumbersToDealer",
      "outputs": [
        {
          "internalType": "string[]",
          "name": "",
          "type": "string[]"
        }
      ],
      "stateMutability": "nonpayable",
      "type": "function"
    },
    {
      "inputs": [],
      "name": "showTotalNumOfPlayers",
      "outputs": [],
      "stateMutability": "nonpayable",
      "type": "function"
    },
    {
      "inputs": [],
      "name": "getRandomCardValueToPlayer",
      "outputs": [
        {
          "internalType": "string[]",
          "name": "",
          "type": "string[]"
        }
      ],
      "stateMutability": "nonpayable",
      "type": "function"
    },
    {
      "inputs": [],
      "name": "dealerCardDistributer",
      "outputs": [
        {
          "internalType": "string[]",
          "name": "",
          "type": "string[]"
        }
      ],
      "stateMutability": "nonpayable",
      "type": "function"
    },
    {
      "inputs": [
        {
          "internalType": "uint256",
          "name": "val",
          "type": "uint256"
        }
      ],
      "name": "getRandomCardValueToDealer",
      "outputs": [],
      "stateMutability": "nonpayable",
      "type": "function"
    },
    {
      "inputs": [
        {
          "internalType": "uint256",
          "name": "val",
          "type": "uint256"
        }
      ],
      "name": "getRandomRank",
      "outputs": [
        {
          "internalType": "uint256",
          "name": "",
          "type": "uint256"
        }
      ],
      "stateMutability": "view",
      "type": "function",
      "constant": true
    },
    {
      "inputs": [
        {
          "internalType": "uint256",
          "name": "val",
          "type": "uint256"
        }
      ],
      "name": "getRandomSuit",
      "outputs": [
        {
          "internalType": "uint256",
          "name": "",
          "type": "uint256"
        }
      ],
      "stateMutability": "view",
      "type": "function",
      "constant": true
    },
    {
      "inputs": [],
      "name": "finishGiveCard",
      "outputs": [],
      "stateMutability": "nonpayable",
      "type": "function"
    },
    {
      "inputs": [],
      "name": "finishTheGame",
      "outputs": [
        {
          "internalType": "string",
          "name": "",
          "type": "string"
        }
      ],
      "stateMutability": "nonpayable",
      "type": "function"
    },
    {
      "inputs": [],
      "name": "calculatePercentageOfWin",
      "outputs": [],
      "stateMutability": "nonpayable",
      "type": "function"
    },
    {
      "inputs": [],
      "name": "paymentToPlayer",
      "outputs": [],
      "stateMutability": "payable",
      "type": "function",
      "payable": true
    },
    {
      "inputs": [
        {
          "internalType": "address payable",
          "name": "recipient",
          "type": "address"
        },
        {
          "internalType": "uint256",
          "name": "amount",
          "type": "uint256"
        }
      ],
      "name": "transferFunds",
      "outputs": [],
      "stateMutability": "nonpayable",
      "type": "function"
    },
    {
      "inputs": [
        {
          "internalType": "uint256",
          "name": "amount",
          "type": "uint256"
        }
      ],
      "name": "withdrawAmount",
      "outputs": [],
      "stateMutability": "nonpayable",
      "type": "function"
    },
    {
      "inputs": [],
      "name": "contribute",
      "outputs": [],
      "stateMutability": "payable",
      "type": "function",
      "payable": true
    }
  ],
  "bytecode": "0x6080604052678ac7230489e80000600655662386f26fc10000600755670de0b6b3a764000060085560405180608001604052806040518060400160405280600181526020017f480000000000000000000000000000000000000000000000000000000000000081525081526020016040518060400160405280600181526020017f530000000000000000000000000000000000000000000000000000000000000081525081526020016040518060400160405280600181526020017f440000000000000000000000000000000000000000000000000000000000000081525081526020016040518060400160405280600181526020017f430000000000000000000000000000000000000000000000000000000000000081525081525060099060046200012e9291906200061c565b50604051806101a001604052806040518060400160405280600181526020017f410000000000000000000000000000000000000000000000000000000000000081525081526020016040518060400160405280600181526020017f320000000000000000000000000000000000000000000000000000000000000081525081526020016040518060400160405280600181526020017f330000000000000000000000000000000000000000000000000000000000000081525081526020016040518060400160405280600181526020017f340000000000000000000000000000000000000000000000000000000000000081525081526020016040518060400160405280600181526020017f350000000000000000000000000000000000000000000000000000000000000081525081526020016040518060400160405280600181526020017f360000000000000000000000000000000000000000000000000000000000000081525081526020016040518060400160405280600181526020017f370000000000000000000000000000000000000000000000000000000000000081525081526020016040518060400160405280600181526020017f380000000000000000000000000000000000000000000000000000000000000081525081526020016040518060400160405280600181526020017f390000000000000000000000000000000000000000000000000000000000000081525081526020016040518060400160405280600181526020017f300000000000000000000000000000000000000000000000000000000000000081525081526020016040518060400160405280600181526020017f4a0000000000000000000000000000000000000000000000000000000000000081525081526020016040518060400160405280600181526020017f510000000000000000000000000000000000000000000000000000000000000081525081526020016040518060400160405280600181526020017f4b00000000000000000000000000000000000000000000000000000000000000815250815250600a90600d6200044a9291906200067c565b506000600f60006101000a81548160ff0219169083151502179055506000600f60016101000a81548160ff0219169083151502179055506000600f60026101000a81548160ff0219169083151502179055506001600f60046101000a81548160ff021916908315150217905550600060105560006011556000601260006101000a81548160ff0219169083151502179055506000601260016101000a81548160ff0219169083151502179055506001601260026101000a81548160ff0219169083151502179055506000601260036101000a81548160ff0219169083151502179055506000601260046101000a81548160ff0219169083151502179055506001601355600060145560006016556040518060200160405280600081525060179081620005779190620009e3565b506040518060400160405280600581526020017f68656c6c6f00000000000000000000000000000000000000000000000000000081525060189081620005be9190620009e3565b50348015620005cc57600080fd5b5033600560006101000a81548173ffffffffffffffffffffffffffffffffffffffff021916908373ffffffffffffffffffffffffffffffffffffffff160217905550600060158190555062000aca565b82805482825590600052602060002090810192821562000669579160200282015b8281111562000668578251829081620006579190620009e3565b50916020019190600101906200063d565b5b509050620006789190620006dc565b5090565b828054828255906000526020600020908101928215620006c9579160200282015b82811115620006c8578251829081620006b79190620009e3565b50916020019190600101906200069d565b5b509050620006d89190620006dc565b5090565b5b80821115620007005760008181620006f6919062000704565b50600101620006dd565b5090565b5080546200071290620007d2565b6000825580601f1062000726575062000747565b601f0160209004906000526020600020908101906200074691906200074a565b5b50565b5b80821115620007655760008160009055506001016200074b565b5090565b600081519050919050565b7f4e487b7100000000000000000000000000000000000000000000000000000000600052604160045260246000fd5b7f4e487b7100000000000000000000000000000000000000000000000000000000600052602260045260246000fd5b60006002820490506001821680620007eb57607f821691505b602082108103620008015762000800620007a3565b5b50919050565b60008190508160005260206000209050919050565b60006020601f8301049050919050565b600082821b905092915050565b6000600883026200086b7fffffffffffffffffffffffffffffffffffffffffffffffffffffffffffffffff826200082c565b6200087786836200082c565b95508019841693508086168417925050509392505050565b6000819050919050565b6000819050919050565b6000620008c4620008be620008b8846200088f565b62000899565b6200088f565b9050919050565b6000819050919050565b620008e083620008a3565b620008f8620008ef82620008cb565b84845462000839565b825550505050565b600090565b6200090f62000900565b6200091c818484620008d5565b505050565b5b8181101562000944576200093860008262000905565b60018101905062000922565b5050565b601f82111562000993576200095d8162000807565b62000968846200081c565b8101602085101562000978578190505b6200099062000987856200081c565b83018262000921565b50505b505050565b600082821c905092915050565b6000620009b86000198460080262000998565b1980831691505092915050565b6000620009d38383620009a5565b9150826002028217905092915050565b620009ee8262000769565b67ffffffffffffffff81111562000a0a5762000a0962000774565b5b62000a168254620007d2565b62000a2382828562000948565b600060209050601f83116001811462000a5b576000841562000a46578287015190505b62000a528582620009c5565b86555062000ac2565b601f19841662000a6b8662000807565b60005b8281101562000a955784890151825560018201915060208501945060208101905062000a6e565b8683101562000ab5578489015162000ab1601f891682620009a5565b8355505b6001600288020188555050505b505050505050565b614eb78062000ada6000396000f3fe6080604052600436106102465760003560e01c806388eb3a3711610139578063bed34bba116100b6578063ddaabf6b1161007a578063ddaabf6b146107e9578063e07c544514610812578063ecd65c0f1461083d578063f2ca405614610868578063f8b2cb4f1461087f578063fec3e705146108bc57610246565b8063bed34bba14610749578063c16fe1ef14610786578063d0498cdb1461079d578063d65ab5f2146107c8578063d7bb99ba146107df57610246565b8063990dc9db116100fd578063990dc9db146106885780639cf6be3a146106b15780639d8c6cfb146106c8578063a146bf7a146106f3578063b69ef8a81461071e57610246565b806388eb3a37146105b15780638c171a09146105dc5780638da5cb5b146106075780638e3411b3146106325780638ec4ebd71461065d57610246565b8063515d1a86116101c75780636f4bda171161018b5780636f4bda17146104b857806373b9863d146104e3578063750e71a91461050e5780637f2862861461054b5780638863dd1a1461058857610246565b8063515d1a86146103dd57806351e488b51461041b578063545e0dde1461042557806363a20a8214610450578063651f066a1461048d57610246565b80631bd951551161020e5780631bd951551461030a5780631cd7e64b146103475780631dec98bf1461035e57806323820caa1461039b57806328440b47146103b257610246565b8063051551381461024b5780630562b9f714610262578063090e15d61461028b57806313c43ab0146102a257806318db62fb146102cd575b600080fd5b34801561025757600080fd5b506102606108e7565b005b34801561026e57600080fd5b5061028960048036038101906102849190613d34565b610a53565b005b34801561029757600080fd5b506102a0610ae0565b005b3480156102ae57600080fd5b506102b7610aeb565b6040516102c49190613d7c565b60405180910390f35b3480156102d957600080fd5b506102f460048036038101906102ef9190613d34565b610afe565b6040516103019190613da6565b60405180910390f35b34801561031657600080fd5b50610331600480360381019061032c9190613f07565b610b1b565b60405161033e9190613da6565b60405180910390f35b34801561035357600080fd5b5061035c610bb3565b005b34801561036a57600080fd5b5061038560048036038101906103809190613d34565b610bf4565b6040516103929190613da6565b60405180910390f35b3480156103a757600080fd5b506103b0610c45565b005b3480156103be57600080fd5b506103c7610c50565b6040516103d49190614091565b60405180910390f35b3480156103e957600080fd5b5061040460048036038101906103ff91906140b3565b611472565b6040516104129291906140f3565b60405180910390f35b610423611546565b005b34801561043157600080fd5b5061043a6115f0565b6040516104479190613da6565b60405180910390f35b34801561045c57600080fd5b5061047760048036038101906104729190613f07565b61162e565b6040516104849190614166565b60405180910390f35b34801561049957600080fd5b506104a26116ba565b6040516104af9190613da6565b60405180910390f35b3480156104c457600080fd5b506104cd6116c0565b6040516104da9190613da6565b60405180910390f35b3480156104ef57600080fd5b506104f86116c6565b6040516105059190614091565b60405180910390f35b34801561051a57600080fd5b5061053560048036038101906105309190613d34565b611d1f565b6040516105429190613da6565b60405180910390f35b34801561055757600080fd5b50610572600480360381019061056d9190613d34565b611d71565b60405161057f9190613d7c565b60405180910390f35b34801561059457600080fd5b506105af60048036038101906105aa91906141e6565b611e15565b005b3480156105bd57600080fd5b506105c6611ee9565b6040516105d391906142d1565b60405180910390f35b3480156105e857600080fd5b506105f1611f26565b6040516105fe9190614091565b60405180910390f35b34801561061357600080fd5b5061061c611fcc565b6040516106299190614302565b60405180910390f35b34801561063e57600080fd5b50610647611ff2565b6040516106549190614091565b60405180910390f35b34801561066957600080fd5b506106726120cb565b60405161067f91906142d1565b60405180910390f35b34801561069457600080fd5b506106af60048036038101906106aa919061435b565b612108565b005b3480156106bd57600080fd5b506106c66121a9565b005b3480156106d457600080fd5b506106dd6122ce565b6040516106ea9190613d7c565b60405180910390f35b3480156106ff57600080fd5b506107086122e1565b60405161071591906143aa565b60405180910390f35b34801561072a57600080fd5b50610733612307565b6040516107409190613da6565b60405180910390f35b34801561075557600080fd5b50610770600480360381019061076b91906143c5565b61230d565b60405161077d9190613d7c565b60405180910390f35b34801561079257600080fd5b5061079b612366565b005b3480156107a957600080fd5b506107b26124d2565b6040516107bf9190613da6565b60405180910390f35b3480156107d457600080fd5b506107dd612510565b005b6107e76126ad565b005b3480156107f557600080fd5b50610810600480360381019061080b9190613d34565b6126c8565b005b34801561081e57600080fd5b50610827612920565b6040516108349190614091565b60405180910390f35b34801561084957600080fd5b50610852612bd8565b60405161085f9190614091565b60405180910390f35b34801561087457600080fd5b5061087d612cb1565b005b34801561088b57600080fd5b506108a660048036038101906108a1919061443d565b612cec565b6040516108b39190613da6565b60405180910390f35b3480156108c857600080fd5b506108d1612de9565b6040516108de9190614166565b60405180910390f35b6000600d8054905090506000601181905550600080600080600093506000925060005b8581101561098b576001600d82815481106109285761092761446a565b5b90600052602060002001540361094b578480610943906144c8565b955050610978565b600d818154811061095f5761095e61446a565b5b9060005260206000200154846109759190614510565b93505b8080610983906144c8565b91505061090a565b5060008411156109f5576001846109a29190614544565b600b6109ae9190614510565b9150839050601583836109c19190614510565b116109dd5781836109d29190614510565b6011819055506109f0565b80836109e99190614510565b6011819055505b610a4c565b60005b85811015610a4a57600d8181548110610a1457610a1361446a565b5b906000526020600020015460116000828254610a309190614510565b925050819055508080610a42906144c8565b9150506109f8565b505b5050505050565b600a8111610a96576040517f08c379a0000000000000000000000000000000000000000000000000000000008152600401610a8d9061459e565b60405180910390fd5b3373ffffffffffffffffffffffffffffffffffffffff166108fc829081150290604051600060405180830381858888f19350505050158015610adc573d6000803e3d6000fd5b5050565b610ae8610c50565b50565b600f60049054906101000a900460ff1681565b60006009821115610b1257600a9050610b16565b8190505b919050565b6000808290506000805b8251811015610ba8576000838281518110610b4357610b4261446a565b5b602001015160f81c60f81b60f81c60ff16905060308110158015610b68575060398111155b15610b9457603081610b7a9190614544565b600a84610b8791906145be565b610b919190614510565b92505b508080610ba0906144c8565b915050610b25565b508092505050919050565b6000601260026101000a81548160ff0219169083151502179055506001601260036101000a81548160ff021916908315150217905550610bf1611f26565b50565b600080600d8342610c059190614510565b44604051602001610c17929190614621565b6040516020818303038152906040528051906020012060001c610c3a919061467c565b905080915050919050565b610c4d6116c6565b50565b60606000600d4244604051602001610c69929190614621565b6040516020818303038152906040528051906020012060001c610c8c919061467c565b90506000600d4543604051602001610ca5929190614621565b6040516020818303038152906040528051906020012060001c610cc8919061467c565b9050600060044244604051602001610ce1929190614621565b6040516020818303038152906040528051906020012060001c610d04919061467c565b9050600060044543604051602001610d1d929190614621565b6040516020818303038152906040528051906020012060001c610d40919061467c565b905033600460006101000a81548173ffffffffffffffffffffffffffffffffffffffff021916908373ffffffffffffffffffffffffffffffffffffffff16021790555060016000600460009054906101000a900473ffffffffffffffffffffffffffffffffffffffff1673ffffffffffffffffffffffffffffffffffffffff1673ffffffffffffffffffffffffffffffffffffffff16815260200190815260200160002060009054906101000a900460ff16610eff576000806000815480929190610e0a906144c8565b9190505590506001806000600460009054906101000a900473ffffffffffffffffffffffffffffffffffffffff1673ffffffffffffffffffffffffffffffffffffffff1673ffffffffffffffffffffffffffffffffffffffff16815260200190815260200160002060006101000a81548160ff021916908315150217905550600460009054906101000a900473ffffffffffffffffffffffffffffffffffffffff166002600083815260200190815260200160002060006101000a81548173ffffffffffffffffffffffffffffffffffffffff021916908373ffffffffffffffffffffffffffffffffffffffff160217905550505b6000600a8581548110610f1557610f1461446a565b5b906000526020600020018054610f2a906146dc565b80601f0160208091040260200160405190810160405280929190818152602001828054610f56906146dc565b8015610fa35780601f10610f7857610100808354040283529160200191610fa3565b820191906000526020600020905b815481529060010190602001808311610f8657829003601f168201915b505050505090506000600a8581548110610fc057610fbf61446a565b5b906000526020600020018054610fd5906146dc565b80601f0160208091040260200160405190810160405280929190818152602001828054611001906146dc565b801561104e5780601f106110235761010080835404028352916020019161104e565b820191906000526020600020905b81548152906001019060200180831161103157829003601f168201915b50505050509050600b61106c6001886110679190614510565b610afe565b9080600181540180825580915050600190039060005260206000200160009091909190915055600b6110a96001876110a49190614510565b610afe565b90806001815401808255809150506001900390600052602060002001600090919091909150556001600b6000815481106110e6576110e561446a565b5b906000526020600020015414801561111d5750600a600b6001815481106111105761110f61446a565b5b9060005260206000200154145b8061117257506001600b60018154811061113a5761113961446a565b5b90600052602060002001541480156111715750600a600b6000815481106111645761116361446a565b5b9060005260206000200154145b5b156112095760156010819055506001600f60006101000a81548160ff0219169083151502179055506000601260006101000a81548160ff0219169083151502179055506001601260016101000a81548160ff0219169083151502179055506001601260046101000a81548160ff021916908315150217905550600260036111f9919061470d565b601381905550611207612de9565b505b60006009858154811061121f5761121e61446a565b5b906000526020600020018054611234906146dc565b80601f0160208091040260200160405190810160405280929190818152602001828054611260906146dc565b80156112ad5780601f10611282576101008083540402835291602001916112ad565b820191906000526020600020905b81548152906001019060200180831161129057829003601f168201915b505050505090506000600985815481106112ca576112c961446a565b5b9060005260206000200180546112df906146dc565b80601f016020809104026020016040519081016040528092919081815260200182805461130b906146dc565b80156113585780601f1061132d57610100808354040283529160200191611358565b820191906000526020600020905b81548152906001019060200180831161133b57829003601f168201915b50505050509050600061138b858460405160200161137792919061477a565b60405160208183030381529060405261162e565b905060006113b985846040516020016113a592919061477a565b60405160208183030381529060405261162e565b9050600c829080600181540180825580915050600190039060005260206000200160009091909190915090816113ef919061494a565b50600c81908060018154018082558091505060019003906000526020600020016000909190919091509081611424919061494a565b5061142d612366565b7fc1dd89cc519a8102cf60e6197f8ef3266a2a5b602e8bedf695c3d3bd15387681600c60405161145d9190614b55565b60405180910390a15050505050505050505090565b6000808360168190555060075483108061148d575060085483115b156114ae576000600f60046101000a81548160ff0219169083151502179055505b60075483101580156114c257506008548311155b80156114cd57508383105b156114f5576001600f60046101000a81548160ff021916908315150217905550826014819055505b7f4ca72dc07e5725011e0c0b68ae0495e7ac5aa4e0ba0eec02320617d8d4538e13600f60049054906101000a900460ff166014546040516115379291906140f3565b60405180910390a19250929050565b60135460145461155691906145be565b471015611598576040517f08c379a000000000000000000000000000000000000000000000000000000000815260040161158f90614be9565b60405180910390fd5b3373ffffffffffffffffffffffffffffffffffffffff166108fc6013546014546115c291906145be565b9081150290604051600060405180830381858888f193505050501580156115ed573d6000803e3d6000fd5b50565b60007fd3de8fe4049059e1a238ed5eb6a43bea612fa85aebadca074de7b391fd6fc5496010546040516116239190613da6565b60405180910390a190565b60606000604051806060016040528060268152602001614e5c60269139905060006040518060400160405280600481526020017f2e706e67000000000000000000000000000000000000000000000000000000008152509050600082858360405160200161169e93929190614c09565b6040516020818303038152906040529050809350505050919050565b60165481565b60005481565b60606000600d42446040516020016116df929190614621565b6040516020818303038152906040528051906020012060001c611702919061467c565b90506000600d454360405160200161171b929190614621565b6040516020818303038152906040528051906020012060001c61173e919061467c565b9050600060044244604051602001611757929190614621565b6040516020818303038152906040528051906020012060001c61177a919061467c565b9050600060044543604051602001611793929190614621565b6040516020818303038152906040528051906020012060001c6117b6919061467c565b90506000600a85815481106117ce576117cd61446a565b5b9060005260206000200180546117e3906146dc565b80601f016020809104026020016040519081016040528092919081815260200182805461180f906146dc565b801561185c5780601f106118315761010080835404028352916020019161185c565b820191906000526020600020905b81548152906001019060200180831161183f57829003601f168201915b505050505090506000600a85815481106118795761187861446a565b5b90600052602060002001805461188e906146dc565b80601f01602080910402602001604051908101604052809291908181526020018280546118ba906146dc565b80156119075780601f106118dc57610100808354040283529160200191611907565b820191906000526020600020905b8154815290600101906020018083116118ea57829003601f168201915b50505050509050600d6119256001886119209190614510565b610afe565b9080600181540180825580915050600190039060005260206000200160009091909190915055600d61196260018761195d9190614510565b610afe565b90806001815401808255809150506001900390600052602060002001600090919091909150556001600d60008154811061199f5761199e61446a565b5b90600052602060002001541480156119d65750600a600d6001815481106119c9576119c861446a565b5b9060005260206000200154145b80611a2b57506001600d6001815481106119f3576119f261446a565b5b9060005260206000200154148015611a2a5750600a600d600081548110611a1d57611a1c61446a565b5b9060005260206000200154145b5b15611ab65760156011819055506001600f60016101000a81548160ff0219169083151502179055506001601260006101000a81548160ff0219169083151502179055506000601260016101000a81548160ff0219169083151502179055506001601260046101000a81548160ff0219169083151502179055506001601381905550611ab4612de9565b505b600060098581548110611acc57611acb61446a565b5b906000526020600020018054611ae1906146dc565b80601f0160208091040260200160405190810160405280929190818152602001828054611b0d906146dc565b8015611b5a5780601f10611b2f57610100808354040283529160200191611b5a565b820191906000526020600020905b815481529060010190602001808311611b3d57829003601f168201915b50505050509050600060098581548110611b7757611b7661446a565b5b906000526020600020018054611b8c906146dc565b80601f0160208091040260200160405190810160405280929190818152602001828054611bb8906146dc565b8015611c055780601f10611bda57610100808354040283529160200191611c05565b820191906000526020600020905b815481529060010190602001808311611be857829003601f168201915b505050505090506000611c388584604051602001611c2492919061477a565b60405160208183030381529060405261162e565b90506000611c668584604051602001611c5292919061477a565b60405160208183030381529060405261162e565b9050600e82908060018154018082558091505060019003906000526020600020016000909190919091509081611c9c919061494a565b50600e81908060018154018082558091505060019003906000526020600020016000909190919091509081611cd1919061494a565b50611cda6108e7565b7fd6d0a7dd897167b23beb6a7ca35237073632569263cf60e176469f70ae939816600e604051611d0a9190614b55565b60405180910390a15050505050505050505090565b6000806004600142611d319190614510565b44604051602001611d43929190614621565b6040516020818303038152906040528051906020012060001c611d66919061467c565b905080915050919050565b60006006548210611d9c576001600f60036101000a81548160ff021916908315150217905550611db8565b6000600f60036101000a81548160ff0219169083151502179055505b7fd8f0cc0ad1816c0b2e2a2c5e7304d307c87f495a82c92d9853d446abd884ea6b600f60039054906101000a900460ff16604051611df69190613d7c565b60405180910390a1600f60039054906101000a900460ff169050919050565b600560009054906101000a900473ffffffffffffffffffffffffffffffffffffffff1673ffffffffffffffffffffffffffffffffffffffff163373ffffffffffffffffffffffffffffffffffffffff1614611ea5576040517f08c379a0000000000000000000000000000000000000000000000000000000008152600401611e9c90614c86565b60405180910390fd5b80600560006101000a81548173ffffffffffffffffffffffffffffffffffffffff021916908373ffffffffffffffffffffffffffffffffffffffff16021790555050565b60607f219282380dc15795dfa77538b195e28a43b4088da4e95a379dfef0c6d6847d0d600b604051611f1b9190614d7c565b60405180910390a190565b606060005b601180541015611f5157611f3e816126c8565b8080611f49906144c8565b915050611f2b565b6000601260036101000a81548160ff0219169083151502179055506001601260046101000a81548160ff0219169083151502179055507f4c645466e5d563874cef3427ae622e2ad662823fcb5ea1fc2a32b3d9bec43a0f600e604051611fb79190614b55565b60405180910390a1611fc7612de9565b505090565b600560009054906101000a900473ffffffffffffffffffffffffffffffffffffffff1681565b6060600e805480602002602001604051908101604052809291908181526020016000905b828210156120c2578382906000526020600020018054612035906146dc565b80601f0160208091040260200160405190810160405280929190818152602001828054612061906146dc565b80156120ae5780601f10612083576101008083540402835291602001916120ae565b820191906000526020600020905b81548152906001019060200180831161209157829003601f168201915b505050505081526020019060010190612016565b50505050905090565b60607f8a4ac2ad7712484078085d0b7c0465f2ddc2c7588c4bd163fd589c1b845418dd600d6040516120fd9190614d7c565b60405180910390a190565b67016345785d8a00008161211c9190614544565b47101561215e576040517f08c379a000000000000000000000000000000000000000000000000000000000815260040161215590614be9565b60405180910390fd5b8173ffffffffffffffffffffffffffffffffffffffff166108fc829081150290604051600060405180830381858888f193505050501580156121a4573d6000803e3d6000fd5b505050565b6040518060400160405280600b81526020017f48454c4c4f20574f524c44000000000000000000000000000000000000000000815250601890816121ed919061494a565b506000806000805b60038054905081101561227057818061220d906144c8565b92505060011515600382815481106122285761222761446a565b5b906000526020600020906002020160000160149054906101000a900460ff1615150361225d578280612259906144c8565b9350505b8080612268906144c8565b9150506121f5565b50600081036122825760009250612291565b808261228e919061470d565b92505b7fe5f92e86e797f16cddf983aecc5d85a9b7094b84e3e8e79c1dee00d4fe3fcbae60186040516122c19190614e22565b60405180910390a1505050565b600f60039054906101000a900460ff1681565b600460009054906101000a900473ffffffffffffffffffffffffffffffffffffffff1681565b60155481565b6000816040516020016123209190614e44565b60405160208183030381529060405280519060200120836040516020016123479190614e44565b6040516020818303038152906040528051906020012014905092915050565b6000600b8054905090506000601081905550600080600080600093506000905060005b8581101561240a576001600b82815481106123a7576123a661446a565b5b9060005260206000200154036123ca5784806123c2906144c8565b9550506123f7565b600b81815481106123de576123dd61446a565b5b9060005260206000200154826123f49190614510565b91505b8080612402906144c8565b915050612389565b506000841115612474576001846124219190614544565b600b61242d9190614510565b9250839150601581846124409190614510565b1161245c5782816124519190614510565b60108190555061246f565b81816124689190614510565b6010819055505b6124cb565b60005b858110156124c957600b81815481106124935761249261446a565b5b9060005260206000200154601060008282546124af9190614510565b9250508190555080806124c1906144c8565b915050612477565b505b5050505050565b60007f3c30c7c52105d0a03501dcc192724ac4ae94ea3a2c8adba22084e331761d90b86011546040516125059190613da6565b60405180910390a190565b612518610ae0565b612520610c45565b600f60019054906101000a900460ff1680156125485750600f60009054906101000a900460ff165b1561259f576001600f60026101000a81548160ff0219169083151502179055506000601260006101000a81548160ff0219169083151502179055506000601260016101000a81548160ff0219169083151502179055505b600f60019054906101000a900460ff1680156125ce575060001515600f60009054906101000a900460ff161515145b15612625576001600f60026101000a81548160ff0219169083151502179055506000601260016101000a81548160ff0219169083151502179055506001601260006101000a81548160ff0219169083151502179055505b600f60009054906101000a900460ff168015612654575060001515600f60019054906101000a900460ff161515145b156126ab576001600f60026101000a81548160ff0219169083151502179055506001601260016101000a81548160ff0219169083151502179055506000601260006101000a81548160ff0219169083151502179055505b565b34601560008282546126bf9190614510565b92505081905550565b6000600a6126d583610bf4565b815481106126e6576126e561446a565b5b9060005260206000200180546126fb906146dc565b80601f0160208091040260200160405190810160405280929190818152602001828054612727906146dc565b80156127745780601f1061274957610100808354040283529160200191612774565b820191906000526020600020905b81548152906001019060200180831161275757829003601f168201915b505050505090506000600961278884611d1f565b815481106127995761279861446a565b5b9060005260206000200180546127ae906146dc565b80601f01602080910402602001604051908101604052809291908181526020018280546127da906146dc565b80156128275780601f106127fc57610100808354040283529160200191612827565b820191906000526020600020905b81548152906001019060200180831161280a57829003601f168201915b505050505090506000828260405160200161284392919061477a565b6040516020818303038152906040529050600061285f8261162e565b9050600d61286c85613aa8565b9080600181540180825580915050600190039060005260206000200160009091909190915055600e819080600181540180825580915050600190039060005260206000200160009091909190915090816128c6919061494a565b506128cf6108e7565b60156011541115612919576001601260016101000a81548160ff0219169083151502179055506000601260006101000a81548160ff02191690831515021790555060016013819055505b5050505050565b60606000600a6129306001610bf4565b815481106129415761294061446a565b5b906000526020600020018054612956906146dc565b80601f0160208091040260200160405190810160405280929190818152602001828054612982906146dc565b80156129cf5780601f106129a4576101008083540402835291602001916129cf565b820191906000526020600020905b8154815290600101906020018083116129b257829003601f168201915b50505050509050600060096129e46001611d1f565b815481106129f5576129f461446a565b5b906000526020600020018054612a0a906146dc565b80601f0160208091040260200160405190810160405280929190818152602001828054612a36906146dc565b8015612a835780601f10612a5857610100808354040283529160200191612a83565b820191906000526020600020905b815481529060010190602001808311612a6657829003601f168201915b505050505090506000612ab68383604051602001612aa292919061477a565b60405160208183030381529060405261162e565b90506000612ac384613aa8565b9050600b819080600181540180825580915050600190039060005260206000200160009091909190915055600c82908060018154018082558091505060019003906000526020600020016000909190919091509081612b22919061494a565b507f7d6cae5bd13bcc94802f648594d55fef0f7be0c17fb3325f9fdcdaa9f832f989600c604051612b539190614b55565b60405180910390a1612b63612366565b60156010541115612bd1576001601260006101000a81548160ff0219169083151502179055506000601260016101000a81548160ff0219169083151502179055506001601260046101000a81548160ff0219169083151502179055506000601381905550612bcf612de9565b505b5050505090565b6060600c805480602002602001604051908101604052809291908181526020016000905b82821015612ca8578382906000526020600020018054612c1b906146dc565b80601f0160208091040260200160405190810160405280929190818152602001828054612c47906146dc565b8015612c945780601f10612c6957610100808354040283529160200191612c94565b820191906000526020600020905b815481529060010190602001808311612c7757829003601f168201915b505050505081526020019060010190612bfc565b50505050905090565b7f3db3bf72d889b677362ff49039762189b204f3143a28934e3dd828b3c22b7b54600054604051612ce29190613da6565b60405180910390a1565b600081600460006101000a81548173ffffffffffffffffffffffffffffffffffffffff021916908373ffffffffffffffffffffffffffffffffffffffff160217905550600460009054906101000a900473ffffffffffffffffffffffffffffffffffffffff1673ffffffffffffffffffffffffffffffffffffffff16316016819055507fc6e2ac2344b72494ae5c6c59901ac6a72b498a598bf788b6503e60dba61f8250601654604051612da09190613da6565b60405180910390a1600460009054906101000a900473ffffffffffffffffffffffffffffffffffffffff1673ffffffffffffffffffffffffffffffffffffffff16319050919050565b6060600b6000612df99190613c27565b600c6000612e079190613c48565b600d6000612e159190613c27565b600e6000612e239190613c48565b60156010541115612fab576000601260016101000a81548160ff0219169083151502179055506001601260006101000a81548160ff02191690831515021790555060016013819055506040518060400160405280600781526020017f4c4f53452121210000000000000000000000000000000000000000000000000081525060179081612eb0919061494a565b5060036040518060600160405280600460009054906101000a900473ffffffffffffffffffffffffffffffffffffffff1673ffffffffffffffffffffffffffffffffffffffff1681526020016000151581526020016000815250908060018154018082558091505060019003906000526020600020906002020160009091909190915060008201518160000160006101000a81548173ffffffffffffffffffffffffffffffffffffffff021916908373ffffffffffffffffffffffffffffffffffffffff16021790555060208201518160000160146101000a81548160ff021916908315150217905550604082015181600101555050613a6d565b60156011541115613159576000601260016101000a81548160ff0219169083151502179055506001601260006101000a81548160ff02191690831515021790555060026013819055506040518060400160405280600681526020017f57494e212121000000000000000000000000000000000000000000000000000081525060179081613038919061494a565b5060036040518060600160405280600460009054906101000a900473ffffffffffffffffffffffffffffffffffffffff1673ffffffffffffffffffffffffffffffffffffffff16815260200160011515815260200160135460145461309d91906145be565b815250908060018154018082558091505060019003906000526020600020906002020160009091909190915060008201518160000160006101000a81548173ffffffffffffffffffffffffffffffffffffffff021916908373ffffffffffffffffffffffffffffffffffffffff16021790555060208201518160000160146101000a81548160ff02191690831515021790555060408201518160010155505061315460135460145461314f91906145be565b610a53565b613a6c565b60105460115403613204576000601260016101000a81548160ff0219169083151502179055506000601260006101000a81548160ff02191690831515021790555060016013819055506040518060400160405280600681526020017f5055534821210000000000000000000000000000000000000000000000000000815250601790816131e6919061494a565b506131ff6013546014546131fa91906145be565b610a53565b613a6b565b60105460115411801561321a5750601560115411155b1561339c576000601260016101000a81548160ff0219169083151502179055506001601260006101000a81548160ff02191690831515021790555060016013819055506040518060400160405280600781526020017f4c4f534521212100000000000000000000000000000000000000000000000000815250601790816132a1919061494a565b5060036040518060600160405280600460009054906101000a900473ffffffffffffffffffffffffffffffffffffffff1673ffffffffffffffffffffffffffffffffffffffff1681526020016000151581526020016000815250908060018154018082558091505060019003906000526020600020906002020160009091909190915060008201518160000160006101000a81548173ffffffffffffffffffffffffffffffffffffffff021916908373ffffffffffffffffffffffffffffffffffffffff16021790555060208201518160000160146101000a81548160ff021916908315150217905550604082015181600101555050613a6a565b6010546011541180156133b157506015601154115b15613559576000601260016101000a81548160ff0219169083151502179055506001601260006101000a81548160ff021916908315150217905550600260138190555060036040518060600160405280600460009054906101000a900473ffffffffffffffffffffffffffffffffffffffff1673ffffffffffffffffffffffffffffffffffffffff16815260200160011515815260200160135460145461345891906145be565b815250908060018154018082558091505060019003906000526020600020906002020160009091909190915060008201518160000160006101000a81548173ffffffffffffffffffffffffffffffffffffffff021916908373ffffffffffffffffffffffffffffffffffffffff16021790555060208201518160000160146101000a81548160ff0219169083151502179055506040820151816001015550506040518060400160405280600681526020017f57494e21212100000000000000000000000000000000000000000000000000008152506017908161353b919061494a565b5061355460135460145461354f91906145be565b610a53565b613a69565b60105460115410801561356e57506015601054105b15613716576001601260016101000a81548160ff0219169083151502179055506000601260006101000a81548160ff021916908315150217905550600260138190555060036040518060600160405280600460009054906101000a900473ffffffffffffffffffffffffffffffffffffffff1673ffffffffffffffffffffffffffffffffffffffff16815260200160011515815260200160135460145461361591906145be565b815250908060018154018082558091505060019003906000526020600020906002020160009091909190915060008201518160000160006101000a81548173ffffffffffffffffffffffffffffffffffffffff021916908373ffffffffffffffffffffffffffffffffffffffff16021790555060208201518160000160146101000a81548160ff0219169083151502179055506040820151816001015550506040518060400160405280600681526020017f57494e2121210000000000000000000000000000000000000000000000000000815250601790816136f8919061494a565b5061371160135460145461370c91906145be565b610a53565b613a68565b60105460115411801561372b57506015601154145b156138ad576000601260016101000a81548160ff0219169083151502179055506001601260006101000a81548160ff021916908315150217905550600160138190555060036040518060600160405280600460009054906101000a900473ffffffffffffffffffffffffffffffffffffffff1673ffffffffffffffffffffffffffffffffffffffff1681526020016000151581526020016000815250908060018154018082558091505060019003906000526020600020906002020160009091909190915060008201518160000160006101000a81548173ffffffffffffffffffffffffffffffffffffffff021916908373ffffffffffffffffffffffffffffffffffffffff16021790555060208201518160000160146101000a81548160ff0219169083151502179055506040820151816001015550506040518060400160405280600781526020017f4c4f534521212100000000000000000000000000000000000000000000000000815250601790816138a7919061494a565b50613a67565b6010546011541080156138c257506015601054145b15613a66576001601260016101000a81548160ff0219169083151502179055506000601260006101000a81548160ff021916908315150217905550600360138190555060036040518060600160405280600460009054906101000a900473ffffffffffffffffffffffffffffffffffffffff1673ffffffffffffffffffffffffffffffffffffffff16815260200160011515815260200160135460145461396991906145be565b815250908060018154018082558091505060019003906000526020600020906002020160009091909190915060008201518160000160006101000a81548173ffffffffffffffffffffffffffffffffffffffff021916908373ffffffffffffffffffffffffffffffffffffffff16021790555060208201518160000160146101000a81548160ff0219169083151502179055506040820151816001015550506040518060400160405280600681526020017f57494e212121000000000000000000000000000000000000000000000000000081525060179081613a4c919061494a565b50613a65601354601454613a6091906145be565b610a53565b5b5b5b5b5b5b5b5b7fae867731ffefd6a37b56025a98b06b8cdd3242162fc1eb19cc855e175db6115a6017604051613a9d9190614e22565b60405180910390a190565b6000613ae9826040518060400160405280600181526020017f410000000000000000000000000000000000000000000000000000000000000081525061230d565b15613af75760019050613c22565b613b36826040518060400160405280600181526020017f300000000000000000000000000000000000000000000000000000000000000081525061230d565b80613b7c5750613b7b826040518060400160405280600181526020017f4a0000000000000000000000000000000000000000000000000000000000000081525061230d565b5b80613bc25750613bc1826040518060400160405280600181526020017f510000000000000000000000000000000000000000000000000000000000000081525061230d565b5b80613c085750613c07826040518060400160405280600181526020017f4b0000000000000000000000000000000000000000000000000000000000000081525061230d565b5b15613c1657600a9050613c22565b613c1f82610b1b565b90505b919050565b5080546000825590600052602060002090810190613c459190613c69565b50565b5080546000825590600052602060002090810190613c669190613c86565b50565b5b80821115613c82576000816000905550600101613c6a565b5090565b5b80821115613ca65760008181613c9d9190613caa565b50600101613c87565b5090565b508054613cb6906146dc565b6000825580601f10613cc85750613ce7565b601f016020900490600052602060002090810190613ce69190613c69565b5b50565b6000604051905090565b600080fd5b600080fd5b6000819050919050565b613d1181613cfe565b8114613d1c57600080fd5b50565b600081359050613d2e81613d08565b92915050565b600060208284031215613d4a57613d49613cf4565b5b6000613d5884828501613d1f565b91505092915050565b60008115159050919050565b613d7681613d61565b82525050565b6000602082019050613d916000830184613d6d565b92915050565b613da081613cfe565b82525050565b6000602082019050613dbb6000830184613d97565b92915050565b600080fd5b600080fd5b6000601f19601f8301169050919050565b7f4e487b7100000000000000000000000000000000000000000000000000000000600052604160045260246000fd5b613e1482613dcb565b810181811067ffffffffffffffff82111715613e3357613e32613ddc565b5b80604052505050565b6000613e46613cea565b9050613e528282613e0b565b919050565b600067ffffffffffffffff821115613e7257613e71613ddc565b5b613e7b82613dcb565b9050602081019050919050565b82818337600083830152505050565b6000613eaa613ea584613e57565b613e3c565b905082815260208101848484011115613ec657613ec5613dc6565b5b613ed1848285613e88565b509392505050565b600082601f830112613eee57613eed613dc1565b5b8135613efe848260208601613e97565b91505092915050565b600060208284031215613f1d57613f1c613cf4565b5b600082013567ffffffffffffffff811115613f3b57613f3a613cf9565b5b613f4784828501613ed9565b91505092915050565b600081519050919050565b600082825260208201905092915050565b6000819050602082019050919050565b600081519050919050565b600082825260208201905092915050565b60005b83811015613fb6578082015181840152602081019050613f9b565b60008484015250505050565b6000613fcd82613f7c565b613fd78185613f87565b9350613fe7818560208601613f98565b613ff081613dcb565b840191505092915050565b60006140078383613fc2565b905092915050565b6000602082019050919050565b600061402782613f50565b6140318185613f5b565b93508360208202850161404385613f6c565b8060005b8581101561407f57848403895281516140608582613ffb565b945061406b8361400f565b925060208a01995050600181019050614047565b50829750879550505050505092915050565b600060208201905081810360008301526140ab818461401c565b905092915050565b600080604083850312156140ca576140c9613cf4565b5b60006140d885828601613d1f565b92505060206140e985828601613d1f565b9150509250929050565b60006040820190506141086000830185613d6d565b6141156020830184613d97565b9392505050565b600082825260208201905092915050565b600061413882613f7c565b614142818561411c565b9350614152818560208601613f98565b61415b81613dcb565b840191505092915050565b60006020820190508181036000830152614180818461412d565b905092915050565b600073ffffffffffffffffffffffffffffffffffffffff82169050919050565b60006141b382614188565b9050919050565b6141c3816141a8565b81146141ce57600080fd5b50565b6000813590506141e0816141ba565b92915050565b6000602082840312156141fc576141fb613cf4565b5b600061420a848285016141d1565b91505092915050565b600081519050919050565b600082825260208201905092915050565b6000819050602082019050919050565b61424881613cfe565b82525050565b600061425a838361423f565b60208301905092915050565b6000602082019050919050565b600061427e82614213565b614288818561421e565b93506142938361422f565b8060005b838110156142c45781516142ab888261424e565b97506142b683614266565b925050600181019050614297565b5085935050505092915050565b600060208201905081810360008301526142eb8184614273565b905092915050565b6142fc816141a8565b82525050565b600060208201905061431760008301846142f3565b92915050565b600061432882614188565b9050919050565b6143388161431d565b811461434357600080fd5b50565b6000813590506143558161432f565b92915050565b6000806040838503121561437257614371613cf4565b5b600061438085828601614346565b925050602061439185828601613d1f565b9150509250929050565b6143a48161431d565b82525050565b60006020820190506143bf600083018461439b565b92915050565b600080604083850312156143dc576143db613cf4565b5b600083013567ffffffffffffffff8111156143fa576143f9613cf9565b5b61440685828601613ed9565b925050602083013567ffffffffffffffff81111561442757614426613cf9565b5b61443385828601613ed9565b9150509250929050565b60006020828403121561445357614452613cf4565b5b600061446184828501614346565b91505092915050565b7f4e487b7100000000000000000000000000000000000000000000000000000000600052603260045260246000fd5b7f4e487b7100000000000000000000000000000000000000000000000000000000600052601160045260246000fd5b60006144d382613cfe565b91507fffffffffffffffffffffffffffffffffffffffffffffffffffffffffffffffff820361450557614504614499565b5b600182019050919050565b600061451b82613cfe565b915061452683613cfe565b925082820190508082111561453e5761453d614499565b5b92915050565b600061454f82613cfe565b915061455a83613cfe565b925082820390508181111561457257614571614499565b5b92915050565b50565b600061458860008361411c565b915061459382614578565b600082019050919050565b600060208201905081810360008301526145b78161457b565b9050919050565b60006145c982613cfe565b91506145d483613cfe565b92508282026145e281613cfe565b915082820484148315176145f9576145f8614499565b5b5092915050565b6000819050919050565b61461b61461682613cfe565b614600565b82525050565b600061462d828561460a565b60208201915061463d828461460a565b6020820191508190509392505050565b7f4e487b7100000000000000000000000000000000000000000000000000000000600052601260045260246000fd5b600061468782613cfe565b915061469283613cfe565b9250826146a2576146a161464d565b5b828206905092915050565b7f4e487b7100000000000000000000000000000000000000000000000000000000600052602260045260246000fd5b600060028204905060018216806146f457607f821691505b602082108103614707576147066146ad565b5b50919050565b600061471882613cfe565b915061472383613cfe565b9250826147335761473261464d565b5b828204905092915050565b600081905092915050565b600061475482613f7c565b61475e818561473e565b935061476e818560208601613f98565b80840191505092915050565b60006147868285614749565b91506147928284614749565b91508190509392505050565b60008190508160005260206000209050919050565b60006020601f8301049050919050565b600082821b905092915050565b6000600883026148007fffffffffffffffffffffffffffffffffffffffffffffffffffffffffffffffff826147c3565b61480a86836147c3565b95508019841693508086168417925050509392505050565b6000819050919050565b600061484761484261483d84613cfe565b614822565b613cfe565b9050919050565b6000819050919050565b6148618361482c565b61487561486d8261484e565b8484546147d0565b825550505050565b600090565b61488a61487d565b614895818484614858565b505050565b5b818110156148b9576148ae600082614882565b60018101905061489b565b5050565b601f8211156148fe576148cf8161479e565b6148d8846147b3565b810160208510156148e7578190505b6148fb6148f3856147b3565b83018261489a565b50505b505050565b600082821c905092915050565b600061492160001984600802614903565b1980831691505092915050565b600061493a8383614910565b9150826002028217905092915050565b61495382613f7c565b67ffffffffffffffff81111561496c5761496b613ddc565b5b61497682546146dc565b6149818282856148bd565b600060209050601f8311600181146149b457600084156149a2578287015190505b6149ac858261492e565b865550614a14565b601f1984166149c28661479e565b60005b828110156149ea578489015182556001820191506020850194506020810190506149c5565b86831015614a075784890151614a03601f891682614910565b8355505b6001600288020188555050505b505050505050565b600081549050919050565b60008190508160005260206000209050919050565b60008154614a49816146dc565b614a538186613f87565b94506001821660008114614a6e5760018114614a8457614ab7565b60ff198316865281151560200286019350614ab7565b614a8d8561479e565b60005b83811015614aaf57815481890152600182019150602081019050614a90565b808801955050505b50505092915050565b6000614acc8383614a3c565b905092915050565b6000600182019050919050565b6000614aec82614a1c565b614af68185613f5b565b935083602082028501614b0885614a27565b8060005b85811015614b4357848403895281614b248582614ac0565b9450614b2f83614ad4565b925060208a01995050600181019050614b0c565b50829750879550505050505092915050565b60006020820190508181036000830152614b6f8184614ae1565b905092915050565b7f496e73756666696369656e742062616c616e636520696e2074686520636f6e7460008201527f7261637400000000000000000000000000000000000000000000000000000000602082015250565b6000614bd360248361411c565b9150614bde82614b77565b604082019050919050565b60006020820190508181036000830152614c0281614bc6565b9050919050565b6000614c158286614749565b9150614c218285614749565b9150614c2d8284614749565b9150819050949350505050565b7f4f6e6c7920746865206f776e65722063616e20646f2074686174210000000000600082015250565b6000614c70601b8361411c565b9150614c7b82614c3a565b602082019050919050565b60006020820190508181036000830152614c9f81614c63565b9050919050565b600081549050919050565b60008190508160005260206000209050919050565b60008160001c9050919050565b6000819050919050565b6000614cf0614ceb83614cc6565b614cd3565b9050919050565b6000614d038254614cdd565b9050919050565b6000600182019050919050565b6000614d2282614ca6565b614d2c818561421e565b9350614d3783614cb1565b8060005b83811015614d6f57614d4c82614cf7565b614d56888261424e565b9750614d6183614d0a565b925050600181019050614d3b565b5085935050505092915050565b60006020820190508181036000830152614d968184614d17565b905092915050565b60008154614dab816146dc565b614db5818661411c565b94506001821660008114614dd05760018114614de657614e19565b60ff198316865281151560200286019350614e19565b614def8561479e565b60005b83811015614e1157815481890152600182019150602081019050614df2565b808801955050505b50505092915050565b60006020820190508181036000830152614e3c8184614d9e565b905092915050565b6000614e508284614749565b91508190509291505056fe68747470733a2f2f6465636b6f6663617264736170692e636f6d2f7374617469632f696d672fa2646970667358221220bf3489541769744cd7517edc97f280af0285de39a73ace802647588ec74a080564736f6c63430008110033",
  "immutableReferences": {},
  "source": "// SPDX-License-Identifier: MIT\npragma solidity >=0.4.22 <0.9.0;\n\n\ncontract Blackjack{\n\n    uint public numberOfPlayers;\n    mapping(address => bool) private players;\n    mapping(uint => address) private lutPlayers;\n    resultOfGame[] private won;\n    struct resultOfGame{\n        address addr;\n        bool res;\n        uint sumWon;\n    }\n  \n\n   address payable public playerAddress;\n    //* Keep the owner address\n    address public owner;\n    //* keep the minimum balance to play\n    uint private minBalance = 10000000000000000000;\n\n    //* this is the minimum sum to play\n    uint private minimum = 10000000000000000;\n    //* this is the maximum sum to play\n    uint private maximum = 1000000000000000000;\n    //* this is the suits (each of the value represent a suit)\n    string[] suits = [\"H\", \"S\", \"D\", \"C\"];\n    //* this is the card values\n    // prettier-ignore\n    string[] ranks = [\"A\", \"2\", \"3\", \"4\", \"5\", \"6\", \"7\", \"8\", \"9\", \"0\", \"J\", \"Q\", \"K\"];\n\n    uint[] playerCardValues;\n    string[] playerCardsUrls;\n    uint[] dealercardValues;\n    string[] dealerCardsUrls;\n\n    bool isBlackForPlayer = false;\n    bool isBlackForDealer = false;\n\n    bool finishGame = false;\n    //* this is the variable that is updated when the minimum balance function runs\n    bool public balanceChecker;\n  \n    //* this is the variable that check the number in the input is more than the minimum to play and less than the maximum to play\n    bool public inputChecked = true;\n\n    uint playerCounter = 0;\n    uint dealerCounter = 0;\n\n    bool loosedPlayer = false;\n    bool loosedDealer = false;\n\n    bool canTakeNewCardPlayer = true;\n    bool canTakeNewCardDealer = false;\n\n    bool gameFinished = false;\n\n    uint payment = 1;\n    uint paymentSum = 0 ; \n    uint public balance;\n\n    //* This constructor get the smart contract owner address\n    constructor (){\n        owner = msg.sender;\n        balance = 0;\n        // We want to call this function when the player want to play a new game\n        //   deckcard = createDeck();\n    }\n    \n\n    function startGame() external {\n        givetwoCardsToPlayer();\n        givetwoCardsToDealer();\n        if(isBlackForDealer && isBlackForPlayer){\n            // NEED TO WORK ON THE END OF THE GAME\n            finishGame = true;\n            loosedPlayer = false;\n            loosedDealer = false;\n        }    \n        if(isBlackForDealer && isBlackForPlayer == false ){ \n            finishGame = true;\n            loosedDealer = false;\n            loosedPlayer = true;\n        }\n        if(isBlackForPlayer && isBlackForDealer == false){ \n            finishGame = true;\n            loosedDealer = true;\n            loosedPlayer = false;        \n        }     \n    }\n\n    //* The modifier check if the user is the smart contract owner\n    modifier onlyOwner(){\n        require(msg.sender == owner,\"Only the owner can do that!\");\n        _;\n    }\n\n    //* The function to transfer smart contract ownership\n    function transferOwnerShip(address newOwner) external onlyOwner{\n        owner = newOwner;\n    }\n\n    // We need to check why it's not rendering the balance value\n    uint public playerBalance = 0;\n    event initBalance(uint playerBalance);\n    //* This function gets the player address and returns the player balance\n    function getBalance(address payable addrs) public  returns(uint){\n        playerAddress = addrs;\n        playerBalance = playerAddress.balance;\n        emit initBalance(playerBalance);        \n        return playerAddress.balance;\n\n    }   \n\n    event initchecker(bool balanceChecker);\n    //* This function get the player address and check if he has anough balance in the wallet and returns true or false to the react code\n    function checkBalance(uint bal) public returns(bool){\n        if(bal >= minBalance){\n            balanceChecker = true;\n        }\n        else{\n            balanceChecker = false;\n        }\n        emit initchecker(balanceChecker);\n        return balanceChecker;\n    }\n\n    event inpuchecker(bool, uint);\n    //* The function gets from the frontend sum entered to play and verify if it's more than the minimum and less than the maximum\n    function checkInput(uint bal, uint input) public returns (bool, uint){\n        playerBalance = bal;\n        if((input < minimum || input > maximum)){\n            inputChecked = false;\n        } \n        if(input >= minimum && input <= maximum && input < bal)\n        {\n            inputChecked = true;\n            paymentSum = input;\n        }\n        emit inpuchecker(inputChecked,paymentSum );\n        // return inputChecked;\n    }\n\n    //* Checks if 2 strings are equals (helper function)\n    function compareStrings(string memory a, string memory b) public pure returns (bool) {\n    return (keccak256(abi.encodePacked((a))) == keccak256(abi.encodePacked((b))));\n    }\n\n    //* gets a string and return a interger (helper function)\n    function stringToUint(string memory s) public pure returns (uint) {\n        bytes memory b = bytes(s);\n        uint result = 0;\n        for (uint256 i = 0; i < b.length; i++) {\n            uint256 c = uint256(uint8(b[i]));\n            if (c >= 48 && c <= 57) {\n                result = result * 10 + (c - 48);\n            }\n        }\n        return result;\n    }\n\n    // The function creates URL for the ui\n    function createUrlForUI(string memory card) public pure returns (string memory) {\n        string memory cardLink = \"https://deckofcardsapi.com/static/img/\";\n        string memory cardType = \".png\";\n        string memory cardLinkNew = string.concat(cardLink,card,cardType);\n        return cardLinkNew;\n    }\n\n    // This function returns the cards of the player\n    event returnPlayerCardvale(uint[]);\n    function showPlayerCardvalue() public returns(uint[] memory){\n        emit returnPlayerCardvale(playerCardValues);\n        // return playerCardValues;\n    }\n    function showPlayerCardUrls() public view returns(string[] memory){\n        return playerCardsUrls;\n    }\n    // This function returns the cards of the dealer\n    \n    event returnDealerCardvale(uint[]);\n    function showDealerCardvalue() public returns(uint[] memory){\n        emit returnDealerCardvale( dealercardValues);\n        // return dealercardValues;\n    }\n    function showDealerCardUrls() public view returns(string[] memory){\n        return dealerCardsUrls;\n    }\n    // It starts the game and give to the player 2 cards\n    function givetwoCardsToPlayer() public {\n        generateTwoRandomNumbersToPlayer();\n    }\n    // It starts the game and give to the dealer 2 cards\n    function givetwoCardsToDealer() public {\n        generateTwoRandomNumbersToDealer();\n    }\n    event returnDealerCounter(uint);\n    function showDealerCounter() public returns(uint ){\n        emit returnDealerCounter(dealerCounter);\n        // return dealerCounter;\n    }\n    event returnPlayerCounter(uint);\n    function showPlayerCounter() public returns(uint ){\n        emit returnPlayerCounter(playerCounter);\n        // return playerCounter;\n    }\n\n    //* The function sums the cards values for dealer and player\n   //* The function sums the cards values for dealer and player\n    function sumOfCardsPlayer() public{\n        uint lenOfPlayerCards = playerCardValues.length;\n\n        playerCounter = 0;\n        // if(lenOfPlayerCards > 2){\n        uint countPlayerAces = 0;\n        uint maxCountPlayer = 0;\n        uint minCountPlayer = 0;\n        uint playerCountNotAces = 0;\n        countPlayerAces = 0;\n        playerCountNotAces = 0;\n        for(uint j=0; j < lenOfPlayerCards; j++){\n            if(playerCardValues[j] == 1){\n                countPlayerAces ++;\n            }else{\n                playerCountNotAces += playerCardValues[j];\n            }\n        }\n        if(countPlayerAces > 0){\n            maxCountPlayer = 11 + (countPlayerAces - 1);\n            minCountPlayer = countPlayerAces;\n            \n            if(maxCountPlayer + playerCountNotAces <= 21){\n                playerCounter = playerCountNotAces + maxCountPlayer;\n            }\n            else{\n                playerCounter = playerCountNotAces + minCountPlayer;\n            }\n        }else{\n            for(uint i = 0; i < lenOfPlayerCards; i++){\n\n                playerCounter += playerCardValues[i];\n            }\n        }\n    } \n    function sumOfCardsDealer() public{\n        uint lenOfDealerCards = dealercardValues.length;\n        dealerCounter = 0;\n\n        uint countDealerAces;\n        uint dealerCountNotAces;\n        uint maxCount = 0;\n        uint minCount = 0;\n         countDealerAces = 0;\n         dealerCountNotAces = 0;\n        // if(lenOfDealerCards > 2){\n        for(uint j=0; j < lenOfDealerCards; j++){\n            if(dealercardValues[j] == 1){\n                countDealerAces ++;\n            }\n            else{\n                dealerCountNotAces += dealercardValues[j];\n            }\n        }\n        if(countDealerAces > 0){\n         maxCount = 11 + (countDealerAces - 1);\n         minCount = countDealerAces;\n\n        if(maxCount + dealerCountNotAces <= 21){\n            dealerCounter = dealerCountNotAces + maxCount;\n        }\n        else{\n            dealerCounter = dealerCountNotAces + minCount;\n        }\n        }\n        else{\n        for(uint j = 0; j < lenOfDealerCards; j++){\n            dealerCounter += dealercardValues[j];\n        }\n        }\n    }\n\n    // The function convert value that are more than 10 to be 10\n    function checkValue(uint num) public pure returns(uint){\n        if(num > 9)return 10;\n        return num;\n        \n    }\n\n    event returnPlayerUrls(string[]);\n    // The function generate 2 random cards to the player\n    function generateTwoRandomNumbersToPlayer() public returns( string[] memory) {\n        uint randomNumber1 = uint(keccak256(abi.encodePacked(block.timestamp, block.difficulty))) % 13;\n        uint randomNumber2 = uint(keccak256(abi.encodePacked(block.gaslimit, block.number))) % 13;\n        \n        uint randomSuit1 = uint(keccak256(abi.encodePacked(block.timestamp, block.difficulty))) % 4;\n        uint randomSuit2 = uint(keccak256(abi.encodePacked(block.gaslimit, block.number))) % 4;\n\n        // This script is saving the number of player (distinct) - This data is public.\n        //* It also keeps updated a private map of the wallets player addresses. \n        playerAddress = payable (msg.sender);\n        if(!players[playerAddress]){\n            uint index = numberOfPlayers++; \n            players[playerAddress] = true;\n            lutPlayers[index] = playerAddress;\n        }\n\n        string memory rankNumber1 = ranks[randomNumber1];\n        string memory rankNumber2 = ranks[randomNumber2];\n        playerCardValues.push(checkValue(randomNumber1+1));\n        playerCardValues.push(checkValue(randomNumber2+1));\n        if((playerCardValues[0] == 1 && playerCardValues[1]==10) ||\n            (playerCardValues[1] == 1 && playerCardValues[0]==10)){\n                playerCounter = 21;\n                isBlackForPlayer = true;\n                loosedPlayer = false;\n                loosedDealer = true;\n                gameFinished = true;\n                payment = 3/uint256(2);\n                finishTheGame();\n        }\n        string memory suitNumber1 = suits[randomSuit1];\n        string memory suitNumber2 = suits[randomSuit2];\n\n        string memory card1 = createUrlForUI(string.concat(rankNumber1,suitNumber1));\n        string memory card2 = createUrlForUI(string.concat(rankNumber2,suitNumber2));\n\n        playerCardsUrls.push(card1);\n        playerCardsUrls.push(card2);\n\n        sumOfCardsPlayer();\n        emit returnPlayerUrls(playerCardsUrls);\n        // return playerCardsUrls;\n        \n    }\n\n    event returnDealerUrls(string[]);\n\n    // The function generate 2 random cards to the dealer\n    function generateTwoRandomNumbersToDealer() public returns( string[] memory) {\n        uint randomNumber11 = uint(keccak256(abi.encodePacked(block.timestamp, block.difficulty))) % 13;\n        uint randomNumber22 = uint(keccak256(abi.encodePacked(block.gaslimit, block.number))) % 13;\n\n        uint randomSuit11 = uint(keccak256(abi.encodePacked(block.timestamp, block.difficulty))) % 4;\n        uint randomSuit22 = uint(keccak256(abi.encodePacked(block.gaslimit, block.number))) % 4;\n\n        string memory rankNumber11 = ranks[randomNumber11];\n        string memory rankNumber22 = ranks[randomNumber22];\n        dealercardValues.push(checkValue(randomNumber11+1));\n        dealercardValues.push(checkValue(randomNumber22+1));\n        if((dealercardValues[0] == 1 && dealercardValues[1]==10) ||\n            (dealercardValues[1] == 1 && dealercardValues[0]==10)){\n                dealerCounter = 21;\n                isBlackForDealer = true;\n                loosedPlayer = true;\n                loosedDealer = false;\n                gameFinished = true;\n                payment = 1;\n                finishTheGame();\n\n        }\n        string memory suitNumber11 = suits[randomSuit11];\n        string memory suitNumber22 = suits[randomSuit22];\n\n        string memory card1 = createUrlForUI(string.concat(rankNumber11,suitNumber11));\n        string memory card2 = createUrlForUI(string.concat(rankNumber22,suitNumber22));\n\n        dealerCardsUrls.push(card1);\n        dealerCardsUrls.push(card2);\n\n        sumOfCardsDealer();\n        emit returnDealerUrls( dealerCardsUrls);\n    }\n\n    event showNumberOfPlayers(uint);\n    function showTotalNumOfPlayers() public{\n        emit showNumberOfPlayers(numberOfPlayers);\n    }\n   \n   event showPlayerCardPics(string[]);\n    //* The function add to the player a new random card\n    function getRandomCardValueToPlayer() public returns(string[] memory) {\n        string memory rankNumber = ranks[getRandomRank(1)];\n        string memory suitNumber = suits[getRandomSuit(1)];\n        string memory card = createUrlForUI(string.concat(rankNumber,suitNumber));\n        uint  cardVal = getRankNum(rankNumber);\n        playerCardValues.push(cardVal);\n        playerCardsUrls.push(card);\n        emit showPlayerCardPics(playerCardsUrls);\n        sumOfCardsPlayer();\n        \n        \n        if(playerCounter > 21){\n            loosedPlayer = true;\n            loosedDealer = false;\n            gameFinished = true;\n            payment = 0;\n            finishTheGame();\n            \n        }\n    }\n\n    event showDealerCardPics(string[]);\n    //* The function adds to the dealer cards while he arrives to 17 or more\n    function dealerCardDistributer() public returns(string[] memory){\n        uint count = 0; \n        while(dealerCounter < 17){\n            getRandomCardValueToDealer(count);\n            count ++;            \n        }\n        canTakeNewCardDealer = false;\n        gameFinished = true;\n        emit showDealerCardPics(dealerCardsUrls);\n        finishTheGame();        \n    }\n\n    //* The function add to the dealer a new random card\n    function getRandomCardValueToDealer(uint val) public {\n        \n        string memory rankNumber = ranks[getRandomRank(val)];\n        string memory suitNumber = suits[getRandomSuit(val)];\n        string memory card = string.concat(rankNumber,suitNumber);\n        string memory card1 = createUrlForUI(card);\n        dealercardValues.push(getRankNum(rankNumber));\n        dealerCardsUrls.push(card1);\n        sumOfCardsDealer();\n         if(dealerCounter > 21){\n            loosedDealer = true;\n            loosedPlayer = false;\n            payment = 1;\n        }\n    }\n\n    //* The function gets a random number from 0 to 12\n    function getRandomRank(uint val) public view returns (uint256) {\n        uint256 _randomNumber = uint256(keccak256(abi.encodePacked(block.timestamp+val, block.difficulty))) % 13; // Generate random number between 0 to 12\n        return (_randomNumber); \n    }\n\n    //* The function get a random number from 0 to 3\n    function getRandomSuit(uint val) public view returns (uint256) {\n        uint256 _randomNumber = uint256(keccak256(abi.encodePacked(block.timestamp+1, block.difficulty))) % 4; // Generate random number between 0 to 12\n        return (_randomNumber); \n    }\n\n\n\n    // The function gets the rank (string - first value) of a certain card in the deck and returns the number of card\n    function getRankNum(string memory rank) internal pure returns (uint){\n        if(compareStrings(rank,\"A\")){\n            return 1;\n        }\n        if( compareStrings(rank,\"0\") || compareStrings(rank,\"J\") || compareStrings(rank,\"Q\") || compareStrings(rank, \"K\" )){\n            return 10;\n        }\n        else{\n            return stringToUint(rank);\n        }\n    }\n\n    function finishGiveCard() external{\n        canTakeNewCardPlayer = false;\n        canTakeNewCardDealer = true;\n        dealerCardDistributer();\n    }\n    \n    string dt = \"\";\n    event returnResultData(string);\n    // The function returns if the player won or lost\n    function finishTheGame() public returns(string memory){\n        delete playerCardValues;\n        delete playerCardsUrls;\n        delete dealercardValues;\n        delete dealerCardsUrls;\n        if(playerCounter > 21){\n            loosedDealer = false;\n            loosedPlayer = true;\n            payment = 1;\n            dt = \"LOSE!!!\";\n            won.push(resultOfGame(playerAddress, false, 0));\n\n            // contribute();\n        }\n        else if(dealerCounter > 21){\n            loosedDealer = false;\n            loosedPlayer = true;\n            payment = 2;\n            dt = \"WIN!!!\";\n            won.push(resultOfGame(playerAddress, true, paymentSum*payment));\n            // contribute();\n            withdrawAmount(paymentSum*payment);\n        }\n        else if(dealerCounter == playerCounter){\n            loosedDealer = false;\n            loosedPlayer = false;\n            payment = 1;\n            dt = \"PUSH!!\"; \n            // transferFunds(playerAddress,paymentSum);\n            withdrawAmount(paymentSum*payment);\n        }\n        else if((dealerCounter > playerCounter) && dealerCounter <= 21){\n            loosedDealer = false;\n            loosedPlayer = true;\n            payment = 1;\n            dt = \"LOSE!!!\";\n            won.push(resultOfGame(playerAddress, false, 0));\n            // contribute();\n        }else if((dealerCounter > playerCounter) && dealerCounter > 21){\n            loosedDealer = false;\n            loosedPlayer = true;\n            payment = 2;\n            won.push(resultOfGame(playerAddress, true, paymentSum*payment));\n            dt = \"WIN!!!\";\n            // contribute();\n            withdrawAmount(paymentSum*payment);\n        }\n        else if((dealerCounter < playerCounter) && playerCounter < 21 ){\n            loosedDealer = true;\n            loosedPlayer = false;\n            payment = 2;   \n            won.push(resultOfGame(playerAddress, true, paymentSum*payment));\n         \n            dt = \"WIN!!!\";\n            // transferFunds(playerAddress,paymentSum*payment);\n            withdrawAmount(paymentSum*payment);\n        }\n         else if((dealerCounter > playerCounter) && dealerCounter == 21 ){\n            loosedDealer = false;\n            loosedPlayer = true;\n            payment = 1;\n             won.push(resultOfGame(playerAddress, false, 0));\n            dt = \"LOSE!!!\";\n            // contribute();\n        }else if((dealerCounter < playerCounter) && playerCounter == 21 ){\n            loosedDealer = true;\n            loosedPlayer = false;\n            payment = 3;\n            won.push(resultOfGame(playerAddress, true, paymentSum*payment));\n\n            dt = \"WIN!!!\";\n            // transferFunds(playerAddress,paymentSum*payment);\n            withdrawAmount(paymentSum*payment);\n\n        }\n        emit returnResultData(dt);\n      \n    }\n\n    string d = \"hello\";\n    event returnData(string);\n\n    function calculatePercentageOfWin() public{\n        d = \"HELLO WORLD\";\n        uint _percent = 0; \n        uint playerWon = 0;\n        uint numberOfGames = 0;\n        for(uint i = 0; i < won.length; i++){\n            numberOfGames ++;\n            if(won[i].res == true){\n                playerWon ++; \n            }\n        }\n        if(numberOfGames == 0){\n            _percent = 0;\n        }else{\n            _percent = playerWon / numberOfGames;\n        }\n\n        emit returnData(d);\n\n    }\n\n\n    function paymentToPlayer() public payable{\n        require(address(this).balance >= paymentSum*payment, \"Insufficient balance in the contract\");\n        payable (msg.sender).transfer(paymentSum * payment);\n    }\n\n    function transferFunds(address payable recipient, uint amount) public {\n        require(address(this).balance >= amount-100000000000000000, \"Insufficient balance in the contract\");\n        payable (recipient).transfer(amount);\n    }\n\n    function withdrawAmount(uint256 amount) public {\n         require(amount>10,'');\n         payable (msg.sender).transfer(amount); \n     }\n\n    function contribute() public payable{\n        balance += msg.value;\n    }\n\n}\n",
  "sourcePath": "/Users/gabrielnakache/Desktop/Solidity Project/js1-app-code/contracts/Blackjack.sol",
  "compiler": {
    "name": "solc",
    "version": "0.8.17+commit.8df45f5f.Emscripten.clang"
  },
  "schemaVersion": "3.4.11",
  "updatedAt": "2023-04-18T16:47:21.096Z",
  "networkType": "ethereum",
  "devdoc": {
    "kind": "dev",
    "methods": {},
    "version": 1
  },
  "userdoc": {
    "kind": "user",
    "methods": {},
    "version": 1
  }
}