{
  "contractName": "Blackjack",
  "abi": [
    {
      "inputs": [],
      "stateMutability": "nonpayable",
      "type": "constructor"
    },
    {
      "anonymous": false,
      "inputs": [
        {
          "indexed": false,
          "internalType": "uint256",
          "name": "playerBalance",
          "type": "uint256"
        }
      ],
      "name": "initBalance",
      "type": "event"
    },
    {
      "anonymous": false,
      "inputs": [
        {
          "indexed": false,
          "internalType": "bool",
          "name": "balanceChecker",
          "type": "bool"
        }
      ],
      "name": "initchecker",
      "type": "event"
    },
    {
      "anonymous": false,
      "inputs": [
        {
          "indexed": false,
          "internalType": "bool",
          "name": "",
          "type": "bool"
        },
        {
          "indexed": false,
          "internalType": "uint256",
          "name": "",
          "type": "uint256"
        }
      ],
      "name": "inpuchecker",
      "type": "event"
    },
    {
      "anonymous": false,
      "inputs": [
        {
          "indexed": false,
          "internalType": "uint256[]",
          "name": "",
          "type": "uint256[]"
        }
      ],
      "name": "returnDealerCardvale",
      "type": "event"
    },
    {
      "anonymous": false,
      "inputs": [
        {
          "indexed": false,
          "internalType": "uint256",
          "name": "",
          "type": "uint256"
        }
      ],
      "name": "returnDealerCounter",
      "type": "event"
    },
    {
      "anonymous": false,
      "inputs": [
        {
          "indexed": false,
          "internalType": "string[]",
          "name": "",
          "type": "string[]"
        }
      ],
      "name": "returnDealerUrls",
      "type": "event"
    },
    {
      "anonymous": false,
      "inputs": [
        {
          "indexed": false,
          "internalType": "uint256[]",
          "name": "",
          "type": "uint256[]"
        }
      ],
      "name": "returnPlayerCardvale",
      "type": "event"
    },
    {
      "anonymous": false,
      "inputs": [
        {
          "indexed": false,
          "internalType": "uint256",
          "name": "",
          "type": "uint256"
        }
      ],
      "name": "returnPlayerCounter",
      "type": "event"
    },
    {
      "anonymous": false,
      "inputs": [
        {
          "indexed": false,
          "internalType": "string[]",
          "name": "",
          "type": "string[]"
        }
      ],
      "name": "returnPlayerUrls",
      "type": "event"
    },
    {
      "anonymous": false,
      "inputs": [
        {
          "indexed": false,
          "internalType": "string",
          "name": "",
          "type": "string"
        }
      ],
      "name": "returnResultData",
      "type": "event"
    },
    {
      "anonymous": false,
      "inputs": [
        {
          "indexed": false,
          "internalType": "string[]",
          "name": "",
          "type": "string[]"
        }
      ],
      "name": "showDealerCardPics",
      "type": "event"
    },
    {
      "anonymous": false,
      "inputs": [
        {
          "indexed": false,
          "internalType": "string[]",
          "name": "",
          "type": "string[]"
        }
      ],
      "name": "showPlayerCardPics",
      "type": "event"
    },
    {
      "inputs": [],
      "name": "balance",
      "outputs": [
        {
          "internalType": "uint256",
          "name": "",
          "type": "uint256"
        }
      ],
      "stateMutability": "view",
      "type": "function",
      "constant": true
    },
    {
      "inputs": [],
      "name": "balanceChecker",
      "outputs": [
        {
          "internalType": "bool",
          "name": "",
          "type": "bool"
        }
      ],
      "stateMutability": "view",
      "type": "function",
      "constant": true
    },
    {
      "inputs": [],
      "name": "inputChecked",
      "outputs": [
        {
          "internalType": "bool",
          "name": "",
          "type": "bool"
        }
      ],
      "stateMutability": "view",
      "type": "function",
      "constant": true
    },
    {
      "inputs": [],
      "name": "owner",
      "outputs": [
        {
          "internalType": "address",
          "name": "",
          "type": "address"
        }
      ],
      "stateMutability": "view",
      "type": "function",
      "constant": true
    },
    {
      "inputs": [],
      "name": "playerAddress",
      "outputs": [
        {
          "internalType": "address payable",
          "name": "",
          "type": "address"
        }
      ],
      "stateMutability": "view",
      "type": "function",
      "constant": true
    },
    {
      "inputs": [],
      "name": "playerBalance",
      "outputs": [
        {
          "internalType": "uint256",
          "name": "",
          "type": "uint256"
        }
      ],
      "stateMutability": "view",
      "type": "function",
      "constant": true
    },
    {
      "inputs": [],
      "name": "startGame",
      "outputs": [],
      "stateMutability": "nonpayable",
      "type": "function"
    },
    {
      "inputs": [
        {
          "internalType": "address",
          "name": "newOwner",
          "type": "address"
        }
      ],
      "name": "transferOwnerShip",
      "outputs": [],
      "stateMutability": "nonpayable",
      "type": "function"
    },
    {
      "inputs": [
        {
          "internalType": "address payable",
          "name": "addrs",
          "type": "address"
        }
      ],
      "name": "getBalance",
      "outputs": [
        {
          "internalType": "uint256",
          "name": "",
          "type": "uint256"
        }
      ],
      "stateMutability": "nonpayable",
      "type": "function"
    },
    {
      "inputs": [
        {
          "internalType": "uint256",
          "name": "bal",
          "type": "uint256"
        }
      ],
      "name": "checkBalance",
      "outputs": [
        {
          "internalType": "bool",
          "name": "",
          "type": "bool"
        }
      ],
      "stateMutability": "nonpayable",
      "type": "function"
    },
    {
      "inputs": [
        {
          "internalType": "uint256",
          "name": "bal",
          "type": "uint256"
        },
        {
          "internalType": "uint256",
          "name": "input",
          "type": "uint256"
        }
      ],
      "name": "checkInput",
      "outputs": [
        {
          "internalType": "bool",
          "name": "",
          "type": "bool"
        },
        {
          "internalType": "uint256",
          "name": "",
          "type": "uint256"
        }
      ],
      "stateMutability": "nonpayable",
      "type": "function"
    },
    {
      "inputs": [
        {
          "internalType": "string",
          "name": "a",
          "type": "string"
        },
        {
          "internalType": "string",
          "name": "b",
          "type": "string"
        }
      ],
      "name": "compareStrings",
      "outputs": [
        {
          "internalType": "bool",
          "name": "",
          "type": "bool"
        }
      ],
      "stateMutability": "pure",
      "type": "function",
      "constant": true
    },
    {
      "inputs": [
        {
          "internalType": "string",
          "name": "s",
          "type": "string"
        }
      ],
      "name": "stringToUint",
      "outputs": [
        {
          "internalType": "uint256",
          "name": "",
          "type": "uint256"
        }
      ],
      "stateMutability": "pure",
      "type": "function",
      "constant": true
    },
    {
      "inputs": [
        {
          "internalType": "string",
          "name": "card",
          "type": "string"
        }
      ],
      "name": "createUrlForUI",
      "outputs": [
        {
          "internalType": "string",
          "name": "",
          "type": "string"
        }
      ],
      "stateMutability": "pure",
      "type": "function",
      "constant": true
    },
    {
      "inputs": [],
      "name": "showPlayerCardvalue",
      "outputs": [
        {
          "internalType": "uint256[]",
          "name": "",
          "type": "uint256[]"
        }
      ],
      "stateMutability": "nonpayable",
      "type": "function"
    },
    {
      "inputs": [],
      "name": "showPlayerCardUrls",
      "outputs": [
        {
          "internalType": "string[]",
          "name": "",
          "type": "string[]"
        }
      ],
      "stateMutability": "view",
      "type": "function",
      "constant": true
    },
    {
      "inputs": [],
      "name": "showDealerCardvalue",
      "outputs": [
        {
          "internalType": "uint256[]",
          "name": "",
          "type": "uint256[]"
        }
      ],
      "stateMutability": "nonpayable",
      "type": "function"
    },
    {
      "inputs": [],
      "name": "showDealerCardUrls",
      "outputs": [
        {
          "internalType": "string[]",
          "name": "",
          "type": "string[]"
        }
      ],
      "stateMutability": "view",
      "type": "function",
      "constant": true
    },
    {
      "inputs": [],
      "name": "givetwoCardsToPlayer",
      "outputs": [],
      "stateMutability": "nonpayable",
      "type": "function"
    },
    {
      "inputs": [],
      "name": "givetwoCardsToDealer",
      "outputs": [],
      "stateMutability": "nonpayable",
      "type": "function"
    },
    {
      "inputs": [],
      "name": "showDealerCounter",
      "outputs": [
        {
          "internalType": "uint256",
          "name": "",
          "type": "uint256"
        }
      ],
      "stateMutability": "nonpayable",
      "type": "function"
    },
    {
      "inputs": [],
      "name": "showPlayerCounter",
      "outputs": [
        {
          "internalType": "uint256",
          "name": "",
          "type": "uint256"
        }
      ],
      "stateMutability": "nonpayable",
      "type": "function"
    },
    {
      "inputs": [],
      "name": "sumOfCardsPlayer",
      "outputs": [],
      "stateMutability": "nonpayable",
      "type": "function"
    },
    {
      "inputs": [],
      "name": "sumOfCardsDealer",
      "outputs": [],
      "stateMutability": "nonpayable",
      "type": "function"
    },
    {
      "inputs": [
        {
          "internalType": "uint256",
          "name": "num",
          "type": "uint256"
        }
      ],
      "name": "checkValue",
      "outputs": [
        {
          "internalType": "uint256",
          "name": "",
          "type": "uint256"
        }
      ],
      "stateMutability": "pure",
      "type": "function",
      "constant": true
    },
    {
      "inputs": [],
      "name": "generateTwoRandomNumbersToPlayer",
      "outputs": [
        {
          "internalType": "string[]",
          "name": "",
          "type": "string[]"
        }
      ],
      "stateMutability": "nonpayable",
      "type": "function"
    },
    {
      "inputs": [],
      "name": "generateTwoRandomNumbersToDealer",
      "outputs": [
        {
          "internalType": "string[]",
          "name": "",
          "type": "string[]"
        }
      ],
      "stateMutability": "nonpayable",
      "type": "function"
    },
    {
      "inputs": [],
      "name": "getRandomCardValueToPlayer",
      "outputs": [
        {
          "internalType": "string[]",
          "name": "",
          "type": "string[]"
        }
      ],
      "stateMutability": "nonpayable",
      "type": "function"
    },
    {
      "inputs": [],
      "name": "dealerCardDistributer",
      "outputs": [
        {
          "internalType": "string[]",
          "name": "",
          "type": "string[]"
        }
      ],
      "stateMutability": "nonpayable",
      "type": "function"
    },
    {
      "inputs": [
        {
          "internalType": "uint256",
          "name": "val",
          "type": "uint256"
        }
      ],
      "name": "getRandomCardValueToDealer",
      "outputs": [],
      "stateMutability": "nonpayable",
      "type": "function"
    },
    {
      "inputs": [
        {
          "internalType": "uint256",
          "name": "val",
          "type": "uint256"
        }
      ],
      "name": "getRandomRank",
      "outputs": [
        {
          "internalType": "uint256",
          "name": "",
          "type": "uint256"
        }
      ],
      "stateMutability": "view",
      "type": "function",
      "constant": true
    },
    {
      "inputs": [
        {
          "internalType": "uint256",
          "name": "val",
          "type": "uint256"
        }
      ],
      "name": "getRandomSuit",
      "outputs": [
        {
          "internalType": "uint256",
          "name": "",
          "type": "uint256"
        }
      ],
      "stateMutability": "view",
      "type": "function",
      "constant": true
    },
    {
      "inputs": [],
      "name": "finishGiveCard",
      "outputs": [],
      "stateMutability": "nonpayable",
      "type": "function"
    },
    {
      "inputs": [],
      "name": "finishTheGame",
      "outputs": [
        {
          "internalType": "string",
          "name": "",
          "type": "string"
        }
      ],
      "stateMutability": "nonpayable",
      "type": "function"
    },
    {
      "inputs": [],
      "name": "paymentToPlayer",
      "outputs": [],
      "stateMutability": "payable",
      "type": "function",
      "payable": true
    },
    {
      "inputs": [
        {
          "internalType": "address payable",
          "name": "recipient",
          "type": "address"
        },
        {
          "internalType": "uint256",
          "name": "amount",
          "type": "uint256"
        }
      ],
      "name": "transferFunds",
      "outputs": [],
      "stateMutability": "nonpayable",
      "type": "function"
    },
    {
      "inputs": [
        {
          "internalType": "uint256",
          "name": "amount",
          "type": "uint256"
        }
      ],
      "name": "withdrawAmount",
      "outputs": [],
      "stateMutability": "nonpayable",
      "type": "function"
    },
    {
      "inputs": [],
      "name": "contribute",
      "outputs": [],
      "stateMutability": "payable",
      "type": "function",
      "payable": true
    }
  ],
  "bytecode": "0x6080604052678ac7230489e80000600255662386f26fc10000600355670de0b6b3a764000060045560405180608001604052806040518060400160405280600181526020017f480000000000000000000000000000000000000000000000000000000000000081525081526020016040518060400160405280600181526020017f530000000000000000000000000000000000000000000000000000000000000081525081526020016040518060400160405280600181526020017f440000000000000000000000000000000000000000000000000000000000000081525081526020016040518060400160405280600181526020017f430000000000000000000000000000000000000000000000000000000000000081525081525060059060046200012e929190620005d5565b50604051806101a001604052806040518060400160405280600181526020017f410000000000000000000000000000000000000000000000000000000000000081525081526020016040518060400160405280600181526020017f320000000000000000000000000000000000000000000000000000000000000081525081526020016040518060400160405280600181526020017f330000000000000000000000000000000000000000000000000000000000000081525081526020016040518060400160405280600181526020017f340000000000000000000000000000000000000000000000000000000000000081525081526020016040518060400160405280600181526020017f350000000000000000000000000000000000000000000000000000000000000081525081526020016040518060400160405280600181526020017f360000000000000000000000000000000000000000000000000000000000000081525081526020016040518060400160405280600181526020017f370000000000000000000000000000000000000000000000000000000000000081525081526020016040518060400160405280600181526020017f380000000000000000000000000000000000000000000000000000000000000081525081526020016040518060400160405280600181526020017f390000000000000000000000000000000000000000000000000000000000000081525081526020016040518060400160405280600181526020017f300000000000000000000000000000000000000000000000000000000000000081525081526020016040518060400160405280600181526020017f4a0000000000000000000000000000000000000000000000000000000000000081525081526020016040518060400160405280600181526020017f510000000000000000000000000000000000000000000000000000000000000081525081526020016040518060400160405280600181526020017f4b00000000000000000000000000000000000000000000000000000000000000815250815250600690600d6200044a92919062000635565b506000600b60006101000a81548160ff0219169083151502179055506000600b60016101000a81548160ff0219169083151502179055506000600b60026101000a81548160ff0219169083151502179055506001600b60046101000a81548160ff0219169083151502179055506000600c556000600d556000600e60006101000a81548160ff0219169083151502179055506000600e60016101000a81548160ff0219169083151502179055506001600e60026101000a81548160ff0219169083151502179055506000600e60036101000a81548160ff0219169083151502179055506000600e60046101000a81548160ff0219169083151502179055506001600f556000601055600060125560405180602001604052806000815250601390816200057791906200099c565b503480156200058557600080fd5b5033600160006101000a81548173ffffffffffffffffffffffffffffffffffffffff021916908373ffffffffffffffffffffffffffffffffffffffff160217905550600060118190555062000a83565b82805482825590600052602060002090810192821562000622579160200282015b82811115620006215782518290816200061091906200099c565b5091602001919060010190620005f6565b5b50905062000631919062000695565b5090565b82805482825590600052602060002090810192821562000682579160200282015b82811115620006815782518290816200067091906200099c565b509160200191906001019062000656565b5b50905062000691919062000695565b5090565b5b80821115620006b95760008181620006af9190620006bd565b5060010162000696565b5090565b508054620006cb906200078b565b6000825580601f10620006df575062000700565b601f016020900490600052602060002090810190620006ff919062000703565b5b50565b5b808211156200071e57600081600090555060010162000704565b5090565b600081519050919050565b7f4e487b7100000000000000000000000000000000000000000000000000000000600052604160045260246000fd5b7f4e487b7100000000000000000000000000000000000000000000000000000000600052602260045260246000fd5b60006002820490506001821680620007a457607f821691505b602082108103620007ba57620007b96200075c565b5b50919050565b60008190508160005260206000209050919050565b60006020601f8301049050919050565b600082821b905092915050565b600060088302620008247fffffffffffffffffffffffffffffffffffffffffffffffffffffffffffffffff82620007e5565b620008308683620007e5565b95508019841693508086168417925050509392505050565b6000819050919050565b6000819050919050565b60006200087d62000877620008718462000848565b62000852565b62000848565b9050919050565b6000819050919050565b62000899836200085c565b620008b1620008a88262000884565b848454620007f2565b825550505050565b600090565b620008c8620008b9565b620008d58184846200088e565b505050565b5b81811015620008fd57620008f1600082620008be565b600181019050620008db565b5050565b601f8211156200094c576200091681620007c0565b6200092184620007d5565b8101602085101562000931578190505b620009496200094085620007d5565b830182620008da565b50505b505050565b600082821c905092915050565b6000620009716000198460080262000951565b1980831691505092915050565b60006200098c83836200095e565b9150826002028217905092915050565b620009a78262000722565b67ffffffffffffffff811115620009c357620009c26200072d565b5b620009cf82546200078b565b620009dc82828562000901565b600060209050601f83116001811462000a145760008415620009ff578287015190505b62000a0b85826200097e565b86555062000a7b565b601f19841662000a2486620007c0565b60005b8281101562000a4e5784890151825560018201915060208501945060208101905062000a27565b8683101562000a6e578489015162000a6a601f8916826200095e565b8355505b6001600288020188555050505b505050505050565b6142328062000a936000396000f3fe6080604052600436106102255760003560e01c806388eb3a3711610123578063bed34bba116100ab578063ddaabf6b1161006f578063ddaabf6b14610786578063e07c5445146107af578063ecd65c0f146107da578063f8b2cb4f14610805578063fec3e7051461084257610225565b8063bed34bba146106e6578063c16fe1ef14610723578063d0498cdb1461073a578063d65ab5f214610765578063d7bb99ba1461077c57610225565b80638ec4ebd7116100f25780638ec4ebd714610611578063990dc9db1461063c5780639d8c6cfb14610665578063a146bf7a14610690578063b69ef8a8146106bb57610225565b806388eb3a37146105655780638c171a09146105905780638da5cb5b146105bb5780638e3411b3146105e657610225565b806328440b47116101b1578063651f066a11610175578063651f066a1461046c57806373b9863d14610497578063750e71a9146104c25780637f286286146104ff5780638863dd1a1461053c57610225565b806328440b4714610391578063515d1a86146103bc57806351e488b5146103fa578063545e0dde1461040457806363a20a821461042f57610225565b806318db62fb116101f857806318db62fb146102ac5780631bd95155146102e95780631cd7e64b146103265780631dec98bf1461033d57806323820caa1461037a57610225565b8063051551381461022a5780630562b9f714610241578063090e15d61461026a57806313c43ab014610281575b600080fd5b34801561023657600080fd5b5061023f61086d565b005b34801561024d57600080fd5b50610268600480360381019061026391906130af565b6108d8565b005b34801561027657600080fd5b5061027f610965565b005b34801561028d57600080fd5b50610296610970565b6040516102a391906130f7565b60405180910390f35b3480156102b857600080fd5b506102d360048036038101906102ce91906130af565b610983565b6040516102e09190613121565b60405180910390f35b3480156102f557600080fd5b50610310600480360381019061030b9190613282565b61099f565b60405161031d9190613121565b60405180910390f35b34801561033257600080fd5b5061033b610a37565b005b34801561034957600080fd5b50610364600480360381019061035f91906130af565b610a78565b6040516103719190613121565b60405180910390f35b34801561038657600080fd5b5061038f610ac9565b005b34801561039d57600080fd5b506103a6610ad4565b6040516103b3919061340c565b60405180910390f35b3480156103c857600080fd5b506103e360048036038101906103de919061342e565b611139565b6040516103f192919061346e565b60405180910390f35b61040261120d565b005b34801561041057600080fd5b506104196112b7565b6040516104269190613121565b60405180910390f35b34801561043b57600080fd5b5061045660048036038101906104519190613282565b6112f5565b60405161046391906134e1565b60405180910390f35b34801561047857600080fd5b50610481611381565b60405161048e9190613121565b60405180910390f35b3480156104a357600080fd5b506104ac611387565b6040516104b9919061340c565b60405180910390f35b3480156104ce57600080fd5b506104e960048036038101906104e491906130af565b6119e0565b6040516104f69190613121565b60405180910390f35b34801561050b57600080fd5b50610526600480360381019061052191906130af565b611a32565b60405161053391906130f7565b60405180910390f35b34801561054857600080fd5b50610563600480360381019061055e9190613561565b611ad6565b005b34801561057157600080fd5b5061057a611baa565b604051610587919061364c565b60405180910390f35b34801561059c57600080fd5b506105a5611be7565b6040516105b2919061340c565b60405180910390f35b3480156105c757600080fd5b506105d0611c8e565b6040516105dd919061367d565b60405180910390f35b3480156105f257600080fd5b506105fb611cb4565b604051610608919061340c565b60405180910390f35b34801561061d57600080fd5b50610626611d8d565b604051610633919061364c565b60405180910390f35b34801561064857600080fd5b50610663600480360381019061065e91906136d6565b611dca565b005b34801561067157600080fd5b5061067a611e6b565b60405161068791906130f7565b60405180910390f35b34801561069c57600080fd5b506106a5611e7e565b6040516106b29190613725565b60405180910390f35b3480156106c757600080fd5b506106d0611ea2565b6040516106dd9190613121565b60405180910390f35b3480156106f257600080fd5b5061070d60048036038101906107089190613740565b611ea8565b60405161071a91906130f7565b60405180910390f35b34801561072f57600080fd5b50610738611f01565b005b34801561074657600080fd5b5061074f611f6c565b60405161075c9190613121565b60405180910390f35b34801561077157600080fd5b5061077a611faa565b005b610784612147565b005b34801561079257600080fd5b506107ad60048036038101906107a891906130af565b612162565b005b3480156107bb57600080fd5b506107c46123ba565b6040516107d1919061340c565b60405180910390f35b3480156107e657600080fd5b506107ef612672565b6040516107fc919061340c565b60405180910390f35b34801561081157600080fd5b5061082c600480360381019061082791906137b8565b61274b565b6040516108399190613121565b60405180910390f35b34801561084e57600080fd5b50610857612843565b60405161086491906134e1565b60405180910390f35b600060098054905090506000600d8190555060005b818110156108d4576009818154811061089e5761089d6137e5565b5b9060005260206000200154600d60008282546108ba9190613843565b9250508190555080806108cc90613877565b915050610882565b5050565b600a811161091b576040517f08c379a0000000000000000000000000000000000000000000000000000000008152600401610912906138e5565b60405180910390fd5b3373ffffffffffffffffffffffffffffffffffffffff166108fc829081150290604051600060405180830381858888f19350505050158015610961573d6000803e3d6000fd5b5050565b61096d610ad4565b50565b600b60049054906101000a900460ff1681565b60006009821061099657600a905061099a565b8190505b919050565b6000808290506000805b8251811015610a2c5760008382815181106109c7576109c66137e5565b5b602001015160f81c60f81b60f81c60ff169050603081101580156109ec575060398111155b15610a18576030816109fe9190613905565b600a84610a0b9190613939565b610a159190613843565b92505b508080610a2490613877565b9150506109a9565b508092505050919050565b6000600e60026101000a81548160ff0219169083151502179055506001600e60036101000a81548160ff021916908315150217905550610a75611be7565b50565b600080600d8342610a899190613843565b44604051602001610a9b92919061399c565b6040516020818303038152906040528051906020012060001c610abe91906139f7565b905080915050919050565b610ad1611387565b50565b60606000600d4244604051602001610aed92919061399c565b6040516020818303038152906040528051906020012060001c610b1091906139f7565b90506000600d4543604051602001610b2992919061399c565b6040516020818303038152906040528051906020012060001c610b4c91906139f7565b9050600060044244604051602001610b6592919061399c565b6040516020818303038152906040528051906020012060001c610b8891906139f7565b9050600060044543604051602001610ba192919061399c565b6040516020818303038152906040528051906020012060001c610bc491906139f7565b9050600060068581548110610bdc57610bdb6137e5565b5b906000526020600020018054610bf190613a57565b80601f0160208091040260200160405190810160405280929190818152602001828054610c1d90613a57565b8015610c6a5780601f10610c3f57610100808354040283529160200191610c6a565b820191906000526020600020905b815481529060010190602001808311610c4d57829003601f168201915b50505050509050600060068581548110610c8757610c866137e5565b5b906000526020600020018054610c9c90613a57565b80601f0160208091040260200160405190810160405280929190818152602001828054610cc890613a57565b8015610d155780601f10610cea57610100808354040283529160200191610d15565b820191906000526020600020905b815481529060010190602001808311610cf857829003601f168201915b505050505090506007610d33600188610d2e9190613843565b610983565b90806001815401808255809150506001900390600052602060002001600090919091909150556007610d70600187610d6b9190613843565b610983565b908060018154018082558091505060019003906000526020600020016000909190919091505560016007600081548110610dad57610dac6137e5565b5b9060005260206000200154148015610de45750600a6007600181548110610dd757610dd66137e5565b5b9060005260206000200154145b80610e39575060016007600181548110610e0157610e006137e5565b5b9060005260206000200154148015610e385750600a6007600081548110610e2b57610e2a6137e5565b5b9060005260206000200154145b5b15610ed0576015600c819055506001600b60006101000a81548160ff0219169083151502179055506000600e60006101000a81548160ff0219169083151502179055506001600e60016101000a81548160ff0219169083151502179055506001600e60046101000a81548160ff02191690831515021790555060026003610ec09190613a88565b600f81905550610ece612843565b505b600060058581548110610ee657610ee56137e5565b5b906000526020600020018054610efb90613a57565b80601f0160208091040260200160405190810160405280929190818152602001828054610f2790613a57565b8015610f745780601f10610f4957610100808354040283529160200191610f74565b820191906000526020600020905b815481529060010190602001808311610f5757829003601f168201915b50505050509050600060058581548110610f9157610f906137e5565b5b906000526020600020018054610fa690613a57565b80601f0160208091040260200160405190810160405280929190818152602001828054610fd290613a57565b801561101f5780601f10610ff45761010080835404028352916020019161101f565b820191906000526020600020905b81548152906001019060200180831161100257829003601f168201915b505050505090506000611052858460405160200161103e929190613af5565b6040516020818303038152906040526112f5565b90506000611080858460405160200161106c929190613af5565b6040516020818303038152906040526112f5565b90506008829080600181540180825580915050600190039060005260206000200160009091909190915090816110b69190613cc5565b506008819080600181540180825580915050600190039060005260206000200160009091909190915090816110eb9190613cc5565b506110f4611f01565b7fc1dd89cc519a8102cf60e6197f8ef3266a2a5b602e8bedf695c3d3bd1538768160086040516111249190613ed0565b60405180910390a15050505050505050505090565b60008083601281905550600354831080611154575060045483115b15611175576000600b60046101000a81548160ff0219169083151502179055505b600354831015801561118957506004548311155b801561119457508383105b156111bc576001600b60046101000a81548160ff021916908315150217905550826010819055505b7f4ca72dc07e5725011e0c0b68ae0495e7ac5aa4e0ba0eec02320617d8d4538e13600b60049054906101000a900460ff166010546040516111fe92919061346e565b60405180910390a19250929050565b600f5460105461121d9190613939565b47101561125f576040517f08c379a000000000000000000000000000000000000000000000000000000000815260040161125690613f64565b60405180910390fd5b3373ffffffffffffffffffffffffffffffffffffffff166108fc600f546010546112899190613939565b9081150290604051600060405180830381858888f193505050501580156112b4573d6000803e3d6000fd5b50565b60007fd3de8fe4049059e1a238ed5eb6a43bea612fa85aebadca074de7b391fd6fc549600c546040516112ea9190613121565b60405180910390a190565b606060006040518060600160405280602681526020016141d760269139905060006040518060400160405280600481526020017f2e706e67000000000000000000000000000000000000000000000000000000008152509050600082858360405160200161136593929190613f84565b6040516020818303038152906040529050809350505050919050565b60125481565b60606000600d42446040516020016113a092919061399c565b6040516020818303038152906040528051906020012060001c6113c391906139f7565b90506000600d45436040516020016113dc92919061399c565b6040516020818303038152906040528051906020012060001c6113ff91906139f7565b905060006004424460405160200161141892919061399c565b6040516020818303038152906040528051906020012060001c61143b91906139f7565b905060006004454360405160200161145492919061399c565b6040516020818303038152906040528051906020012060001c61147791906139f7565b905060006006858154811061148f5761148e6137e5565b5b9060005260206000200180546114a490613a57565b80601f01602080910402602001604051908101604052809291908181526020018280546114d090613a57565b801561151d5780601f106114f25761010080835404028352916020019161151d565b820191906000526020600020905b81548152906001019060200180831161150057829003601f168201915b5050505050905060006006858154811061153a576115396137e5565b5b90600052602060002001805461154f90613a57565b80601f016020809104026020016040519081016040528092919081815260200182805461157b90613a57565b80156115c85780601f1061159d576101008083540402835291602001916115c8565b820191906000526020600020905b8154815290600101906020018083116115ab57829003601f168201915b5050505050905060096115e66001886115e19190613843565b610983565b9080600181540180825580915050600190039060005260206000200160009091909190915055600961162360018761161e9190613843565b610983565b9080600181540180825580915050600190039060005260206000200160009091909190915055600160096000815481106116605761165f6137e5565b5b90600052602060002001541480156116975750600a600960018154811061168a576116896137e5565b5b9060005260206000200154145b806116ec5750600160096001815481106116b4576116b36137e5565b5b90600052602060002001541480156116eb5750600a60096000815481106116de576116dd6137e5565b5b9060005260206000200154145b5b15611777576015600d819055506001600b60016101000a81548160ff0219169083151502179055506001600e60006101000a81548160ff0219169083151502179055506000600e60016101000a81548160ff0219169083151502179055506001600e60046101000a81548160ff0219169083151502179055506001600f81905550611775612843565b505b60006005858154811061178d5761178c6137e5565b5b9060005260206000200180546117a290613a57565b80601f01602080910402602001604051908101604052809291908181526020018280546117ce90613a57565b801561181b5780601f106117f05761010080835404028352916020019161181b565b820191906000526020600020905b8154815290600101906020018083116117fe57829003601f168201915b50505050509050600060058581548110611838576118376137e5565b5b90600052602060002001805461184d90613a57565b80601f016020809104026020016040519081016040528092919081815260200182805461187990613a57565b80156118c65780601f1061189b576101008083540402835291602001916118c6565b820191906000526020600020905b8154815290600101906020018083116118a957829003601f168201915b5050505050905060006118f985846040516020016118e5929190613af5565b6040516020818303038152906040526112f5565b905060006119278584604051602001611913929190613af5565b6040516020818303038152906040526112f5565b9050600a8290806001815401808255809150506001900390600052602060002001600090919091909150908161195d9190613cc5565b50600a819080600181540180825580915050600190039060005260206000200160009091909190915090816119929190613cc5565b5061199b61086d565b7fd6d0a7dd897167b23beb6a7ca35237073632569263cf60e176469f70ae939816600a6040516119cb9190613ed0565b60405180910390a15050505050505050505090565b60008060046001426119f29190613843565b44604051602001611a0492919061399c565b6040516020818303038152906040528051906020012060001c611a2791906139f7565b905080915050919050565b60006002548210611a5d576001600b60036101000a81548160ff021916908315150217905550611a79565b6000600b60036101000a81548160ff0219169083151502179055505b7fd8f0cc0ad1816c0b2e2a2c5e7304d307c87f495a82c92d9853d446abd884ea6b600b60039054906101000a900460ff16604051611ab791906130f7565b60405180910390a1600b60039054906101000a900460ff169050919050565b600160009054906101000a900473ffffffffffffffffffffffffffffffffffffffff1673ffffffffffffffffffffffffffffffffffffffff163373ffffffffffffffffffffffffffffffffffffffff1614611b66576040517f08c379a0000000000000000000000000000000000000000000000000000000008152600401611b5d90614001565b60405180910390fd5b80600160006101000a81548173ffffffffffffffffffffffffffffffffffffffff021916908373ffffffffffffffffffffffffffffffffffffffff16021790555050565b60607f219282380dc15795dfa77538b195e28a43b4088da4e95a379dfef0c6d6847d0d6007604051611bdc91906140f7565b60405180910390a190565b606060005b6011600d541015611c1357611c0081612162565b8080611c0b90613877565b915050611bec565b6000600e60036101000a81548160ff0219169083151502179055506001600e60046101000a81548160ff0219169083151502179055507f4c645466e5d563874cef3427ae622e2ad662823fcb5ea1fc2a32b3d9bec43a0f600a604051611c799190613ed0565b60405180910390a1611c89612843565b505090565b600160009054906101000a900473ffffffffffffffffffffffffffffffffffffffff1681565b6060600a805480602002602001604051908101604052809291908181526020016000905b82821015611d84578382906000526020600020018054611cf790613a57565b80601f0160208091040260200160405190810160405280929190818152602001828054611d2390613a57565b8015611d705780601f10611d4557610100808354040283529160200191611d70565b820191906000526020600020905b815481529060010190602001808311611d5357829003601f168201915b505050505081526020019060010190611cd8565b50505050905090565b60607f8a4ac2ad7712484078085d0b7c0465f2ddc2c7588c4bd163fd589c1b845418dd6009604051611dbf91906140f7565b60405180910390a190565b67016345785d8a000081611dde9190613905565b471015611e20576040517f08c379a0000000000000000000000000000000000000000000000000000000008152600401611e1790613f64565b60405180910390fd5b8173ffffffffffffffffffffffffffffffffffffffff166108fc829081150290604051600060405180830381858888f19350505050158015611e66573d6000803e3d6000fd5b505050565b600b60039054906101000a900460ff1681565b60008054906101000a900473ffffffffffffffffffffffffffffffffffffffff1681565b60115481565b600081604051602001611ebb9190614119565b6040516020818303038152906040528051906020012083604051602001611ee29190614119565b6040516020818303038152906040528051906020012014905092915050565b600060078054905090506000600c8190555060005b81811015611f685760078181548110611f3257611f316137e5565b5b9060005260206000200154600c6000828254611f4e9190613843565b925050819055508080611f6090613877565b915050611f16565b5050565b60007f3c30c7c52105d0a03501dcc192724ac4ae94ea3a2c8adba22084e331761d90b8600d54604051611f9f9190613121565b60405180910390a190565b611fb2610965565b611fba610ac9565b600b60019054906101000a900460ff168015611fe25750600b60009054906101000a900460ff165b15612039576001600b60026101000a81548160ff0219169083151502179055506000600e60006101000a81548160ff0219169083151502179055506000600e60016101000a81548160ff0219169083151502179055505b600b60019054906101000a900460ff168015612068575060001515600b60009054906101000a900460ff161515145b156120bf576001600b60026101000a81548160ff0219169083151502179055506000600e60016101000a81548160ff0219169083151502179055506001600e60006101000a81548160ff0219169083151502179055505b600b60009054906101000a900460ff1680156120ee575060001515600b60019054906101000a900460ff161515145b15612145576001600b60026101000a81548160ff0219169083151502179055506001600e60016101000a81548160ff0219169083151502179055506000600e60006101000a81548160ff0219169083151502179055505b565b34601160008282546121599190613843565b92505081905550565b6000600661216f83610a78565b815481106121805761217f6137e5565b5b90600052602060002001805461219590613a57565b80601f01602080910402602001604051908101604052809291908181526020018280546121c190613a57565b801561220e5780601f106121e35761010080835404028352916020019161220e565b820191906000526020600020905b8154815290600101906020018083116121f157829003601f168201915b5050505050905060006005612222846119e0565b81548110612233576122326137e5565b5b90600052602060002001805461224890613a57565b80601f016020809104026020016040519081016040528092919081815260200182805461227490613a57565b80156122c15780601f10612296576101008083540402835291602001916122c1565b820191906000526020600020905b8154815290600101906020018083116122a457829003601f168201915b50505050509050600082826040516020016122dd929190613af5565b604051602081830303815290604052905060006122f9826112f5565b9050600961230685612e23565b9080600181540180825580915050600190039060005260206000200160009091909190915055600a819080600181540180825580915050600190039060005260206000200160009091909190915090816123609190613cc5565b5061236961086d565b6015600d5411156123b3576001600e60016101000a81548160ff0219169083151502179055506000600e60006101000a81548160ff0219169083151502179055506001600f819055505b5050505050565b6060600060066123ca6001610a78565b815481106123db576123da6137e5565b5b9060005260206000200180546123f090613a57565b80601f016020809104026020016040519081016040528092919081815260200182805461241c90613a57565b80156124695780601f1061243e57610100808354040283529160200191612469565b820191906000526020600020905b81548152906001019060200180831161244c57829003601f168201915b505050505090506000600561247e60016119e0565b8154811061248f5761248e6137e5565b5b9060005260206000200180546124a490613a57565b80601f01602080910402602001604051908101604052809291908181526020018280546124d090613a57565b801561251d5780601f106124f25761010080835404028352916020019161251d565b820191906000526020600020905b81548152906001019060200180831161250057829003601f168201915b505050505090506000612550838360405160200161253c929190613af5565b6040516020818303038152906040526112f5565b9050600061255d84612e23565b905060078190806001815401808255809150506001900390600052602060002001600090919091909150556008829080600181540180825580915050600190039060005260206000200160009091909190915090816125bc9190613cc5565b507f7d6cae5bd13bcc94802f648594d55fef0f7be0c17fb3325f9fdcdaa9f832f98960086040516125ed9190613ed0565b60405180910390a16125fd611f01565b6015600c54111561266b576001600e60006101000a81548160ff0219169083151502179055506000600e60016101000a81548160ff0219169083151502179055506001600e60046101000a81548160ff0219169083151502179055506000600f81905550612669612843565b505b5050505090565b60606008805480602002602001604051908101604052809291908181526020016000905b828210156127425783829060005260206000200180546126b590613a57565b80601f01602080910402602001604051908101604052809291908181526020018280546126e190613a57565b801561272e5780601f106127035761010080835404028352916020019161272e565b820191906000526020600020905b81548152906001019060200180831161271157829003601f168201915b505050505081526020019060010190612696565b50505050905090565b6000816000806101000a81548173ffffffffffffffffffffffffffffffffffffffff021916908373ffffffffffffffffffffffffffffffffffffffff16021790555060008054906101000a900473ffffffffffffffffffffffffffffffffffffffff1673ffffffffffffffffffffffffffffffffffffffff16316012819055507fc6e2ac2344b72494ae5c6c59901ac6a72b498a598bf788b6503e60dba61f82506012546040516127fc9190613121565b60405180910390a160008054906101000a900473ffffffffffffffffffffffffffffffffffffffff1673ffffffffffffffffffffffffffffffffffffffff16319050919050565b6060600760006128539190612fa2565b600860006128619190612fc3565b6009600061286f9190612fa2565b600a600061287d9190612fc3565b6015600c541115612910576000600e60016101000a81548160ff0219169083151502179055506001600e60006101000a81548160ff0219169083151502179055506001600f819055506040518060400160405280600781526020017f4c4f5345212121000000000000000000000000000000000000000000000000008152506013908161290a9190613cc5565b50612de8565b6015600d5411156129bb576000600e60016101000a81548160ff0219169083151502179055506001600e60006101000a81548160ff0219169083151502179055506002600f819055506040518060400160405280600681526020017f57494e21212100000000000000000000000000000000000000000000000000008152506013908161299d9190613cc5565b506129b6600f546010546129b19190613939565b6108d8565b612de7565b600c54600d5403612a66576000600e60016101000a81548160ff0219169083151502179055506000600e60006101000a81548160ff0219169083151502179055506001600f819055506040518060400160405280600681526020017f505553482121000000000000000000000000000000000000000000000000000081525060139081612a489190613cc5565b50612a61600f54601054612a5c9190613939565b6108d8565b612de6565b600c54600d54118015612a7c57506015600d5411155b15612b09576000600e60016101000a81548160ff0219169083151502179055506001600e60006101000a81548160ff0219169083151502179055506001600f819055506040518060400160405280600781526020017f4c4f53452121210000000000000000000000000000000000000000000000000081525060139081612b039190613cc5565b50612de5565b600c54600d54118015612b1e57506015600d54115b15612bc3576000600e60016101000a81548160ff0219169083151502179055506001600e60006101000a81548160ff0219169083151502179055506002600f819055506040518060400160405280600681526020017f57494e212121000000000000000000000000000000000000000000000000000081525060139081612ba59190613cc5565b50612bbe600f54601054612bb99190613939565b6108d8565b612de4565b600c54600d54108015612bd857506015600c54105b15612c7d576001600e60016101000a81548160ff0219169083151502179055506000600e60006101000a81548160ff0219169083151502179055506002600f819055506040518060400160405280600681526020017f57494e212121000000000000000000000000000000000000000000000000000081525060139081612c5f9190613cc5565b50612c78600f54601054612c739190613939565b6108d8565b612de3565b600c54600d54118015612c9257506015600d54145b15612d1f576000600e60016101000a81548160ff0219169083151502179055506001600e60006101000a81548160ff0219169083151502179055506001600f819055506040518060400160405280600781526020017f4c4f53452121210000000000000000000000000000000000000000000000000081525060139081612d199190613cc5565b50612de2565b600c54600d54108015612d3457506015600c54145b15612de1576001600e60016101000a81548160ff0219169083151502179055506000600e60006101000a81548160ff02191690831515021790555060026005612d7d9190613a88565b600f819055506040518060400160405280600681526020017f57494e212121000000000000000000000000000000000000000000000000000081525060139081612dc79190613cc5565b50612de0600f54601054612ddb9190613939565b6108d8565b5b5b5b5b5b5b5b5b7fae867731ffefd6a37b56025a98b06b8cdd3242162fc1eb19cc855e175db6115a6013604051612e1891906141b4565b60405180910390a190565b6000612e64826040518060400160405280600181526020017f4100000000000000000000000000000000000000000000000000000000000000815250611ea8565b15612e725760019050612f9d565b612eb1826040518060400160405280600181526020017f3000000000000000000000000000000000000000000000000000000000000000815250611ea8565b80612ef75750612ef6826040518060400160405280600181526020017f4a00000000000000000000000000000000000000000000000000000000000000815250611ea8565b5b80612f3d5750612f3c826040518060400160405280600181526020017f5100000000000000000000000000000000000000000000000000000000000000815250611ea8565b5b80612f835750612f82826040518060400160405280600181526020017f4b00000000000000000000000000000000000000000000000000000000000000815250611ea8565b5b15612f9157600a9050612f9d565b612f9a8261099f565b90505b919050565b5080546000825590600052602060002090810190612fc09190612fe4565b50565b5080546000825590600052602060002090810190612fe19190613001565b50565b5b80821115612ffd576000816000905550600101612fe5565b5090565b5b8082111561302157600081816130189190613025565b50600101613002565b5090565b50805461303190613a57565b6000825580601f106130435750613062565b601f0160209004906000526020600020908101906130619190612fe4565b5b50565b6000604051905090565b600080fd5b600080fd5b6000819050919050565b61308c81613079565b811461309757600080fd5b50565b6000813590506130a981613083565b92915050565b6000602082840312156130c5576130c461306f565b5b60006130d38482850161309a565b91505092915050565b60008115159050919050565b6130f1816130dc565b82525050565b600060208201905061310c60008301846130e8565b92915050565b61311b81613079565b82525050565b60006020820190506131366000830184613112565b92915050565b600080fd5b600080fd5b6000601f19601f8301169050919050565b7f4e487b7100000000000000000000000000000000000000000000000000000000600052604160045260246000fd5b61318f82613146565b810181811067ffffffffffffffff821117156131ae576131ad613157565b5b80604052505050565b60006131c1613065565b90506131cd8282613186565b919050565b600067ffffffffffffffff8211156131ed576131ec613157565b5b6131f682613146565b9050602081019050919050565b82818337600083830152505050565b6000613225613220846131d2565b6131b7565b90508281526020810184848401111561324157613240613141565b5b61324c848285613203565b509392505050565b600082601f8301126132695761326861313c565b5b8135613279848260208601613212565b91505092915050565b6000602082840312156132985761329761306f565b5b600082013567ffffffffffffffff8111156132b6576132b5613074565b5b6132c284828501613254565b91505092915050565b600081519050919050565b600082825260208201905092915050565b6000819050602082019050919050565b600081519050919050565b600082825260208201905092915050565b60005b83811015613331578082015181840152602081019050613316565b60008484015250505050565b6000613348826132f7565b6133528185613302565b9350613362818560208601613313565b61336b81613146565b840191505092915050565b6000613382838361333d565b905092915050565b6000602082019050919050565b60006133a2826132cb565b6133ac81856132d6565b9350836020820285016133be856132e7565b8060005b858110156133fa57848403895281516133db8582613376565b94506133e68361338a565b925060208a019950506001810190506133c2565b50829750879550505050505092915050565b600060208201905081810360008301526134268184613397565b905092915050565b600080604083850312156134455761344461306f565b5b60006134538582860161309a565b92505060206134648582860161309a565b9150509250929050565b600060408201905061348360008301856130e8565b6134906020830184613112565b9392505050565b600082825260208201905092915050565b60006134b3826132f7565b6134bd8185613497565b93506134cd818560208601613313565b6134d681613146565b840191505092915050565b600060208201905081810360008301526134fb81846134a8565b905092915050565b600073ffffffffffffffffffffffffffffffffffffffff82169050919050565b600061352e82613503565b9050919050565b61353e81613523565b811461354957600080fd5b50565b60008135905061355b81613535565b92915050565b6000602082840312156135775761357661306f565b5b60006135858482850161354c565b91505092915050565b600081519050919050565b600082825260208201905092915050565b6000819050602082019050919050565b6135c381613079565b82525050565b60006135d583836135ba565b60208301905092915050565b6000602082019050919050565b60006135f98261358e565b6136038185613599565b935061360e836135aa565b8060005b8381101561363f57815161362688826135c9565b9750613631836135e1565b925050600181019050613612565b5085935050505092915050565b6000602082019050818103600083015261366681846135ee565b905092915050565b61367781613523565b82525050565b6000602082019050613692600083018461366e565b92915050565b60006136a382613503565b9050919050565b6136b381613698565b81146136be57600080fd5b50565b6000813590506136d0816136aa565b92915050565b600080604083850312156136ed576136ec61306f565b5b60006136fb858286016136c1565b925050602061370c8582860161309a565b9150509250929050565b61371f81613698565b82525050565b600060208201905061373a6000830184613716565b92915050565b600080604083850312156137575761375661306f565b5b600083013567ffffffffffffffff81111561377557613774613074565b5b61378185828601613254565b925050602083013567ffffffffffffffff8111156137a2576137a1613074565b5b6137ae85828601613254565b9150509250929050565b6000602082840312156137ce576137cd61306f565b5b60006137dc848285016136c1565b91505092915050565b7f4e487b7100000000000000000000000000000000000000000000000000000000600052603260045260246000fd5b7f4e487b7100000000000000000000000000000000000000000000000000000000600052601160045260246000fd5b600061384e82613079565b915061385983613079565b925082820190508082111561387157613870613814565b5b92915050565b600061388282613079565b91507fffffffffffffffffffffffffffffffffffffffffffffffffffffffffffffffff82036138b4576138b3613814565b5b600182019050919050565b50565b60006138cf600083613497565b91506138da826138bf565b600082019050919050565b600060208201905081810360008301526138fe816138c2565b9050919050565b600061391082613079565b915061391b83613079565b925082820390508181111561393357613932613814565b5b92915050565b600061394482613079565b915061394f83613079565b925082820261395d81613079565b9150828204841483151761397457613973613814565b5b5092915050565b6000819050919050565b61399661399182613079565b61397b565b82525050565b60006139a88285613985565b6020820191506139b88284613985565b6020820191508190509392505050565b7f4e487b7100000000000000000000000000000000000000000000000000000000600052601260045260246000fd5b6000613a0282613079565b9150613a0d83613079565b925082613a1d57613a1c6139c8565b5b828206905092915050565b7f4e487b7100000000000000000000000000000000000000000000000000000000600052602260045260246000fd5b60006002820490506001821680613a6f57607f821691505b602082108103613a8257613a81613a28565b5b50919050565b6000613a9382613079565b9150613a9e83613079565b925082613aae57613aad6139c8565b5b828204905092915050565b600081905092915050565b6000613acf826132f7565b613ad98185613ab9565b9350613ae9818560208601613313565b80840191505092915050565b6000613b018285613ac4565b9150613b0d8284613ac4565b91508190509392505050565b60008190508160005260206000209050919050565b60006020601f8301049050919050565b600082821b905092915050565b600060088302613b7b7fffffffffffffffffffffffffffffffffffffffffffffffffffffffffffffffff82613b3e565b613b858683613b3e565b95508019841693508086168417925050509392505050565b6000819050919050565b6000613bc2613bbd613bb884613079565b613b9d565b613079565b9050919050565b6000819050919050565b613bdc83613ba7565b613bf0613be882613bc9565b848454613b4b565b825550505050565b600090565b613c05613bf8565b613c10818484613bd3565b505050565b5b81811015613c3457613c29600082613bfd565b600181019050613c16565b5050565b601f821115613c7957613c4a81613b19565b613c5384613b2e565b81016020851015613c62578190505b613c76613c6e85613b2e565b830182613c15565b50505b505050565b600082821c905092915050565b6000613c9c60001984600802613c7e565b1980831691505092915050565b6000613cb58383613c8b565b9150826002028217905092915050565b613cce826132f7565b67ffffffffffffffff811115613ce757613ce6613157565b5b613cf18254613a57565b613cfc828285613c38565b600060209050601f831160018114613d2f5760008415613d1d578287015190505b613d278582613ca9565b865550613d8f565b601f198416613d3d86613b19565b60005b82811015613d6557848901518255600182019150602085019450602081019050613d40565b86831015613d825784890151613d7e601f891682613c8b565b8355505b6001600288020188555050505b505050505050565b600081549050919050565b60008190508160005260206000209050919050565b60008154613dc481613a57565b613dce8186613302565b94506001821660008114613de95760018114613dff57613e32565b60ff198316865281151560200286019350613e32565b613e0885613b19565b60005b83811015613e2a57815481890152600182019150602081019050613e0b565b808801955050505b50505092915050565b6000613e478383613db7565b905092915050565b6000600182019050919050565b6000613e6782613d97565b613e7181856132d6565b935083602082028501613e8385613da2565b8060005b85811015613ebe57848403895281613e9f8582613e3b565b9450613eaa83613e4f565b925060208a01995050600181019050613e87565b50829750879550505050505092915050565b60006020820190508181036000830152613eea8184613e5c565b905092915050565b7f496e73756666696369656e742062616c616e636520696e2074686520636f6e7460008201527f7261637400000000000000000000000000000000000000000000000000000000602082015250565b6000613f4e602483613497565b9150613f5982613ef2565b604082019050919050565b60006020820190508181036000830152613f7d81613f41565b9050919050565b6000613f908286613ac4565b9150613f9c8285613ac4565b9150613fa88284613ac4565b9150819050949350505050565b7f4f6e6c7920746865206f776e65722063616e20646f2074686174210000000000600082015250565b6000613feb601b83613497565b9150613ff682613fb5565b602082019050919050565b6000602082019050818103600083015261401a81613fde565b9050919050565b600081549050919050565b60008190508160005260206000209050919050565b60008160001c9050919050565b6000819050919050565b600061406b61406683614041565b61404e565b9050919050565b600061407e8254614058565b9050919050565b6000600182019050919050565b600061409d82614021565b6140a78185613599565b93506140b28361402c565b8060005b838110156140ea576140c782614072565b6140d188826135c9565b97506140dc83614085565b9250506001810190506140b6565b5085935050505092915050565b600060208201905081810360008301526141118184614092565b905092915050565b60006141258284613ac4565b915081905092915050565b6000815461413d81613a57565b6141478186613497565b945060018216600081146141625760018114614178576141ab565b60ff1983168652811515602002860193506141ab565b61418185613b19565b60005b838110156141a357815481890152600182019150602081019050614184565b808801955050505b50505092915050565b600060208201905081810360008301526141ce8184614130565b90509291505056fe68747470733a2f2f6465636b6f6663617264736170692e636f6d2f7374617469632f696d672fa26469706673582212201c7910800f7ec0afab2e4a12f5116bd1523ab8dbdbb60d684c92005805efd88864736f6c63430008110033",
  "immutableReferences": {},
  "source": "// SPDX-License-Identifier: MIT\npragma solidity >=0.4.22 <0.9.0;\n\n\ncontract Blackjack{\n   address payable public playerAddress;\n    //* Keep the owner address\n    address public owner;\n    //* keep the minimum balance to play\n    uint private minBalance = 10000000000000000000;\n\n    //* this is the minimum sum to play\n    uint private minimum = 10000000000000000;\n    //* this is the maximum sum to play\n    uint private maximum = 1000000000000000000;\n    //* this is the suits (each of the value represent a suit)\n    string[] suits = [\"H\", \"S\", \"D\", \"C\"];\n    //* this is the card values\n    // prettier-ignore\n    string[] ranks = [\"A\", \"2\", \"3\", \"4\", \"5\", \"6\", \"7\", \"8\", \"9\", \"0\", \"J\", \"Q\", \"K\"];\n\n    uint[] playerCardValues;\n    string[] playerCardsUrls;\n    uint[] dealercardValues;\n    string[] dealerCardsUrls;\n\n    bool isBlackForPlayer = false;\n    bool isBlackForDealer = false;\n\n    bool finishGame = false;\n    //* this is the variable that is updated when the minimum balance function runs\n    bool public balanceChecker;\n  \n    //* this is the variable that check the number in the input is more than the minimum to play and less than the maximum to play\n    bool public inputChecked = true;\n\n    uint playerCounter = 0;\n    uint dealerCounter = 0;\n\n    bool loosedPlayer = false;\n    bool loosedDealer = false;\n\n    bool canTakeNewCardPlayer = true;\n    bool canTakeNewCardDealer = false;\n\n    bool gameFinished = false;\n\n    uint payment = 1;\n    uint paymentSum = 0 ; \n    uint public balance;\n\n    //* This constructor get the smart contract owner address\n    constructor (){\n        owner = msg.sender;\n        balance = 0;\n        // We want to call this function when the player want to play a new game\n        //   deckcard = createDeck();\n    }\n    \n\n    function startGame() external {\n        givetwoCardsToPlayer();\n        givetwoCardsToDealer();\n        if(isBlackForDealer && isBlackForPlayer){\n            // NEED TO WORK ON THE END OF THE GAME\n            finishGame = true;\n            loosedPlayer = false;\n            loosedDealer = false;\n        }    \n        if(isBlackForDealer && isBlackForPlayer == false ){ \n            finishGame = true;\n            loosedDealer = false;\n            loosedPlayer = true;\n        }\n        if(isBlackForPlayer && isBlackForDealer == false){ \n            finishGame = true;\n            loosedDealer = true;\n            loosedPlayer = false;        \n        }     \n    }\n\n    //* The modifier check if the user is the smart contract owner\n    modifier onlyOwner(){\n        require(msg.sender == owner,\"Only the owner can do that!\");\n        _;\n    }\n\n    //* The function to transfer smart contract ownership\n    function transferOwnerShip(address newOwner) external onlyOwner{\n        owner = newOwner;\n    }\n\n    // We need to check why it's not rendering the balance value\n    uint public playerBalance = 0;\n    event initBalance(uint playerBalance);\n    //* This function gets the player address and returns the player balance\n    function getBalance(address payable addrs) public  returns(uint){\n        playerAddress = addrs;\n        playerBalance = playerAddress.balance;\n        emit initBalance(playerBalance);        \n        return playerAddress.balance;\n\n    }   \n\n    event initchecker(bool balanceChecker);\n    //* This function get the player address and check if he has anough balance in the wallet and returns true or false to the react code\n    function checkBalance(uint bal) public returns(bool){\n        if(bal >= minBalance){\n            balanceChecker = true;\n        }\n        else{\n            balanceChecker = false;\n        }\n        emit initchecker(balanceChecker);\n        return balanceChecker;\n    }\n\n    event inpuchecker(bool, uint);\n    //* The function gets from the frontend sum entered to play and verify if it's more than the minimum and less than the maximum\n    function checkInput(uint bal, uint input) public returns (bool, uint){\n        playerBalance = bal;\n        if((input < minimum || input > maximum)){\n            inputChecked = false;\n        } \n        if(input >= minimum && input <= maximum && input < bal)\n        {\n            inputChecked = true;\n            paymentSum = input;\n        }\n        emit inpuchecker(inputChecked,paymentSum );\n        // return inputChecked;\n    }\n\n    //* Checks if 2 strings are equals (helper function)\n    function compareStrings(string memory a, string memory b) public pure returns (bool) {\n    return (keccak256(abi.encodePacked((a))) == keccak256(abi.encodePacked((b))));\n    }\n\n    //* gets a string and return a interger (helper function)\n    function stringToUint(string memory s) public pure returns (uint) {\n        bytes memory b = bytes(s);\n        uint result = 0;\n        for (uint256 i = 0; i < b.length; i++) {\n            uint256 c = uint256(uint8(b[i]));\n            if (c >= 48 && c <= 57) {\n                result = result * 10 + (c - 48);\n            }\n        }\n        return result;\n    }\n\n    // The function creates URL for the ui\n    function createUrlForUI(string memory card) public pure returns (string memory) {\n        string memory cardLink = \"https://deckofcardsapi.com/static/img/\";\n        string memory cardType = \".png\";\n        string memory cardLinkNew = string.concat(cardLink,card,cardType);\n        return cardLinkNew;\n    }\n\n    // This function returns the cards of the player\n    event returnPlayerCardvale(uint[]);\n    function showPlayerCardvalue() public returns(uint[] memory){\n        emit returnPlayerCardvale(playerCardValues);\n        // return playerCardValues;\n    }\n    function showPlayerCardUrls() public view returns(string[] memory){\n        return playerCardsUrls;\n    }\n    // This function returns the cards of the dealer\n    \n    event returnDealerCardvale(uint[]);\n    function showDealerCardvalue() public returns(uint[] memory){\n        emit returnDealerCardvale( dealercardValues);\n        // return dealercardValues;\n    }\n    function showDealerCardUrls() public view returns(string[] memory){\n        return dealerCardsUrls;\n    }\n    // It starts the game and give to the player 2 cards\n    function givetwoCardsToPlayer() public {\n        generateTwoRandomNumbersToPlayer();\n    }\n    // It starts the game and give to the dealer 2 cards\n    function givetwoCardsToDealer() public {\n        generateTwoRandomNumbersToDealer();\n    }\n    event returnDealerCounter(uint);\n    function showDealerCounter() public returns(uint ){\n        emit returnDealerCounter(dealerCounter);\n        // return dealerCounter;\n    }\n    event returnPlayerCounter(uint);\n    function showPlayerCounter() public returns(uint ){\n        emit returnPlayerCounter(playerCounter);\n        // return playerCounter;\n    }\n\n    //* The function sums the cards values for dealer and player\n    function sumOfCardsPlayer() public{\n        uint lenOfPlayerCards = playerCardValues.length;\n        // uint lenOfDealerCards = dealercardValues.length;\n\n        playerCounter = 0;\n        // uint playerCounter = 0;\n        for(uint i = 0; i < lenOfPlayerCards; i++){\n            playerCounter += playerCardValues[i];\n        }\n        \n        // dealerCounter = 0;\n        // uint dealerCounter = 0;\n        // for(uint i = 0; i < lenOfDealerCards; i++){\n        //     dealerCounter += dealercardValues[i];\n        // }\n    } \n    function sumOfCardsDealer() public{\n        uint lenOfDealerCards = dealercardValues.length;\n        dealerCounter = 0;\n        for(uint j = 0; j < lenOfDealerCards; j++){\n            dealerCounter += dealercardValues[j];\n        }\n    }\n\n    // The function convert value that are more than 10 to be 10\n    function checkValue(uint num) public pure returns(uint){\n        if(num >= 9)return 10;\n        return num;\n        \n    }\n\n    event returnPlayerUrls(string[]);\n    // The function generate 2 random cards to the player\n    function generateTwoRandomNumbersToPlayer() public returns( string[] memory) {\n        uint randomNumber1 = uint(keccak256(abi.encodePacked(block.timestamp, block.difficulty))) % 13;\n        uint randomNumber2 = uint(keccak256(abi.encodePacked(block.gaslimit, block.number))) % 13;\n        \n        uint randomSuit1 = uint(keccak256(abi.encodePacked(block.timestamp, block.difficulty))) % 4;\n        uint randomSuit2 = uint(keccak256(abi.encodePacked(block.gaslimit, block.number))) % 4;\n\n        string memory rankNumber1 = ranks[randomNumber1];\n        string memory rankNumber2 = ranks[randomNumber2];\n        playerCardValues.push(checkValue(randomNumber1+1));\n        playerCardValues.push(checkValue(randomNumber2+1));\n        if((playerCardValues[0] == 1 && playerCardValues[1]==10) ||\n            (playerCardValues[1] == 1 && playerCardValues[0]==10)){\n                playerCounter = 21;\n                isBlackForPlayer = true;\n                loosedPlayer = false;\n                loosedDealer = true;\n                gameFinished = true;\n                payment = 3/uint256(2);\n                finishTheGame();\n        }\n        string memory suitNumber1 = suits[randomSuit1];\n        string memory suitNumber2 = suits[randomSuit2];\n\n        string memory card1 = createUrlForUI(string.concat(rankNumber1,suitNumber1));\n        string memory card2 = createUrlForUI(string.concat(rankNumber2,suitNumber2));\n\n        playerCardsUrls.push(card1);\n        playerCardsUrls.push(card2);\n\n        sumOfCardsPlayer();\n        emit returnPlayerUrls(playerCardsUrls);\n        // return playerCardsUrls;\n        \n    }\n\n    event returnDealerUrls(string[]);\n\n    // The function generate 2 random cards to the dealer\n    function generateTwoRandomNumbersToDealer() public returns( string[] memory) {\n        uint randomNumber11 = uint(keccak256(abi.encodePacked(block.timestamp, block.difficulty))) % 13;\n        uint randomNumber22 = uint(keccak256(abi.encodePacked(block.gaslimit, block.number))) % 13;\n\n        uint randomSuit11 = uint(keccak256(abi.encodePacked(block.timestamp, block.difficulty))) % 4;\n        uint randomSuit22 = uint(keccak256(abi.encodePacked(block.gaslimit, block.number))) % 4;\n\n        string memory rankNumber11 = ranks[randomNumber11];\n        string memory rankNumber22 = ranks[randomNumber22];\n        dealercardValues.push(checkValue(randomNumber11+1));\n        dealercardValues.push(checkValue(randomNumber22+1));\n        if((dealercardValues[0] == 1 && dealercardValues[1]==10) ||\n            (dealercardValues[1] == 1 && dealercardValues[0]==10)){\n                dealerCounter = 21;\n                isBlackForDealer = true;\n                loosedPlayer = true;\n                loosedDealer = false;\n                gameFinished = true;\n                payment = 1;\n                finishTheGame();\n\n        }\n        string memory suitNumber11 = suits[randomSuit11];\n        string memory suitNumber22 = suits[randomSuit22];\n\n        string memory card1 = createUrlForUI(string.concat(rankNumber11,suitNumber11));\n        string memory card2 = createUrlForUI(string.concat(rankNumber22,suitNumber22));\n\n        dealerCardsUrls.push(card1);\n        dealerCardsUrls.push(card2);\n\n        sumOfCardsDealer();\n        emit returnDealerUrls( dealerCardsUrls);\n    }\n   \n   event showPlayerCardPics(string[]);\n    //* The function add to the player a new random card\n    function getRandomCardValueToPlayer() public returns(string[] memory) {\n        string memory rankNumber = ranks[getRandomRank(1)];\n        string memory suitNumber = suits[getRandomSuit(1)];\n        string memory card = createUrlForUI(string.concat(rankNumber,suitNumber));\n        uint  cardVal = getRankNum(rankNumber);\n        playerCardValues.push(cardVal);\n        playerCardsUrls.push(card);\n        emit showPlayerCardPics(playerCardsUrls);\n        sumOfCardsPlayer();\n        if(playerCounter > 21){\n            loosedPlayer = true;\n            loosedDealer = false;\n            gameFinished = true;\n            payment = 0;\n            finishTheGame();\n            \n        }\n    }\n\n    event showDealerCardPics(string[]);\n    //* The function adds to the dealer cards while he arrives to 17 or more\n    function dealerCardDistributer() public returns(string[] memory){\n        uint count = 0; \n        while(dealerCounter < 17){\n            getRandomCardValueToDealer(count);\n            count ++;            \n        }\n        canTakeNewCardDealer = false;\n        gameFinished = true;\n        emit showDealerCardPics(dealerCardsUrls);\n        finishTheGame();        \n    }\n\n    //* The function add to the dealer a new random card\n    function getRandomCardValueToDealer(uint val) public {\n        \n        string memory rankNumber = ranks[getRandomRank(val)];\n        string memory suitNumber = suits[getRandomSuit(val)];\n        string memory card = string.concat(rankNumber,suitNumber);\n        string memory card1 = createUrlForUI(card);\n        dealercardValues.push(getRankNum(rankNumber));\n        dealerCardsUrls.push(card1);\n        sumOfCardsDealer();\n         if(dealerCounter > 21){\n            loosedDealer = true;\n            loosedPlayer = false;\n            payment = 1;\n        }\n    }\n\n    //* The function gets a random number from 0 to 12\n    function getRandomRank(uint val) public view returns (uint256) {\n        uint256 _randomNumber = uint256(keccak256(abi.encodePacked(block.timestamp+val, block.difficulty))) % 13; // Generate random number between 0 to 12\n        return (_randomNumber); \n    }\n\n    //* The function get a random number from 0 to 3\n    function getRandomSuit(uint val) public view returns (uint256) {\n        uint256 _randomNumber = uint256(keccak256(abi.encodePacked(block.timestamp+1, block.difficulty))) % 4; // Generate random number between 0 to 12\n        return (_randomNumber); \n    }\n\n\n\n    // The function gets the rank (string - first value) of a certain card in the deck and returns the number of card\n    function getRankNum(string memory rank) internal pure returns (uint){\n        if(compareStrings(rank,\"A\")){\n            return 1;\n        }\n        if( compareStrings(rank,\"0\") || compareStrings(rank,\"J\") || compareStrings(rank,\"Q\") || compareStrings(rank, \"K\" )){\n            return 10;\n        }\n        else{\n            return stringToUint(rank);\n        }\n    }\n\n    function finishGiveCard() external{\n        canTakeNewCardPlayer = false;\n        canTakeNewCardDealer = true;\n        dealerCardDistributer();\n    }\n    \n    string dt = \"\";\n    event returnResultData(string);\n    // The function returns if the player won or lost\n    function finishTheGame() public returns(string memory){\n        delete playerCardValues;\n        delete playerCardsUrls;\n        delete dealercardValues;\n        delete dealerCardsUrls;\n        if(playerCounter > 21){\n            loosedDealer = false;\n            loosedPlayer = true;\n            payment = 1;\n            dt = \"LOSE!!!\";\n            // contribute();\n        }\n        else if(dealerCounter > 21){\n            loosedDealer = false;\n            loosedPlayer = true;\n            payment = 2;\n            dt = \"WIN!!!\";\n            // contribute();\n            withdrawAmount(paymentSum*payment);\n        }\n        else if(dealerCounter == playerCounter){\n            loosedDealer = false;\n            loosedPlayer = false;\n            payment = 1;\n            dt = \"PUSH!!\"; \n            // transferFunds(playerAddress,paymentSum);\n            withdrawAmount(paymentSum*payment);\n        }\n        else if((dealerCounter > playerCounter) && dealerCounter <= 21){\n            loosedDealer = false;\n            loosedPlayer = true;\n            payment = 1;\n            dt = \"LOSE!!!\";\n            // contribute();\n        }else if((dealerCounter > playerCounter) && dealerCounter > 21){\n            loosedDealer = false;\n            loosedPlayer = true;\n            payment = 2;\n            dt = \"WIN!!!\";\n            // contribute();\n            withdrawAmount(paymentSum*payment);\n        }\n        else if((dealerCounter < playerCounter) && playerCounter < 21 ){\n            loosedDealer = true;\n            loosedPlayer = false;\n            payment = 2;            \n            dt = \"WIN!!!\";\n            // transferFunds(playerAddress,paymentSum*payment);\n            withdrawAmount(paymentSum*payment);\n        }\n         else if((dealerCounter > playerCounter) && dealerCounter == 21 ){\n            loosedDealer = false;\n            loosedPlayer = true;\n            payment = 1;\n            dt = \"LOSE!!!\";\n            // contribute();\n        }else if((dealerCounter < playerCounter) && playerCounter == 21 ){\n            loosedDealer = true;\n            loosedPlayer = false;\n            payment = 5/uint256(2);\n            dt = \"WIN!!!\";\n            // transferFunds(playerAddress,paymentSum*payment);\n            withdrawAmount(paymentSum*payment);\n\n        }\n        emit returnResultData(dt);\n      \n    }\n\n\n    function paymentToPlayer() public payable{\n        require(address(this).balance >= paymentSum*payment, \"Insufficient balance in the contract\");\n        payable (msg.sender).transfer(paymentSum * payment);\n        // payable (msg.sender).transfer(4000000000000000000);\n    }\n\n    function transferFunds(address payable recipient, uint amount) public {\n        require(address(this).balance >= amount-100000000000000000, \"Insufficient balance in the contract\");\n        payable (recipient).transfer(amount);\n    }\n\n    function withdrawAmount(uint256 amount) public {\n         require(amount>10,'');\n         payable (msg.sender).transfer(amount); \n     }\n\n    function contribute() public payable{\n        // msg.value is the value of Ether sent in a transaction\n        balance += msg.value;\n    }\n}\n\n    // mapping(address => uint256) public balances;\n\n    // function deposit() public payable {\n    //     balances[msg.sender] += msg.value;\n    // }\n\n    // function collect() public {\n    //     uint256 amount = balances[msg.sender];\n    //     require(amount > 0, \"No balance to withdraw\");\n\n    //     balances[msg.sender] = 0;\n    //     payable(address(this)).transfer(amount);\n    // }\n\n\n    // function paymentToDealer() public payable{\n    //     require(address(this).balance >= paymentSum*payment, \"Insufficient balance in the contract\");\n    //     playerAddress.transfer(paymentSum * payment);\n    // }\n// }",
  "sourcePath": "/Users/gabrielnakache/Desktop/Solidity Project/js1-app-code/contracts/Blackjack.sol",
  "compiler": {
    "name": "solc",
    "version": "0.8.17+commit.8df45f5f.Emscripten.clang"
  },
  "schemaVersion": "3.4.11",
  "updatedAt": "2023-04-13T20:45:24.173Z",
  "networkType": "ethereum",
  "devdoc": {
    "kind": "dev",
    "methods": {},
    "version": 1
  },
  "userdoc": {
    "kind": "user",
    "methods": {},
    "version": 1
  }
}