{
  "contractName": "Blackjack",
  "abi": [
    {
      "inputs": [],
      "stateMutability": "nonpayable",
      "type": "constructor"
    },
    {
      "anonymous": false,
      "inputs": [
        {
          "indexed": false,
          "internalType": "uint256",
          "name": "playerBalance",
          "type": "uint256"
        }
      ],
      "name": "initBalance",
      "type": "event"
    },
    {
      "anonymous": false,
      "inputs": [
        {
          "indexed": false,
          "internalType": "bool",
          "name": "balanceChecker",
          "type": "bool"
        }
      ],
      "name": "initchecker",
      "type": "event"
    },
    {
      "anonymous": false,
      "inputs": [
        {
          "indexed": false,
          "internalType": "bool",
          "name": "",
          "type": "bool"
        },
        {
          "indexed": false,
          "internalType": "uint256",
          "name": "",
          "type": "uint256"
        }
      ],
      "name": "inpuchecker",
      "type": "event"
    },
    {
      "anonymous": false,
      "inputs": [
        {
          "indexed": false,
          "internalType": "uint256[]",
          "name": "",
          "type": "uint256[]"
        }
      ],
      "name": "returnDealerCardvale",
      "type": "event"
    },
    {
      "anonymous": false,
      "inputs": [
        {
          "indexed": false,
          "internalType": "uint256",
          "name": "",
          "type": "uint256"
        }
      ],
      "name": "returnDealerCounter",
      "type": "event"
    },
    {
      "anonymous": false,
      "inputs": [
        {
          "indexed": false,
          "internalType": "string[]",
          "name": "",
          "type": "string[]"
        }
      ],
      "name": "returnDealerUrls",
      "type": "event"
    },
    {
      "anonymous": false,
      "inputs": [
        {
          "indexed": false,
          "internalType": "uint256[]",
          "name": "",
          "type": "uint256[]"
        }
      ],
      "name": "returnPlayerCardvale",
      "type": "event"
    },
    {
      "anonymous": false,
      "inputs": [
        {
          "indexed": false,
          "internalType": "uint256",
          "name": "",
          "type": "uint256"
        }
      ],
      "name": "returnPlayerCounter",
      "type": "event"
    },
    {
      "anonymous": false,
      "inputs": [
        {
          "indexed": false,
          "internalType": "string[]",
          "name": "",
          "type": "string[]"
        }
      ],
      "name": "returnPlayerUrls",
      "type": "event"
    },
    {
      "anonymous": false,
      "inputs": [
        {
          "indexed": false,
          "internalType": "string",
          "name": "",
          "type": "string"
        }
      ],
      "name": "returnResultData",
      "type": "event"
    },
    {
      "anonymous": false,
      "inputs": [
        {
          "indexed": false,
          "internalType": "string[]",
          "name": "",
          "type": "string[]"
        }
      ],
      "name": "showDealerCardPics",
      "type": "event"
    },
    {
      "anonymous": false,
      "inputs": [
        {
          "indexed": false,
          "internalType": "string[]",
          "name": "",
          "type": "string[]"
        }
      ],
      "name": "showPlayerCardPics",
      "type": "event"
    },
    {
      "inputs": [],
      "name": "balance",
      "outputs": [
        {
          "internalType": "uint256",
          "name": "",
          "type": "uint256"
        }
      ],
      "stateMutability": "view",
      "type": "function",
      "constant": true
    },
    {
      "inputs": [],
      "name": "balanceChecker",
      "outputs": [
        {
          "internalType": "bool",
          "name": "",
          "type": "bool"
        }
      ],
      "stateMutability": "view",
      "type": "function",
      "constant": true
    },
    {
      "inputs": [],
      "name": "inputChecked",
      "outputs": [
        {
          "internalType": "bool",
          "name": "",
          "type": "bool"
        }
      ],
      "stateMutability": "view",
      "type": "function",
      "constant": true
    },
    {
      "inputs": [],
      "name": "owner",
      "outputs": [
        {
          "internalType": "address",
          "name": "",
          "type": "address"
        }
      ],
      "stateMutability": "view",
      "type": "function",
      "constant": true
    },
    {
      "inputs": [],
      "name": "playerAddress",
      "outputs": [
        {
          "internalType": "address payable",
          "name": "",
          "type": "address"
        }
      ],
      "stateMutability": "view",
      "type": "function",
      "constant": true
    },
    {
      "inputs": [],
      "name": "playerBalance",
      "outputs": [
        {
          "internalType": "uint256",
          "name": "",
          "type": "uint256"
        }
      ],
      "stateMutability": "view",
      "type": "function",
      "constant": true
    },
    {
      "inputs": [],
      "name": "startGame",
      "outputs": [],
      "stateMutability": "nonpayable",
      "type": "function"
    },
    {
      "inputs": [
        {
          "internalType": "address",
          "name": "newOwner",
          "type": "address"
        }
      ],
      "name": "transferOwnerShip",
      "outputs": [],
      "stateMutability": "nonpayable",
      "type": "function"
    },
    {
      "inputs": [
        {
          "internalType": "address payable",
          "name": "addrs",
          "type": "address"
        }
      ],
      "name": "getBalance",
      "outputs": [
        {
          "internalType": "uint256",
          "name": "",
          "type": "uint256"
        }
      ],
      "stateMutability": "nonpayable",
      "type": "function"
    },
    {
      "inputs": [
        {
          "internalType": "uint256",
          "name": "bal",
          "type": "uint256"
        }
      ],
      "name": "checkBalance",
      "outputs": [
        {
          "internalType": "bool",
          "name": "",
          "type": "bool"
        }
      ],
      "stateMutability": "nonpayable",
      "type": "function"
    },
    {
      "inputs": [
        {
          "internalType": "uint256",
          "name": "bal",
          "type": "uint256"
        },
        {
          "internalType": "uint256",
          "name": "input",
          "type": "uint256"
        }
      ],
      "name": "checkInput",
      "outputs": [
        {
          "internalType": "bool",
          "name": "",
          "type": "bool"
        },
        {
          "internalType": "uint256",
          "name": "",
          "type": "uint256"
        }
      ],
      "stateMutability": "nonpayable",
      "type": "function"
    },
    {
      "inputs": [
        {
          "internalType": "string",
          "name": "a",
          "type": "string"
        },
        {
          "internalType": "string",
          "name": "b",
          "type": "string"
        }
      ],
      "name": "compareStrings",
      "outputs": [
        {
          "internalType": "bool",
          "name": "",
          "type": "bool"
        }
      ],
      "stateMutability": "pure",
      "type": "function",
      "constant": true
    },
    {
      "inputs": [
        {
          "internalType": "string",
          "name": "s",
          "type": "string"
        }
      ],
      "name": "stringToUint",
      "outputs": [
        {
          "internalType": "uint256",
          "name": "",
          "type": "uint256"
        }
      ],
      "stateMutability": "pure",
      "type": "function",
      "constant": true
    },
    {
      "inputs": [
        {
          "internalType": "string",
          "name": "card",
          "type": "string"
        }
      ],
      "name": "createUrlForUI",
      "outputs": [
        {
          "internalType": "string",
          "name": "",
          "type": "string"
        }
      ],
      "stateMutability": "pure",
      "type": "function",
      "constant": true
    },
    {
      "inputs": [],
      "name": "showPlayerCardvalue",
      "outputs": [
        {
          "internalType": "uint256[]",
          "name": "",
          "type": "uint256[]"
        }
      ],
      "stateMutability": "nonpayable",
      "type": "function"
    },
    {
      "inputs": [],
      "name": "showPlayerCardUrls",
      "outputs": [
        {
          "internalType": "string[]",
          "name": "",
          "type": "string[]"
        }
      ],
      "stateMutability": "view",
      "type": "function",
      "constant": true
    },
    {
      "inputs": [],
      "name": "showDealerCardvalue",
      "outputs": [
        {
          "internalType": "uint256[]",
          "name": "",
          "type": "uint256[]"
        }
      ],
      "stateMutability": "nonpayable",
      "type": "function"
    },
    {
      "inputs": [],
      "name": "showDealerCardUrls",
      "outputs": [
        {
          "internalType": "string[]",
          "name": "",
          "type": "string[]"
        }
      ],
      "stateMutability": "view",
      "type": "function",
      "constant": true
    },
    {
      "inputs": [],
      "name": "givetwoCardsToPlayer",
      "outputs": [],
      "stateMutability": "nonpayable",
      "type": "function"
    },
    {
      "inputs": [],
      "name": "givetwoCardsToDealer",
      "outputs": [],
      "stateMutability": "nonpayable",
      "type": "function"
    },
    {
      "inputs": [],
      "name": "showDealerCounter",
      "outputs": [
        {
          "internalType": "uint256",
          "name": "",
          "type": "uint256"
        }
      ],
      "stateMutability": "nonpayable",
      "type": "function"
    },
    {
      "inputs": [],
      "name": "showPlayerCounter",
      "outputs": [
        {
          "internalType": "uint256",
          "name": "",
          "type": "uint256"
        }
      ],
      "stateMutability": "nonpayable",
      "type": "function"
    },
    {
      "inputs": [],
      "name": "sumOfCardsPlayer",
      "outputs": [],
      "stateMutability": "nonpayable",
      "type": "function"
    },
    {
      "inputs": [],
      "name": "sumOfCardsDealer",
      "outputs": [],
      "stateMutability": "nonpayable",
      "type": "function"
    },
    {
      "inputs": [
        {
          "internalType": "uint256",
          "name": "num",
          "type": "uint256"
        }
      ],
      "name": "checkValue",
      "outputs": [
        {
          "internalType": "uint256",
          "name": "",
          "type": "uint256"
        }
      ],
      "stateMutability": "pure",
      "type": "function",
      "constant": true
    },
    {
      "inputs": [],
      "name": "generateTwoRandomNumbersToPlayer",
      "outputs": [
        {
          "internalType": "string[]",
          "name": "",
          "type": "string[]"
        }
      ],
      "stateMutability": "nonpayable",
      "type": "function"
    },
    {
      "inputs": [],
      "name": "generateTwoRandomNumbersToDealer",
      "outputs": [
        {
          "internalType": "string[]",
          "name": "",
          "type": "string[]"
        }
      ],
      "stateMutability": "nonpayable",
      "type": "function"
    },
    {
      "inputs": [],
      "name": "getRandomCardValueToPlayer",
      "outputs": [
        {
          "internalType": "string[]",
          "name": "",
          "type": "string[]"
        }
      ],
      "stateMutability": "nonpayable",
      "type": "function"
    },
    {
      "inputs": [],
      "name": "dealerCardDistributer",
      "outputs": [
        {
          "internalType": "string[]",
          "name": "",
          "type": "string[]"
        }
      ],
      "stateMutability": "nonpayable",
      "type": "function"
    },
    {
      "inputs": [
        {
          "internalType": "uint256",
          "name": "val",
          "type": "uint256"
        }
      ],
      "name": "getRandomCardValueToDealer",
      "outputs": [],
      "stateMutability": "nonpayable",
      "type": "function"
    },
    {
      "inputs": [
        {
          "internalType": "uint256",
          "name": "val",
          "type": "uint256"
        }
      ],
      "name": "getRandomRank",
      "outputs": [
        {
          "internalType": "uint256",
          "name": "",
          "type": "uint256"
        }
      ],
      "stateMutability": "view",
      "type": "function",
      "constant": true
    },
    {
      "inputs": [
        {
          "internalType": "uint256",
          "name": "val",
          "type": "uint256"
        }
      ],
      "name": "getRandomSuit",
      "outputs": [
        {
          "internalType": "uint256",
          "name": "",
          "type": "uint256"
        }
      ],
      "stateMutability": "view",
      "type": "function",
      "constant": true
    },
    {
      "inputs": [],
      "name": "finishGiveCard",
      "outputs": [],
      "stateMutability": "nonpayable",
      "type": "function"
    },
    {
      "inputs": [],
      "name": "finishTheGame",
      "outputs": [
        {
          "internalType": "string",
          "name": "",
          "type": "string"
        }
      ],
      "stateMutability": "nonpayable",
      "type": "function"
    },
    {
      "inputs": [],
      "name": "paymentToPlayer",
      "outputs": [],
      "stateMutability": "payable",
      "type": "function",
      "payable": true
    },
    {
      "inputs": [
        {
          "internalType": "address payable",
          "name": "recipient",
          "type": "address"
        },
        {
          "internalType": "uint256",
          "name": "amount",
          "type": "uint256"
        }
      ],
      "name": "transferFunds",
      "outputs": [],
      "stateMutability": "nonpayable",
      "type": "function"
    },
    {
      "inputs": [],
      "name": "contribute",
      "outputs": [],
      "stateMutability": "payable",
      "type": "function",
      "payable": true
    },
    {
      "inputs": [],
      "name": "send",
      "outputs": [],
      "stateMutability": "payable",
      "type": "function",
      "payable": true
    }
  ],
  "bytecode": "0x6080604052678ac7230489e80000600255662386f26fc10000600355670de0b6b3a764000060045560405180608001604052806040518060400160405280600181526020017f480000000000000000000000000000000000000000000000000000000000000081525081526020016040518060400160405280600181526020017f530000000000000000000000000000000000000000000000000000000000000081525081526020016040518060400160405280600181526020017f440000000000000000000000000000000000000000000000000000000000000081525081526020016040518060400160405280600181526020017f430000000000000000000000000000000000000000000000000000000000000081525081525060059060046200012e929190620005d5565b50604051806101a001604052806040518060400160405280600181526020017f410000000000000000000000000000000000000000000000000000000000000081525081526020016040518060400160405280600181526020017f320000000000000000000000000000000000000000000000000000000000000081525081526020016040518060400160405280600181526020017f330000000000000000000000000000000000000000000000000000000000000081525081526020016040518060400160405280600181526020017f340000000000000000000000000000000000000000000000000000000000000081525081526020016040518060400160405280600181526020017f350000000000000000000000000000000000000000000000000000000000000081525081526020016040518060400160405280600181526020017f360000000000000000000000000000000000000000000000000000000000000081525081526020016040518060400160405280600181526020017f370000000000000000000000000000000000000000000000000000000000000081525081526020016040518060400160405280600181526020017f380000000000000000000000000000000000000000000000000000000000000081525081526020016040518060400160405280600181526020017f390000000000000000000000000000000000000000000000000000000000000081525081526020016040518060400160405280600181526020017f300000000000000000000000000000000000000000000000000000000000000081525081526020016040518060400160405280600181526020017f4a0000000000000000000000000000000000000000000000000000000000000081525081526020016040518060400160405280600181526020017f510000000000000000000000000000000000000000000000000000000000000081525081526020016040518060400160405280600181526020017f4b00000000000000000000000000000000000000000000000000000000000000815250815250600690600d6200044a92919062000635565b506000600b60006101000a81548160ff0219169083151502179055506000600b60016101000a81548160ff0219169083151502179055506000600b60026101000a81548160ff0219169083151502179055506001600b60046101000a81548160ff0219169083151502179055506000600c556000600d556000600e60006101000a81548160ff0219169083151502179055506000600e60016101000a81548160ff0219169083151502179055506001600e60026101000a81548160ff0219169083151502179055506000600e60036101000a81548160ff0219169083151502179055506000600e60046101000a81548160ff0219169083151502179055506001600f556000601055600060125560405180602001604052806000815250601390816200057791906200099c565b503480156200058557600080fd5b5033600160006101000a81548173ffffffffffffffffffffffffffffffffffffffff021916908373ffffffffffffffffffffffffffffffffffffffff160217905550600060118190555062000a83565b82805482825590600052602060002090810192821562000622579160200282015b82811115620006215782518290816200061091906200099c565b5091602001919060010190620005f6565b5b50905062000631919062000695565b5090565b82805482825590600052602060002090810192821562000682579160200282015b82811115620006815782518290816200067091906200099c565b509160200191906001019062000656565b5b50905062000691919062000695565b5090565b5b80821115620006b95760008181620006af9190620006bd565b5060010162000696565b5090565b508054620006cb906200078b565b6000825580601f10620006df575062000700565b601f016020900490600052602060002090810190620006ff919062000703565b5b50565b5b808211156200071e57600081600090555060010162000704565b5090565b600081519050919050565b7f4e487b7100000000000000000000000000000000000000000000000000000000600052604160045260246000fd5b7f4e487b7100000000000000000000000000000000000000000000000000000000600052602260045260246000fd5b60006002820490506001821680620007a457607f821691505b602082108103620007ba57620007b96200075c565b5b50919050565b60008190508160005260206000209050919050565b60006020601f8301049050919050565b600082821b905092915050565b600060088302620008247fffffffffffffffffffffffffffffffffffffffffffffffffffffffffffffffff82620007e5565b620008308683620007e5565b95508019841693508086168417925050509392505050565b6000819050919050565b6000819050919050565b60006200087d62000877620008718462000848565b62000852565b62000848565b9050919050565b6000819050919050565b62000899836200085c565b620008b1620008a88262000884565b848454620007f2565b825550505050565b600090565b620008c8620008b9565b620008d58184846200088e565b505050565b5b81811015620008fd57620008f1600082620008be565b600181019050620008db565b5050565b601f8211156200094c576200091681620007c0565b6200092184620007d5565b8101602085101562000931578190505b620009496200094085620007d5565b830182620008da565b50505b505050565b600082821c905092915050565b6000620009716000198460080262000951565b1980831691505092915050565b60006200098c83836200095e565b9150826002028217905092915050565b620009a78262000722565b67ffffffffffffffff811115620009c357620009c26200072d565b5b620009cf82546200078b565b620009dc82828562000901565b600060209050601f83116001811462000a145760008415620009ff578287015190505b62000a0b85826200097e565b86555062000a7b565b601f19841662000a2486620007c0565b60005b8281101562000a4e5784890151825560018201915060208501945060208101905062000a27565b8683101562000a6e578489015162000a6a601f8916826200095e565b8355505b6001600288020188555050505b505050505050565b613f978062000a936000396000f3fe6080604052600436106102255760003560e01c80638c171a0911610123578063bed34bba116100ab578063ddaabf6b1161006f578063ddaabf6b14610767578063e07c544514610790578063ecd65c0f146107bb578063f8b2cb4f146107e6578063fec3e7051461082357610225565b8063bed34bba146106c7578063c16fe1ef14610704578063d0498cdb1461071b578063d65ab5f214610746578063d7bb99ba1461075d57610225565b8063990dc9db116100f2578063990dc9db146106135780639d8c6cfb1461063c578063a146bf7a14610667578063b46300ec14610692578063b69ef8a81461069c57610225565b80638c171a09146105675780638da5cb5b146105925780638e3411b3146105bd5780638ec4ebd7146105e857610225565b8063515d1a86116101b157806373b9863d1161017557806373b9863d1461046e578063750e71a9146104995780637f286286146104d65780638863dd1a1461051357806388eb3a371461053c57610225565b8063515d1a861461039357806351e488b5146103d1578063545e0dde146103db57806363a20a8214610406578063651f066a1461044357610225565b80631bd95155116101f85780631bd95155146102c05780631cd7e64b146102fd5780631dec98bf1461031457806323820caa1461035157806328440b471461036857610225565b8063051551381461022a578063090e15d61461024157806313c43ab01461025857806318db62fb14610283575b600080fd5b34801561023657600080fd5b5061023f61084e565b005b34801561024d57600080fd5b506102566108b9565b005b34801561026457600080fd5b5061026d6108c4565b60405161027a9190612e2b565b60405180910390f35b34801561028f57600080fd5b506102aa60048036038101906102a59190612e90565b6108d7565b6040516102b79190612ecc565b60405180910390f35b3480156102cc57600080fd5b506102e760048036038101906102e2919061302d565b6108f3565b6040516102f49190612ecc565b60405180910390f35b34801561030957600080fd5b5061031261098b565b005b34801561032057600080fd5b5061033b60048036038101906103369190612e90565b6109cc565b6040516103489190612ecc565b60405180910390f35b34801561035d57600080fd5b50610366610a1d565b005b34801561037457600080fd5b5061037d610a28565b60405161038a91906131b7565b60405180910390f35b34801561039f57600080fd5b506103ba60048036038101906103b591906131d9565b61108d565b6040516103c8929190613219565b60405180910390f35b6103d9611161565b005b3480156103e757600080fd5b506103f061120b565b6040516103fd9190612ecc565b60405180910390f35b34801561041257600080fd5b5061042d6004803603810190610428919061302d565b611249565b60405161043a919061328c565b60405180910390f35b34801561044f57600080fd5b506104586112d5565b6040516104659190612ecc565b60405180910390f35b34801561047a57600080fd5b506104836112db565b60405161049091906131b7565b60405180910390f35b3480156104a557600080fd5b506104c060048036038101906104bb9190612e90565b611934565b6040516104cd9190612ecc565b60405180910390f35b3480156104e257600080fd5b506104fd60048036038101906104f89190612e90565b611986565b60405161050a9190612e2b565b60405180910390f35b34801561051f57600080fd5b5061053a6004803603810190610535919061330c565b611a2a565b005b34801561054857600080fd5b50610551611afe565b60405161055e91906133f7565b60405180910390f35b34801561057357600080fd5b5061057c611b3b565b60405161058991906131b7565b60405180910390f35b34801561059e57600080fd5b506105a7611be2565b6040516105b49190613428565b60405180910390f35b3480156105c957600080fd5b506105d2611c08565b6040516105df91906131b7565b60405180910390f35b3480156105f457600080fd5b506105fd611ce1565b60405161060a91906133f7565b60405180910390f35b34801561061f57600080fd5b5061063a60048036038101906106359190613481565b611d1e565b005b34801561064857600080fd5b50610651611dac565b60405161065e9190612e2b565b60405180910390f35b34801561067357600080fd5b5061067c611dbf565b60405161068991906134d0565b60405180910390f35b61069a611de3565b005b3480156106a857600080fd5b506106b1611e2c565b6040516106be9190612ecc565b60405180910390f35b3480156106d357600080fd5b506106ee60048036038101906106e991906134eb565b611e32565b6040516106fb9190612e2b565b60405180910390f35b34801561071057600080fd5b50610719611e8b565b005b34801561072757600080fd5b50610730611ef6565b60405161073d9190612ecc565b60405180910390f35b34801561075257600080fd5b5061075b611f34565b005b6107656120d1565b005b34801561077357600080fd5b5061078e60048036038101906107899190612e90565b6120ec565b005b34801561079c57600080fd5b506107a5612344565b6040516107b291906131b7565b60405180910390f35b3480156107c757600080fd5b506107d06125fc565b6040516107dd91906131b7565b60405180910390f35b3480156107f257600080fd5b5061080d60048036038101906108089190613563565b6126d5565b60405161081a9190612ecc565b60405180910390f35b34801561082f57600080fd5b506108386127cd565b604051610845919061328c565b60405180910390f35b600060098054905090506000600d8190555060005b818110156108b5576009818154811061087f5761087e613590565b5b9060005260206000200154600d600082825461089b91906135ee565b9250508190555080806108ad90613622565b915050610863565b5050565b6108c1610a28565b50565b600b60049054906101000a900460ff1681565b6000600982106108ea57600a90506108ee565b8190505b919050565b6000808290506000805b825181101561098057600083828151811061091b5761091a613590565b5b602001015160f81c60f81b60f81c60ff16905060308110158015610940575060398111155b1561096c57603081610952919061366a565b600a8461095f919061369e565b61096991906135ee565b92505b50808061097890613622565b9150506108fd565b508092505050919050565b6000600e60026101000a81548160ff0219169083151502179055506001600e60036101000a81548160ff0219169083151502179055506109c9611b3b565b50565b600080600d83426109dd91906135ee565b446040516020016109ef929190613701565b6040516020818303038152906040528051906020012060001c610a12919061375c565b905080915050919050565b610a256112db565b50565b60606000600d4244604051602001610a41929190613701565b6040516020818303038152906040528051906020012060001c610a64919061375c565b90506000600d4543604051602001610a7d929190613701565b6040516020818303038152906040528051906020012060001c610aa0919061375c565b9050600060044244604051602001610ab9929190613701565b6040516020818303038152906040528051906020012060001c610adc919061375c565b9050600060044543604051602001610af5929190613701565b6040516020818303038152906040528051906020012060001c610b18919061375c565b9050600060068581548110610b3057610b2f613590565b5b906000526020600020018054610b45906137bc565b80601f0160208091040260200160405190810160405280929190818152602001828054610b71906137bc565b8015610bbe5780601f10610b9357610100808354040283529160200191610bbe565b820191906000526020600020905b815481529060010190602001808311610ba157829003601f168201915b50505050509050600060068581548110610bdb57610bda613590565b5b906000526020600020018054610bf0906137bc565b80601f0160208091040260200160405190810160405280929190818152602001828054610c1c906137bc565b8015610c695780601f10610c3e57610100808354040283529160200191610c69565b820191906000526020600020905b815481529060010190602001808311610c4c57829003601f168201915b505050505090506007610c87600188610c8291906135ee565b6108d7565b90806001815401808255809150506001900390600052602060002001600090919091909150556007610cc4600187610cbf91906135ee565b6108d7565b908060018154018082558091505060019003906000526020600020016000909190919091505560016007600081548110610d0157610d00613590565b5b9060005260206000200154148015610d385750600a6007600181548110610d2b57610d2a613590565b5b9060005260206000200154145b80610d8d575060016007600181548110610d5557610d54613590565b5b9060005260206000200154148015610d8c5750600a6007600081548110610d7f57610d7e613590565b5b9060005260206000200154145b5b15610e24576015600c819055506001600b60006101000a81548160ff0219169083151502179055506000600e60006101000a81548160ff0219169083151502179055506001600e60016101000a81548160ff0219169083151502179055506001600e60046101000a81548160ff02191690831515021790555060026003610e1491906137ed565b600f81905550610e226127cd565b505b600060058581548110610e3a57610e39613590565b5b906000526020600020018054610e4f906137bc565b80601f0160208091040260200160405190810160405280929190818152602001828054610e7b906137bc565b8015610ec85780601f10610e9d57610100808354040283529160200191610ec8565b820191906000526020600020905b815481529060010190602001808311610eab57829003601f168201915b50505050509050600060058581548110610ee557610ee4613590565b5b906000526020600020018054610efa906137bc565b80601f0160208091040260200160405190810160405280929190818152602001828054610f26906137bc565b8015610f735780601f10610f4857610100808354040283529160200191610f73565b820191906000526020600020905b815481529060010190602001808311610f5657829003601f168201915b505050505090506000610fa68584604051602001610f9292919061385a565b604051602081830303815290604052611249565b90506000610fd48584604051602001610fc092919061385a565b604051602081830303815290604052611249565b905060088290806001815401808255809150506001900390600052602060002001600090919091909150908161100a9190613a2a565b5060088190806001815401808255809150506001900390600052602060002001600090919091909150908161103f9190613a2a565b50611048611e8b565b7fc1dd89cc519a8102cf60e6197f8ef3266a2a5b602e8bedf695c3d3bd1538768160086040516110789190613c35565b60405180910390a15050505050505050505090565b600080836012819055506003548310806110a8575060045483115b156110c9576000600b60046101000a81548160ff0219169083151502179055505b60035483101580156110dd57506004548311155b80156110e857508383105b15611110576001600b60046101000a81548160ff021916908315150217905550826010819055505b7f4ca72dc07e5725011e0c0b68ae0495e7ac5aa4e0ba0eec02320617d8d4538e13600b60049054906101000a900460ff16601054604051611152929190613219565b60405180910390a19250929050565b600f54601054611171919061369e565b4710156111b3576040517f08c379a00000000000000000000000000000000000000000000000000000000081526004016111aa90613cc9565b60405180910390fd5b3373ffffffffffffffffffffffffffffffffffffffff166108fc600f546010546111dd919061369e565b9081150290604051600060405180830381858888f19350505050158015611208573d6000803e3d6000fd5b50565b60007fd3de8fe4049059e1a238ed5eb6a43bea612fa85aebadca074de7b391fd6fc549600c5460405161123e9190612ecc565b60405180910390a190565b60606000604051806060016040528060268152602001613f3c60269139905060006040518060400160405280600481526020017f2e706e6700000000000000000000000000000000000000000000000000000000815250905060008285836040516020016112b993929190613ce9565b6040516020818303038152906040529050809350505050919050565b60125481565b60606000600d42446040516020016112f4929190613701565b6040516020818303038152906040528051906020012060001c611317919061375c565b90506000600d4543604051602001611330929190613701565b6040516020818303038152906040528051906020012060001c611353919061375c565b905060006004424460405160200161136c929190613701565b6040516020818303038152906040528051906020012060001c61138f919061375c565b90506000600445436040516020016113a8929190613701565b6040516020818303038152906040528051906020012060001c6113cb919061375c565b90506000600685815481106113e3576113e2613590565b5b9060005260206000200180546113f8906137bc565b80601f0160208091040260200160405190810160405280929190818152602001828054611424906137bc565b80156114715780601f1061144657610100808354040283529160200191611471565b820191906000526020600020905b81548152906001019060200180831161145457829003601f168201915b5050505050905060006006858154811061148e5761148d613590565b5b9060005260206000200180546114a3906137bc565b80601f01602080910402602001604051908101604052809291908181526020018280546114cf906137bc565b801561151c5780601f106114f15761010080835404028352916020019161151c565b820191906000526020600020905b8154815290600101906020018083116114ff57829003601f168201915b50505050509050600961153a60018861153591906135ee565b6108d7565b9080600181540180825580915050600190039060005260206000200160009091909190915055600961157760018761157291906135ee565b6108d7565b9080600181540180825580915050600190039060005260206000200160009091909190915055600160096000815481106115b4576115b3613590565b5b90600052602060002001541480156115eb5750600a60096001815481106115de576115dd613590565b5b9060005260206000200154145b8061164057506001600960018154811061160857611607613590565b5b906000526020600020015414801561163f5750600a600960008154811061163257611631613590565b5b9060005260206000200154145b5b156116cb576015600d819055506001600b60016101000a81548160ff0219169083151502179055506001600e60006101000a81548160ff0219169083151502179055506000600e60016101000a81548160ff0219169083151502179055506001600e60046101000a81548160ff0219169083151502179055506001600f819055506116c96127cd565b505b6000600585815481106116e1576116e0613590565b5b9060005260206000200180546116f6906137bc565b80601f0160208091040260200160405190810160405280929190818152602001828054611722906137bc565b801561176f5780601f106117445761010080835404028352916020019161176f565b820191906000526020600020905b81548152906001019060200180831161175257829003601f168201915b5050505050905060006005858154811061178c5761178b613590565b5b9060005260206000200180546117a1906137bc565b80601f01602080910402602001604051908101604052809291908181526020018280546117cd906137bc565b801561181a5780601f106117ef5761010080835404028352916020019161181a565b820191906000526020600020905b8154815290600101906020018083116117fd57829003601f168201915b50505050509050600061184d858460405160200161183992919061385a565b604051602081830303815290604052611249565b9050600061187b858460405160200161186792919061385a565b604051602081830303815290604052611249565b9050600a829080600181540180825580915050600190039060005260206000200160009091909190915090816118b19190613a2a565b50600a819080600181540180825580915050600190039060005260206000200160009091909190915090816118e69190613a2a565b506118ef61084e565b7fd6d0a7dd897167b23beb6a7ca35237073632569263cf60e176469f70ae939816600a60405161191f9190613c35565b60405180910390a15050505050505050505090565b600080600460014261194691906135ee565b44604051602001611958929190613701565b6040516020818303038152906040528051906020012060001c61197b919061375c565b905080915050919050565b600060025482106119b1576001600b60036101000a81548160ff0219169083151502179055506119cd565b6000600b60036101000a81548160ff0219169083151502179055505b7fd8f0cc0ad1816c0b2e2a2c5e7304d307c87f495a82c92d9853d446abd884ea6b600b60039054906101000a900460ff16604051611a0b9190612e2b565b60405180910390a1600b60039054906101000a900460ff169050919050565b600160009054906101000a900473ffffffffffffffffffffffffffffffffffffffff1673ffffffffffffffffffffffffffffffffffffffff163373ffffffffffffffffffffffffffffffffffffffff1614611aba576040517f08c379a0000000000000000000000000000000000000000000000000000000008152600401611ab190613d66565b60405180910390fd5b80600160006101000a81548173ffffffffffffffffffffffffffffffffffffffff021916908373ffffffffffffffffffffffffffffffffffffffff16021790555050565b60607f219282380dc15795dfa77538b195e28a43b4088da4e95a379dfef0c6d6847d0d6007604051611b309190613e5c565b60405180910390a190565b606060005b6011600d541015611b6757611b54816120ec565b8080611b5f90613622565b915050611b40565b6000600e60036101000a81548160ff0219169083151502179055506001600e60046101000a81548160ff0219169083151502179055507f4c645466e5d563874cef3427ae622e2ad662823fcb5ea1fc2a32b3d9bec43a0f600a604051611bcd9190613c35565b60405180910390a1611bdd6127cd565b505090565b600160009054906101000a900473ffffffffffffffffffffffffffffffffffffffff1681565b6060600a805480602002602001604051908101604052809291908181526020016000905b82821015611cd8578382906000526020600020018054611c4b906137bc565b80601f0160208091040260200160405190810160405280929190818152602001828054611c77906137bc565b8015611cc45780601f10611c9957610100808354040283529160200191611cc4565b820191906000526020600020905b815481529060010190602001808311611ca757829003601f168201915b505050505081526020019060010190611c2c565b50505050905090565b60607f8a4ac2ad7712484078085d0b7c0465f2ddc2c7588c4bd163fd589c1b845418dd6009604051611d139190613e5c565b60405180910390a190565b80471015611d61576040517f08c379a0000000000000000000000000000000000000000000000000000000008152600401611d5890613cc9565b60405180910390fd5b8173ffffffffffffffffffffffffffffffffffffffff166108fc829081150290604051600060405180830381858888f19350505050158015611da7573d6000803e3d6000fd5b505050565b600b60039054906101000a900460ff1681565b60008054906101000a900473ffffffffffffffffffffffffffffffffffffffff1681565b3373ffffffffffffffffffffffffffffffffffffffff166108fc349081150290604051600060405180830381858888f19350505050158015611e29573d6000803e3d6000fd5b50565b60115481565b600081604051602001611e459190613e7e565b6040516020818303038152906040528051906020012083604051602001611e6c9190613e7e565b6040516020818303038152906040528051906020012014905092915050565b600060078054905090506000600c8190555060005b81811015611ef25760078181548110611ebc57611ebb613590565b5b9060005260206000200154600c6000828254611ed891906135ee565b925050819055508080611eea90613622565b915050611ea0565b5050565b60007f3c30c7c52105d0a03501dcc192724ac4ae94ea3a2c8adba22084e331761d90b8600d54604051611f299190612ecc565b60405180910390a190565b611f3c6108b9565b611f44610a1d565b600b60019054906101000a900460ff168015611f6c5750600b60009054906101000a900460ff165b15611fc3576001600b60026101000a81548160ff0219169083151502179055506000600e60006101000a81548160ff0219169083151502179055506000600e60016101000a81548160ff0219169083151502179055505b600b60019054906101000a900460ff168015611ff2575060001515600b60009054906101000a900460ff161515145b15612049576001600b60026101000a81548160ff0219169083151502179055506000600e60016101000a81548160ff0219169083151502179055506001600e60006101000a81548160ff0219169083151502179055505b600b60009054906101000a900460ff168015612078575060001515600b60019054906101000a900460ff161515145b156120cf576001600b60026101000a81548160ff0219169083151502179055506001600e60016101000a81548160ff0219169083151502179055506000600e60006101000a81548160ff0219169083151502179055505b565b34601160008282546120e391906135ee565b92505081905550565b600060066120f9836109cc565b8154811061210a57612109613590565b5b90600052602060002001805461211f906137bc565b80601f016020809104026020016040519081016040528092919081815260200182805461214b906137bc565b80156121985780601f1061216d57610100808354040283529160200191612198565b820191906000526020600020905b81548152906001019060200180831161217b57829003601f168201915b50505050509050600060056121ac84611934565b815481106121bd576121bc613590565b5b9060005260206000200180546121d2906137bc565b80601f01602080910402602001604051908101604052809291908181526020018280546121fe906137bc565b801561224b5780601f106122205761010080835404028352916020019161224b565b820191906000526020600020905b81548152906001019060200180831161222e57829003601f168201915b505050505090506000828260405160200161226792919061385a565b6040516020818303038152906040529050600061228382611249565b9050600961229085612bce565b9080600181540180825580915050600190039060005260206000200160009091909190915055600a819080600181540180825580915050600190039060005260206000200160009091909190915090816122ea9190613a2a565b506122f361084e565b6015600d54111561233d576001600e60016101000a81548160ff0219169083151502179055506000600e60006101000a81548160ff0219169083151502179055506001600f819055505b5050505050565b60606000600661235460016109cc565b8154811061236557612364613590565b5b90600052602060002001805461237a906137bc565b80601f01602080910402602001604051908101604052809291908181526020018280546123a6906137bc565b80156123f35780601f106123c8576101008083540402835291602001916123f3565b820191906000526020600020905b8154815290600101906020018083116123d657829003601f168201915b50505050509050600060056124086001611934565b8154811061241957612418613590565b5b90600052602060002001805461242e906137bc565b80601f016020809104026020016040519081016040528092919081815260200182805461245a906137bc565b80156124a75780601f1061247c576101008083540402835291602001916124a7565b820191906000526020600020905b81548152906001019060200180831161248a57829003601f168201915b5050505050905060006124da83836040516020016124c692919061385a565b604051602081830303815290604052611249565b905060006124e784612bce565b905060078190806001815401808255809150506001900390600052602060002001600090919091909150556008829080600181540180825580915050600190039060005260206000200160009091909190915090816125469190613a2a565b507f7d6cae5bd13bcc94802f648594d55fef0f7be0c17fb3325f9fdcdaa9f832f98960086040516125779190613c35565b60405180910390a1612587611e8b565b6015600c5411156125f5576001600e60006101000a81548160ff0219169083151502179055506000600e60016101000a81548160ff0219169083151502179055506001600e60046101000a81548160ff0219169083151502179055506000600f819055506125f36127cd565b505b5050505090565b60606008805480602002602001604051908101604052809291908181526020016000905b828210156126cc57838290600052602060002001805461263f906137bc565b80601f016020809104026020016040519081016040528092919081815260200182805461266b906137bc565b80156126b85780601f1061268d576101008083540402835291602001916126b8565b820191906000526020600020905b81548152906001019060200180831161269b57829003601f168201915b505050505081526020019060010190612620565b50505050905090565b6000816000806101000a81548173ffffffffffffffffffffffffffffffffffffffff021916908373ffffffffffffffffffffffffffffffffffffffff16021790555060008054906101000a900473ffffffffffffffffffffffffffffffffffffffff1673ffffffffffffffffffffffffffffffffffffffff16316012819055507fc6e2ac2344b72494ae5c6c59901ac6a72b498a598bf788b6503e60dba61f82506012546040516127869190612ecc565b60405180910390a160008054906101000a900473ffffffffffffffffffffffffffffffffffffffff1673ffffffffffffffffffffffffffffffffffffffff16319050919050565b6060600760006127dd9190612d4d565b600860006127eb9190612d6e565b600960006127f99190612d4d565b600a60006128079190612d6e565b600c54600d540361289a576000600e60016101000a81548160ff0219169083151502179055506000600e60006101000a81548160ff0219169083151502179055506000600f819055506040518060400160405280600681526020017f5055534821210000000000000000000000000000000000000000000000000000815250601390816128949190613a2a565b50612b93565b600c54600d541180156128af57506015600d54105b1561293c576000600e60016101000a81548160ff0219169083151502179055506001600e60006101000a81548160ff0219169083151502179055506001600f819055506040518060400160405280600781526020017f4c4f534521212100000000000000000000000000000000000000000000000000815250601390816129369190613a2a565b50612b92565b600c54600d5410801561295157506015600c54105b15612a0a576001600e60016101000a81548160ff0219169083151502179055506000600e60006101000a81548160ff0219169083151502179055506002600f819055506040518060400160405280600681526020017f57494e2121210000000000000000000000000000000000000000000000000000815250601390816129d89190613a2a565b50612a0560008054906101000a900473ffffffffffffffffffffffffffffffffffffffff16601054611d1e565b612b91565b600c54600d54118015612a1f57506015600d54145b15612aac576000600e60016101000a81548160ff0219169083151502179055506001600e60006101000a81548160ff0219169083151502179055506001600f819055506040518060400160405280600781526020017f4c4f53452121210000000000000000000000000000000000000000000000000081525060139081612aa69190613a2a565b50612b90565b600c54600d54108015612ac157506015600c54145b15612b8f576001600e60016101000a81548160ff0219169083151502179055506000600e60006101000a81548160ff02191690831515021790555060026005612b0a91906137ed565b600f819055506040518060400160405280600681526020017f57494e212121000000000000000000000000000000000000000000000000000081525060139081612b549190613a2a565b50612b8e60008054906101000a900473ffffffffffffffffffffffffffffffffffffffff16600f54601054612b89919061369e565b611d1e565b5b5b5b5b5b7fae867731ffefd6a37b56025a98b06b8cdd3242162fc1eb19cc855e175db6115a6013604051612bc39190613f19565b60405180910390a190565b6000612c0f826040518060400160405280600181526020017f4100000000000000000000000000000000000000000000000000000000000000815250611e32565b15612c1d5760019050612d48565b612c5c826040518060400160405280600181526020017f3000000000000000000000000000000000000000000000000000000000000000815250611e32565b80612ca25750612ca1826040518060400160405280600181526020017f4a00000000000000000000000000000000000000000000000000000000000000815250611e32565b5b80612ce85750612ce7826040518060400160405280600181526020017f5100000000000000000000000000000000000000000000000000000000000000815250611e32565b5b80612d2e5750612d2d826040518060400160405280600181526020017f4b00000000000000000000000000000000000000000000000000000000000000815250611e32565b5b15612d3c57600a9050612d48565b612d45826108f3565b90505b919050565b5080546000825590600052602060002090810190612d6b9190612d8f565b50565b5080546000825590600052602060002090810190612d8c9190612dac565b50565b5b80821115612da8576000816000905550600101612d90565b5090565b5b80821115612dcc5760008181612dc39190612dd0565b50600101612dad565b5090565b508054612ddc906137bc565b6000825580601f10612dee5750612e0d565b601f016020900490600052602060002090810190612e0c9190612d8f565b5b50565b60008115159050919050565b612e2581612e10565b82525050565b6000602082019050612e406000830184612e1c565b92915050565b6000604051905090565b600080fd5b600080fd5b6000819050919050565b612e6d81612e5a565b8114612e7857600080fd5b50565b600081359050612e8a81612e64565b92915050565b600060208284031215612ea657612ea5612e50565b5b6000612eb484828501612e7b565b91505092915050565b612ec681612e5a565b82525050565b6000602082019050612ee16000830184612ebd565b92915050565b600080fd5b600080fd5b6000601f19601f8301169050919050565b7f4e487b7100000000000000000000000000000000000000000000000000000000600052604160045260246000fd5b612f3a82612ef1565b810181811067ffffffffffffffff82111715612f5957612f58612f02565b5b80604052505050565b6000612f6c612e46565b9050612f788282612f31565b919050565b600067ffffffffffffffff821115612f9857612f97612f02565b5b612fa182612ef1565b9050602081019050919050565b82818337600083830152505050565b6000612fd0612fcb84612f7d565b612f62565b905082815260208101848484011115612fec57612feb612eec565b5b612ff7848285612fae565b509392505050565b600082601f83011261301457613013612ee7565b5b8135613024848260208601612fbd565b91505092915050565b60006020828403121561304357613042612e50565b5b600082013567ffffffffffffffff81111561306157613060612e55565b5b61306d84828501612fff565b91505092915050565b600081519050919050565b600082825260208201905092915050565b6000819050602082019050919050565b600081519050919050565b600082825260208201905092915050565b60005b838110156130dc5780820151818401526020810190506130c1565b60008484015250505050565b60006130f3826130a2565b6130fd81856130ad565b935061310d8185602086016130be565b61311681612ef1565b840191505092915050565b600061312d83836130e8565b905092915050565b6000602082019050919050565b600061314d82613076565b6131578185613081565b93508360208202850161316985613092565b8060005b858110156131a557848403895281516131868582613121565b945061319183613135565b925060208a0199505060018101905061316d565b50829750879550505050505092915050565b600060208201905081810360008301526131d18184613142565b905092915050565b600080604083850312156131f0576131ef612e50565b5b60006131fe85828601612e7b565b925050602061320f85828601612e7b565b9150509250929050565b600060408201905061322e6000830185612e1c565b61323b6020830184612ebd565b9392505050565b600082825260208201905092915050565b600061325e826130a2565b6132688185613242565b93506132788185602086016130be565b61328181612ef1565b840191505092915050565b600060208201905081810360008301526132a68184613253565b905092915050565b600073ffffffffffffffffffffffffffffffffffffffff82169050919050565b60006132d9826132ae565b9050919050565b6132e9816132ce565b81146132f457600080fd5b50565b600081359050613306816132e0565b92915050565b60006020828403121561332257613321612e50565b5b6000613330848285016132f7565b91505092915050565b600081519050919050565b600082825260208201905092915050565b6000819050602082019050919050565b61336e81612e5a565b82525050565b60006133808383613365565b60208301905092915050565b6000602082019050919050565b60006133a482613339565b6133ae8185613344565b93506133b983613355565b8060005b838110156133ea5781516133d18882613374565b97506133dc8361338c565b9250506001810190506133bd565b5085935050505092915050565b600060208201905081810360008301526134118184613399565b905092915050565b613422816132ce565b82525050565b600060208201905061343d6000830184613419565b92915050565b600061344e826132ae565b9050919050565b61345e81613443565b811461346957600080fd5b50565b60008135905061347b81613455565b92915050565b6000806040838503121561349857613497612e50565b5b60006134a68582860161346c565b92505060206134b785828601612e7b565b9150509250929050565b6134ca81613443565b82525050565b60006020820190506134e560008301846134c1565b92915050565b6000806040838503121561350257613501612e50565b5b600083013567ffffffffffffffff8111156135205761351f612e55565b5b61352c85828601612fff565b925050602083013567ffffffffffffffff81111561354d5761354c612e55565b5b61355985828601612fff565b9150509250929050565b60006020828403121561357957613578612e50565b5b60006135878482850161346c565b91505092915050565b7f4e487b7100000000000000000000000000000000000000000000000000000000600052603260045260246000fd5b7f4e487b7100000000000000000000000000000000000000000000000000000000600052601160045260246000fd5b60006135f982612e5a565b915061360483612e5a565b925082820190508082111561361c5761361b6135bf565b5b92915050565b600061362d82612e5a565b91507fffffffffffffffffffffffffffffffffffffffffffffffffffffffffffffffff820361365f5761365e6135bf565b5b600182019050919050565b600061367582612e5a565b915061368083612e5a565b9250828203905081811115613698576136976135bf565b5b92915050565b60006136a982612e5a565b91506136b483612e5a565b92508282026136c281612e5a565b915082820484148315176136d9576136d86135bf565b5b5092915050565b6000819050919050565b6136fb6136f682612e5a565b6136e0565b82525050565b600061370d82856136ea565b60208201915061371d82846136ea565b6020820191508190509392505050565b7f4e487b7100000000000000000000000000000000000000000000000000000000600052601260045260246000fd5b600061376782612e5a565b915061377283612e5a565b9250826137825761378161372d565b5b828206905092915050565b7f4e487b7100000000000000000000000000000000000000000000000000000000600052602260045260246000fd5b600060028204905060018216806137d457607f821691505b6020821081036137e7576137e661378d565b5b50919050565b60006137f882612e5a565b915061380383612e5a565b9250826138135761381261372d565b5b828204905092915050565b600081905092915050565b6000613834826130a2565b61383e818561381e565b935061384e8185602086016130be565b80840191505092915050565b60006138668285613829565b91506138728284613829565b91508190509392505050565b60008190508160005260206000209050919050565b60006020601f8301049050919050565b600082821b905092915050565b6000600883026138e07fffffffffffffffffffffffffffffffffffffffffffffffffffffffffffffffff826138a3565b6138ea86836138a3565b95508019841693508086168417925050509392505050565b6000819050919050565b600061392761392261391d84612e5a565b613902565b612e5a565b9050919050565b6000819050919050565b6139418361390c565b61395561394d8261392e565b8484546138b0565b825550505050565b600090565b61396a61395d565b613975818484613938565b505050565b5b818110156139995761398e600082613962565b60018101905061397b565b5050565b601f8211156139de576139af8161387e565b6139b884613893565b810160208510156139c7578190505b6139db6139d385613893565b83018261397a565b50505b505050565b600082821c905092915050565b6000613a01600019846008026139e3565b1980831691505092915050565b6000613a1a83836139f0565b9150826002028217905092915050565b613a33826130a2565b67ffffffffffffffff811115613a4c57613a4b612f02565b5b613a5682546137bc565b613a6182828561399d565b600060209050601f831160018114613a945760008415613a82578287015190505b613a8c8582613a0e565b865550613af4565b601f198416613aa28661387e565b60005b82811015613aca57848901518255600182019150602085019450602081019050613aa5565b86831015613ae75784890151613ae3601f8916826139f0565b8355505b6001600288020188555050505b505050505050565b600081549050919050565b60008190508160005260206000209050919050565b60008154613b29816137bc565b613b3381866130ad565b94506001821660008114613b4e5760018114613b6457613b97565b60ff198316865281151560200286019350613b97565b613b6d8561387e565b60005b83811015613b8f57815481890152600182019150602081019050613b70565b808801955050505b50505092915050565b6000613bac8383613b1c565b905092915050565b6000600182019050919050565b6000613bcc82613afc565b613bd68185613081565b935083602082028501613be885613b07565b8060005b85811015613c2357848403895281613c048582613ba0565b9450613c0f83613bb4565b925060208a01995050600181019050613bec565b50829750879550505050505092915050565b60006020820190508181036000830152613c4f8184613bc1565b905092915050565b7f496e73756666696369656e742062616c616e636520696e2074686520636f6e7460008201527f7261637400000000000000000000000000000000000000000000000000000000602082015250565b6000613cb3602483613242565b9150613cbe82613c57565b604082019050919050565b60006020820190508181036000830152613ce281613ca6565b9050919050565b6000613cf58286613829565b9150613d018285613829565b9150613d0d8284613829565b9150819050949350505050565b7f4f6e6c7920746865206f776e65722063616e20646f2074686174210000000000600082015250565b6000613d50601b83613242565b9150613d5b82613d1a565b602082019050919050565b60006020820190508181036000830152613d7f81613d43565b9050919050565b600081549050919050565b60008190508160005260206000209050919050565b60008160001c9050919050565b6000819050919050565b6000613dd0613dcb83613da6565b613db3565b9050919050565b6000613de38254613dbd565b9050919050565b6000600182019050919050565b6000613e0282613d86565b613e0c8185613344565b9350613e1783613d91565b8060005b83811015613e4f57613e2c82613dd7565b613e368882613374565b9750613e4183613dea565b925050600181019050613e1b565b5085935050505092915050565b60006020820190508181036000830152613e768184613df7565b905092915050565b6000613e8a8284613829565b915081905092915050565b60008154613ea2816137bc565b613eac8186613242565b94506001821660008114613ec75760018114613edd57613f10565b60ff198316865281151560200286019350613f10565b613ee68561387e565b60005b83811015613f0857815481890152600182019150602081019050613ee9565b808801955050505b50505092915050565b60006020820190508181036000830152613f338184613e95565b90509291505056fe68747470733a2f2f6465636b6f6663617264736170692e636f6d2f7374617469632f696d672fa2646970667358221220be69e64f94709bed0b911f48f0287c6fe8dbe7368d7f33e1c5a153e735a9afc664736f6c63430008110033",
  "immutableReferences": {},
  "source": "// SPDX-License-Identifier: MIT\npragma solidity >=0.4.22 <0.9.0;\n\n\ncontract Blackjack{\n   address payable public playerAddress;\n    //* Keep the owner address\n    address public owner;\n    //* keep the minimum balance to play\n    uint private minBalance = 10000000000000000000;\n\n    //* this is the minimum sum to play\n    uint private minimum = 10000000000000000;\n    //* this is the maximum sum to play\n    uint private maximum = 1000000000000000000;\n    //* this is the suits (each of the value represent a suit)\n    string[] suits = [\"H\", \"S\", \"D\", \"C\"];\n    //* this is the card values\n    // prettier-ignore\n    string[] ranks = [\"A\", \"2\", \"3\", \"4\", \"5\", \"6\", \"7\", \"8\", \"9\", \"0\", \"J\", \"Q\", \"K\"];\n\n    uint[] playerCardValues;\n    string[] playerCardsUrls;\n    uint[] dealercardValues;\n    string[] dealerCardsUrls;\n\n    bool isBlackForPlayer = false;\n    bool isBlackForDealer = false;\n\n    bool finishGame = false;\n    //* this is the variable that is updated when the minimum balance function runs\n    bool public balanceChecker;\n  \n    //* this is the variable that check the number in the input is more than the minimum to play and less than the maximum to play\n    bool public inputChecked = true;\n\n    uint playerCounter = 0;\n    uint dealerCounter = 0;\n\n    bool loosedPlayer = false;\n    bool loosedDealer = false;\n\n    bool canTakeNewCardPlayer = true;\n    bool canTakeNewCardDealer = false;\n\n    bool gameFinished = false;\n\n    uint payment = 1;\n    uint paymentSum = 0 ; \n    uint public balance;\n\n    //* This constructor get the smart contract owner address\n    constructor (){\n        owner = msg.sender;\n        balance = 0;\n        // We want to call this function when the player want to play a new game\n        //   deckcard = createDeck();\n    }\n    \n\n    function startGame() external {\n        givetwoCardsToPlayer();\n        givetwoCardsToDealer();\n        if(isBlackForDealer && isBlackForPlayer){\n            // NEED TO WORK ON THE END OF THE GAME\n            finishGame = true;\n            loosedPlayer = false;\n            loosedDealer = false;\n        }    \n        if(isBlackForDealer && isBlackForPlayer == false ){ \n            finishGame = true;\n            loosedDealer = false;\n            loosedPlayer = true;\n        }\n        if(isBlackForPlayer && isBlackForDealer == false){ \n            finishGame = true;\n            loosedDealer = true;\n            loosedPlayer = false;        \n        }     \n    }\n\n    //* The modifier check if the user is the smart contract owner\n    modifier onlyOwner(){\n        require(msg.sender == owner,\"Only the owner can do that!\");\n        _;\n    }\n\n    //* The function to transfer smart contract ownership\n    function transferOwnerShip(address newOwner) external onlyOwner{\n        owner = newOwner;\n    }\n\n    // We need to check why it's not rendering the balance value\n    uint public playerBalance = 0;\n    event initBalance(uint playerBalance);\n    //* This function gets the player address and returns the player balance\n    function getBalance(address payable addrs) public  returns(uint){\n        playerAddress = addrs;\n        playerBalance = playerAddress.balance;\n        emit initBalance(playerBalance);        \n        return playerAddress.balance;\n\n    }   \n\n    event initchecker(bool balanceChecker);\n    //* This function get the player address and check if he has anough balance in the wallet and returns true or false to the react code\n    function checkBalance(uint bal) public returns(bool){\n        if(bal >= minBalance){\n            balanceChecker = true;\n        }\n        else{\n            balanceChecker = false;\n        }\n        emit initchecker(balanceChecker);\n        return balanceChecker;\n    }\n\n    event inpuchecker(bool, uint);\n    //* The function gets from the frontend sum entered to play and verify if it's more than the minimum and less than the maximum\n    function checkInput(uint bal, uint input) public returns (bool, uint){\n        playerBalance = bal;\n        if((input < minimum || input > maximum)){\n            inputChecked = false;\n        } \n        if(input >= minimum && input <= maximum && input < bal)\n        {\n            inputChecked = true;\n            paymentSum = input;\n        }\n        emit inpuchecker(inputChecked,paymentSum );\n        // return inputChecked;\n    }\n\n    //* Checks if 2 strings are equals (helper function)\n    function compareStrings(string memory a, string memory b) public pure returns (bool) {\n    return (keccak256(abi.encodePacked((a))) == keccak256(abi.encodePacked((b))));\n    }\n\n    //* gets a string and return a interger (helper function)\n    function stringToUint(string memory s) public pure returns (uint) {\n        bytes memory b = bytes(s);\n        uint result = 0;\n        for (uint256 i = 0; i < b.length; i++) {\n            uint256 c = uint256(uint8(b[i]));\n            if (c >= 48 && c <= 57) {\n                result = result * 10 + (c - 48);\n            }\n        }\n        return result;\n    }\n\n    // The function creates URL for the ui\n    function createUrlForUI(string memory card) public pure returns (string memory) {\n        string memory cardLink = \"https://deckofcardsapi.com/static/img/\";\n        string memory cardType = \".png\";\n        string memory cardLinkNew = string.concat(cardLink,card,cardType);\n        return cardLinkNew;\n    }\n\n    // This function returns the cards of the player\n    event returnPlayerCardvale(uint[]);\n    function showPlayerCardvalue() public returns(uint[] memory){\n        emit returnPlayerCardvale(playerCardValues);\n        // return playerCardValues;\n    }\n    function showPlayerCardUrls() public view returns(string[] memory){\n        return playerCardsUrls;\n    }\n    // This function returns the cards of the dealer\n    \n    event returnDealerCardvale(uint[]);\n    function showDealerCardvalue() public returns(uint[] memory){\n        emit returnDealerCardvale( dealercardValues);\n        // return dealercardValues;\n    }\n    function showDealerCardUrls() public view returns(string[] memory){\n        return dealerCardsUrls;\n    }\n    // It starts the game and give to the player 2 cards\n    function givetwoCardsToPlayer() public {\n        generateTwoRandomNumbersToPlayer();\n    }\n    // It starts the game and give to the dealer 2 cards\n    function givetwoCardsToDealer() public {\n        generateTwoRandomNumbersToDealer();\n    }\n    event returnDealerCounter(uint);\n    function showDealerCounter() public returns(uint ){\n        emit returnDealerCounter(dealerCounter);\n        // return dealerCounter;\n    }\n    event returnPlayerCounter(uint);\n    function showPlayerCounter() public returns(uint ){\n        emit returnPlayerCounter(playerCounter);\n        // return playerCounter;\n    }\n\n    //* The function sums the cards values for dealer and player\n    function sumOfCardsPlayer() public{\n        uint lenOfPlayerCards = playerCardValues.length;\n        // uint lenOfDealerCards = dealercardValues.length;\n\n        playerCounter = 0;\n        // uint playerCounter = 0;\n        for(uint i = 0; i < lenOfPlayerCards; i++){\n            playerCounter += playerCardValues[i];\n        }\n        \n        // dealerCounter = 0;\n        // uint dealerCounter = 0;\n        // for(uint i = 0; i < lenOfDealerCards; i++){\n        //     dealerCounter += dealercardValues[i];\n        // }\n    } \n    function sumOfCardsDealer() public{\n        uint lenOfDealerCards = dealercardValues.length;\n        dealerCounter = 0;\n        for(uint j = 0; j < lenOfDealerCards; j++){\n            dealerCounter += dealercardValues[j];\n        }\n    }\n\n    // The function convert value that are more than 10 to be 10\n    function checkValue(uint num) public pure returns(uint){\n        if(num >= 9)return 10;\n        return num;\n        \n    }\n\n    event returnPlayerUrls(string[]);\n    // The function generate 2 random cards to the player\n    function generateTwoRandomNumbersToPlayer() public returns( string[] memory) {\n        uint randomNumber1 = uint(keccak256(abi.encodePacked(block.timestamp, block.difficulty))) % 13;\n        uint randomNumber2 = uint(keccak256(abi.encodePacked(block.gaslimit, block.number))) % 13;\n        \n        uint randomSuit1 = uint(keccak256(abi.encodePacked(block.timestamp, block.difficulty))) % 4;\n        uint randomSuit2 = uint(keccak256(abi.encodePacked(block.gaslimit, block.number))) % 4;\n\n        string memory rankNumber1 = ranks[randomNumber1];\n        string memory rankNumber2 = ranks[randomNumber2];\n        playerCardValues.push(checkValue(randomNumber1+1));\n        playerCardValues.push(checkValue(randomNumber2+1));\n        if((playerCardValues[0] == 1 && playerCardValues[1]==10) ||\n            (playerCardValues[1] == 1 && playerCardValues[0]==10)){\n                playerCounter = 21;\n                isBlackForPlayer = true;\n                loosedPlayer = false;\n                loosedDealer = true;\n                gameFinished = true;\n                payment = 3/uint256(2);\n                finishTheGame();\n        }\n        string memory suitNumber1 = suits[randomSuit1];\n        string memory suitNumber2 = suits[randomSuit2];\n\n        string memory card1 = createUrlForUI(string.concat(rankNumber1,suitNumber1));\n        string memory card2 = createUrlForUI(string.concat(rankNumber2,suitNumber2));\n\n        playerCardsUrls.push(card1);\n        playerCardsUrls.push(card2);\n\n        sumOfCardsPlayer();\n        emit returnPlayerUrls(playerCardsUrls);\n        // return playerCardsUrls;\n        \n    }\n\n    event returnDealerUrls(string[]);\n\n    // The function generate 2 random cards to the dealer\n    function generateTwoRandomNumbersToDealer() public returns( string[] memory) {\n        uint randomNumber11 = uint(keccak256(abi.encodePacked(block.timestamp, block.difficulty))) % 13;\n        uint randomNumber22 = uint(keccak256(abi.encodePacked(block.gaslimit, block.number))) % 13;\n\n        uint randomSuit11 = uint(keccak256(abi.encodePacked(block.timestamp, block.difficulty))) % 4;\n        uint randomSuit22 = uint(keccak256(abi.encodePacked(block.gaslimit, block.number))) % 4;\n\n        string memory rankNumber11 = ranks[randomNumber11];\n        string memory rankNumber22 = ranks[randomNumber22];\n        dealercardValues.push(checkValue(randomNumber11+1));\n        dealercardValues.push(checkValue(randomNumber22+1));\n        if((dealercardValues[0] == 1 && dealercardValues[1]==10) ||\n            (dealercardValues[1] == 1 && dealercardValues[0]==10)){\n                dealerCounter = 21;\n                isBlackForDealer = true;\n                loosedPlayer = true;\n                loosedDealer = false;\n                gameFinished = true;\n                payment = 1;\n                finishTheGame();\n\n        }\n        string memory suitNumber11 = suits[randomSuit11];\n        string memory suitNumber22 = suits[randomSuit22];\n\n        string memory card1 = createUrlForUI(string.concat(rankNumber11,suitNumber11));\n        string memory card2 = createUrlForUI(string.concat(rankNumber22,suitNumber22));\n\n        dealerCardsUrls.push(card1);\n        dealerCardsUrls.push(card2);\n\n        sumOfCardsDealer();\n        emit returnDealerUrls( dealerCardsUrls);\n    }\n   \n   event showPlayerCardPics(string[]);\n    //* The function add to the player a new random card\n    function getRandomCardValueToPlayer() public returns(string[] memory) {\n        string memory rankNumber = ranks[getRandomRank(1)];\n        string memory suitNumber = suits[getRandomSuit(1)];\n        string memory card = createUrlForUI(string.concat(rankNumber,suitNumber));\n        uint  cardVal = getRankNum(rankNumber);\n        playerCardValues.push(cardVal);\n        playerCardsUrls.push(card);\n        emit showPlayerCardPics(playerCardsUrls);\n        sumOfCardsPlayer();\n        if(playerCounter > 21){\n            loosedPlayer = true;\n            loosedDealer = false;\n            gameFinished = true;\n            payment = 0;\n            finishTheGame();\n            \n        }\n    }\n\n    event showDealerCardPics(string[]);\n    //* The function adds to the dealer cards while he arrives to 17 or more\n    function dealerCardDistributer() public returns(string[] memory){\n        uint count = 0; \n        while(dealerCounter < 17){\n            getRandomCardValueToDealer(count);\n            count ++;            \n        }\n        canTakeNewCardDealer = false;\n        gameFinished = true;\n        emit showDealerCardPics(dealerCardsUrls);\n        finishTheGame();        \n    }\n\n    //* The function add to the dealer a new random card\n    function getRandomCardValueToDealer(uint val) public {\n        \n        string memory rankNumber = ranks[getRandomRank(val)];\n        string memory suitNumber = suits[getRandomSuit(val)];\n        string memory card = string.concat(rankNumber,suitNumber);\n        string memory card1 = createUrlForUI(card);\n        dealercardValues.push(getRankNum(rankNumber));\n        dealerCardsUrls.push(card1);\n        sumOfCardsDealer();\n         if(dealerCounter > 21){\n            loosedDealer = true;\n            loosedPlayer = false;\n            payment = 1;\n        }\n    }\n\n    //* The function gets a random number from 0 to 12\n    function getRandomRank(uint val) public view returns (uint256) {\n        uint256 _randomNumber = uint256(keccak256(abi.encodePacked(block.timestamp+val, block.difficulty))) % 13; // Generate random number between 0 to 12\n        return (_randomNumber); \n    }\n\n    //* The function get a random number from 0 to 3\n    function getRandomSuit(uint val) public view returns (uint256) {\n        uint256 _randomNumber = uint256(keccak256(abi.encodePacked(block.timestamp+1, block.difficulty))) % 4; // Generate random number between 0 to 12\n        return (_randomNumber); \n    }\n\n\n\n    // The function gets the rank (string - first value) of a certain card in the deck and returns the number of card\n    function getRankNum(string memory rank) internal pure returns (uint){\n        if(compareStrings(rank,\"A\")){\n            return 1;\n        }\n        if( compareStrings(rank,\"0\") || compareStrings(rank,\"J\") || compareStrings(rank,\"Q\") || compareStrings(rank, \"K\" )){\n            return 10;\n        }\n        else{\n            return stringToUint(rank);\n        }\n    }\n\n    function finishGiveCard() external{\n        canTakeNewCardPlayer = false;\n        canTakeNewCardDealer = true;\n        dealerCardDistributer();\n    }\n    \n    string dt = \"\";\n    event returnResultData(string);\n    // The function returns if the player won or lost\n    function finishTheGame() public returns(string memory){\n        delete playerCardValues;\n        delete playerCardsUrls;\n        delete dealercardValues;\n        delete dealerCardsUrls;\n        if(dealerCounter == playerCounter){\n            loosedDealer = false;\n            loosedPlayer = false;\n            payment = 0;\n            dt = \"PUSH!!\"; \n        }\n        else if((dealerCounter > playerCounter) && dealerCounter < 21 ){\n            loosedDealer = false;\n            loosedPlayer = true;\n            payment = 1;\n            dt = \"LOSE!!!\";\n            // contribute();\n        }else if((dealerCounter < playerCounter) && playerCounter < 21 ){\n            loosedDealer = true;\n            loosedPlayer = false;\n            payment = 2;            \n            dt = \"WIN!!!\";\n            transferFunds(playerAddress,paymentSum);\n        }\n         else if((dealerCounter > playerCounter) && dealerCounter == 21 ){\n            loosedDealer = false;\n            loosedPlayer = true;\n            payment = 1;\n            dt = \"LOSE!!!\";\n            // contribute();\n        }else if((dealerCounter < playerCounter) && playerCounter == 21 ){\n            loosedDealer = true;\n            loosedPlayer = false;\n            payment = 5/uint256(2);\n            dt = \"WIN!!!\";\n            transferFunds(playerAddress,paymentSum*payment);\n\n        }\n        emit returnResultData(dt);\n      \n    }\n\n\n    function paymentToPlayer() public payable{\n        require(address(this).balance >= paymentSum*payment, \"Insufficient balance in the contract\");\n        payable (msg.sender).transfer(paymentSum * payment);\n        // payable (msg.sender).transfer(4000000000000000000);\n    }\n\n    function transferFunds(address payable recipient, uint amount) public {\n        require(address(this).balance >= amount, \"Insufficient balance in the contract\");\n        recipient.transfer(amount);\n    }\n\n    function contribute() public payable{\n        // msg.value is the value of Ether sent in a transaction\n        balance += msg.value;\n    }\n\n    function send() public payable{\n        payable (msg.sender).transfer(msg.value);\n    }\n}\n\n    // mapping(address => uint256) public balances;\n\n    // function deposit() public payable {\n    //     balances[msg.sender] += msg.value;\n    // }\n\n    // function collect() public {\n    //     uint256 amount = balances[msg.sender];\n    //     require(amount > 0, \"No balance to withdraw\");\n\n    //     balances[msg.sender] = 0;\n    //     payable(address(this)).transfer(amount);\n    // }\n\n\n    // function paymentToDealer() public payable{\n    //     require(address(this).balance >= paymentSum*payment, \"Insufficient balance in the contract\");\n    //     playerAddress.transfer(paymentSum * payment);\n    // }\n// }",
  "sourcePath": "/Users/gabrielnakache/Desktop/Solidity Project/js1-app-code/contracts/Blackjack.sol",
  "compiler": {
    "name": "solc",
    "version": "0.8.17+commit.8df45f5f.Emscripten.clang"
  },
  "schemaVersion": "3.4.11",
  "updatedAt": "2023-04-13T19:48:23.254Z",
  "networkType": "ethereum",
  "devdoc": {
    "kind": "dev",
    "methods": {},
    "version": 1
  },
  "userdoc": {
    "kind": "user",
    "methods": {},
    "version": 1
  }
}