{
  "contractName": "Blackjack",
  "abi": [
    {
      "inputs": [],
      "stateMutability": "nonpayable",
      "type": "constructor"
    },
    {
      "anonymous": false,
      "inputs": [
        {
          "indexed": false,
          "internalType": "uint256",
          "name": "playerBalance",
          "type": "uint256"
        }
      ],
      "name": "initBalance",
      "type": "event"
    },
    {
      "anonymous": false,
      "inputs": [
        {
          "indexed": false,
          "internalType": "bool",
          "name": "balanceChecker",
          "type": "bool"
        }
      ],
      "name": "initchecker",
      "type": "event"
    },
    {
      "anonymous": false,
      "inputs": [
        {
          "indexed": false,
          "internalType": "bool",
          "name": "inputChecked",
          "type": "bool"
        }
      ],
      "name": "inpuchecker",
      "type": "event"
    },
    {
      "anonymous": false,
      "inputs": [
        {
          "indexed": false,
          "internalType": "uint256[]",
          "name": "",
          "type": "uint256[]"
        }
      ],
      "name": "returnDealerCardvale",
      "type": "event"
    },
    {
      "anonymous": false,
      "inputs": [
        {
          "indexed": false,
          "internalType": "uint256",
          "name": "",
          "type": "uint256"
        }
      ],
      "name": "returnDealerCounter",
      "type": "event"
    },
    {
      "anonymous": false,
      "inputs": [
        {
          "indexed": false,
          "internalType": "string[]",
          "name": "",
          "type": "string[]"
        }
      ],
      "name": "returnDealerUrls",
      "type": "event"
    },
    {
      "anonymous": false,
      "inputs": [
        {
          "indexed": false,
          "internalType": "uint256[]",
          "name": "",
          "type": "uint256[]"
        }
      ],
      "name": "returnPlayerCardvale",
      "type": "event"
    },
    {
      "anonymous": false,
      "inputs": [
        {
          "indexed": false,
          "internalType": "uint256",
          "name": "",
          "type": "uint256"
        }
      ],
      "name": "returnPlayerCounter",
      "type": "event"
    },
    {
      "anonymous": false,
      "inputs": [
        {
          "indexed": false,
          "internalType": "string[]",
          "name": "",
          "type": "string[]"
        }
      ],
      "name": "returnPlayerUrls",
      "type": "event"
    },
    {
      "anonymous": false,
      "inputs": [
        {
          "indexed": false,
          "internalType": "string[]",
          "name": "",
          "type": "string[]"
        }
      ],
      "name": "showDealerCardPics",
      "type": "event"
    },
    {
      "anonymous": false,
      "inputs": [
        {
          "indexed": false,
          "internalType": "string[]",
          "name": "",
          "type": "string[]"
        }
      ],
      "name": "showPlayerCardPics",
      "type": "event"
    },
    {
      "inputs": [],
      "name": "balance",
      "outputs": [
        {
          "internalType": "uint256",
          "name": "",
          "type": "uint256"
        }
      ],
      "stateMutability": "view",
      "type": "function",
      "constant": true
    },
    {
      "inputs": [],
      "name": "balanceChecker",
      "outputs": [
        {
          "internalType": "bool",
          "name": "",
          "type": "bool"
        }
      ],
      "stateMutability": "view",
      "type": "function",
      "constant": true
    },
    {
      "inputs": [],
      "name": "inputChecked",
      "outputs": [
        {
          "internalType": "bool",
          "name": "",
          "type": "bool"
        }
      ],
      "stateMutability": "view",
      "type": "function",
      "constant": true
    },
    {
      "inputs": [],
      "name": "owner",
      "outputs": [
        {
          "internalType": "address",
          "name": "",
          "type": "address"
        }
      ],
      "stateMutability": "view",
      "type": "function",
      "constant": true
    },
    {
      "inputs": [],
      "name": "playerAddress",
      "outputs": [
        {
          "internalType": "address payable",
          "name": "",
          "type": "address"
        }
      ],
      "stateMutability": "view",
      "type": "function",
      "constant": true
    },
    {
      "inputs": [],
      "name": "playerBalance",
      "outputs": [
        {
          "internalType": "uint256",
          "name": "",
          "type": "uint256"
        }
      ],
      "stateMutability": "view",
      "type": "function",
      "constant": true
    },
    {
      "inputs": [],
      "name": "startGame",
      "outputs": [],
      "stateMutability": "nonpayable",
      "type": "function"
    },
    {
      "inputs": [
        {
          "internalType": "address",
          "name": "newOwner",
          "type": "address"
        }
      ],
      "name": "transferOwnerShip",
      "outputs": [],
      "stateMutability": "nonpayable",
      "type": "function"
    },
    {
      "inputs": [
        {
          "internalType": "address payable",
          "name": "addrs",
          "type": "address"
        }
      ],
      "name": "getBalance",
      "outputs": [
        {
          "internalType": "uint256",
          "name": "",
          "type": "uint256"
        }
      ],
      "stateMutability": "nonpayable",
      "type": "function"
    },
    {
      "inputs": [
        {
          "internalType": "uint256",
          "name": "bal",
          "type": "uint256"
        }
      ],
      "name": "checkBalance",
      "outputs": [
        {
          "internalType": "bool",
          "name": "",
          "type": "bool"
        }
      ],
      "stateMutability": "nonpayable",
      "type": "function"
    },
    {
      "inputs": [
        {
          "internalType": "uint256",
          "name": "bal",
          "type": "uint256"
        },
        {
          "internalType": "uint256",
          "name": "input",
          "type": "uint256"
        }
      ],
      "name": "checkInput",
      "outputs": [
        {
          "internalType": "bool",
          "name": "",
          "type": "bool"
        }
      ],
      "stateMutability": "nonpayable",
      "type": "function"
    },
    {
      "inputs": [
        {
          "internalType": "string",
          "name": "a",
          "type": "string"
        },
        {
          "internalType": "string",
          "name": "b",
          "type": "string"
        }
      ],
      "name": "compareStrings",
      "outputs": [
        {
          "internalType": "bool",
          "name": "",
          "type": "bool"
        }
      ],
      "stateMutability": "pure",
      "type": "function",
      "constant": true
    },
    {
      "inputs": [
        {
          "internalType": "string",
          "name": "s",
          "type": "string"
        }
      ],
      "name": "stringToUint",
      "outputs": [
        {
          "internalType": "uint256",
          "name": "",
          "type": "uint256"
        }
      ],
      "stateMutability": "pure",
      "type": "function",
      "constant": true
    },
    {
      "inputs": [
        {
          "internalType": "string",
          "name": "card",
          "type": "string"
        }
      ],
      "name": "createUrlForUI",
      "outputs": [
        {
          "internalType": "string",
          "name": "",
          "type": "string"
        }
      ],
      "stateMutability": "pure",
      "type": "function",
      "constant": true
    },
    {
      "inputs": [],
      "name": "showPlayerCardvalue",
      "outputs": [
        {
          "internalType": "uint256[]",
          "name": "",
          "type": "uint256[]"
        }
      ],
      "stateMutability": "nonpayable",
      "type": "function"
    },
    {
      "inputs": [],
      "name": "showPlayerCardUrls",
      "outputs": [
        {
          "internalType": "string[]",
          "name": "",
          "type": "string[]"
        }
      ],
      "stateMutability": "view",
      "type": "function",
      "constant": true
    },
    {
      "inputs": [],
      "name": "showDealerCardvalue",
      "outputs": [
        {
          "internalType": "uint256[]",
          "name": "",
          "type": "uint256[]"
        }
      ],
      "stateMutability": "nonpayable",
      "type": "function"
    },
    {
      "inputs": [],
      "name": "showDealerCardUrls",
      "outputs": [
        {
          "internalType": "string[]",
          "name": "",
          "type": "string[]"
        }
      ],
      "stateMutability": "view",
      "type": "function",
      "constant": true
    },
    {
      "inputs": [],
      "name": "givetwoCardsToPlayer",
      "outputs": [],
      "stateMutability": "nonpayable",
      "type": "function"
    },
    {
      "inputs": [],
      "name": "givetwoCardsToDealer",
      "outputs": [],
      "stateMutability": "nonpayable",
      "type": "function"
    },
    {
      "inputs": [],
      "name": "showDealerCounter",
      "outputs": [
        {
          "internalType": "uint256",
          "name": "",
          "type": "uint256"
        }
      ],
      "stateMutability": "nonpayable",
      "type": "function"
    },
    {
      "inputs": [],
      "name": "showPlayerCounter",
      "outputs": [
        {
          "internalType": "uint256",
          "name": "",
          "type": "uint256"
        }
      ],
      "stateMutability": "nonpayable",
      "type": "function"
    },
    {
      "inputs": [],
      "name": "sumOfCardsPlayer",
      "outputs": [],
      "stateMutability": "nonpayable",
      "type": "function"
    },
    {
      "inputs": [],
      "name": "sumOfCardsDealer",
      "outputs": [],
      "stateMutability": "nonpayable",
      "type": "function"
    },
    {
      "inputs": [
        {
          "internalType": "uint256",
          "name": "num",
          "type": "uint256"
        }
      ],
      "name": "checkValue",
      "outputs": [
        {
          "internalType": "uint256",
          "name": "",
          "type": "uint256"
        }
      ],
      "stateMutability": "pure",
      "type": "function",
      "constant": true
    },
    {
      "inputs": [],
      "name": "generateTwoRandomNumbersToPlayer",
      "outputs": [
        {
          "internalType": "string[]",
          "name": "",
          "type": "string[]"
        }
      ],
      "stateMutability": "nonpayable",
      "type": "function"
    },
    {
      "inputs": [],
      "name": "generateTwoRandomNumbersToDealer",
      "outputs": [
        {
          "internalType": "string[]",
          "name": "",
          "type": "string[]"
        }
      ],
      "stateMutability": "nonpayable",
      "type": "function"
    },
    {
      "inputs": [],
      "name": "getRandomCardValueToPlayer",
      "outputs": [
        {
          "internalType": "string[]",
          "name": "",
          "type": "string[]"
        }
      ],
      "stateMutability": "nonpayable",
      "type": "function"
    },
    {
      "inputs": [],
      "name": "dealerCardDistributer",
      "outputs": [
        {
          "internalType": "string[]",
          "name": "",
          "type": "string[]"
        }
      ],
      "stateMutability": "nonpayable",
      "type": "function"
    },
    {
      "inputs": [
        {
          "internalType": "uint256",
          "name": "val",
          "type": "uint256"
        }
      ],
      "name": "getRandomCardValueToDealer",
      "outputs": [],
      "stateMutability": "nonpayable",
      "type": "function"
    },
    {
      "inputs": [
        {
          "internalType": "uint256",
          "name": "val",
          "type": "uint256"
        }
      ],
      "name": "getRandomRank",
      "outputs": [
        {
          "internalType": "uint256",
          "name": "",
          "type": "uint256"
        }
      ],
      "stateMutability": "view",
      "type": "function",
      "constant": true
    },
    {
      "inputs": [
        {
          "internalType": "uint256",
          "name": "val",
          "type": "uint256"
        }
      ],
      "name": "getRandomSuit",
      "outputs": [
        {
          "internalType": "uint256",
          "name": "",
          "type": "uint256"
        }
      ],
      "stateMutability": "view",
      "type": "function",
      "constant": true
    },
    {
      "inputs": [],
      "name": "finishGiveCard",
      "outputs": [],
      "stateMutability": "nonpayable",
      "type": "function"
    },
    {
      "inputs": [],
      "name": "finishTheGame",
      "outputs": [
        {
          "internalType": "string",
          "name": "",
          "type": "string"
        }
      ],
      "stateMutability": "nonpayable",
      "type": "function"
    },
    {
      "inputs": [],
      "name": "paymentToPlayer",
      "outputs": [],
      "stateMutability": "payable",
      "type": "function",
      "payable": true
    },
    {
      "inputs": [],
      "name": "contribute",
      "outputs": [],
      "stateMutability": "payable",
      "type": "function",
      "payable": true
    }
  ],
  "bytecode": "0x6080604052678ac7230489e80000600255662386f26fc10000600355670de0b6b3a764000060045560405180608001604052806040518060400160405280600181526020017f480000000000000000000000000000000000000000000000000000000000000081525081526020016040518060400160405280600181526020017f530000000000000000000000000000000000000000000000000000000000000081525081526020016040518060400160405280600181526020017f440000000000000000000000000000000000000000000000000000000000000081525081526020016040518060400160405280600181526020017f430000000000000000000000000000000000000000000000000000000000000081525081525060059060046200012e929190620005b4565b50604051806101a001604052806040518060400160405280600181526020017f410000000000000000000000000000000000000000000000000000000000000081525081526020016040518060400160405280600181526020017f320000000000000000000000000000000000000000000000000000000000000081525081526020016040518060400160405280600181526020017f330000000000000000000000000000000000000000000000000000000000000081525081526020016040518060400160405280600181526020017f340000000000000000000000000000000000000000000000000000000000000081525081526020016040518060400160405280600181526020017f350000000000000000000000000000000000000000000000000000000000000081525081526020016040518060400160405280600181526020017f360000000000000000000000000000000000000000000000000000000000000081525081526020016040518060400160405280600181526020017f370000000000000000000000000000000000000000000000000000000000000081525081526020016040518060400160405280600181526020017f380000000000000000000000000000000000000000000000000000000000000081525081526020016040518060400160405280600181526020017f390000000000000000000000000000000000000000000000000000000000000081525081526020016040518060400160405280600181526020017f300000000000000000000000000000000000000000000000000000000000000081525081526020016040518060400160405280600181526020017f4a0000000000000000000000000000000000000000000000000000000000000081525081526020016040518060400160405280600181526020017f510000000000000000000000000000000000000000000000000000000000000081525081526020016040518060400160405280600181526020017f4b00000000000000000000000000000000000000000000000000000000000000815250815250600690600d6200044a92919062000614565b506000600b60006101000a81548160ff0219169083151502179055506000600b60016101000a81548160ff0219169083151502179055506000600b60026101000a81548160ff0219169083151502179055506001600b60046101000a81548160ff0219169083151502179055506000600c556000600d556000600e60006101000a81548160ff0219169083151502179055506000600e60016101000a81548160ff0219169083151502179055506001600e60026101000a81548160ff0219169083151502179055506000600e60036101000a81548160ff0219169083151502179055506000600e60046101000a81548160ff0219169083151502179055506001600f55600060105560006012553480156200056457600080fd5b5033600160006101000a81548173ffffffffffffffffffffffffffffffffffffffff021916908373ffffffffffffffffffffffffffffffffffffffff160217905550600060118190555062000a62565b82805482825590600052602060002090810192821562000601579160200282015b8281111562000600578251829081620005ef91906200097b565b5091602001919060010190620005d5565b5b50905062000610919062000674565b5090565b82805482825590600052602060002090810192821562000661579160200282015b82811115620006605782518290816200064f91906200097b565b509160200191906001019062000635565b5b50905062000670919062000674565b5090565b5b808211156200069857600081816200068e91906200069c565b5060010162000675565b5090565b508054620006aa906200076a565b6000825580601f10620006be5750620006df565b601f016020900490600052602060002090810190620006de9190620006e2565b5b50565b5b80821115620006fd576000816000905550600101620006e3565b5090565b600081519050919050565b7f4e487b7100000000000000000000000000000000000000000000000000000000600052604160045260246000fd5b7f4e487b7100000000000000000000000000000000000000000000000000000000600052602260045260246000fd5b600060028204905060018216806200078357607f821691505b6020821081036200079957620007986200073b565b5b50919050565b60008190508160005260206000209050919050565b60006020601f8301049050919050565b600082821b905092915050565b600060088302620008037fffffffffffffffffffffffffffffffffffffffffffffffffffffffffffffffff82620007c4565b6200080f8683620007c4565b95508019841693508086168417925050509392505050565b6000819050919050565b6000819050919050565b60006200085c62000856620008508462000827565b62000831565b62000827565b9050919050565b6000819050919050565b62000878836200083b565b62000890620008878262000863565b848454620007d1565b825550505050565b600090565b620008a762000898565b620008b48184846200086d565b505050565b5b81811015620008dc57620008d06000826200089d565b600181019050620008ba565b5050565b601f8211156200092b57620008f5816200079f565b6200090084620007b4565b8101602085101562000910578190505b620009286200091f85620007b4565b830182620008b9565b50505b505050565b600082821c905092915050565b6000620009506000198460080262000930565b1980831691505092915050565b60006200096b83836200093d565b9150826002028217905092915050565b620009868262000701565b67ffffffffffffffff811115620009a257620009a16200070c565b5b620009ae82546200076a565b620009bb828285620008e0565b600060209050601f831160018114620009f35760008415620009de578287015190505b620009ea85826200095d565b86555062000a5a565b601f19841662000a03866200079f565b60005b8281101562000a2d5784890151825560018201915060208501945060208101905062000a06565b8683101562000a4d578489015162000a49601f8916826200093d565b8355505b6001600288020188555050505b505050505050565b613d558062000a726000396000f3fe60806040526004361061020f5760003560e01c806388eb3a3711610118578063c16fe1ef116100a0578063ddaabf6b1161006f578063ddaabf6b1461071d578063e07c544514610746578063ecd65c0f14610771578063f8b2cb4f1461079c578063fec3e705146107d95761020f565b8063c16fe1ef146106ba578063d0498cdb146106d1578063d65ab5f2146106fc578063d7bb99ba146107135761020f565b80638ec4ebd7116100e75780638ec4ebd7146105d15780639d8c6cfb146105fc578063a146bf7a14610627578063b69ef8a814610652578063bed34bba1461067d5761020f565b806388eb3a37146105255780638c171a09146105505780638da5cb5b1461057b5780638e3411b3146105a65761020f565b8063515d1a861161019b578063651f066a1161016a578063651f066a1461042c57806373b9863d14610457578063750e71a9146104825780637f286286146104bf5780638863dd1a146104fc5761020f565b8063515d1a861461037d57806351e488b5146103ba578063545e0dde146103c457806363a20a82146103ef5761020f565b80631bd95155116101e25780631bd95155146102aa5780631cd7e64b146102e75780631dec98bf146102fe57806323820caa1461033b57806328440b47146103525761020f565b80630515513814610214578063090e15d61461022b57806313c43ab01461024257806318db62fb1461026d575b600080fd5b34801561022057600080fd5b50610229610804565b005b34801561023757600080fd5b5061024061086f565b005b34801561024e57600080fd5b5061025761087a565b6040516102649190612cf8565b60405180910390f35b34801561027957600080fd5b50610294600480360381019061028f9190612d5d565b61088d565b6040516102a19190612d99565b60405180910390f35b3480156102b657600080fd5b506102d160048036038101906102cc9190612efa565b6108a9565b6040516102de9190612d99565b60405180910390f35b3480156102f357600080fd5b506102fc610941565b005b34801561030a57600080fd5b5061032560048036038101906103209190612d5d565b610982565b6040516103329190612d99565b60405180910390f35b34801561034757600080fd5b506103506109d3565b005b34801561035e57600080fd5b506103676109de565b6040516103749190613084565b60405180910390f35b34801561038957600080fd5b506103a4600480360381019061039f91906130a6565b611043565b6040516103b19190612cf8565b60405180910390f35b6103c2611123565b005b3480156103d057600080fd5b506103d96111ed565b6040516103e69190612d99565b60405180910390f35b3480156103fb57600080fd5b5061041660048036038101906104119190612efa565b61122b565b6040516104239190613130565b60405180910390f35b34801561043857600080fd5b506104416112b7565b60405161044e9190612d99565b60405180910390f35b34801561046357600080fd5b5061046c6112bd565b6040516104799190613084565b60405180910390f35b34801561048e57600080fd5b506104a960048036038101906104a49190612d5d565b611916565b6040516104b69190612d99565b60405180910390f35b3480156104cb57600080fd5b506104e660048036038101906104e19190612d5d565b611968565b6040516104f39190612cf8565b60405180910390f35b34801561050857600080fd5b50610523600480360381019061051e91906131b0565b611a0c565b005b34801561053157600080fd5b5061053a611ae0565b604051610547919061329b565b60405180910390f35b34801561055c57600080fd5b50610565611b1d565b6040516105729190613084565b60405180910390f35b34801561058757600080fd5b50610590611bbb565b60405161059d91906132cc565b60405180910390f35b3480156105b257600080fd5b506105bb611be1565b6040516105c89190613084565b60405180910390f35b3480156105dd57600080fd5b506105e6611cba565b6040516105f3919061329b565b60405180910390f35b34801561060857600080fd5b50610611611cf7565b60405161061e9190612cf8565b60405180910390f35b34801561063357600080fd5b5061063c611d0a565b6040516106499190613308565b60405180910390f35b34801561065e57600080fd5b50610667611d2e565b6040516106749190612d99565b60405180910390f35b34801561068957600080fd5b506106a4600480360381019061069f9190613323565b611d34565b6040516106b19190612cf8565b60405180910390f35b3480156106c657600080fd5b506106cf611d8d565b005b3480156106dd57600080fd5b506106e6611df8565b6040516106f39190612d99565b60405180910390f35b34801561070857600080fd5b50610711611e36565b005b61071b611fd3565b005b34801561072957600080fd5b50610744600480360381019061073f9190612d5d565b611fee565b005b34801561075257600080fd5b5061075b612246565b6040516107689190613084565b60405180910390f35b34801561077d57600080fd5b506107866124fe565b6040516107939190613084565b60405180910390f35b3480156107a857600080fd5b506107c360048036038101906107be91906133c7565b6125d7565b6040516107d09190612d99565b60405180910390f35b3480156107e557600080fd5b506107ee6126cf565b6040516107fb9190613130565b60405180910390f35b600060098054905090506000600d8190555060005b8181101561086b5760098181548110610835576108346133f4565b5b9060005260206000200154600d60008282546108519190613452565b92505081905550808061086390613486565b915050610819565b5050565b6108776109de565b50565b600b60049054906101000a900460ff1681565b6000600982106108a057600a90506108a4565b8190505b919050565b6000808290506000805b82518110156109365760008382815181106108d1576108d06133f4565b5b602001015160f81c60f81b60f81c60ff169050603081101580156108f6575060398111155b156109225760308161090891906134ce565b600a846109159190613502565b61091f9190613452565b92505b50808061092e90613486565b9150506108b3565b508092505050919050565b6000600e60026101000a81548160ff0219169083151502179055506001600e60036101000a81548160ff02191690831515021790555061097f611b1d565b50565b600080600d83426109939190613452565b446040516020016109a5929190613565565b6040516020818303038152906040528051906020012060001c6109c891906135c0565b905080915050919050565b6109db6112bd565b50565b60606000600d42446040516020016109f7929190613565565b6040516020818303038152906040528051906020012060001c610a1a91906135c0565b90506000600d4543604051602001610a33929190613565565b6040516020818303038152906040528051906020012060001c610a5691906135c0565b9050600060044244604051602001610a6f929190613565565b6040516020818303038152906040528051906020012060001c610a9291906135c0565b9050600060044543604051602001610aab929190613565565b6040516020818303038152906040528051906020012060001c610ace91906135c0565b9050600060068581548110610ae657610ae56133f4565b5b906000526020600020018054610afb90613620565b80601f0160208091040260200160405190810160405280929190818152602001828054610b2790613620565b8015610b745780601f10610b4957610100808354040283529160200191610b74565b820191906000526020600020905b815481529060010190602001808311610b5757829003601f168201915b50505050509050600060068581548110610b9157610b906133f4565b5b906000526020600020018054610ba690613620565b80601f0160208091040260200160405190810160405280929190818152602001828054610bd290613620565b8015610c1f5780601f10610bf457610100808354040283529160200191610c1f565b820191906000526020600020905b815481529060010190602001808311610c0257829003601f168201915b505050505090506007610c3d600188610c389190613452565b61088d565b90806001815401808255809150506001900390600052602060002001600090919091909150556007610c7a600187610c759190613452565b61088d565b908060018154018082558091505060019003906000526020600020016000909190919091505560016007600081548110610cb757610cb66133f4565b5b9060005260206000200154148015610cee5750600a6007600181548110610ce157610ce06133f4565b5b9060005260206000200154145b80610d43575060016007600181548110610d0b57610d0a6133f4565b5b9060005260206000200154148015610d425750600a6007600081548110610d3557610d346133f4565b5b9060005260206000200154145b5b15610dda576015600c819055506001600b60006101000a81548160ff0219169083151502179055506000600e60006101000a81548160ff0219169083151502179055506001600e60016101000a81548160ff0219169083151502179055506001600e60046101000a81548160ff02191690831515021790555060026003610dca9190613651565b600f81905550610dd86126cf565b505b600060058581548110610df057610def6133f4565b5b906000526020600020018054610e0590613620565b80601f0160208091040260200160405190810160405280929190818152602001828054610e3190613620565b8015610e7e5780601f10610e5357610100808354040283529160200191610e7e565b820191906000526020600020905b815481529060010190602001808311610e6157829003601f168201915b50505050509050600060058581548110610e9b57610e9a6133f4565b5b906000526020600020018054610eb090613620565b80601f0160208091040260200160405190810160405280929190818152602001828054610edc90613620565b8015610f295780601f10610efe57610100808354040283529160200191610f29565b820191906000526020600020905b815481529060010190602001808311610f0c57829003601f168201915b505050505090506000610f5c8584604051602001610f489291906136be565b60405160208183030381529060405261122b565b90506000610f8a8584604051602001610f769291906136be565b60405160208183030381529060405261122b565b9050600882908060018154018082558091505060019003906000526020600020016000909190919091509081610fc0919061388e565b50600881908060018154018082558091505060019003906000526020600020016000909190919091509081610ff5919061388e565b50610ffe611d8d565b7fc1dd89cc519a8102cf60e6197f8ef3266a2a5b602e8bedf695c3d3bd15387681600860405161102e9190613a99565b60405180910390a15050505050505050505090565b60008260128190555060035482108061105d575060045482115b1561107e576000600b60046101000a81548160ff0219169083151502179055505b600354821015801561109257506004548211155b801561109d57508282105b156110c5576001600b60046101000a81548160ff021916908315150217905550816010819055505b7fe2a2f6d3b39473e3ddde06c769c9d9cc235403276874bb80ff2f9d1729391940600b60049054906101000a900460ff166040516111039190612cf8565b60405180910390a1600b60049054906101000a900460ff16905092915050565b600f546010546111339190613502565b471015611175576040517f08c379a000000000000000000000000000000000000000000000000000000000815260040161116c90613b2d565b60405180910390fd5b60008054906101000a900473ffffffffffffffffffffffffffffffffffffffff1673ffffffffffffffffffffffffffffffffffffffff166108fc600f546010546111bf9190613502565b9081150290604051600060405180830381858888f193505050501580156111ea573d6000803e3d6000fd5b50565b60007fd3de8fe4049059e1a238ed5eb6a43bea612fa85aebadca074de7b391fd6fc549600c546040516112209190612d99565b60405180910390a190565b60606000604051806060016040528060268152602001613cfa60269139905060006040518060400160405280600481526020017f2e706e67000000000000000000000000000000000000000000000000000000008152509050600082858360405160200161129b93929190613b4d565b6040516020818303038152906040529050809350505050919050565b60125481565b60606000600d42446040516020016112d6929190613565565b6040516020818303038152906040528051906020012060001c6112f991906135c0565b90506000600d4543604051602001611312929190613565565b6040516020818303038152906040528051906020012060001c61133591906135c0565b905060006004424460405160200161134e929190613565565b6040516020818303038152906040528051906020012060001c61137191906135c0565b905060006004454360405160200161138a929190613565565b6040516020818303038152906040528051906020012060001c6113ad91906135c0565b90506000600685815481106113c5576113c46133f4565b5b9060005260206000200180546113da90613620565b80601f016020809104026020016040519081016040528092919081815260200182805461140690613620565b80156114535780601f1061142857610100808354040283529160200191611453565b820191906000526020600020905b81548152906001019060200180831161143657829003601f168201915b505050505090506000600685815481106114705761146f6133f4565b5b90600052602060002001805461148590613620565b80601f01602080910402602001604051908101604052809291908181526020018280546114b190613620565b80156114fe5780601f106114d3576101008083540402835291602001916114fe565b820191906000526020600020905b8154815290600101906020018083116114e157829003601f168201915b50505050509050600961151c6001886115179190613452565b61088d565b908060018154018082558091505060019003906000526020600020016000909190919091505560096115596001876115549190613452565b61088d565b908060018154018082558091505060019003906000526020600020016000909190919091505560016009600081548110611596576115956133f4565b5b90600052602060002001541480156115cd5750600a60096001815481106115c0576115bf6133f4565b5b9060005260206000200154145b806116225750600160096001815481106115ea576115e96133f4565b5b90600052602060002001541480156116215750600a6009600081548110611614576116136133f4565b5b9060005260206000200154145b5b156116ad576015600d819055506001600b60016101000a81548160ff0219169083151502179055506001600e60006101000a81548160ff0219169083151502179055506000600e60016101000a81548160ff0219169083151502179055506001600e60046101000a81548160ff0219169083151502179055506001600f819055506116ab6126cf565b505b6000600585815481106116c3576116c26133f4565b5b9060005260206000200180546116d890613620565b80601f016020809104026020016040519081016040528092919081815260200182805461170490613620565b80156117515780601f1061172657610100808354040283529160200191611751565b820191906000526020600020905b81548152906001019060200180831161173457829003601f168201915b5050505050905060006005858154811061176e5761176d6133f4565b5b90600052602060002001805461178390613620565b80601f01602080910402602001604051908101604052809291908181526020018280546117af90613620565b80156117fc5780601f106117d1576101008083540402835291602001916117fc565b820191906000526020600020905b8154815290600101906020018083116117df57829003601f168201915b50505050509050600061182f858460405160200161181b9291906136be565b60405160208183030381529060405261122b565b9050600061185d85846040516020016118499291906136be565b60405160208183030381529060405261122b565b9050600a82908060018154018082558091505060019003906000526020600020016000909190919091509081611893919061388e565b50600a819080600181540180825580915050600190039060005260206000200160009091909190915090816118c8919061388e565b506118d1610804565b7fd6d0a7dd897167b23beb6a7ca35237073632569263cf60e176469f70ae939816600a6040516119019190613a99565b60405180910390a15050505050505050505090565b60008060046001426119289190613452565b4460405160200161193a929190613565565b6040516020818303038152906040528051906020012060001c61195d91906135c0565b905080915050919050565b60006002548210611993576001600b60036101000a81548160ff0219169083151502179055506119af565b6000600b60036101000a81548160ff0219169083151502179055505b7fd8f0cc0ad1816c0b2e2a2c5e7304d307c87f495a82c92d9853d446abd884ea6b600b60039054906101000a900460ff166040516119ed9190612cf8565b60405180910390a1600b60039054906101000a900460ff169050919050565b600160009054906101000a900473ffffffffffffffffffffffffffffffffffffffff1673ffffffffffffffffffffffffffffffffffffffff163373ffffffffffffffffffffffffffffffffffffffff1614611a9c576040517f08c379a0000000000000000000000000000000000000000000000000000000008152600401611a9390613bca565b60405180910390fd5b80600160006101000a81548173ffffffffffffffffffffffffffffffffffffffff021916908373ffffffffffffffffffffffffffffffffffffffff16021790555050565b60607f219282380dc15795dfa77538b195e28a43b4088da4e95a379dfef0c6d6847d0d6007604051611b129190613cc0565b60405180910390a190565b606060005b6011600d541015611b4957611b3681611fee565b8080611b4190613486565b915050611b22565b6000600e60036101000a81548160ff0219169083151502179055506001600e60046101000a81548160ff0219169083151502179055507f4c645466e5d563874cef3427ae622e2ad662823fcb5ea1fc2a32b3d9bec43a0f600a604051611baf9190613a99565b60405180910390a15090565b600160009054906101000a900473ffffffffffffffffffffffffffffffffffffffff1681565b6060600a805480602002602001604051908101604052809291908181526020016000905b82821015611cb1578382906000526020600020018054611c2490613620565b80601f0160208091040260200160405190810160405280929190818152602001828054611c5090613620565b8015611c9d5780601f10611c7257610100808354040283529160200191611c9d565b820191906000526020600020905b815481529060010190602001808311611c8057829003601f168201915b505050505081526020019060010190611c05565b50505050905090565b60607f8a4ac2ad7712484078085d0b7c0465f2ddc2c7588c4bd163fd589c1b845418dd6009604051611cec9190613cc0565b60405180910390a190565b600b60039054906101000a900460ff1681565b60008054906101000a900473ffffffffffffffffffffffffffffffffffffffff1681565b60115481565b600081604051602001611d479190613ce2565b6040516020818303038152906040528051906020012083604051602001611d6e9190613ce2565b6040516020818303038152906040528051906020012014905092915050565b600060078054905090506000600c8190555060005b81811015611df45760078181548110611dbe57611dbd6133f4565b5b9060005260206000200154600c6000828254611dda9190613452565b925050819055508080611dec90613486565b915050611da2565b5050565b60007f3c30c7c52105d0a03501dcc192724ac4ae94ea3a2c8adba22084e331761d90b8600d54604051611e2b9190612d99565b60405180910390a190565b611e3e61086f565b611e466109d3565b600b60019054906101000a900460ff168015611e6e5750600b60009054906101000a900460ff165b15611ec5576001600b60026101000a81548160ff0219169083151502179055506000600e60006101000a81548160ff0219169083151502179055506000600e60016101000a81548160ff0219169083151502179055505b600b60019054906101000a900460ff168015611ef4575060001515600b60009054906101000a900460ff161515145b15611f4b576001600b60026101000a81548160ff0219169083151502179055506000600e60016101000a81548160ff0219169083151502179055506001600e60006101000a81548160ff0219169083151502179055505b600b60009054906101000a900460ff168015611f7a575060001515600b60019054906101000a900460ff161515145b15611fd1576001600b60026101000a81548160ff0219169083151502179055506001600e60016101000a81548160ff0219169083151502179055506000600e60006101000a81548160ff0219169083151502179055505b565b3460116000828254611fe59190613452565b92505081905550565b60006006611ffb83610982565b8154811061200c5761200b6133f4565b5b90600052602060002001805461202190613620565b80601f016020809104026020016040519081016040528092919081815260200182805461204d90613620565b801561209a5780601f1061206f5761010080835404028352916020019161209a565b820191906000526020600020905b81548152906001019060200180831161207d57829003601f168201915b50505050509050600060056120ae84611916565b815481106120bf576120be6133f4565b5b9060005260206000200180546120d490613620565b80601f016020809104026020016040519081016040528092919081815260200182805461210090613620565b801561214d5780601f106121225761010080835404028352916020019161214d565b820191906000526020600020905b81548152906001019060200180831161213057829003601f168201915b50505050509050600082826040516020016121699291906136be565b604051602081830303815290604052905060006121858261122b565b9050600961219285612a9b565b9080600181540180825580915050600190039060005260206000200160009091909190915055600a819080600181540180825580915050600190039060005260206000200160009091909190915090816121ec919061388e565b506121f5610804565b6015600d54111561223f576001600e60016101000a81548160ff0219169083151502179055506000600e60006101000a81548160ff0219169083151502179055506001600f819055505b5050505050565b6060600060066122566001610982565b81548110612267576122666133f4565b5b90600052602060002001805461227c90613620565b80601f01602080910402602001604051908101604052809291908181526020018280546122a890613620565b80156122f55780601f106122ca576101008083540402835291602001916122f5565b820191906000526020600020905b8154815290600101906020018083116122d857829003601f168201915b505050505090506000600561230a6001611916565b8154811061231b5761231a6133f4565b5b90600052602060002001805461233090613620565b80601f016020809104026020016040519081016040528092919081815260200182805461235c90613620565b80156123a95780601f1061237e576101008083540402835291602001916123a9565b820191906000526020600020905b81548152906001019060200180831161238c57829003601f168201915b5050505050905060006123dc83836040516020016123c89291906136be565b60405160208183030381529060405261122b565b905060006123e984612a9b565b90506007819080600181540180825580915050600190039060005260206000200160009091909190915055600882908060018154018082558091505060019003906000526020600020016000909190919091509081612448919061388e565b507f7d6cae5bd13bcc94802f648594d55fef0f7be0c17fb3325f9fdcdaa9f832f98960086040516124799190613a99565b60405180910390a1612489611d8d565b6015600c5411156124f7576001600e60006101000a81548160ff0219169083151502179055506000600e60016101000a81548160ff0219169083151502179055506001600e60046101000a81548160ff0219169083151502179055506000600f819055506124f56126cf565b505b5050505090565b60606008805480602002602001604051908101604052809291908181526020016000905b828210156125ce57838290600052602060002001805461254190613620565b80601f016020809104026020016040519081016040528092919081815260200182805461256d90613620565b80156125ba5780601f1061258f576101008083540402835291602001916125ba565b820191906000526020600020905b81548152906001019060200180831161259d57829003601f168201915b505050505081526020019060010190612522565b50505050905090565b6000816000806101000a81548173ffffffffffffffffffffffffffffffffffffffff021916908373ffffffffffffffffffffffffffffffffffffffff16021790555060008054906101000a900473ffffffffffffffffffffffffffffffffffffffff1673ffffffffffffffffffffffffffffffffffffffff16316012819055507fc6e2ac2344b72494ae5c6c59901ac6a72b498a598bf788b6503e60dba61f82506012546040516126889190612d99565b60405180910390a160008054906101000a900473ffffffffffffffffffffffffffffffffffffffff1673ffffffffffffffffffffffffffffffffffffffff16319050919050565b6060600760006126df9190612c1a565b600860006126ed9190612c3b565b600960006126fb9190612c1a565b600a60006127099190612c3b565b600c54600d5403612757576000600e60016101000a81548160ff0219169083151502179055506000600e60006101000a81548160ff0219169083151502179055506000600f819055506128d7565b600c54600d5411801561276c57506015600d54105b156127b4576000600e60016101000a81548160ff0219169083151502179055506001600e60006101000a81548160ff0219169083151502179055506001600f819055506128d6565b600c54600d541080156127c957506015600c54105b15612811576001600e60016101000a81548160ff0219169083151502179055506000600e60006101000a81548160ff0219169083151502179055506001600f819055506128d5565b600c54600d5411801561282657506015600d54145b1561286e576000600e60016101000a81548160ff0219169083151502179055506001600e60006101000a81548160ff0219169083151502179055506001600f819055506128d4565b600c54600d5410801561288357506015600c54145b156128d3576001600e60016101000a81548160ff0219169083151502179055506000600e60006101000a81548160ff021916908315150217905550600260036128cc9190613651565b600f819055505b5b5b5b5b600b60029054906101000a900460ff168015612906575060001515600e60019054906101000a900460ff161515145b8015612925575060001515600e60009054906101000a900460ff161515145b15612967576040518060400160405280600681526020017f50555348212100000000000000000000000000000000000000000000000000008152509050612a98565b600b60029054906101000a900460ff168015612996575060011515600e60019054906101000a900460ff161515145b80156129b5575060001515600e60009054906101000a900460ff161515145b156129ff576129c2611123565b6040518060400160405280600681526020017f57494e21212100000000000000000000000000000000000000000000000000008152509050612a98565b600b60029054906101000a900460ff168015612a2e575060001515600e60019054906101000a900460ff161515145b8015612a4d575060011515600e60009054906101000a900460ff161515145b15612a9757612a5a611fd3565b6040518060400160405280600781526020017f4c4f5345212121000000000000000000000000000000000000000000000000008152509050612a98565b5b90565b6000612adc826040518060400160405280600181526020017f4100000000000000000000000000000000000000000000000000000000000000815250611d34565b15612aea5760019050612c15565b612b29826040518060400160405280600181526020017f3000000000000000000000000000000000000000000000000000000000000000815250611d34565b80612b6f5750612b6e826040518060400160405280600181526020017f4a00000000000000000000000000000000000000000000000000000000000000815250611d34565b5b80612bb55750612bb4826040518060400160405280600181526020017f5100000000000000000000000000000000000000000000000000000000000000815250611d34565b5b80612bfb5750612bfa826040518060400160405280600181526020017f4b00000000000000000000000000000000000000000000000000000000000000815250611d34565b5b15612c0957600a9050612c15565b612c12826108a9565b90505b919050565b5080546000825590600052602060002090810190612c389190612c5c565b50565b5080546000825590600052602060002090810190612c599190612c79565b50565b5b80821115612c75576000816000905550600101612c5d565b5090565b5b80821115612c995760008181612c909190612c9d565b50600101612c7a565b5090565b508054612ca990613620565b6000825580601f10612cbb5750612cda565b601f016020900490600052602060002090810190612cd99190612c5c565b5b50565b60008115159050919050565b612cf281612cdd565b82525050565b6000602082019050612d0d6000830184612ce9565b92915050565b6000604051905090565b600080fd5b600080fd5b6000819050919050565b612d3a81612d27565b8114612d4557600080fd5b50565b600081359050612d5781612d31565b92915050565b600060208284031215612d7357612d72612d1d565b5b6000612d8184828501612d48565b91505092915050565b612d9381612d27565b82525050565b6000602082019050612dae6000830184612d8a565b92915050565b600080fd5b600080fd5b6000601f19601f8301169050919050565b7f4e487b7100000000000000000000000000000000000000000000000000000000600052604160045260246000fd5b612e0782612dbe565b810181811067ffffffffffffffff82111715612e2657612e25612dcf565b5b80604052505050565b6000612e39612d13565b9050612e458282612dfe565b919050565b600067ffffffffffffffff821115612e6557612e64612dcf565b5b612e6e82612dbe565b9050602081019050919050565b82818337600083830152505050565b6000612e9d612e9884612e4a565b612e2f565b905082815260208101848484011115612eb957612eb8612db9565b5b612ec4848285612e7b565b509392505050565b600082601f830112612ee157612ee0612db4565b5b8135612ef1848260208601612e8a565b91505092915050565b600060208284031215612f1057612f0f612d1d565b5b600082013567ffffffffffffffff811115612f2e57612f2d612d22565b5b612f3a84828501612ecc565b91505092915050565b600081519050919050565b600082825260208201905092915050565b6000819050602082019050919050565b600081519050919050565b600082825260208201905092915050565b60005b83811015612fa9578082015181840152602081019050612f8e565b60008484015250505050565b6000612fc082612f6f565b612fca8185612f7a565b9350612fda818560208601612f8b565b612fe381612dbe565b840191505092915050565b6000612ffa8383612fb5565b905092915050565b6000602082019050919050565b600061301a82612f43565b6130248185612f4e565b93508360208202850161303685612f5f565b8060005b8581101561307257848403895281516130538582612fee565b945061305e83613002565b925060208a0199505060018101905061303a565b50829750879550505050505092915050565b6000602082019050818103600083015261309e818461300f565b905092915050565b600080604083850312156130bd576130bc612d1d565b5b60006130cb85828601612d48565b92505060206130dc85828601612d48565b9150509250929050565b600082825260208201905092915050565b600061310282612f6f565b61310c81856130e6565b935061311c818560208601612f8b565b61312581612dbe565b840191505092915050565b6000602082019050818103600083015261314a81846130f7565b905092915050565b600073ffffffffffffffffffffffffffffffffffffffff82169050919050565b600061317d82613152565b9050919050565b61318d81613172565b811461319857600080fd5b50565b6000813590506131aa81613184565b92915050565b6000602082840312156131c6576131c5612d1d565b5b60006131d48482850161319b565b91505092915050565b600081519050919050565b600082825260208201905092915050565b6000819050602082019050919050565b61321281612d27565b82525050565b60006132248383613209565b60208301905092915050565b6000602082019050919050565b6000613248826131dd565b61325281856131e8565b935061325d836131f9565b8060005b8381101561328e5781516132758882613218565b975061328083613230565b925050600181019050613261565b5085935050505092915050565b600060208201905081810360008301526132b5818461323d565b905092915050565b6132c681613172565b82525050565b60006020820190506132e160008301846132bd565b92915050565b60006132f282613152565b9050919050565b613302816132e7565b82525050565b600060208201905061331d60008301846132f9565b92915050565b6000806040838503121561333a57613339612d1d565b5b600083013567ffffffffffffffff81111561335857613357612d22565b5b61336485828601612ecc565b925050602083013567ffffffffffffffff81111561338557613384612d22565b5b61339185828601612ecc565b9150509250929050565b6133a4816132e7565b81146133af57600080fd5b50565b6000813590506133c18161339b565b92915050565b6000602082840312156133dd576133dc612d1d565b5b60006133eb848285016133b2565b91505092915050565b7f4e487b7100000000000000000000000000000000000000000000000000000000600052603260045260246000fd5b7f4e487b7100000000000000000000000000000000000000000000000000000000600052601160045260246000fd5b600061345d82612d27565b915061346883612d27565b92508282019050808211156134805761347f613423565b5b92915050565b600061349182612d27565b91507fffffffffffffffffffffffffffffffffffffffffffffffffffffffffffffffff82036134c3576134c2613423565b5b600182019050919050565b60006134d982612d27565b91506134e483612d27565b92508282039050818111156134fc576134fb613423565b5b92915050565b600061350d82612d27565b915061351883612d27565b925082820261352681612d27565b9150828204841483151761353d5761353c613423565b5b5092915050565b6000819050919050565b61355f61355a82612d27565b613544565b82525050565b6000613571828561354e565b602082019150613581828461354e565b6020820191508190509392505050565b7f4e487b7100000000000000000000000000000000000000000000000000000000600052601260045260246000fd5b60006135cb82612d27565b91506135d683612d27565b9250826135e6576135e5613591565b5b828206905092915050565b7f4e487b7100000000000000000000000000000000000000000000000000000000600052602260045260246000fd5b6000600282049050600182168061363857607f821691505b60208210810361364b5761364a6135f1565b5b50919050565b600061365c82612d27565b915061366783612d27565b92508261367757613676613591565b5b828204905092915050565b600081905092915050565b600061369882612f6f565b6136a28185613682565b93506136b2818560208601612f8b565b80840191505092915050565b60006136ca828561368d565b91506136d6828461368d565b91508190509392505050565b60008190508160005260206000209050919050565b60006020601f8301049050919050565b600082821b905092915050565b6000600883026137447fffffffffffffffffffffffffffffffffffffffffffffffffffffffffffffffff82613707565b61374e8683613707565b95508019841693508086168417925050509392505050565b6000819050919050565b600061378b61378661378184612d27565b613766565b612d27565b9050919050565b6000819050919050565b6137a583613770565b6137b96137b182613792565b848454613714565b825550505050565b600090565b6137ce6137c1565b6137d981848461379c565b505050565b5b818110156137fd576137f26000826137c6565b6001810190506137df565b5050565b601f82111561384257613813816136e2565b61381c846136f7565b8101602085101561382b578190505b61383f613837856136f7565b8301826137de565b50505b505050565b600082821c905092915050565b600061386560001984600802613847565b1980831691505092915050565b600061387e8383613854565b9150826002028217905092915050565b61389782612f6f565b67ffffffffffffffff8111156138b0576138af612dcf565b5b6138ba8254613620565b6138c5828285613801565b600060209050601f8311600181146138f857600084156138e6578287015190505b6138f08582613872565b865550613958565b601f198416613906866136e2565b60005b8281101561392e57848901518255600182019150602085019450602081019050613909565b8683101561394b5784890151613947601f891682613854565b8355505b6001600288020188555050505b505050505050565b600081549050919050565b60008190508160005260206000209050919050565b6000815461398d81613620565b6139978186612f7a565b945060018216600081146139b257600181146139c8576139fb565b60ff1983168652811515602002860193506139fb565b6139d1856136e2565b60005b838110156139f3578154818901526001820191506020810190506139d4565b808801955050505b50505092915050565b6000613a108383613980565b905092915050565b6000600182019050919050565b6000613a3082613960565b613a3a8185612f4e565b935083602082028501613a4c8561396b565b8060005b85811015613a8757848403895281613a688582613a04565b9450613a7383613a18565b925060208a01995050600181019050613a50565b50829750879550505050505092915050565b60006020820190508181036000830152613ab38184613a25565b905092915050565b7f496e73756666696369656e742062616c616e636520696e2074686520636f6e7460008201527f7261637400000000000000000000000000000000000000000000000000000000602082015250565b6000613b176024836130e6565b9150613b2282613abb565b604082019050919050565b60006020820190508181036000830152613b4681613b0a565b9050919050565b6000613b59828661368d565b9150613b65828561368d565b9150613b71828461368d565b9150819050949350505050565b7f4f6e6c7920746865206f776e65722063616e20646f2074686174210000000000600082015250565b6000613bb4601b836130e6565b9150613bbf82613b7e565b602082019050919050565b60006020820190508181036000830152613be381613ba7565b9050919050565b600081549050919050565b60008190508160005260206000209050919050565b60008160001c9050919050565b6000819050919050565b6000613c34613c2f83613c0a565b613c17565b9050919050565b6000613c478254613c21565b9050919050565b6000600182019050919050565b6000613c6682613bea565b613c7081856131e8565b9350613c7b83613bf5565b8060005b83811015613cb357613c9082613c3b565b613c9a8882613218565b9750613ca583613c4e565b925050600181019050613c7f565b5085935050505092915050565b60006020820190508181036000830152613cda8184613c5b565b905092915050565b6000613cee828461368d565b91508190509291505056fe68747470733a2f2f6465636b6f6663617264736170692e636f6d2f7374617469632f696d672fa26469706673582212204527ef17054cdb47337b3c812670cb355fc53cdaa38e12087b954bdfa211de2364736f6c63430008110033",
  "immutableReferences": {},
  "source": "// SPDX-License-Identifier: MIT\npragma solidity >=0.4.22 <0.9.0;\n\n\ncontract Blackjack{\n   address payable public playerAddress;\n    //* Keep the owner address\n    address public owner;\n    //* keep the minimum balance to play\n    uint private minBalance = 10000000000000000000;\n\n    //* this is the minimum sum to play\n    uint private minimum = 10000000000000000;\n    //* this is the maximum sum to play\n    uint private maximum = 1000000000000000000;\n    //* this is the suits (each of the value represent a suit)\n    string[] suits = [\"H\", \"S\", \"D\", \"C\"];\n    //* this is the card values\n    // prettier-ignore\n    string[] ranks = [\"A\", \"2\", \"3\", \"4\", \"5\", \"6\", \"7\", \"8\", \"9\", \"0\", \"J\", \"Q\", \"K\"];\n\n    uint[] playerCardValues;\n    string[] playerCardsUrls;\n    uint[] dealercardValues;\n    string[] dealerCardsUrls;\n\n    bool isBlackForPlayer = false;\n    bool isBlackForDealer = false;\n\n    bool finishGame = false;\n    //* this is the variable that is updated when the minimum balance function runs\n    bool public balanceChecker;\n  \n    //* this is the variable that check the number in the input is more than the minimum to play and less than the maximum to play\n    bool public inputChecked = true;\n\n    uint playerCounter = 0;\n    uint dealerCounter = 0;\n\n    bool loosedPlayer = false;\n    bool loosedDealer = false;\n\n    bool canTakeNewCardPlayer = true;\n    bool canTakeNewCardDealer = false;\n\n    bool gameFinished = false;\n\n    uint payment = 1;\n    uint paymentSum = 0 ; \n    uint public balance;\n\n    //* This constructor get the smart contract owner address\n    constructor (){\n        owner = msg.sender;\n        balance = 0;\n        // We want to call this function when the player want to play a new game\n        //   deckcard = createDeck();\n    }\n    \n\n    function startGame() external {\n        givetwoCardsToPlayer();\n        givetwoCardsToDealer();\n        if(isBlackForDealer && isBlackForPlayer){\n            // NEED TO WORK ON THE END OF THE GAME\n            finishGame = true;\n            loosedPlayer = false;\n            loosedDealer = false;\n        }    \n        if(isBlackForDealer && isBlackForPlayer == false ){ \n            finishGame = true;\n            loosedDealer = false;\n            loosedPlayer = true;\n        }\n        if(isBlackForPlayer && isBlackForDealer == false){ \n            finishGame = true;\n            loosedDealer = true;\n            loosedPlayer = false;        \n        }     \n    }\n\n    //* The modifier check if the user is the smart contract owner\n    modifier onlyOwner(){\n        require(msg.sender == owner,\"Only the owner can do that!\");\n        _;\n    }\n\n    //* The function to transfer smart contract ownership\n    function transferOwnerShip(address newOwner) external onlyOwner{\n        owner = newOwner;\n    }\n\n    // We need to check why it's not rendering the balance value\n    uint public playerBalance = 0;\n    event initBalance(uint playerBalance);\n    //* This function gets the player address and returns the player balance\n    function getBalance(address payable addrs) public  returns(uint){\n        playerAddress = addrs;\n        playerBalance = playerAddress.balance;\n        emit initBalance(playerBalance);        \n        return playerAddress.balance;\n\n    }   \n\n    event initchecker(bool balanceChecker);\n    //* This function get the player address and check if he has anough balance in the wallet and returns true or false to the react code\n    function checkBalance(uint bal) public returns(bool){\n        if(bal >= minBalance){\n            balanceChecker = true;\n        }\n        else{\n            balanceChecker = false;\n        }\n        emit initchecker(balanceChecker);\n        return balanceChecker;\n    }\n\n    event inpuchecker(bool inputChecked);\n    //* The function gets from the frontend sum entered to play and verify if it's more than the minimum and less than the maximum\n    function checkInput(uint bal, uint input) public returns (bool){\n        playerBalance = bal;\n        if((input < minimum || input > maximum)){\n            inputChecked = false;\n        } \n        if(input >= minimum && input <= maximum && input < bal)\n        {\n            inputChecked = true;\n            paymentSum = input;\n        }\n        emit inpuchecker(inputChecked);\n        return inputChecked;\n    }\n\n    //* Checks if 2 strings are equals (helper function)\n    function compareStrings(string memory a, string memory b) public pure returns (bool) {\n    return (keccak256(abi.encodePacked((a))) == keccak256(abi.encodePacked((b))));\n    }\n\n    //* gets a string and return a interger (helper function)\n    function stringToUint(string memory s) public pure returns (uint) {\n        bytes memory b = bytes(s);\n        uint result = 0;\n        for (uint256 i = 0; i < b.length; i++) {\n            uint256 c = uint256(uint8(b[i]));\n            if (c >= 48 && c <= 57) {\n                result = result * 10 + (c - 48);\n            }\n        }\n        return result;\n    }\n\n    // The function creates URL for the ui\n    function createUrlForUI(string memory card) public pure returns (string memory) {\n        string memory cardLink = \"https://deckofcardsapi.com/static/img/\";\n        string memory cardType = \".png\";\n        string memory cardLinkNew = string.concat(cardLink,card,cardType);\n        return cardLinkNew;\n    }\n\n    // This function returns the cards of the player\n    event returnPlayerCardvale(uint[]);\n    function showPlayerCardvalue() public returns(uint[] memory){\n        emit returnPlayerCardvale(playerCardValues);\n        // return playerCardValues;\n    }\n    function showPlayerCardUrls() public view returns(string[] memory){\n        return playerCardsUrls;\n    }\n    // This function returns the cards of the dealer\n    \n    event returnDealerCardvale(uint[]);\n    function showDealerCardvalue() public returns(uint[] memory){\n        emit returnDealerCardvale( dealercardValues);\n        // return dealercardValues;\n    }\n    function showDealerCardUrls() public view returns(string[] memory){\n        return dealerCardsUrls;\n    }\n    // It starts the game and give to the player 2 cards\n    function givetwoCardsToPlayer() public {\n        generateTwoRandomNumbersToPlayer();\n    }\n    // It starts the game and give to the dealer 2 cards\n    function givetwoCardsToDealer() public {\n        generateTwoRandomNumbersToDealer();\n    }\n    event returnDealerCounter(uint);\n    function showDealerCounter() public returns(uint ){\n        emit returnDealerCounter(dealerCounter);\n        // return dealerCounter;\n    }\n    event returnPlayerCounter(uint);\n    function showPlayerCounter() public returns(uint ){\n        emit returnPlayerCounter(playerCounter);\n        // return playerCounter;\n    }\n\n    //* The function sums the cards values for dealer and player\n    function sumOfCardsPlayer() public{\n        uint lenOfPlayerCards = playerCardValues.length;\n        // uint lenOfDealerCards = dealercardValues.length;\n\n        playerCounter = 0;\n        // uint playerCounter = 0;\n        for(uint i = 0; i < lenOfPlayerCards; i++){\n            playerCounter += playerCardValues[i];\n        }\n        \n        // dealerCounter = 0;\n        // uint dealerCounter = 0;\n        // for(uint i = 0; i < lenOfDealerCards; i++){\n        //     dealerCounter += dealercardValues[i];\n        // }\n    } \n    function sumOfCardsDealer() public{\n        uint lenOfDealerCards = dealercardValues.length;\n        dealerCounter = 0;\n        for(uint j = 0; j < lenOfDealerCards; j++){\n            dealerCounter += dealercardValues[j];\n        }\n    }\n\n    // The function convert value that are more than 10 to be 10\n    function checkValue(uint num) public pure returns(uint){\n        if(num >= 9)return 10;\n        return num;\n        \n    }\n\n    event returnPlayerUrls(string[]);\n    // The function generate 2 random cards to the player\n    function generateTwoRandomNumbersToPlayer() public returns( string[] memory) {\n        uint randomNumber1 = uint(keccak256(abi.encodePacked(block.timestamp, block.difficulty))) % 13;\n        uint randomNumber2 = uint(keccak256(abi.encodePacked(block.gaslimit, block.number))) % 13;\n        \n        uint randomSuit1 = uint(keccak256(abi.encodePacked(block.timestamp, block.difficulty))) % 4;\n        uint randomSuit2 = uint(keccak256(abi.encodePacked(block.gaslimit, block.number))) % 4;\n\n        string memory rankNumber1 = ranks[randomNumber1];\n        string memory rankNumber2 = ranks[randomNumber2];\n        playerCardValues.push(checkValue(randomNumber1+1));\n        playerCardValues.push(checkValue(randomNumber2+1));\n        if((playerCardValues[0] == 1 && playerCardValues[1]==10) ||\n            (playerCardValues[1] == 1 && playerCardValues[0]==10)){\n                playerCounter = 21;\n                isBlackForPlayer = true;\n                loosedPlayer = false;\n                loosedDealer = true;\n                gameFinished = true;\n                payment = 3/uint256(2);\n                finishTheGame();\n        }\n        string memory suitNumber1 = suits[randomSuit1];\n        string memory suitNumber2 = suits[randomSuit2];\n\n        string memory card1 = createUrlForUI(string.concat(rankNumber1,suitNumber1));\n        string memory card2 = createUrlForUI(string.concat(rankNumber2,suitNumber2));\n\n        playerCardsUrls.push(card1);\n        playerCardsUrls.push(card2);\n\n        sumOfCardsPlayer();\n        emit returnPlayerUrls(playerCardsUrls);\n        // return playerCardsUrls;\n        \n    }\n\n    event returnDealerUrls(string[]);\n\n    // The function generate 2 random cards to the dealer\n    function generateTwoRandomNumbersToDealer() public returns( string[] memory) {\n        uint randomNumber11 = uint(keccak256(abi.encodePacked(block.timestamp, block.difficulty))) % 13;\n        uint randomNumber22 = uint(keccak256(abi.encodePacked(block.gaslimit, block.number))) % 13;\n\n        uint randomSuit11 = uint(keccak256(abi.encodePacked(block.timestamp, block.difficulty))) % 4;\n        uint randomSuit22 = uint(keccak256(abi.encodePacked(block.gaslimit, block.number))) % 4;\n\n        string memory rankNumber11 = ranks[randomNumber11];\n        string memory rankNumber22 = ranks[randomNumber22];\n        dealercardValues.push(checkValue(randomNumber11+1));\n        dealercardValues.push(checkValue(randomNumber22+1));\n        if((dealercardValues[0] == 1 && dealercardValues[1]==10) ||\n            (dealercardValues[1] == 1 && dealercardValues[0]==10)){\n                dealerCounter = 21;\n                isBlackForDealer = true;\n                loosedPlayer = true;\n                loosedDealer = false;\n                gameFinished = true;\n                payment = 1;\n                finishTheGame();\n\n        }\n        string memory suitNumber11 = suits[randomSuit11];\n        string memory suitNumber22 = suits[randomSuit22];\n\n        string memory card1 = createUrlForUI(string.concat(rankNumber11,suitNumber11));\n        string memory card2 = createUrlForUI(string.concat(rankNumber22,suitNumber22));\n\n        dealerCardsUrls.push(card1);\n        dealerCardsUrls.push(card2);\n\n        sumOfCardsDealer();\n        emit returnDealerUrls( dealerCardsUrls);\n    }\n   \n   event showPlayerCardPics(string[]);\n    //* The function add to the player a new random card\n    function getRandomCardValueToPlayer() public returns(string[] memory) {\n        string memory rankNumber = ranks[getRandomRank(1)];\n        string memory suitNumber = suits[getRandomSuit(1)];\n        string memory card = createUrlForUI(string.concat(rankNumber,suitNumber));\n        uint  cardVal = getRankNum(rankNumber);\n        playerCardValues.push(cardVal);\n        playerCardsUrls.push(card);\n        emit showPlayerCardPics(playerCardsUrls);\n        sumOfCardsPlayer();\n        if(playerCounter > 21){\n            loosedPlayer = true;\n            loosedDealer = false;\n            gameFinished = true;\n            payment = 0;\n            finishTheGame();\n            \n        }\n    }\n\n    event showDealerCardPics(string[]);\n    //* The function adds to the dealer cards while he arrives to 17 or more\n    function dealerCardDistributer() public returns(string[] memory){\n        uint count = 0; \n        while(dealerCounter < 17){\n            getRandomCardValueToDealer(count);\n            count ++;            \n        }\n        canTakeNewCardDealer = false;\n        gameFinished = true;\n        emit showDealerCardPics(dealerCardsUrls);\n        // finishTheGame();        \n    }\n\n    //* The function add to the dealer a new random card\n    function getRandomCardValueToDealer(uint val) public {\n        \n        string memory rankNumber = ranks[getRandomRank(val)];\n        string memory suitNumber = suits[getRandomSuit(val)];\n        string memory card = string.concat(rankNumber,suitNumber);\n        string memory card1 = createUrlForUI(card);\n        dealercardValues.push(getRankNum(rankNumber));\n        dealerCardsUrls.push(card1);\n        sumOfCardsDealer();\n         if(dealerCounter > 21){\n            loosedDealer = true;\n            loosedPlayer = false;\n            payment = 1;\n        }\n    }\n\n    //* The function gets a random number from 0 to 12\n    function getRandomRank(uint val) public view returns (uint256) {\n        uint256 _randomNumber = uint256(keccak256(abi.encodePacked(block.timestamp+val, block.difficulty))) % 13; // Generate random number between 0 to 12\n        return (_randomNumber); \n    }\n\n    //* The function get a random number from 0 to 3\n    function getRandomSuit(uint val) public view returns (uint256) {\n        uint256 _randomNumber = uint256(keccak256(abi.encodePacked(block.timestamp+1, block.difficulty))) % 4; // Generate random number between 0 to 12\n        return (_randomNumber); \n    }\n\n\n\n    // The function gets the rank (string - first value) of a certain card in the deck and returns the number of card\n    function getRankNum(string memory rank) internal pure returns (uint){\n        if(compareStrings(rank,\"A\")){\n            return 1;\n        }\n        if( compareStrings(rank,\"0\") || compareStrings(rank,\"J\") || compareStrings(rank,\"Q\") || compareStrings(rank, \"K\" )){\n            return 10;\n        }\n        else{\n            return stringToUint(rank);\n        }\n    }\n\n    function finishGiveCard() external{\n        canTakeNewCardPlayer = false;\n        canTakeNewCardDealer = true;\n        dealerCardDistributer();\n    }\n    \n    // The function returns if the player won or lost\n    function finishTheGame() public returns(string memory){\n       delete playerCardValues;\n    delete playerCardsUrls;\n   delete dealercardValues;\n  delete dealerCardsUrls;\n        if(dealerCounter == playerCounter){\n            loosedDealer = false;\n            loosedPlayer = false;\n            payment = 0; \n        }\n        else if((dealerCounter > playerCounter) && dealerCounter < 21 ){\n            loosedDealer = false;\n            loosedPlayer = true;\n            payment = 1;\n        }else if((dealerCounter < playerCounter) && playerCounter < 21 ){\n            loosedDealer = true;\n            loosedPlayer = false;\n            payment = 1;\n        }\n         else if((dealerCounter > playerCounter) && dealerCounter == 21 ){\n            loosedDealer = false;\n            loosedPlayer = true;\n            payment = 1;\n        }else if((dealerCounter < playerCounter) && playerCounter == 21 ){\n            loosedDealer = true;\n            loosedPlayer = false;\n            payment = 3/uint256(2);\n        }\n\n        if(finishGame && loosedDealer == false && loosedPlayer == false){\n            // don't do anything\n            return \"PUSH!!\";\n        }\n        else if(finishGame && loosedDealer == true && loosedPlayer == false){\n            // The dealer payes to the player\n            paymentToPlayer();\n            return \"WIN!!!\";\n        }\n        else if(finishGame && loosedDealer == false && loosedPlayer == true){\n            // The player payes to the dealer\n            contribute();\n            return \"LOSE!!!\";\n        }\n      \n    }\n    function paymentToPlayer() public payable{\n        require(address(this).balance >= paymentSum*payment, \"Insufficient balance in the contract\");\n        playerAddress.transfer(paymentSum * payment);\n    }\n\n    function contribute() public payable{\n        // msg.value is the value of Ether sent in a transaction\n        balance += msg.value;\n    }\n}\n\n    // mapping(address => uint256) public balances;\n\n    // function deposit() public payable {\n    //     balances[msg.sender] += msg.value;\n    // }\n\n    // function collect() public {\n    //     uint256 amount = balances[msg.sender];\n    //     require(amount > 0, \"No balance to withdraw\");\n\n    //     balances[msg.sender] = 0;\n    //     payable(address(this)).transfer(amount);\n    // }\n\n\n    // function paymentToDealer() public payable{\n    //     require(address(this).balance >= paymentSum*payment, \"Insufficient balance in the contract\");\n    //     playerAddress.transfer(paymentSum * payment);\n    // }\n// }",
  "sourcePath": "/Users/gabrielnakache/Desktop/Solidity Project/js1-app-code/contracts/Blackjack.sol",
  "compiler": {
    "name": "solc",
    "version": "0.8.17+commit.8df45f5f.Emscripten.clang"
  },
  "schemaVersion": "3.4.11",
  "updatedAt": "2023-04-13T10:08:11.438Z",
  "networkType": "ethereum",
  "devdoc": {
    "kind": "dev",
    "methods": {},
    "version": 1
  },
  "userdoc": {
    "kind": "user",
    "methods": {},
    "version": 1
  }
}